{"abi":[{"type":"constructor","inputs":[{"name":"_vaultAddress","type":"address","internalType":"address"},{"name":"_charmVault","type":"address","internalType":"address"},{"name":"_wlfi","type":"address","internalType":"address"},{"name":"_usd1","type":"address","internalType":"address"},{"name":"_owner","type":"address","internalType":"address"}],"stateMutability":"nonpayable"},{"type":"function","name":"EAGLE_VAULT","inputs":[],"outputs":[{"name":"","type":"address","internalType":"address"}],"stateMutability":"view"},{"type":"function","name":"USD1","inputs":[],"outputs":[{"name":"","type":"address","internalType":"contract IERC20"}],"stateMutability":"view"},{"type":"function","name":"WLFI","inputs":[],"outputs":[{"name":"","type":"address","internalType":"contract IERC20"}],"stateMutability":"view"},{"type":"function","name":"active","inputs":[],"outputs":[{"name":"","type":"bool","internalType":"bool"}],"stateMutability":"view"},{"type":"function","name":"charmVault","inputs":[],"outputs":[{"name":"","type":"address","internalType":"contract ICharmVault"}],"stateMutability":"view"},{"type":"function","name":"deposit","inputs":[{"name":"wlfiAmount","type":"uint256","internalType":"uint256"},{"name":"usd1Amount","type":"uint256","internalType":"uint256"}],"outputs":[{"name":"shares","type":"uint256","internalType":"uint256"}],"stateMutability":"nonpayable"},{"type":"function","name":"getShareBalance","inputs":[],"outputs":[{"name":"","type":"uint256","internalType":"uint256"}],"stateMutability":"view"},{"type":"function","name":"getTotalAmounts","inputs":[],"outputs":[{"name":"usd1Amount","type":"uint256","internalType":"uint256"},{"name":"wlfiAmount","type":"uint256","internalType":"uint256"}],"stateMutability":"view"},{"type":"function","name":"initializeApprovals","inputs":[],"outputs":[],"stateMutability":"nonpayable"},{"type":"function","name":"isInitialized","inputs":[],"outputs":[{"name":"","type":"bool","internalType":"bool"}],"stateMutability":"view"},{"type":"function","name":"lastRebalance","inputs":[],"outputs":[{"name":"","type":"uint256","internalType":"uint256"}],"stateMutability":"view"},{"type":"function","name":"maxSlippage","inputs":[],"outputs":[{"name":"","type":"uint256","internalType":"uint256"}],"stateMutability":"view"},{"type":"function","name":"owner","inputs":[],"outputs":[{"name":"","type":"address","internalType":"address"}],"stateMutability":"view"},{"type":"function","name":"pause","inputs":[],"outputs":[],"stateMutability":"nonpayable"},{"type":"function","name":"rebalance","inputs":[],"outputs":[],"stateMutability":"nonpayable"},{"type":"function","name":"renounceOwnership","inputs":[],"outputs":[],"stateMutability":"nonpayable"},{"type":"function","name":"rescueIdleTokens","inputs":[],"outputs":[],"stateMutability":"nonpayable"},{"type":"function","name":"rescueToken","inputs":[{"name":"token","type":"address","internalType":"address"},{"name":"amount","type":"uint256","internalType":"uint256"},{"name":"to","type":"address","internalType":"address"}],"outputs":[],"stateMutability":"nonpayable"},{"type":"function","name":"resume","inputs":[],"outputs":[],"stateMutability":"nonpayable"},{"type":"function","name":"setCharmVault","inputs":[{"name":"_charmVault","type":"address","internalType":"address"}],"outputs":[],"stateMutability":"nonpayable"},{"type":"function","name":"setTokenApproval","inputs":[{"name":"token","type":"address","internalType":"address"},{"name":"spender","type":"address","internalType":"address"},{"name":"amount","type":"uint256","internalType":"uint256"}],"outputs":[],"stateMutability":"nonpayable"},{"type":"function","name":"transferOwnership","inputs":[{"name":"newOwner","type":"address","internalType":"address"}],"outputs":[],"stateMutability":"nonpayable"},{"type":"function","name":"updateParameters","inputs":[{"name":"_maxSlippage","type":"uint256","internalType":"uint256"}],"outputs":[],"stateMutability":"nonpayable"},{"type":"function","name":"withdraw","inputs":[{"name":"value","type":"uint256","internalType":"uint256"}],"outputs":[{"name":"usd1Amount","type":"uint256","internalType":"uint256"},{"name":"wlfiAmount","type":"uint256","internalType":"uint256"}],"stateMutability":"nonpayable"},{"type":"event","name":"CharmVaultSet","inputs":[{"name":"charmVault","type":"address","indexed":true,"internalType":"address"}],"anonymous":false},{"type":"event","name":"OwnershipTransferred","inputs":[{"name":"previousOwner","type":"address","indexed":true,"internalType":"address"},{"name":"newOwner","type":"address","indexed":true,"internalType":"address"}],"anonymous":false},{"type":"event","name":"StrategyDeposit","inputs":[{"name":"wlfiAmount","type":"uint256","indexed":false,"internalType":"uint256"},{"name":"usd1Amount","type":"uint256","indexed":false,"internalType":"uint256"},{"name":"shares","type":"uint256","indexed":false,"internalType":"uint256"}],"anonymous":false},{"type":"event","name":"StrategyRebalanced","inputs":[{"name":"newTotal0","type":"uint256","indexed":false,"internalType":"uint256"},{"name":"newTotal1","type":"uint256","indexed":false,"internalType":"uint256"}],"anonymous":false},{"type":"event","name":"StrategyWithdraw","inputs":[{"name":"shares","type":"uint256","indexed":false,"internalType":"uint256"},{"name":"wlfiAmount","type":"uint256","indexed":false,"internalType":"uint256"},{"name":"usd1Amount","type":"uint256","indexed":false,"internalType":"uint256"}],"anonymous":false},{"type":"event","name":"UnusedTokensReturned","inputs":[{"name":"usd1Amount","type":"uint256","indexed":false,"internalType":"uint256"},{"name":"wlfiAmount","type":"uint256","indexed":false,"internalType":"uint256"}],"anonymous":false},{"type":"error","name":"NotInitialized","inputs":[]},{"type":"error","name":"OnlyVault","inputs":[]},{"type":"error","name":"OwnableInvalidOwner","inputs":[{"name":"owner","type":"address","internalType":"address"}]},{"type":"error","name":"OwnableUnauthorizedAccount","inputs":[{"name":"account","type":"address","internalType":"address"}]},{"type":"error","name":"ReentrancyGuardReentrantCall","inputs":[]},{"type":"error","name":"SafeERC20FailedOperation","inputs":[{"name":"token","type":"address","internalType":"address"}]},{"type":"error","name":"StrategyPaused","inputs":[]},{"type":"error","name":"ZeroAddress","inputs":[]}],"bytecode":{"object":"0x60e06040526101f46003553480156200001757600080fd5b5060405162001c4438038062001c448339810160408190526200003a91620001ba565b6001600055806001600160a01b0381166200006f57604051631e4fbdf760e01b81526000600482015260240160405180910390fd5b6200007a816200014b565b506001600160a01b03851615806200009957506001600160a01b038316155b80620000ac57506001600160a01b038216155b15620000cb5760405163d92e233d60e01b815260040160405180910390fd5b6001600160a01b0380861660805283811660c05282811660a0528416156200013b57600280546001600160a81b0319166001600160a01b038616908117600160a01b179091556040517f5ed0587a2d4eba645c1cb06b4918a10e8bc79013f1cf3b66394ddf27eba2f5d390600090a25b505042600455506200022a915050565b600180546001600160a01b038381166001600160a01b0319831681179093556040519116919082907f8be0079c531659141344cd1fd0a4f28419497f9722a3daafe3b4186f6b6457e090600090a35050565b80516001600160a01b0381168114620001b557600080fd5b919050565b600080600080600060a08688031215620001d357600080fd5b620001de866200019d565b9450620001ee602087016200019d565b9350620001fe604087016200019d565b92506200020e606087016200019d565b91506200021e608087016200019d565b90509295509295909350565b60805160a05160c05161193b62000309600039600081816102510152818161045601528181610c5701528181610d9901528181610ff5015281816110cf0152818161126c01526113820152600081816102120152818161049201528181610d1501528181610e2f01528181610f5f015281816110750152818161130201526113dc0152600081816102aa015281816104cd015281816106d20152818161083701528181610b6c01528181610c2201528181610ce001528181611097015281816110f101528181611216015281816113a401526113fe015261193b6000f3fe608060405234801561001057600080fd5b50600436106101585760003560e01c80637d7c2a1c116100c3578063c4a7761e1161007c578063c4a7761e146102df578063e2bbb158146102e7578063e6ff0a2f146102fa578063f2fde38b1461030d578063f88163a314610320578063f8a67a621461032857600080fd5b80637d7c2a1c1461027b5780638456cb59146102835780638c04166f1461028b5780638da5cb5b14610294578063a0b660b5146102a5578063bc6840f9146102cc57600080fd5b80632e1a7d4d116101155780632e1a7d4d146101ca578063392e53cd146101f25780633ec66202146101fa578063443863211461020d5780635e787f191461024c578063715018a61461027357600080fd5b806302fb0c5e1461015d578063046f7da214610186578063106b9ca114610190578063175fadbe146101a75780631de28857146101ba57806327f8eaac146101c2575b600080fd5b60025461017190600160a01b900460ff1681565b60405190151581526020015b60405180910390f35b61018e61033b565b005b61019960045481565b60405190815260200161017d565b61018e6101b536600461172e565b610381565b6101996103a2565b61018e61042c565b6101dd6101d836600461176a565b6104bf565b6040805192835260208301919091520161017d565b610171610799565b61018e61020836600461176a565b6107c2565b6102347f000000000000000000000000000000000000000000000000000000000000000081565b6040516001600160a01b03909116815260200161017d565b6102347f000000000000000000000000000000000000000000000000000000000000000081565b61018e61081a565b61018e61082c565b61018e6108d9565b61019960035481565b6001546001600160a01b0316610234565b6102347f000000000000000000000000000000000000000000000000000000000000000081565b61018e6102da366004611783565b6108f0565b6101dd61096f565b6101996102f53660046117a5565b610b5f565b600254610234906001600160a01b031681565b61018e61031b366004611783565b6111cd565b61018e61120b565b61018e6103363660046117c7565b611471565b6103436114b4565b6002546001600160a01b031661036c576040516321c4e35760e21b815260040160405180910390fd5b6002805460ff60a01b1916600160a01b179055565b6103896114b4565b61039d6001600160a01b03841683836114e1565b505050565b6002546000906001600160a01b03166103bb5750600090565b6002546040516370a0823160e01b81523060048201526001600160a01b03909116906370a0823190602401602060405180830381865afa158015610403573d6000803e3d6000fd5b505050506040513d601f19601f820116820180604052508101906104279190611803565b905090565b6104346114b4565b6002546001600160a01b0316156104bd57600254610481906001600160a01b037f0000000000000000000000000000000000000000000000000000000000000000811691166000196114e1565b6002546104bd906001600160a01b037f0000000000000000000000000000000000000000000000000000000000000000811691166000196114e1565b565b600080336001600160a01b037f0000000000000000000000000000000000000000000000000000000000000000161461050b57604051638d1af8bd60e01b815260040160405180910390fd5b6105136115a5565b826000036105265750600090508061078a565b6002546001600160a01b03166105415750600090508061078a565b6002546040516370a0823160e01b81523060048201526000916001600160a01b0316906370a0823190602401602060405180830381865afa15801561058a573d6000803e3d6000fd5b505050506040513d601f19601f820116820180604052508101906105ae9190611803565b9050806000036105c557600080925092505061078a565b6000806105d061096f565b909250905060006105e18284611832565b905060008188106105f357508361060b565b816105fe8987611845565b610608919061185c565b90505b6000856106188387611845565b610622919061185c565b90506000866106318487611845565b61063b919061185c565b6002546003549192506001600160a01b03169063d331bef790859061271090610664908261187e565b61066e9087611845565b610678919061185c565b61271060035461271061068b919061187e565b6106959087611845565b61069f919061185c565b6040516001600160e01b031960e086901b1681526004810193909352602483019190915260448201526001600160a01b037f000000000000000000000000000000000000000000000000000000000000000016606482015260840160408051808303816000875af1158015610718573d6000803e3d6000fd5b505050506040513d601f19601f8201168201806040525081019061073c9190611891565b6040805186815260208101849052908101829052919a5098507f9b4015fbfa21a538378486da76932c7362cc536aa85cc6d6ddbe3a41fec4f6da9060600160405180910390a1505050505050505b6107946001600055565b915091565b600254600090600160a01b900460ff1680156104275750506002546001600160a01b0316151590565b6107ca6114b4565b6103e88111156108155760405162461bcd60e51b81526020600482015260116024820152700a6d8d2e0e0c2ceca40e8dede40d0d2ced607b1b60448201526064015b60405180910390fd5b600355565b6108226114b4565b6104bd60006115cf565b336001600160a01b037f0000000000000000000000000000000000000000000000000000000000000000161461087557604051638d1af8bd60e01b815260040160405180910390fd5b6002546001600160a01b0316156104bd5760008061089161096f565b4260045560408051838152602081018390529294509092507fea234a6aeb16b402d7b401a7a7acf39d7871be5134e4392193eccfda0be6201e91015b60405180910390a15050565b6108e16114b4565b6002805460ff60a01b19169055565b6108f86114b4565b6001600160a01b03811661091f5760405163d92e233d60e01b815260040160405180910390fd5b600280546001600160a81b0319166001600160a01b038316908117600160a01b179091556040517f5ed0587a2d4eba645c1cb06b4918a10e8bc79013f1cf3b66394ddf27eba2f5d390600090a250565b6002546000908190600160a01b900460ff16158061099657506002546001600160a01b0316155b156109a45750600091829150565b6002546040516370a0823160e01b81523060048201526000916001600160a01b0316906370a0823190602401602060405180830381865afa1580156109ed573d6000803e3d6000fd5b505050506040513d601f19601f82011682018060405250810190610a119190611803565b905080600003610a2657506000928392509050565b60025460408051636253bb0f60e11b8152815160009384936001600160a01b039091169263c4a7761e92600480830193928290030181865afa158015610a70573d6000803e3d6000fd5b505050506040513d601f19601f82011682018060405250810190610a949190611891565b915091506000600260009054906101000a90046001600160a01b03166001600160a01b03166318160ddd6040518163ffffffff1660e01b8152600401602060405180830381865afa158015610aed573d6000803e3d6000fd5b505050506040513d601f19601f82011682018060405250810190610b119190611803565b905080600003610b2957506000958695509350505050565b80610b348585611845565b610b3e919061185c565b955080610b4b8584611845565b610b55919061185c565b9450505050509091565b6000336001600160a01b037f00000000000000000000000000000000000000000000000000000000000000001614610baa57604051638d1af8bd60e01b815260040160405180910390fd5b600254600160a01b900460ff16610bd45760405163e628b94960e01b815260040160405180910390fd5b610bdc6115a5565b6002546001600160a01b0316610c05576040516321c4e35760e21b815260040160405180910390fd5b8215610cc3576040516323b872dd60e01b81526001600160a01b037f000000000000000000000000000000000000000000000000000000000000000081166004830152306024830152604482018590527f000000000000000000000000000000000000000000000000000000000000000016906323b872dd906064016020604051808303816000875af1925050508015610cbc575060408051601f3d908101601f19168201909252610cb9918101906118b5565b60015b15610cc357505b8115610d81576040516323b872dd60e01b81526001600160a01b037f000000000000000000000000000000000000000000000000000000000000000081166004830152306024830152604482018490527f000000000000000000000000000000000000000000000000000000000000000016906323b872dd906064016020604051808303816000875af1925050508015610d7a575060408051601f3d908101601f19168201909252610d77918101906118b5565b60015b15610d8157505b6040516370a0823160e01b81523060048201526000907f00000000000000000000000000000000000000000000000000000000000000006001600160a01b0316906370a0823190602401602060405180830381865afa158015610de8573d6000803e3d6000fd5b505050506040513d601f19601f82011682018060405250810190610e0c9190611803565b6040516370a0823160e01b81523060048201529091506000906001600160a01b037f000000000000000000000000000000000000000000000000000000000000000016906370a0823190602401602060405180830381865afa158015610e76573d6000803e3d6000fd5b505050506040513d601f19601f82011682018060405250810190610e9a9190611803565b905081158015610ea8575080155b15610eb8576000925050506111bd565b60025460405163365d0ed760e01b8152600481018390526024810184905260006044820181905260648201523060848201526001600160a01b039091169063365d0ed79060a4016060604051808303816000875af1158015610f1e573d6000803e3d6000fd5b505050506040513d601f19601f82011682018060405250810190610f4291906118d7565b50506040516370a0823160e01b81523060048201529093506000907f00000000000000000000000000000000000000000000000000000000000000006001600160a01b0316906370a0823190602401602060405180830381865afa158015610fae573d6000803e3d6000fd5b505050506040513d601f19601f82011682018060405250810190610fd29190611803565b6040516370a0823160e01b81523060048201529091506000906001600160a01b037f000000000000000000000000000000000000000000000000000000000000000016906370a0823190602401602060405180830381865afa15801561103c573d6000803e3d6000fd5b505050506040513d601f19601f820116820180604052508101906110609190611803565b905081156110bc576110bc6001600160a01b037f0000000000000000000000000000000000000000000000000000000000000000167f000000000000000000000000000000000000000000000000000000000000000084611621565b8015611116576111166001600160a01b037f0000000000000000000000000000000000000000000000000000000000000000167f000000000000000000000000000000000000000000000000000000000000000083611621565b60008211806111255750600081115b156111645760408051838152602081018390527f4f3aef3cf11fd9405846420fd580666c49868d4f5c814b48ec46092b91a1b9cb910160405180910390a15b7fe92d6d2dfb3946d2655ac9a4ed7e724c4bcf0d2d993c5ab9b70e9a4785bd205561118f838561187e565b611199838761187e565b604080519283526020830191909152810187905260600160405180910390a1505050505b6111c76001600055565b92915050565b6111d56114b4565b6001600160a01b0381166111ff57604051631e4fbdf760e01b81526000600482015260240161080c565b611208816115cf565b50565b336001600160a01b037f0000000000000000000000000000000000000000000000000000000000000000161461125457604051638d1af8bd60e01b815260040160405180910390fd5b6040516370a0823160e01b81523060048201526000907f00000000000000000000000000000000000000000000000000000000000000006001600160a01b0316906370a0823190602401602060405180830381865afa1580156112bb573d6000803e3d6000fd5b505050506040513d601f19601f820116820180604052508101906112df9190611803565b6040516370a0823160e01b81523060048201529091506000906001600160a01b037f000000000000000000000000000000000000000000000000000000000000000016906370a0823190602401602060405180830381865afa158015611349573d6000803e3d6000fd5b505050506040513d601f19601f8201168201806040525081019061136d9190611803565b905081156113c9576113c96001600160a01b037f0000000000000000000000000000000000000000000000000000000000000000167f000000000000000000000000000000000000000000000000000000000000000084611621565b8015611423576114236001600160a01b037f0000000000000000000000000000000000000000000000000000000000000000167f000000000000000000000000000000000000000000000000000000000000000083611621565b60008211806114325750600081115b1561146d5760408051828152602081018490527f4f3aef3cf11fd9405846420fd580666c49868d4f5c814b48ec46092b91a1b9cb91016108cd565b5050565b6114796114b4565b6001600160a01b0381166114a05760405163d92e233d60e01b815260040160405180910390fd5b61039d6001600160a01b0384168284611621565b6001546001600160a01b031633146104bd5760405163118cdaa760e01b815233600482015260240161080c565b604080516001600160a01b038416602482015260448082018490528251808303909101815260649091019091526020810180516001600160e01b031663095ea7b360e01b1790526115328482611652565b61159f576040516001600160a01b0384811660248301526000604483015261159591869182169063095ea7b3906064015b604051602081830303815290604052915060e01b6020820180516001600160e01b0383818316178352505050506116a1565b61159f84826116a1565b50505050565b6002600054036115c857604051633ee5aeb560e01b815260040160405180910390fd5b6002600055565b600180546001600160a01b038381166001600160a01b0319831681179093556040519116919082907f8be0079c531659141344cd1fd0a4f28419497f9722a3daafe3b4186f6b6457e090600090a35050565b6040516001600160a01b0383811660248301526044820183905261039d91859182169063a9059cbb90606401611563565b6000806000806020600086516020880160008a5af192503d91506000519050828015611697575081156116885780600114611697565b6000866001600160a01b03163b115b9695505050505050565b600080602060008451602086016000885af1806116c4576040513d6000823e3d81fd5b50506000513d915081156116dc5780600114156116e9565b6001600160a01b0384163b155b1561159f57604051635274afe760e01b81526001600160a01b038516600482015260240161080c565b80356001600160a01b038116811461172957600080fd5b919050565b60008060006060848603121561174357600080fd5b61174c84611712565b925061175a60208501611712565b9150604084013590509250925092565b60006020828403121561177c57600080fd5b5035919050565b60006020828403121561179557600080fd5b61179e82611712565b9392505050565b600080604083850312156117b857600080fd5b50508035926020909101359150565b6000806000606084860312156117dc57600080fd5b6117e584611712565b9250602084013591506117fa60408501611712565b90509250925092565b60006020828403121561181557600080fd5b5051919050565b634e487b7160e01b600052601160045260246000fd5b808201808211156111c7576111c761181c565b80820281158282048414176111c7576111c761181c565b60008261187957634e487b7160e01b600052601260045260246000fd5b500490565b818103818111156111c7576111c761181c565b600080604083850312156118a457600080fd5b505080516020909101519092909150565b6000602082840312156118c757600080fd5b8151801515811461179e57600080fd5b6000806000606084860312156118ec57600080fd5b835192506020840151915060408401519050925092509256fea2646970667358221220d4109efcc1f43b83907f509f3ac151153a32c425390867f6a8202f925138037264736f6c63430008160033","linkReferences":{}},"methodIdentifiers":{"EAGLE_VAULT()":"a0b660b5","USD1()":"44386321","WLFI()":"5e787f19","active()":"02fb0c5e","charmVault()":"e6ff0a2f","deposit(uint256,uint256)":"e2bbb158","getShareBalance()":"1de28857","getTotalAmounts()":"c4a7761e","initializeApprovals()":"27f8eaac","isInitialized()":"392e53cd","lastRebalance()":"106b9ca1","maxSlippage()":"8c04166f","owner()":"8da5cb5b","pause()":"8456cb59","rebalance()":"7d7c2a1c","renounceOwnership()":"715018a6","rescueIdleTokens()":"f88163a3","rescueToken(address,uint256,address)":"f8a67a62","resume()":"046f7da2","setCharmVault(address)":"bc6840f9","setTokenApproval(address,address,uint256)":"175fadbe","transferOwnership(address)":"f2fde38b","updateParameters(uint256)":"3ec66202","withdraw(uint256)":"2e1a7d4d"},"id":22}