{"abi":[{"type":"constructor","inputs":[{"name":"_wlfiToken","type":"address","internalType":"address"},{"name":"_usd1Token","type":"address","internalType":"address"},{"name":"_usd1PriceFeed","type":"address","internalType":"address"},{"name":"_wlfiUsd1Pool","type":"address","internalType":"address"},{"name":"_uniswapRouter","type":"address","internalType":"address"},{"name":"_owner","type":"address","internalType":"address"}],"stateMutability":"nonpayable"},{"type":"receive","stateMutability":"payable"},{"type":"function","name":"MAX_STRATEGIES","inputs":[],"outputs":[{"name":"","type":"uint256","internalType":"uint256"}],"stateMutability":"view"},{"type":"function","name":"UNISWAP_ROUTER","inputs":[],"outputs":[{"name":"","type":"address","internalType":"contract ISwapRouter"}],"stateMutability":"view"},{"type":"function","name":"USD1_PRICE_FEED","inputs":[],"outputs":[{"name":"","type":"address","internalType":"contract AggregatorV3Interface"}],"stateMutability":"view"},{"type":"function","name":"USD1_TOKEN","inputs":[],"outputs":[{"name":"","type":"address","internalType":"contract IERC20"}],"stateMutability":"view"},{"type":"function","name":"WLFI_TOKEN","inputs":[],"outputs":[{"name":"","type":"address","internalType":"contract IERC20"}],"stateMutability":"view"},{"type":"function","name":"WLFI_USD1_POOL","inputs":[],"outputs":[{"name":"","type":"address","internalType":"contract IUniswapV3Pool"}],"stateMutability":"view"},{"type":"function","name":"_getTWAPPrice","inputs":[],"outputs":[{"name":"","type":"uint256","internalType":"uint256"}],"stateMutability":"view"},{"type":"function","name":"acceptManager","inputs":[],"outputs":[],"stateMutability":"nonpayable"},{"type":"function","name":"activeStrategies","inputs":[{"name":"","type":"address","internalType":"address"}],"outputs":[{"name":"","type":"bool","internalType":"bool"}],"stateMutability":"view"},{"type":"function","name":"addStrategy","inputs":[{"name":"strategy","type":"address","internalType":"address"},{"name":"weight","type":"uint256","internalType":"uint256"}],"outputs":[],"stateMutability":"nonpayable"},{"type":"function","name":"allowance","inputs":[{"name":"owner","type":"address","internalType":"address"},{"name":"spender","type":"address","internalType":"address"}],"outputs":[{"name":"","type":"uint256","internalType":"uint256"}],"stateMutability":"view"},{"type":"function","name":"approve","inputs":[{"name":"spender","type":"address","internalType":"address"},{"name":"value","type":"uint256","internalType":"uint256"}],"outputs":[{"name":"","type":"bool","internalType":"bool"}],"stateMutability":"nonpayable"},{"type":"function","name":"approveTokensToStrategy","inputs":[{"name":"strategy","type":"address","internalType":"address"},{"name":"wlfiAmount","type":"uint256","internalType":"uint256"},{"name":"usd1Amount","type":"uint256","internalType":"uint256"}],"outputs":[],"stateMutability":"nonpayable"},{"type":"function","name":"asset","inputs":[],"outputs":[{"name":"","type":"address","internalType":"address"}],"stateMutability":"view"},{"type":"function","name":"authorized","inputs":[{"name":"","type":"address","internalType":"address"}],"outputs":[{"name":"","type":"bool","internalType":"bool"}],"stateMutability":"view"},{"type":"function","name":"balanceOf","inputs":[{"name":"account","type":"address","internalType":"address"}],"outputs":[{"name":"","type":"uint256","internalType":"uint256"}],"stateMutability":"view"},{"type":"function","name":"calculateUSDValue","inputs":[{"name":"wlfiAmount","type":"uint256","internalType":"uint256"},{"name":"usd1Amount","type":"uint256","internalType":"uint256"}],"outputs":[{"name":"usdValue","type":"uint256","internalType":"uint256"}],"stateMutability":"view"},{"type":"function","name":"convertToAssets","inputs":[{"name":"shares","type":"uint256","internalType":"uint256"}],"outputs":[{"name":"","type":"uint256","internalType":"uint256"}],"stateMutability":"view"},{"type":"function","name":"convertToShares","inputs":[{"name":"assets","type":"uint256","internalType":"uint256"}],"outputs":[{"name":"","type":"uint256","internalType":"uint256"}],"stateMutability":"view"},{"type":"function","name":"decimals","inputs":[],"outputs":[{"name":"","type":"uint8","internalType":"uint8"}],"stateMutability":"view"},{"type":"function","name":"deploymentThreshold","inputs":[],"outputs":[{"name":"","type":"uint256","internalType":"uint256"}],"stateMutability":"view"},{"type":"function","name":"deposit","inputs":[{"name":"assets","type":"uint256","internalType":"uint256"},{"name":"receiver","type":"address","internalType":"address"}],"outputs":[{"name":"shares","type":"uint256","internalType":"uint256"}],"stateMutability":"nonpayable"},{"type":"function","name":"depositDual","inputs":[{"name":"wlfiAmount","type":"uint256","internalType":"uint256"},{"name":"usd1Amount","type":"uint256","internalType":"uint256"},{"name":"receiver","type":"address","internalType":"address"}],"outputs":[{"name":"shares","type":"uint256","internalType":"uint256"}],"stateMutability":"nonpayable"},{"type":"function","name":"emergencyWithdrawTokens","inputs":[{"name":"wlfiAmount","type":"uint256","internalType":"uint256"},{"name":"usd1Amount","type":"uint256","internalType":"uint256"},{"name":"to","type":"address","internalType":"address"}],"outputs":[],"stateMutability":"nonpayable"},{"type":"function","name":"forceDeployToStrategies","inputs":[],"outputs":[],"stateMutability":"nonpayable"},{"type":"function","name":"getCurrentPrices","inputs":[],"outputs":[{"name":"wlfiPriceUSD","type":"uint256","internalType":"uint256"},{"name":"usd1PriceUSD","type":"uint256","internalType":"uint256"}],"stateMutability":"view"},{"type":"function","name":"getStrategies","inputs":[],"outputs":[{"name":"strategies","type":"address[]","internalType":"address[]"},{"name":"weights","type":"uint256[]","internalType":"uint256[]"}],"stateMutability":"view"},{"type":"function","name":"getStrategyAssets","inputs":[],"outputs":[{"name":"strategies","type":"address[]","internalType":"address[]"},{"name":"wlfiAmounts","type":"uint256[]","internalType":"uint256[]"},{"name":"usd1Amounts","type":"uint256[]","internalType":"uint256[]"}],"stateMutability":"view"},{"type":"function","name":"getUSD1Price","inputs":[],"outputs":[{"name":"price","type":"uint256","internalType":"uint256"}],"stateMutability":"view"},{"type":"function","name":"getVaultBalances","inputs":[],"outputs":[{"name":"wlfi","type":"uint256","internalType":"uint256"},{"name":"usd1","type":"uint256","internalType":"uint256"}],"stateMutability":"view"},{"type":"function","name":"getVaultBalancesUSD","inputs":[],"outputs":[{"name":"wlfiValueUSD","type":"uint256","internalType":"uint256"},{"name":"usd1ValueUSD","type":"uint256","internalType":"uint256"},{"name":"totalValueUSD","type":"uint256","internalType":"uint256"}],"stateMutability":"view"},{"type":"function","name":"getWLFIPrice","inputs":[],"outputs":[{"name":"price","type":"uint256","internalType":"uint256"}],"stateMutability":"view"},{"type":"function","name":"injectCapital","inputs":[{"name":"wlfiAmount","type":"uint256","internalType":"uint256"},{"name":"usd1Amount","type":"uint256","internalType":"uint256"}],"outputs":[],"stateMutability":"nonpayable"},{"type":"function","name":"lastDeployment","inputs":[],"outputs":[{"name":"","type":"uint256","internalType":"uint256"}],"stateMutability":"view"},{"type":"function","name":"lastRebalance","inputs":[],"outputs":[{"name":"","type":"uint256","internalType":"uint256"}],"stateMutability":"view"},{"type":"function","name":"manager","inputs":[],"outputs":[{"name":"","type":"address","internalType":"address"}],"stateMutability":"view"},{"type":"function","name":"maxDeposit","inputs":[{"name":"","type":"address","internalType":"address"}],"outputs":[{"name":"","type":"uint256","internalType":"uint256"}],"stateMutability":"view"},{"type":"function","name":"maxMint","inputs":[{"name":"","type":"address","internalType":"address"}],"outputs":[{"name":"","type":"uint256","internalType":"uint256"}],"stateMutability":"view"},{"type":"function","name":"maxPriceAge","inputs":[],"outputs":[{"name":"","type":"uint256","internalType":"uint256"}],"stateMutability":"view"},{"type":"function","name":"maxRedeem","inputs":[{"name":"owner","type":"address","internalType":"address"}],"outputs":[{"name":"","type":"uint256","internalType":"uint256"}],"stateMutability":"view"},{"type":"function","name":"maxTotalSupply","inputs":[],"outputs":[{"name":"","type":"uint256","internalType":"uint256"}],"stateMutability":"view"},{"type":"function","name":"maxWithdraw","inputs":[{"name":"owner","type":"address","internalType":"address"}],"outputs":[{"name":"","type":"uint256","internalType":"uint256"}],"stateMutability":"view"},{"type":"function","name":"minDeploymentInterval","inputs":[],"outputs":[{"name":"","type":"uint256","internalType":"uint256"}],"stateMutability":"view"},{"type":"function","name":"mint","inputs":[{"name":"shares","type":"uint256","internalType":"uint256"},{"name":"receiver","type":"address","internalType":"address"}],"outputs":[{"name":"","type":"uint256","internalType":"uint256"}],"stateMutability":"nonpayable"},{"type":"function","name":"name","inputs":[],"outputs":[{"name":"","type":"string","internalType":"string"}],"stateMutability":"view"},{"type":"function","name":"owner","inputs":[],"outputs":[{"name":"","type":"address","internalType":"address"}],"stateMutability":"view"},{"type":"function","name":"paused","inputs":[],"outputs":[{"name":"","type":"bool","internalType":"bool"}],"stateMutability":"view"},{"type":"function","name":"pendingManager","inputs":[],"outputs":[{"name":"","type":"address","internalType":"address"}],"stateMutability":"view"},{"type":"function","name":"previewDeposit","inputs":[{"name":"assets","type":"uint256","internalType":"uint256"}],"outputs":[{"name":"","type":"uint256","internalType":"uint256"}],"stateMutability":"view"},{"type":"function","name":"previewDepositDual","inputs":[{"name":"wlfiAmount","type":"uint256","internalType":"uint256"},{"name":"usd1Amount","type":"uint256","internalType":"uint256"}],"outputs":[{"name":"shares","type":"uint256","internalType":"uint256"},{"name":"usdValue","type":"uint256","internalType":"uint256"}],"stateMutability":"view"},{"type":"function","name":"previewMint","inputs":[{"name":"shares","type":"uint256","internalType":"uint256"}],"outputs":[{"name":"","type":"uint256","internalType":"uint256"}],"stateMutability":"view"},{"type":"function","name":"previewRedeem","inputs":[{"name":"shares","type":"uint256","internalType":"uint256"}],"outputs":[{"name":"","type":"uint256","internalType":"uint256"}],"stateMutability":"view"},{"type":"function","name":"previewWithdraw","inputs":[{"name":"assets","type":"uint256","internalType":"uint256"}],"outputs":[{"name":"","type":"uint256","internalType":"uint256"}],"stateMutability":"view"},{"type":"function","name":"redeem","inputs":[{"name":"shares","type":"uint256","internalType":"uint256"},{"name":"receiver","type":"address","internalType":"address"},{"name":"owner","type":"address","internalType":"address"}],"outputs":[{"name":"","type":"uint256","internalType":"uint256"}],"stateMutability":"nonpayable"},{"type":"function","name":"removeStrategy","inputs":[{"name":"strategy","type":"address","internalType":"address"}],"outputs":[],"stateMutability":"nonpayable"},{"type":"function","name":"renounceOwnership","inputs":[],"outputs":[],"stateMutability":"nonpayable"},{"type":"function","name":"rescueETH","inputs":[],"outputs":[],"stateMutability":"nonpayable"},{"type":"function","name":"rescueToken","inputs":[{"name":"token","type":"address","internalType":"address"},{"name":"amount","type":"uint256","internalType":"uint256"},{"name":"to","type":"address","internalType":"address"}],"outputs":[],"stateMutability":"nonpayable"},{"type":"function","name":"setDeploymentParams","inputs":[{"name":"_threshold","type":"uint256","internalType":"uint256"},{"name":"_interval","type":"uint256","internalType":"uint256"}],"outputs":[],"stateMutability":"nonpayable"},{"type":"function","name":"setManager","inputs":[{"name":"_newManager","type":"address","internalType":"address"}],"outputs":[],"stateMutability":"nonpayable"},{"type":"function","name":"setMaxPriceAge","inputs":[{"name":"_maxPriceAge","type":"uint256","internalType":"uint256"}],"outputs":[],"stateMutability":"nonpayable"},{"type":"function","name":"setMaxTotalSupply","inputs":[{"name":"_maxTotalSupply","type":"uint256","internalType":"uint256"}],"outputs":[],"stateMutability":"nonpayable"},{"type":"function","name":"setPaused","inputs":[{"name":"_paused","type":"bool","internalType":"bool"}],"outputs":[],"stateMutability":"nonpayable"},{"type":"function","name":"setTWAPInterval","inputs":[{"name":"_interval","type":"uint32","internalType":"uint32"}],"outputs":[],"stateMutability":"nonpayable"},{"type":"function","name":"strategyList","inputs":[{"name":"","type":"uint256","internalType":"uint256"}],"outputs":[{"name":"","type":"address","internalType":"address"}],"stateMutability":"view"},{"type":"function","name":"strategyWeights","inputs":[{"name":"","type":"address","internalType":"address"}],"outputs":[{"name":"","type":"uint256","internalType":"uint256"}],"stateMutability":"view"},{"type":"function","name":"symbol","inputs":[],"outputs":[{"name":"","type":"string","internalType":"string"}],"stateMutability":"view"},{"type":"function","name":"syncBalances","inputs":[],"outputs":[],"stateMutability":"nonpayable"},{"type":"function","name":"totalAssets","inputs":[],"outputs":[{"name":"","type":"uint256","internalType":"uint256"}],"stateMutability":"view"},{"type":"function","name":"totalStrategyWeight","inputs":[],"outputs":[{"name":"","type":"uint256","internalType":"uint256"}],"stateMutability":"view"},{"type":"function","name":"totalSupply","inputs":[],"outputs":[{"name":"","type":"uint256","internalType":"uint256"}],"stateMutability":"view"},{"type":"function","name":"transfer","inputs":[{"name":"to","type":"address","internalType":"address"},{"name":"value","type":"uint256","internalType":"uint256"}],"outputs":[{"name":"","type":"bool","internalType":"bool"}],"stateMutability":"nonpayable"},{"type":"function","name":"transferFrom","inputs":[{"name":"from","type":"address","internalType":"address"},{"name":"to","type":"address","internalType":"address"},{"name":"value","type":"uint256","internalType":"uint256"}],"outputs":[{"name":"","type":"bool","internalType":"bool"}],"stateMutability":"nonpayable"},{"type":"function","name":"transferOwnership","inputs":[{"name":"newOwner","type":"address","internalType":"address"}],"outputs":[],"stateMutability":"nonpayable"},{"type":"function","name":"twapInterval","inputs":[],"outputs":[{"name":"","type":"uint32","internalType":"uint32"}],"stateMutability":"view"},{"type":"function","name":"usd1Balance","inputs":[],"outputs":[{"name":"","type":"uint256","internalType":"uint256"}],"stateMutability":"view"},{"type":"function","name":"withdraw","inputs":[{"name":"assets","type":"uint256","internalType":"uint256"},{"name":"receiver","type":"address","internalType":"address"},{"name":"owner","type":"address","internalType":"address"}],"outputs":[{"name":"","type":"uint256","internalType":"uint256"}],"stateMutability":"nonpayable"},{"type":"function","name":"withdrawDual","inputs":[{"name":"shares","type":"uint256","internalType":"uint256"},{"name":"receiver","type":"address","internalType":"address"}],"outputs":[{"name":"wlfiAmount","type":"uint256","internalType":"uint256"},{"name":"usd1Amount","type":"uint256","internalType":"uint256"}],"stateMutability":"nonpayable"},{"type":"function","name":"wlfiBalance","inputs":[],"outputs":[{"name":"","type":"uint256","internalType":"uint256"}],"stateMutability":"view"},{"type":"event","name":"Approval","inputs":[{"name":"owner","type":"address","indexed":true,"internalType":"address"},{"name":"spender","type":"address","indexed":true,"internalType":"address"},{"name":"value","type":"uint256","indexed":false,"internalType":"uint256"}],"anonymous":false},{"type":"event","name":"BalancesSynced","inputs":[{"name":"wlfiBalance","type":"uint256","indexed":false,"internalType":"uint256"},{"name":"usd1Balance","type":"uint256","indexed":false,"internalType":"uint256"}],"anonymous":false},{"type":"event","name":"CapitalInjected","inputs":[{"name":"from","type":"address","indexed":true,"internalType":"address"},{"name":"wlfiAmount","type":"uint256","indexed":false,"internalType":"uint256"},{"name":"usd1Amount","type":"uint256","indexed":false,"internalType":"uint256"}],"anonymous":false},{"type":"event","name":"Deposit","inputs":[{"name":"sender","type":"address","indexed":true,"internalType":"address"},{"name":"owner","type":"address","indexed":true,"internalType":"address"},{"name":"assets","type":"uint256","indexed":false,"internalType":"uint256"},{"name":"shares","type":"uint256","indexed":false,"internalType":"uint256"}],"anonymous":false},{"type":"event","name":"DualDeposit","inputs":[{"name":"user","type":"address","indexed":true,"internalType":"address"},{"name":"wlfiAmount","type":"uint256","indexed":false,"internalType":"uint256"},{"name":"usd1Amount","type":"uint256","indexed":false,"internalType":"uint256"},{"name":"wlfiPriceUSD","type":"uint256","indexed":false,"internalType":"uint256"},{"name":"usd1PriceUSD","type":"uint256","indexed":false,"internalType":"uint256"},{"name":"totalUSDValue","type":"uint256","indexed":false,"internalType":"uint256"},{"name":"shares","type":"uint256","indexed":false,"internalType":"uint256"}],"anonymous":false},{"type":"event","name":"DualWithdraw","inputs":[{"name":"user","type":"address","indexed":true,"internalType":"address"},{"name":"shares","type":"uint256","indexed":false,"internalType":"uint256"},{"name":"wlfiAmount","type":"uint256","indexed":false,"internalType":"uint256"},{"name":"usd1Amount","type":"uint256","indexed":false,"internalType":"uint256"}],"anonymous":false},{"type":"event","name":"EmergencyPause","inputs":[{"name":"paused","type":"bool","indexed":false,"internalType":"bool"}],"anonymous":false},{"type":"event","name":"EmergencyWithdraw","inputs":[{"name":"to","type":"address","indexed":true,"internalType":"address"},{"name":"wlfiAmount","type":"uint256","indexed":false,"internalType":"uint256"},{"name":"usd1Amount","type":"uint256","indexed":false,"internalType":"uint256"}],"anonymous":false},{"type":"event","name":"ManagerSet","inputs":[{"name":"oldManager","type":"address","indexed":true,"internalType":"address"},{"name":"newManager","type":"address","indexed":true,"internalType":"address"}],"anonymous":false},{"type":"event","name":"OwnershipTransferred","inputs":[{"name":"previousOwner","type":"address","indexed":true,"internalType":"address"},{"name":"newOwner","type":"address","indexed":true,"internalType":"address"}],"anonymous":false},{"type":"event","name":"Rebalanced","inputs":[{"name":"newWlfiBalance","type":"uint256","indexed":false,"internalType":"uint256"},{"name":"newUsd1Balance","type":"uint256","indexed":false,"internalType":"uint256"}],"anonymous":false},{"type":"event","name":"StrategyAdded","inputs":[{"name":"strategy","type":"address","indexed":true,"internalType":"address"},{"name":"weight","type":"uint256","indexed":false,"internalType":"uint256"}],"anonymous":false},{"type":"event","name":"StrategyDeployed","inputs":[{"name":"strategy","type":"address","indexed":true,"internalType":"address"},{"name":"wlfiDeployed","type":"uint256","indexed":false,"internalType":"uint256"},{"name":"usd1Deployed","type":"uint256","indexed":false,"internalType":"uint256"}],"anonymous":false},{"type":"event","name":"StrategyRemoved","inputs":[{"name":"strategy","type":"address","indexed":true,"internalType":"address"}],"anonymous":false},{"type":"event","name":"Transfer","inputs":[{"name":"from","type":"address","indexed":true,"internalType":"address"},{"name":"to","type":"address","indexed":true,"internalType":"address"},{"name":"value","type":"uint256","indexed":false,"internalType":"uint256"}],"anonymous":false},{"type":"event","name":"Withdraw","inputs":[{"name":"sender","type":"address","indexed":true,"internalType":"address"},{"name":"receiver","type":"address","indexed":true,"internalType":"address"},{"name":"owner","type":"address","indexed":true,"internalType":"address"},{"name":"assets","type":"uint256","indexed":false,"internalType":"uint256"},{"name":"shares","type":"uint256","indexed":false,"internalType":"uint256"}],"anonymous":false},{"type":"error","name":"ERC20InsufficientAllowance","inputs":[{"name":"spender","type":"address","internalType":"address"},{"name":"allowance","type":"uint256","internalType":"uint256"},{"name":"needed","type":"uint256","internalType":"uint256"}]},{"type":"error","name":"ERC20InsufficientBalance","inputs":[{"name":"sender","type":"address","internalType":"address"},{"name":"balance","type":"uint256","internalType":"uint256"},{"name":"needed","type":"uint256","internalType":"uint256"}]},{"type":"error","name":"ERC20InvalidApprover","inputs":[{"name":"approver","type":"address","internalType":"address"}]},{"type":"error","name":"ERC20InvalidReceiver","inputs":[{"name":"receiver","type":"address","internalType":"address"}]},{"type":"error","name":"ERC20InvalidSender","inputs":[{"name":"sender","type":"address","internalType":"address"}]},{"type":"error","name":"ERC20InvalidSpender","inputs":[{"name":"spender","type":"address","internalType":"address"}]},{"type":"error","name":"ERC4626ExceededMaxDeposit","inputs":[{"name":"receiver","type":"address","internalType":"address"},{"name":"assets","type":"uint256","internalType":"uint256"},{"name":"max","type":"uint256","internalType":"uint256"}]},{"type":"error","name":"ERC4626ExceededMaxMint","inputs":[{"name":"receiver","type":"address","internalType":"address"},{"name":"shares","type":"uint256","internalType":"uint256"},{"name":"max","type":"uint256","internalType":"uint256"}]},{"type":"error","name":"ERC4626ExceededMaxRedeem","inputs":[{"name":"owner","type":"address","internalType":"address"},{"name":"shares","type":"uint256","internalType":"uint256"},{"name":"max","type":"uint256","internalType":"uint256"}]},{"type":"error","name":"ERC4626ExceededMaxWithdraw","inputs":[{"name":"owner","type":"address","internalType":"address"},{"name":"assets","type":"uint256","internalType":"uint256"},{"name":"max","type":"uint256","internalType":"uint256"}]},{"type":"error","name":"InsufficientBalance","inputs":[]},{"type":"error","name":"InvalidAmount","inputs":[]},{"type":"error","name":"InvalidPrice","inputs":[]},{"type":"error","name":"InvalidWeight","inputs":[]},{"type":"error","name":"MaxStrategiesReached","inputs":[]},{"type":"error","name":"OwnableInvalidOwner","inputs":[{"name":"owner","type":"address","internalType":"address"}]},{"type":"error","name":"OwnableUnauthorizedAccount","inputs":[{"name":"account","type":"address","internalType":"address"}]},{"type":"error","name":"Paused","inputs":[]},{"type":"error","name":"ReentrancyGuardReentrantCall","inputs":[]},{"type":"error","name":"SafeERC20FailedOperation","inputs":[{"name":"token","type":"address","internalType":"address"}]},{"type":"error","name":"SlippageExceeded","inputs":[]},{"type":"error","name":"StalePrice","inputs":[]},{"type":"error","name":"StrategyAlreadyActive","inputs":[]},{"type":"error","name":"StrategyNotActive","inputs":[]},{"type":"error","name":"Unauthorized","inputs":[]},{"type":"error","name":"ZeroAddress","inputs":[]}],"bytecode":{"object":"0x6101606040526a295be96e64066972000000600d55600e805463ffffffff191661070817905562015180600f5568056bc75e2d6310000060105561012c6011553480156200004c57600080fd5b5060405162005261380380620052618339810160408190526200006f9162000385565b8086604051806040016040528060128152602001714561676c65205661756c742053686172657360701b81525060405180604001604052806006815260200165764541474c4560d01b8152508160039081620000cc9190620004ad565b506004620000db8282620004ad565b505050600080620000f2836200023160201b60201c565b91509150816200010457601262000106565b805b60ff1660a05250506001600160a01b0390811660805281166200014357604051631e4fbdf760e01b81526000600482015260240160405180910390fd5b6200014e8162000316565b5060016006556001600160a01b03861615806200017257506001600160a01b038516155b806200018557506001600160a01b038416155b806200019857506001600160a01b038316155b80620001ab57506001600160a01b038216155b15620001ca5760405163d92e233d60e01b815260040160405180910390fd5b6001600160a01b0395861660e05293851660c05291841661010052831661012052821661014052601380546001600160a01b031916919092169081179091556000908152601560205260409020805460ff19166001179055426012819055601655620005c4565b60408051600481526024810182526020810180516001600160e01b031663313ce56760e01b17905290516000918291829182916001600160a01b038716916200027a9162000579565b600060405180830381855afa9150503d8060008114620002b7576040519150601f19603f3d011682016040523d82523d6000602084013e620002bc565b606091505b5091509150818015620002d157506020815110155b156200030957600081806020019051810190620002ef9190620005aa565b905060ff811162000307576001969095509350505050565b505b5060009485945092505050565b600580546001600160a01b038381166001600160a01b0319831681179093556040519116919082907f8be0079c531659141344cd1fd0a4f28419497f9722a3daafe3b4186f6b6457e090600090a35050565b80516001600160a01b03811681146200038057600080fd5b919050565b60008060008060008060c087890312156200039f57600080fd5b620003aa8762000368565b9550620003ba6020880162000368565b9450620003ca6040880162000368565b9350620003da6060880162000368565b9250620003ea6080880162000368565b9150620003fa60a0880162000368565b90509295509295509295565b634e487b7160e01b600052604160045260246000fd5b600181811c908216806200043157607f821691505b6020821081036200045257634e487b7160e01b600052602260045260246000fd5b50919050565b601f821115620004a8576000816000526020600020601f850160051c81016020861015620004835750805b601f850160051c820191505b81811015620004a4578281556001016200048f565b5050505b505050565b81516001600160401b03811115620004c957620004c962000406565b620004e181620004da84546200041c565b8462000458565b602080601f831160018114620005195760008415620005005750858301515b600019600386901b1c1916600185901b178555620004a4565b600085815260208120601f198616915b828110156200054a5788860151825594840194600190910190840162000529565b5085821015620005695787850151600019600388901b60f8161c191681555b5050505050600190811b01905550565b6000825160005b818110156200059c576020818601810151858301520162000580565b506000920191825250919050565b600060208284031215620005bd57600080fd5b5051919050565b60805160a05160c05160e051610100516101205161014051614b93620006ce6000396000610d36015260008181610aef0152818161241c01526138b10152600081816108d3015281816125bb01526126ee015260008181610a4801528181610fbe0152818161161b015281816117eb01528181611d7401528181612035015281816121970152818161220d01528181612a2b0152818161323301526136cc015260008181610ca201528181611059015281816116b10152818161183e01528181611dc7015281816121d10152818161229801528181612a650152818161326e015261370601526000611597015260008181610745015281816139cf0152613cdf0152614b936000f3fe60806040526004361061046b5760003560e01c806370a082311161024a578063b3d7f6b911610139578063d0ebdbe7116100b6578063ed84c5f31161007a578063ed84c5f314610dde578063ef8b30f714610c70578063f06772ee14610df3578063f2fde38b14610e23578063f8a67a6214610e4357600080fd5b8063d0ebdbe714610d04578063d826492014610d24578063d88c151714610d58578063d905777e14610d78578063dd62ed3e14610d9857600080fd5b8063c63d75b6116100fd578063c63d75b6146107cf578063c6e6f59214610c70578063c6e831e814610c90578063c9411e2214610cc4578063ce96cb7714610ce457600080fd5b8063b3d7f6b914610bbd578063b460af9414610bdd578063b49a60bb14610bfd578063b918161114610c20578063ba08765214610c5057600080fd5b806394bf804d116101c7578063a00fff6f1161018b578063a00fff6f14610b27578063a0317bd614610b47578063a267526b14610b5d578063a9059cbb14610b7d578063b09943c314610b9d57600080fd5b806394bf804d14610a8857806395d89b4114610aa85780639699b63f14610abd57806396c1c43314610add57806398d3b20914610b1157600080fd5b806383189fa11161020e57806383189fa1146109f7578063852d0d6e14610a0c57806389b1271614610a215780638ba1797614610a365780638da5cb5b14610a6a57600080fd5b806370a082311461094a578063715018a614610980578063767f06ae1461099557806379f06d21146109aa5780637cd36844146109ca57600080fd5b80632c178bd01161036657806348ff15b3116102e35780635c975abb116102a75780635c975abb146108a0578063656a4b20146108c157806368e5ce84146108f55780636e553f651461090a5780636f9c189d1461092a57600080fd5b806348ff15b3146108275780634cdad5061461050f57806356447ce81461083c57806357fce5b71461085c5780635c272ef61461088057600080fd5b80633c1d5df01161032a5780633c1d5df01461077d5780633f3e4c11146107af578063402d267d146107cf57806345650c07146107f1578063481c6a751461080757600080fd5b80632c178bd0146106aa578063313ce567146106da578063336b78a014610701578063386db3531461071657806338d52e0f1461073657600080fd5b8063119328d6116103f457806320800a00116103b857806320800a0014610620578063223706851461063557806323b872dd1461065e57806329ea1c0b1461067e5780632ab4d0521461069457600080fd5b8063119328d6146105955780631584410a146105b557806316c38b3c146105cb578063175188e8146105eb57806318160ddd1461060b57600080fd5b806306fdde031161043b57806306fdde03146104ed57806307a2d13a1461050f578063095ea7b31461052f5780630a28a4771461055f578063106b9ca11461057f57600080fd5b8062cfdb091461047757806301e1d114146104a0578063055a2b58146104b557806305a4b97a146104cb57600080fd5b3661047257005b600080fd5b34801561048357600080fd5b5061048d60115481565b6040519081526020015b60405180910390f35b3480156104ac57600080fd5b5061048d610e63565b3480156104c157600080fd5b5061048d60085481565b3480156104d757600080fd5b506104eb6104e6366004614126565b610f8a565b005b3480156104f957600080fd5b506105026110cd565b604051610497919061415b565b34801561051b57600080fd5b5061048d61052a3660046141aa565b61115f565b34801561053b57600080fd5b5061054f61054a3660046141c3565b611172565b6040519015158152602001610497565b34801561056b57600080fd5b5061048d61057a3660046141aa565b61118a565b34801561058b57600080fd5b5061048d60165481565b3480156105a157600080fd5b5061048d6105b03660046141ef565b611197565b3480156105c157600080fd5b5061048d600f5481565b3480156105d757600080fd5b506104eb6105e636600461421f565b611207565b3480156105f757600080fd5b506104eb61060636600461423c565b611267565b34801561061757600080fd5b5060025461048d565b34801561062c57600080fd5b506104eb61151b565b34801561064157600080fd5b506007546008545b60408051928352602083019190915201610497565b34801561066a57600080fd5b5061054f610679366004614259565b611569565b34801561068a57600080fd5b5061048d60075481565b3480156106a057600080fd5b5061048d600d5481565b3480156106b657600080fd5b5061054f6106c536600461423c565b60096020526000908152604090205460ff1681565b3480156106e657600080fd5b506106ef61158f565b60405160ff9091168152602001610497565b34801561070d57600080fd5b506104eb6115c0565b34801561072257600080fd5b506104eb6107313660046141ef565b611766565b34801561074257600080fd5b507f00000000000000000000000000000000000000000000000000000000000000005b6040516001600160a01b039091168152602001610497565b34801561078957600080fd5b50600e5461079a9063ffffffff1681565b60405163ffffffff9091168152602001610497565b3480156107bb57600080fd5b506104eb6107ca3660046141aa565b6118be565b3480156107db57600080fd5b5061048d6107ea36600461423c565b5060001990565b3480156107fd57600080fd5b5061048d60125481565b34801561081357600080fd5b50601354610765906001600160a01b031681565b34801561083357600080fd5b506104eb611960565b34801561084857600080fd5b506104eb6108573660046141aa565b611a01565b34801561086857600080fd5b50610871611a5d565b60405161049793929190614310565b34801561088c57600080fd5b5061048d61089b366004614353565b611cc3565b3480156108ac57600080fd5b5060145461054f90600160a01b900460ff1681565b3480156108cd57600080fd5b506107657f000000000000000000000000000000000000000000000000000000000000000081565b34801561090157600080fd5b506104eb611f00565b34801561091657600080fd5b5061048d61092536600461438c565b611fab565b34801561093657600080fd5b506104eb610945366004614353565b612155565b34801561095657600080fd5b5061048d61096536600461423c565b6001600160a01b031660009081526020819052604090205490565b34801561098c57600080fd5b506104eb612357565b3480156109a157600080fd5b5061048d600581565b3480156109b657600080fd5b506104eb6109c53660046141ef565b612369565b3480156109d657600080fd5b5061048d6109e536600461423c565b600a6020526000908152604090205481565b348015610a0357600080fd5b5061048d61237c565b348015610a1857600080fd5b50610649612596565b348015610a2d57600080fd5b5061048d6125b1565b348015610a4257600080fd5b506107657f000000000000000000000000000000000000000000000000000000000000000081565b348015610a7657600080fd5b506005546001600160a01b0316610765565b348015610a9457600080fd5b5061048d610aa336600461438c565b6127d4565b348015610ab457600080fd5b506105026127fa565b348015610ac957600080fd5b50610649610ad83660046141ef565b612809565b348015610ae957600080fd5b506107657f000000000000000000000000000000000000000000000000000000000000000081565b348015610b1d57600080fd5b5061048d600c5481565b348015610b3357600080fd5b50601454610765906001600160a01b031681565b348015610b5357600080fd5b5061048d60105481565b348015610b6957600080fd5b50610765610b783660046141aa565b612860565b348015610b8957600080fd5b5061054f610b983660046141c3565b61288a565b348015610ba957600080fd5b50610649610bb836600461438c565b612898565b348015610bc957600080fd5b5061048d610bd83660046141aa565b612ae6565b348015610be957600080fd5b5061048d610bf83660046143bc565b612af3565b348015610c0957600080fd5b50610c12612b4b565b6040516104979291906143f3565b348015610c2c57600080fd5b5061054f610c3b36600461423c565b60156020526000908152604090205460ff1681565b348015610c5c57600080fd5b5061048d610c6b3660046143bc565b612cb4565b348015610c7c57600080fd5b5061048d610c8b3660046141aa565b612d03565b348015610c9c57600080fd5b506107657f000000000000000000000000000000000000000000000000000000000000000081565b348015610cd057600080fd5b506104eb610cdf3660046141c3565b612d10565b348015610cf057600080fd5b5061048d610cff36600461423c565b612fa5565b348015610d1057600080fd5b506104eb610d1f36600461423c565b612fc9565b348015610d3057600080fd5b506107657f000000000000000000000000000000000000000000000000000000000000000081565b348015610d6457600080fd5b506104eb610d73366004614418565b61301a565b348015610d8457600080fd5b5061048d610d9336600461423c565b6130ab565b348015610da457600080fd5b5061048d610db336600461443e565b6001600160a01b03918216600090815260016020908152604080832093909416825291909152205490565b348015610dea57600080fd5b5061048d6130c9565b348015610dff57600080fd5b50610e08613184565b60408051938452602084019290925290820152606001610497565b348015610e2f57600080fd5b506104eb610e3e36600461423c565b6131ee565b348015610e4f57600080fd5b506104eb610e5e36600461446c565b613229565b600080610e74600754600854611197565b600b5490915060005b81811015610f825760096000600b8381548110610e9c57610e9c6144a3565b60009182526020808320909101546001600160a01b0316835282019290925260400190205460ff1615610f7a57600080600b8381548110610edf57610edf6144a3565b9060005260206000200160009054906101000a90046001600160a01b03166001600160a01b031663c4a7761e6040518163ffffffff1660e01b81526004016040805180830381865afa158015610f39573d6000803e3d6000fd5b505050506040513d601f19601f82011682018060405250810190610f5d91906144b9565b91509150610f6b8282611197565b610f7590866144f3565b945050505b600101610e7d565b509092915050565b610f92613334565b811561102d5760405163095ea7b360e01b81526001600160a01b038481166004830152602482018490527f0000000000000000000000000000000000000000000000000000000000000000169063095ea7b3906044016020604051808303816000875af1158015611007573d6000803e3d6000fd5b505050506040513d601f19601f8201168201806040525081019061102b9190614506565b505b80156110c85760405163095ea7b360e01b81526001600160a01b038481166004830152602482018390527f0000000000000000000000000000000000000000000000000000000000000000169063095ea7b3906044016020604051808303816000875af11580156110a2573d6000803e3d6000fd5b505050506040513d601f19601f820116820180604052508101906110c69190614506565b505b505050565b6060600380546110dc90614523565b80601f016020809104026020016040519081016040528092919081815260200182805461110890614523565b80156111555780601f1061112a57610100808354040283529160200191611155565b820191906000526020600020905b81548152906001019060200180831161113857829003601f168201915b5050505050905090565b600061116c826000613361565b92915050565b60003361118081858561339b565b5060019392505050565b600061116c8260016133a8565b6000806111a26130c9565b905060006111ae6125b1565b90506000670de0b6b3a76400006111c5848861455d565b6111cf919061458a565b90506000670de0b6b3a76400006111e6848861455d565b6111f0919061458a565b90506111fc81836144f3565b979650505050505050565b61120f613334565b60148054821515600160a01b0260ff60a01b199091161790556040517fb80d1ae5628c2af91424c54c87acfd15016be4bebeef0425b328238702f348319061125c90831515815260200190565b60405180910390a150565b6013546001600160a01b0316331480159061128d57506005546001600160a01b03163314155b156112aa576040516282b42960e81b815260040160405180910390fd5b6001600160a01b03811660009081526009602052604090205460ff166112e357604051631b92e95360e31b815260040160405180910390fd5b604051632e1a7d4d60e01b8152600019600482015260009081906001600160a01b03841690632e1a7d4d9060240160408051808303816000875af115801561132f573d6000803e3d6000fd5b505050506040513d601f19601f8201168201806040525081019061135391906144b9565b91509150816007600082825461136991906144f3565b92505081905550806008600082825461138291906144f3565b90915550506001600160a01b0383166000908152600960209081526040808320805460ff19169055600a909152812054600c8054919290916113c590849061459e565b90915550506001600160a01b0383166000908152600a60205260408120819055600b54905b818110156114e057846001600160a01b0316600b828154811061140f5761140f6144a3565b6000918252602090912001546001600160a01b0316036114d857600b61143660018461459e565b81548110611446576114466144a3565b600091825260209091200154600b80546001600160a01b039092169183908110611472576114726144a3565b9060005260206000200160006101000a8154816001600160a01b0302191690836001600160a01b03160217905550600b8054806114b1576114b16145b1565b600082815260209020810160001990810180546001600160a01b03191690550190556114e0565b6001016113ea565b506040516001600160a01b038516907f09a1db4b80c32706328728508c941a6b954f31eb5affd32f236c1fd405f8fea490600090a250505050565b611523613334565b478015611566576005546040516001600160a01b039091169082156108fc029083906000818181858888f19350505050158015611564573d6000803e3d6000fd5b505b50565b6000336115778582856133d8565b61158285858561343e565b60019150505b9392505050565b60006115bb817f00000000000000000000000000000000000000000000000000000000000000006145c7565b905090565b6013546001600160a01b031633148015906115e657506005546001600160a01b03163314155b15611603576040516282b42960e81b815260040160405180910390fd5b6040516370a0823160e01b81523060048201526000907f00000000000000000000000000000000000000000000000000000000000000006001600160a01b0316906370a0823190602401602060405180830381865afa15801561166a573d6000803e3d6000fd5b505050506040513d601f19601f8201168201806040525081019061168e91906145e0565b6040516370a0823160e01b81523060048201529091506000906001600160a01b037f000000000000000000000000000000000000000000000000000000000000000016906370a0823190602401602060405180830381865afa1580156116f8573d6000803e3d6000fd5b505050506040513d601f19601f8201168201806040525081019061171c91906145e0565b6007839055600881905560408051848152602081018390529192507f487f028aa87e7799590a35c647d6ac8a426698abd9eeb6bc4b5f2f805b5f7ff7910160405180910390a15050565b3360009081526015602052604090205460ff1615801561179157506005546001600160a01b03163314155b156117ae576040516282b42960e81b815260040160405180910390fd5b811580156117ba575080155b156117d85760405163162908e360e11b815260040160405180910390fd5b811561182b576118136001600160a01b037f00000000000000000000000000000000000000000000000000000000000000001633308561349d565b816007600082825461182591906144f3565b90915550505b801561187e576118666001600160a01b037f00000000000000000000000000000000000000000000000000000000000000001633308461349d565b806008600082825461187891906144f3565b90915550505b604080518381526020810183905233917fbe3fa47138efc08c52a1c62d79a4f0f1834fcb990b2bdcd62e673c3622bdd33f91015b60405180910390a25050565b6118c6613334565b6002548110156119145760405162461bcd60e51b815260206004820152601460248201527342656c6f772063757272656e7420737570706c7960601b60448201526064015b60405180910390fd5b6b033b2e3c9fd0803ce800000081111561195b5760405162461bcd60e51b81526020600482015260086024820152670a8dede40d0d2ced60c31b604482015260640161190b565b600d55565b6014546001600160a01b0316331461198a576040516282b42960e81b815260040160405180910390fd5b60138054601480546001600160a01b038082166001600160a01b031980861682178755909216909255600090815260156020526040808220805460ff1916600117905593549351928216939091169183917fc64707e618a83637fc41ad1e3aa4242bd5fdd353f3d60bc0faf40db0d7d8607891a350565b611a09613334565b610e108110158015611a1e57506202a3008111155b611a585760405162461bcd60e51b815260206004820152600b60248201526a496e76616c69642061676560a81b604482015260640161190b565b600f55565b600b54606090819081908067ffffffffffffffff811115611a8057611a806145f9565b604051908082528060200260200182016040528015611aa9578160200160208202803683370190505b5093508067ffffffffffffffff811115611ac557611ac56145f9565b604051908082528060200260200182016040528015611aee578160200160208202803683370190505b5092508067ffffffffffffffff811115611b0a57611b0a6145f9565b604051908082528060200260200182016040528015611b33578160200160208202803683370190505b50915060005b81811015611cbc57600b8181548110611b5457611b546144a3565b9060005260206000200160009054906101000a90046001600160a01b0316858281518110611b8457611b846144a3565b60200260200101906001600160a01b031690816001600160a01b03168152505060096000600b8381548110611bbb57611bbb6144a3565b60009182526020808320909101546001600160a01b0316835282019290925260400190205460ff1615611cb457600b8181548110611bfb57611bfb6144a3565b9060005260206000200160009054906101000a90046001600160a01b03166001600160a01b031663c4a7761e6040518163ffffffff1660e01b81526004016040805180830381865afa158015611c55573d6000803e3d6000fd5b505050506040513d601f19601f82011682018060405250810190611c7991906144b9565b858381518110611c8b57611c8b6144a3565b60200260200101858481518110611ca457611ca46144a3565b6020908102919091010191909152525b600101611b39565b5050909192565b6000611ccd613504565b601454600160a01b900460ff1615611cf8576040516313d0ff5960e31b815260040160405180910390fd5b83158015611d04575082155b15611d225760405163162908e360e11b815260040160405180910390fd5b6001600160a01b038216611d495760405163d92e233d60e01b815260040160405180910390fd5b6000611d536130c9565b90506000611d5f6125b1565b90508515611db457611d9c6001600160a01b037f00000000000000000000000000000000000000000000000000000000000000001633308961349d565b8560076000828254611dae91906144f3565b90915550505b8415611e0757611def6001600160a01b037f00000000000000000000000000000000000000000000000000000000000000001633308861349d565b8460086000828254611e0191906144f3565b90915550505b6000611e138787611197565b9050611e1e60025490565b600003611e3957611e32816201388061455d565b9350611e5b565b611e41610e63565b600254611e4e908361455d565b611e58919061458a565b93505b600d5484611e6860025490565b611e7291906144f3565b1115611e915760405163162908e360e11b815260040160405180910390fd5b611e9b858561352e565b6040805188815260208101889052908101849052606081018390526080810182905260a0810185905233907f527388e4dad6def65deffcf72e615ac5b8b230c9972b404d6f5f5d29a96954ea9060c00160405180910390a25050506115886001600655565b6013546001600160a01b03163314801590611f2657506005546001600160a01b03163314155b15611f43576040516282b42960e81b815260040160405180910390fd5b611f4b613504565b600c54600003611f8d5760405162461bcd60e51b815260206004820152600d60248201526c4e6f207374726174656769657360981b604482015260640161190b565b611f9b600754600854613564565b42601255611fa96001600655565b565b6000611fb5613504565b601454600160a01b900460ff1615611fe0576040516313d0ff5960e31b815260040160405180910390fd5b826000036120015760405163162908e360e11b815260040160405180910390fd5b6001600160a01b0382166120285760405163d92e233d60e01b815260040160405180910390fd5b61205d6001600160a01b037f00000000000000000000000000000000000000000000000000000000000000001633308661349d565b826007600082825461206f91906144f3565b90915550600090506120818482611197565b905061208c60025490565b156120b557612099610e63565b6002546120a6908361455d565b6120b0919061458a565b6120c2565b6120c2816201388061455d565b9150600d54826120d160025490565b6120db91906144f3565b11156120fa5760405163162908e360e11b815260040160405180910390fd5b612104838361352e565b60408051858152602081018490526001600160a01b0385169133917fdcbc1c05240f31ff3ad067ef1ee35ce4997762752e3a095284754544f4c709d7910160405180910390a35061116c6001600655565b61215d613334565b6001600160a01b0381166121845760405163d92e233d60e01b815260040160405180910390fd5b82156121be576121be6001600160a01b037f0000000000000000000000000000000000000000000000000000000000000000168285613829565b81156121f8576121f86001600160a01b037f0000000000000000000000000000000000000000000000000000000000000000168284613829565b6040516370a0823160e01b81523060048201527f00000000000000000000000000000000000000000000000000000000000000006001600160a01b0316906370a0823190602401602060405180830381865afa15801561225c573d6000803e3d6000fd5b505050506040513d601f19601f8201168201806040525081019061228091906145e0565b6007556040516370a0823160e01b81523060048201527f00000000000000000000000000000000000000000000000000000000000000006001600160a01b0316906370a0823190602401602060405180830381865afa1580156122e7573d6000803e3d6000fd5b505050506040513d601f19601f8201168201806040525081019061230b91906145e0565b60085560408051848152602081018490526001600160a01b038316917fbb757047c2b5f3974fe26b7c10f732e7bce710b0952a71082702781e62ae0595910160405180910390a2505050565b61235f613334565b611fa9600061385a565b612371613334565b601091909155601155565b604080516002808252606082018352600092839291906020830190803683375050600e54825192935063ffffffff16918391506000906123be576123be6144a3565b602002602001019063ffffffff16908163ffffffff16815250506000816001815181106123ed576123ed6144a3565b63ffffffff9092166020928302919091019091015260405163883bdbfd60e01b81526000906001600160a01b037f0000000000000000000000000000000000000000000000000000000000000000169063883bdbfd9061245190859060040161460f565b600060405180830381865afa15801561246e573d6000803e3d6000fd5b505050506040513d6000823e601f3d908101601f191682016040526124969190810190614726565b5090506000816000815181106124ae576124ae6144a3565b6020026020010151826001815181106124c9576124c96144a3565b60200260200101516124db91906147f2565b600e549091506000906124f49063ffffffff168361481f565b90506103e7198160020b13801561250f57506103e88160020b125b1561257e57670de0b6b3a76400006000612533600284900b655af3107a400061485d565b90506000612541828461488d565b90506000811161255957670de0b6b3a7640000612572565b612572816ec097ce7bc90715b34b9f100000000061458a565b97505050505050505090565b6125866138ac565b94505050505090565b5050505090565b6000806125a16130c9565b6125a96125b1565b915091509091565b60008060008060007f00000000000000000000000000000000000000000000000000000000000000006001600160a01b031663feaf968c6040518163ffffffff1660e01b815260040160a060405180830381865afa158015612617573d6000803e3d6000fd5b505050506040513d601f19601f8201168201806040525081019061263b91906148d4565b945094505093509350600083136126645760405162bfc92160e01b815260040160405180910390fd5b8160000361268557604051630cd5fa0760e11b815260040160405180910390fd5b8369ffffffffffffffffffff168169ffffffffffffffffffff1610156126be57604051630cd5fa0760e11b815260040160405180910390fd5b600f546126cb834261459e565b11156126ea57604051630cd5fa0760e11b815260040160405180910390fd5b60007f00000000000000000000000000000000000000000000000000000000000000006001600160a01b031663313ce5676040518163ffffffff1660e01b8152600401602060405180830381865afa15801561274a573d6000803e3d6000fd5b505050506040513d601f19601f8201168201806040525081019061276e9190614935565b905061277b816012614950565b61278690600a614a4d565b612790908561455d565b9550670d2f13f7789f00008610806127af5750670e92596fd629000086115b156127cc5760405162bfc92160e01b815260040160405180910390fd5b505050505090565b600060001960006127e485612ae6565b90506127f2338583886139ca565b949350505050565b6060600480546110dc90614523565b6000806128168484611197565b905061282160025490565b1561284a5761282e610e63565b60025461283b908361455d565b612845919061458a565b612857565b612857816201388061455d565b91509250929050565b600b818154811061287057600080fd5b6000918252602090912001546001600160a01b0316905081565b60003361118081858561343e565b6000806128a3613504565b836000036128c45760405163162908e360e11b815260040160405180910390fd5b6001600160a01b0383166128eb5760405163d92e233d60e01b815260040160405180910390fd5b3360009081526020819052604090205484111561291b57604051631e9acf1760e31b815260040160405180910390fd5b6000612925610e63565b9050600061293260025490565b9050600081612941888561455d565b61294b919061458a565b90506000828860075461295e919061455d565b612968919061458a565b90506000838960085461297b919061455d565b612985919061458a565b905081965080955060006129998383611197565b9050838110156129de5760006129af828661459e565b90506000806129bd83613a5c565b90925090506129cc828c6144f3565b9a506129d8818b6144f3565b99505050505b6129e8338b613c76565b82600760008282546129fa919061459e565b925050819055508160086000828254612a13919061459e565b90915550508715612a5257612a526001600160a01b037f0000000000000000000000000000000000000000000000000000000000000000168a8a613829565b8615612a8c57612a8c6001600160a01b037f0000000000000000000000000000000000000000000000000000000000000000168a89613829565b604080518b8152602081018a905290810188905233907fd9c54d301d6668689a527e28d9849021b9227514f8ce8c57b95ca5dee5e60a2d9060600160405180910390a2505050505050612adf6001600655565b9250929050565b600061116c826001613361565b600080612aff83612fa5565b905080851115612b2857828582604051633fa733bb60e21b815260040161190b93929190614a5c565b6000612b338661118a565b9050612b423386868985613cac565b95945050505050565b600b5460609081908067ffffffffffffffff811115612b6c57612b6c6145f9565b604051908082528060200260200182016040528015612b95578160200160208202803683370190505b5092508067ffffffffffffffff811115612bb157612bb16145f9565b604051908082528060200260200182016040528015612bda578160200160208202803683370190505b50915060005b81811015612cae57600b8181548110612bfb57612bfb6144a3565b9060005260206000200160009054906101000a90046001600160a01b0316848281518110612c2b57612c2b6144a3565b60200260200101906001600160a01b031690816001600160a01b031681525050600a6000600b8381548110612c6257612c626144a3565b60009182526020808320909101546001600160a01b031683528201929092526040019020548351849083908110612c9b57612c9b6144a3565b6020908102919091010152600101612be0565b50509091565b600080612cc0836130ab565b905080851115612ce957828582604051632e52afbb60e21b815260040161190b93929190614a5c565b6000612cf48661115f565b9050612b42338686848a613cac565b600061116c8260006133a8565b6013546001600160a01b03163314801590612d3657506005546001600160a01b03163314155b15612d53576040516282b42960e81b815260040160405180910390fd5b6001600160a01b038216612d7a5760405163d92e233d60e01b815260040160405180910390fd5b6001600160a01b03821660009081526009602052604090205460ff1615612db45760405163c976754d60e01b815260040160405180910390fd5b600b54600511612dd757604051631f62ca4f60e21b815260040160405180910390fd5b801580612de5575061271081115b15612e035760405163585b926360e01b815260040160405180910390fd5b61271081600c54612e1491906144f3565b1115612e335760405163585b926360e01b815260040160405180910390fd5b816001600160a01b031663392e53cd6040518163ffffffff1660e01b8152600401602060405180830381865afa158015612e71573d6000803e3d6000fd5b505050506040513d601f19601f82011682018060405250810190612e959190614506565b612ee15760405162461bcd60e51b815260206004820152601860248201527f5374726174656779206e6f7420696e697469616c697a65640000000000000000604482015260640161190b565b6001600160a01b0382166000818152600960209081526040808320805460ff19166001908117909155600a9092528220849055600b8054918201815582527f0175b7a638427703f0dbe7bb9bbf987a2551717b34e79f33b5b1008d1fa01db90180546001600160a01b031916909217909155600c8054839290612f659084906144f3565b90915550506040518181526001600160a01b038316907f2f564a83158ad1831793ad3e69257b52f39ece5d49cb0d8746708ecb9ef964da906020016118b2565b6001600160a01b03811660009081526020819052604081205461116c906000613361565b612fd1613334565b6001600160a01b038116612ff85760405163d92e233d60e01b815260040160405180910390fd5b601480546001600160a01b0319166001600160a01b0392909216919091179055565b613022613334565b63ffffffff81161580613050575061012c8163ffffffff16101580156130505750611c208163ffffffff1611155b61308f5760405162461bcd60e51b815260206004820152601060248201526f125b9d985b1a59081a5b9d195c9d985b60821b604482015260640161190b565b600e805463ffffffff191663ffffffff92909216919091179055565b6001600160a01b03811660009081526020819052604081205461116c565b6000806130d46125b1565b600e5490915060009063ffffffff161561315557306001600160a01b03166383189fa16040518163ffffffff1660e01b8152600401602060405180830381865afa925050508015613142575060408051601f3d908101601f1916820190925261313f918101906145e0565b60015b61314e5761314e6138ac565b9050613160565b61315d6138ac565b90505b670de0b6b3a7640000613173838361455d565b61317d919061458a565b9250505090565b6000806000670de0b6b3a764000061319a6130c9565b6007546131a7919061455d565b6131b1919061458a565b9250670de0b6b3a76400006131c46125b1565b6008546131d1919061455d565b6131db919061458a565b91506131e782846144f3565b9050909192565b6131f6613334565b6001600160a01b03811661322057604051631e4fbdf760e01b81526000600482015260240161190b565b6115668161385a565b613231613334565b7f00000000000000000000000000000000000000000000000000000000000000006001600160a01b0316836001600160a01b031614806132a257507f00000000000000000000000000000000000000000000000000000000000000006001600160a01b0316836001600160a01b0316145b156132f95760405162461bcd60e51b815260206004820152602160248201527f5573652077697468647261774475616c20666f72207661756c7420746f6b656e6044820152607360f81b606482015260840161190b565b6001600160a01b0381166133205760405163d92e233d60e01b815260040160405180910390fd5b6110c86001600160a01b0384168284613829565b6005546001600160a01b03163314611fa95760405163118cdaa760e01b815233600482015260240161190b565b600061158861336e610e63565b6133799060016144f3565b6133856000600a614a4d565b60025461339291906144f3565b85919085613d6c565b6110c88383836001613db0565b60006115886133b882600a614a4d565b6002546133c591906144f3565b6133cd610e63565b6133929060016144f3565b6001600160a01b038381166000908152600160209081526040808320938616835292905220546000198110156110c6578181101561342f57828183604051637dc7a0d960e11b815260040161190b93929190614a5c565b6110c684848484036000613db0565b6001600160a01b03831661346857604051634b637e8f60e11b81526000600482015260240161190b565b6001600160a01b0382166134925760405163ec442f0560e01b81526000600482015260240161190b565b6110c8838383613e77565b6040516001600160a01b0384811660248301528381166044830152606482018390526110c69186918216906323b872dd906084015b604051602081830303815290604052915060e01b6020820180516001600160e01b038381831617835250505050613f8e565b60026006540361352757604051633ee5aeb560e01b815260040160405180910390fd5b6002600655565b6001600160a01b0382166135585760405163ec442f0560e01b81526000600482015260240161190b565b61156460008383613e77565b600c54600003613572575050565b600061357e8383611197565b90508060000361358d57505050565b600b5460005b81811015613822576000600b82815481106135b0576135b06144a3565b60009182526020808320909101546001600160a01b0316808352600990915260409091205490915060ff1680156135fe57506001600160a01b0381166000908152600a602052604090205415155b1561381957600c546001600160a01b0382166000908152600a602052604081205490919061362c908761455d565b613636919061458a565b9050600080881161364857600061365d565b85613653898461455d565b61365d919061458a565b9050600080881161366f576000613684565b8661367a898561455d565b613684919061458a565b90506007548211156136965760075491505b6008548111156136a557506008545b60008211806136b45750600081115b156138155781156136f3576136f36001600160a01b037f0000000000000000000000000000000000000000000000000000000000000000168584613829565b801561372d5761372d6001600160a01b037f0000000000000000000000000000000000000000000000000000000000000000168583613829565b816007600082825461373f919061459e565b925050819055508060086000828254613758919061459e565b9091555050604051631c57762b60e31b815260048101839052602481018290526001600160a01b0385169063e2bbb158906044016020604051808303816000875af11580156137ab573d6000803e3d6000fd5b505050506040513d601f19601f820116820180604052508101906137cf91906145e0565b5060408051838152602081018390526001600160a01b038616917ffe21ae5405b014c3a0c011f9950992ccc080a66a6ea082b33d35fb760c11ebe7910160405180910390a25b5050505b50600101613593565b5050505050565b6040516001600160a01b038381166024830152604482018390526110c891859182169063a9059cbb906064016134d2565b600580546001600160a01b038381166001600160a01b0319831681179093556040519116919082907f8be0079c531659141344cd1fd0a4f28419497f9722a3daafe3b4186f6b6457e090600090a35050565b6000807f00000000000000000000000000000000000000000000000000000000000000006001600160a01b0316633850c7bd6040518163ffffffff1660e01b815260040160e060405180830381865afa15801561390d573d6000803e3d6000fd5b505050506040513d601f19601f820116820180604052508101906139319190614a8f565b50505050505090506000816001600160a01b0316826001600160a01b0316613959919061455d565b9050600160c01b60008161397584670de0b6b3a764000061455d565b61397f919061458a565b9050600081116139965766038d7ea4c680006139af565b6139af816ec097ce7bc90715b34b9f100000000061458a565b94508460000361258f5766038d7ea4c6800094505050505090565b6139f67f000000000000000000000000000000000000000000000000000000000000000085308561349d565b613a00838261352e565b826001600160a01b0316846001600160a01b03167fdcbc1c05240f31ff3ad067ef1ee35ce4997762752e3a095284754544f4c709d78484604051613a4e929190918252602082015260400190565b60405180910390a350505050565b600b546000908190815b81811015613c6f576000600b8281548110613a8357613a836144a3565b60009182526020808320909101546001600160a01b0316808352600990915260409091205490915060ff168015613aba5750600086115b15613c6657600080826001600160a01b031663c4a7761e6040518163ffffffff1660e01b81526004016040805180830381865afa158015613aff573d6000803e3d6000fd5b505050506040513d601f19601f82011682018060405250810190613b2391906144b9565b915091506000613b338383611197565b90508015613c6257600c546001600160a01b0385166000908152600a6020526040812054909190613b64908c61455d565b613b6e919061458a565b90508015613c6057604051632e1a7d4d60e01b81526004810182905260009081906001600160a01b03881690632e1a7d4d9060240160408051808303816000875af1158015613bc1573d6000803e3d6000fd5b505050506040513d601f19601f82011682018060405250810190613be591906144b9565b915091508160076000828254613bfb91906144f3565b925050819055508060086000828254613c1491906144f3565b90915550613c249050828c6144f3565b9a50613c30818b6144f3565b99506000613c3e8383611197565b90508c811015613c5757613c52818e61459e565b613c5a565b60005b9c505050505b505b5050505b50600101613a66565b5050915091565b6001600160a01b038216613ca057604051634b637e8f60e11b81526000600482015260240161190b565b61156482600083613e77565b826001600160a01b0316856001600160a01b031614613cd057613cd08386836133d8565b613cda8382613c76565b613d057f00000000000000000000000000000000000000000000000000000000000000008584613829565b826001600160a01b0316846001600160a01b0316866001600160a01b03167ffbde797d201c681b91056529119e0b02407c7bb96a4a2c75c01fc9667232c8db8585604051613d5d929190918252602082015260400190565b60405180910390a45050505050565b6000613d9b613d7a83613fff565b8015613d96575060008480613d9157613d91614574565b868809115b151590565b613da686868661402c565b612b4291906144f3565b6001600160a01b038416613dda5760405163e602df0560e01b81526000600482015260240161190b565b6001600160a01b038316613e0457604051634a1406b160e11b81526000600482015260240161190b565b6001600160a01b03808516600090815260016020908152604080832093871683529290522082905580156110c657826001600160a01b0316846001600160a01b03167f8c5be1e5ebec7d5bd14f71427d1e84f3dd0314c0f7b2291e5b200ac8c7c3b92584604051613a4e91815260200190565b6001600160a01b038316613ea2578060026000828254613e9791906144f3565b90915550613f019050565b6001600160a01b03831660009081526020819052604090205481811015613ee25783818360405163391434e360e21b815260040161190b93929190614a5c565b6001600160a01b03841660009081526020819052604090209082900390555b6001600160a01b038216613f1d57600280548290039055613f3c565b6001600160a01b03821660009081526020819052604090208054820190555b816001600160a01b0316836001600160a01b03167fddf252ad1be2c89b69c2b068fc378daa952ba7f163c4a11628f55a4df523b3ef83604051613f8191815260200190565b60405180910390a3505050565b600080602060008451602086016000885af180613fb1576040513d6000823e3d81fd5b50506000513d91508115613fc9578060011415613fd6565b6001600160a01b0384163b155b156110c657604051635274afe760e01b81526001600160a01b038516600482015260240161190b565b6000600282600381111561401557614015614b25565b61401f9190614b3b565b60ff166001149050919050565b600080600061403b86866140e1565b91509150816000036140605783818161405657614056614574565b0492505050611588565b8184116140775761407760038515026011186140ff565b6000848688096000868103871696879004966002600389028118808a02820302808a02820302808a02820302808a02820302808a02820302808a02909103029181900381900460010185841190960395909502919093039390930492909217029150509392505050565b60008060001983850993909202808410938190039390930393915050565b634e487b71600052806020526024601cfd5b6001600160a01b038116811461156657600080fd5b60008060006060848603121561413b57600080fd5b833561414681614111565b95602085013595506040909401359392505050565b60006020808352835180602085015260005b818110156141895785810183015185820160400152820161416d565b506000604082860101526040601f19601f8301168501019250505092915050565b6000602082840312156141bc57600080fd5b5035919050565b600080604083850312156141d657600080fd5b82356141e181614111565b946020939093013593505050565b6000806040838503121561420257600080fd5b50508035926020909101359150565b801515811461156657600080fd5b60006020828403121561423157600080fd5b813561158881614211565b60006020828403121561424e57600080fd5b813561158881614111565b60008060006060848603121561426e57600080fd5b833561427981614111565b9250602084013561428981614111565b929592945050506040919091013590565b60008151808452602080850194506020840160005b838110156142d45781516001600160a01b0316875295820195908201906001016142af565b509495945050505050565b60008151808452602080850194506020840160005b838110156142d4578151875295820195908201906001016142f4565b606081526000614323606083018661429a565b828103602084015261433581866142df565b9050828103604084015261434981856142df565b9695505050505050565b60008060006060848603121561436857600080fd5b8335925060208401359150604084013561438181614111565b809150509250925092565b6000806040838503121561439f57600080fd5b8235915060208301356143b181614111565b809150509250929050565b6000806000606084860312156143d157600080fd5b8335925060208401356143e381614111565b9150604084013561438181614111565b604081526000614406604083018561429a565b8281036020840152612b4281856142df565b60006020828403121561442a57600080fd5b813563ffffffff8116811461158857600080fd5b6000806040838503121561445157600080fd5b823561445c81614111565b915060208301356143b181614111565b60008060006060848603121561448157600080fd5b833561448c81614111565b925060208401359150604084013561438181614111565b634e487b7160e01b600052603260045260246000fd5b600080604083850312156144cc57600080fd5b505080516020909101519092909150565b634e487b7160e01b600052601160045260246000fd5b8082018082111561116c5761116c6144dd565b60006020828403121561451857600080fd5b815161158881614211565b600181811c9082168061453757607f821691505b60208210810361455757634e487b7160e01b600052602260045260246000fd5b50919050565b808202811582820484141761116c5761116c6144dd565b634e487b7160e01b600052601260045260246000fd5b60008261459957614599614574565b500490565b8181038181111561116c5761116c6144dd565b634e487b7160e01b600052603160045260246000fd5b60ff818116838216019081111561116c5761116c6144dd565b6000602082840312156145f257600080fd5b5051919050565b634e487b7160e01b600052604160045260246000fd5b6020808252825182820181905260009190848201906040850190845b8181101561464d57835163ffffffff168352928401929184019160010161462b565b50909695505050505050565b604051601f8201601f1916810167ffffffffffffffff81118282101715614682576146826145f9565b604052919050565b600067ffffffffffffffff8211156146a4576146a46145f9565b5060051b60200190565b600082601f8301126146bf57600080fd5b815160206146d46146cf8361468a565b614659565b8083825260208201915060208460051b8701019350868411156146f657600080fd5b602086015b8481101561471b57805161470e81614111565b83529183019183016146fb565b509695505050505050565b6000806040838503121561473957600080fd5b825167ffffffffffffffff8082111561475157600080fd5b818501915085601f83011261476557600080fd5b815160206147756146cf8361468a565b82815260059290921b8401810191818101908984111561479457600080fd5b948201945b838610156147c25785518060060b81146147b35760008081fd5b82529482019490820190614799565b918801519196509093505050808211156147db57600080fd5b506147e8858286016146ae565b9150509250929050565b600682810b9082900b03667fffffffffffff198112667fffffffffffff8213171561116c5761116c6144dd565b60008160060b8360060b8061483657614836614574565b667fffffffffffff19821460001982141615614854576148546144dd565b90059392505050565b80820260008212600160ff1b84141615614879576148796144dd565b818105831482151761116c5761116c6144dd565b80820182811260008312801582168215821617156148ad576148ad6144dd565b505092915050565b805169ffffffffffffffffffff811681146148cf57600080fd5b919050565b600080600080600060a086880312156148ec57600080fd5b6148f5866148b5565b9450602086015193506040860151925060608601519150614918608087016148b5565b90509295509295909350565b805160ff811681146148cf57600080fd5b60006020828403121561494757600080fd5b61158882614924565b60ff828116828216039081111561116c5761116c6144dd565b600181815b808511156149a457816000190482111561498a5761498a6144dd565b8085161561499757918102915b93841c939080029061496e565b509250929050565b6000826149bb5750600161116c565b816149c85750600061116c565b81600181146149de57600281146149e857614a04565b600191505061116c565b60ff8411156149f9576149f96144dd565b50506001821b61116c565b5060208310610133831016604e8410600b8410161715614a27575081810a61116c565b614a318383614969565b8060001904821115614a4557614a456144dd565b029392505050565b600061158860ff8416836149ac565b6001600160a01b039390931683526020830191909152604082015260600190565b805161ffff811681146148cf57600080fd5b600080600080600080600060e0888a031215614aaa57600080fd5b8751614ab581614111565b8097505060208801518060020b8114614acd57600080fd5b9550614adb60408901614a7d565b9450614ae960608901614a7d565b9350614af760808901614a7d565b9250614b0560a08901614924565b915060c0880151614b1581614211565b8091505092959891949750929550565b634e487b7160e01b600052602160045260246000fd5b600060ff831680614b4e57614b4e614574565b8060ff8416069150509291505056fea264697066735822122071d4a4c3502aa0037d6f49efa5240fa0007135e0755780fdaedc148088d2fc2164736f6c63430008160033","linkReferences":{}},"methodIdentifiers":{"MAX_STRATEGIES()":"767f06ae","UNISWAP_ROUTER()":"d8264920","USD1_PRICE_FEED()":"656a4b20","USD1_TOKEN()":"c6e831e8","WLFI_TOKEN()":"8ba17976","WLFI_USD1_POOL()":"96c1c433","_getTWAPPrice()":"83189fa1","acceptManager()":"48ff15b3","activeStrategies(address)":"2c178bd0","addStrategy(address,uint256)":"c9411e22","allowance(address,address)":"dd62ed3e","approve(address,uint256)":"095ea7b3","approveTokensToStrategy(address,uint256,uint256)":"05a4b97a","asset()":"38d52e0f","authorized(address)":"b9181611","balanceOf(address)":"70a08231","calculateUSDValue(uint256,uint256)":"119328d6","convertToAssets(uint256)":"07a2d13a","convertToShares(uint256)":"c6e6f592","decimals()":"313ce567","deploymentThreshold()":"a0317bd6","deposit(uint256,address)":"6e553f65","depositDual(uint256,uint256,address)":"5c272ef6","emergencyWithdrawTokens(uint256,uint256,address)":"6f9c189d","forceDeployToStrategies()":"68e5ce84","getCurrentPrices()":"852d0d6e","getStrategies()":"b49a60bb","getStrategyAssets()":"57fce5b7","getUSD1Price()":"89b12716","getVaultBalances()":"22370685","getVaultBalancesUSD()":"f06772ee","getWLFIPrice()":"ed84c5f3","injectCapital(uint256,uint256)":"386db353","lastDeployment()":"45650c07","lastRebalance()":"106b9ca1","manager()":"481c6a75","maxDeposit(address)":"402d267d","maxMint(address)":"c63d75b6","maxPriceAge()":"1584410a","maxRedeem(address)":"d905777e","maxTotalSupply()":"2ab4d052","maxWithdraw(address)":"ce96cb77","minDeploymentInterval()":"00cfdb09","mint(uint256,address)":"94bf804d","name()":"06fdde03","owner()":"8da5cb5b","paused()":"5c975abb","pendingManager()":"a00fff6f","previewDeposit(uint256)":"ef8b30f7","previewDepositDual(uint256,uint256)":"9699b63f","previewMint(uint256)":"b3d7f6b9","previewRedeem(uint256)":"4cdad506","previewWithdraw(uint256)":"0a28a477","redeem(uint256,address,address)":"ba087652","removeStrategy(address)":"175188e8","renounceOwnership()":"715018a6","rescueETH()":"20800a00","rescueToken(address,uint256,address)":"f8a67a62","setDeploymentParams(uint256,uint256)":"79f06d21","setManager(address)":"d0ebdbe7","setMaxPriceAge(uint256)":"56447ce8","setMaxTotalSupply(uint256)":"3f3e4c11","setPaused(bool)":"16c38b3c","setTWAPInterval(uint32)":"d88c1517","strategyList(uint256)":"a267526b","strategyWeights(address)":"7cd36844","symbol()":"95d89b41","syncBalances()":"336b78a0","totalAssets()":"01e1d114","totalStrategyWeight()":"98d3b209","totalSupply()":"18160ddd","transfer(address,uint256)":"a9059cbb","transferFrom(address,address,uint256)":"23b872dd","transferOwnership(address)":"f2fde38b","twapInterval()":"3c1d5df0","usd1Balance()":"055a2b58","withdraw(uint256,address,address)":"b460af94","withdrawDual(uint256,address)":"b09943c3","wlfiBalance()":"29ea1c0b"},"id":0}