{"abi":[{"type":"constructor","inputs":[{"name":"_wlfiToken","type":"address","internalType":"address"},{"name":"_usd1Token","type":"address","internalType":"address"},{"name":"_usd1PriceFeed","type":"address","internalType":"address"},{"name":"_wlfiUsd1Pool","type":"address","internalType":"address"},{"name":"_uniswapRouter","type":"address","internalType":"address"},{"name":"_owner","type":"address","internalType":"address"}],"stateMutability":"nonpayable"},{"type":"receive","stateMutability":"payable"},{"type":"function","name":"MAX_STRATEGIES","inputs":[],"outputs":[{"name":"","type":"uint256","internalType":"uint256"}],"stateMutability":"view"},{"type":"function","name":"UNISWAP_ROUTER","inputs":[],"outputs":[{"name":"","type":"address","internalType":"contract ISwapRouter"}],"stateMutability":"view"},{"type":"function","name":"USD1_PRICE_FEED","inputs":[],"outputs":[{"name":"","type":"address","internalType":"contract AggregatorV3Interface"}],"stateMutability":"view"},{"type":"function","name":"USD1_TOKEN","inputs":[],"outputs":[{"name":"","type":"address","internalType":"contract IERC20"}],"stateMutability":"view"},{"type":"function","name":"WLFI_TOKEN","inputs":[],"outputs":[{"name":"","type":"address","internalType":"contract IERC20"}],"stateMutability":"view"},{"type":"function","name":"WLFI_USD1_POOL","inputs":[],"outputs":[{"name":"","type":"address","internalType":"contract IUniswapV3Pool"}],"stateMutability":"view"},{"type":"function","name":"_getTWAPPrice","inputs":[],"outputs":[{"name":"","type":"uint256","internalType":"uint256"}],"stateMutability":"view"},{"type":"function","name":"acceptManager","inputs":[],"outputs":[],"stateMutability":"nonpayable"},{"type":"function","name":"activeStrategies","inputs":[{"name":"","type":"address","internalType":"address"}],"outputs":[{"name":"","type":"bool","internalType":"bool"}],"stateMutability":"view"},{"type":"function","name":"addStrategy","inputs":[{"name":"strategy","type":"address","internalType":"address"},{"name":"weight","type":"uint256","internalType":"uint256"}],"outputs":[],"stateMutability":"nonpayable"},{"type":"function","name":"allowance","inputs":[{"name":"owner","type":"address","internalType":"address"},{"name":"spender","type":"address","internalType":"address"}],"outputs":[{"name":"","type":"uint256","internalType":"uint256"}],"stateMutability":"view"},{"type":"function","name":"approve","inputs":[{"name":"spender","type":"address","internalType":"address"},{"name":"value","type":"uint256","internalType":"uint256"}],"outputs":[{"name":"","type":"bool","internalType":"bool"}],"stateMutability":"nonpayable"},{"type":"function","name":"approveTokensToStrategy","inputs":[{"name":"strategy","type":"address","internalType":"address"},{"name":"wlfiAmount","type":"uint256","internalType":"uint256"},{"name":"usd1Amount","type":"uint256","internalType":"uint256"}],"outputs":[],"stateMutability":"nonpayable"},{"type":"function","name":"asset","inputs":[],"outputs":[{"name":"","type":"address","internalType":"address"}],"stateMutability":"view"},{"type":"function","name":"authorized","inputs":[{"name":"","type":"address","internalType":"address"}],"outputs":[{"name":"","type":"bool","internalType":"bool"}],"stateMutability":"view"},{"type":"function","name":"balanceOf","inputs":[{"name":"account","type":"address","internalType":"address"}],"outputs":[{"name":"","type":"uint256","internalType":"uint256"}],"stateMutability":"view"},{"type":"function","name":"calculateUSDValue","inputs":[{"name":"wlfiAmount","type":"uint256","internalType":"uint256"},{"name":"usd1Amount","type":"uint256","internalType":"uint256"}],"outputs":[{"name":"usdValue","type":"uint256","internalType":"uint256"}],"stateMutability":"view"},{"type":"function","name":"convertToAssets","inputs":[{"name":"shares","type":"uint256","internalType":"uint256"}],"outputs":[{"name":"","type":"uint256","internalType":"uint256"}],"stateMutability":"view"},{"type":"function","name":"convertToShares","inputs":[{"name":"assets","type":"uint256","internalType":"uint256"}],"outputs":[{"name":"","type":"uint256","internalType":"uint256"}],"stateMutability":"view"},{"type":"function","name":"decimals","inputs":[],"outputs":[{"name":"","type":"uint8","internalType":"uint8"}],"stateMutability":"view"},{"type":"function","name":"deploymentThreshold","inputs":[],"outputs":[{"name":"","type":"uint256","internalType":"uint256"}],"stateMutability":"view"},{"type":"function","name":"deposit","inputs":[{"name":"assets","type":"uint256","internalType":"uint256"},{"name":"receiver","type":"address","internalType":"address"}],"outputs":[{"name":"shares","type":"uint256","internalType":"uint256"}],"stateMutability":"nonpayable"},{"type":"function","name":"depositDual","inputs":[{"name":"wlfiAmount","type":"uint256","internalType":"uint256"},{"name":"usd1Amount","type":"uint256","internalType":"uint256"},{"name":"receiver","type":"address","internalType":"address"}],"outputs":[{"name":"shares","type":"uint256","internalType":"uint256"}],"stateMutability":"nonpayable"},{"type":"function","name":"forceDeployToStrategies","inputs":[],"outputs":[],"stateMutability":"nonpayable"},{"type":"function","name":"getCurrentPrices","inputs":[],"outputs":[{"name":"wlfiPriceUSD","type":"uint256","internalType":"uint256"},{"name":"usd1PriceUSD","type":"uint256","internalType":"uint256"}],"stateMutability":"view"},{"type":"function","name":"getStrategies","inputs":[],"outputs":[{"name":"strategies","type":"address[]","internalType":"address[]"},{"name":"weights","type":"uint256[]","internalType":"uint256[]"}],"stateMutability":"view"},{"type":"function","name":"getStrategyAssets","inputs":[],"outputs":[{"name":"strategies","type":"address[]","internalType":"address[]"},{"name":"wlfiAmounts","type":"uint256[]","internalType":"uint256[]"},{"name":"usd1Amounts","type":"uint256[]","internalType":"uint256[]"}],"stateMutability":"view"},{"type":"function","name":"getUSD1Price","inputs":[],"outputs":[{"name":"price","type":"uint256","internalType":"uint256"}],"stateMutability":"view"},{"type":"function","name":"getVaultBalances","inputs":[],"outputs":[{"name":"wlfi","type":"uint256","internalType":"uint256"},{"name":"usd1","type":"uint256","internalType":"uint256"}],"stateMutability":"view"},{"type":"function","name":"getVaultBalancesUSD","inputs":[],"outputs":[{"name":"wlfiValueUSD","type":"uint256","internalType":"uint256"},{"name":"usd1ValueUSD","type":"uint256","internalType":"uint256"},{"name":"totalValueUSD","type":"uint256","internalType":"uint256"}],"stateMutability":"view"},{"type":"function","name":"getWLFIPrice","inputs":[],"outputs":[{"name":"price","type":"uint256","internalType":"uint256"}],"stateMutability":"view"},{"type":"function","name":"injectCapital","inputs":[{"name":"wlfiAmount","type":"uint256","internalType":"uint256"},{"name":"usd1Amount","type":"uint256","internalType":"uint256"}],"outputs":[],"stateMutability":"nonpayable"},{"type":"function","name":"lastDeployment","inputs":[],"outputs":[{"name":"","type":"uint256","internalType":"uint256"}],"stateMutability":"view"},{"type":"function","name":"lastRebalance","inputs":[],"outputs":[{"name":"","type":"uint256","internalType":"uint256"}],"stateMutability":"view"},{"type":"function","name":"manager","inputs":[],"outputs":[{"name":"","type":"address","internalType":"address"}],"stateMutability":"view"},{"type":"function","name":"maxDeposit","inputs":[{"name":"","type":"address","internalType":"address"}],"outputs":[{"name":"","type":"uint256","internalType":"uint256"}],"stateMutability":"view"},{"type":"function","name":"maxMint","inputs":[{"name":"","type":"address","internalType":"address"}],"outputs":[{"name":"","type":"uint256","internalType":"uint256"}],"stateMutability":"view"},{"type":"function","name":"maxPriceAge","inputs":[],"outputs":[{"name":"","type":"uint256","internalType":"uint256"}],"stateMutability":"view"},{"type":"function","name":"maxRedeem","inputs":[{"name":"owner","type":"address","internalType":"address"}],"outputs":[{"name":"","type":"uint256","internalType":"uint256"}],"stateMutability":"view"},{"type":"function","name":"maxTotalSupply","inputs":[],"outputs":[{"name":"","type":"uint256","internalType":"uint256"}],"stateMutability":"view"},{"type":"function","name":"maxWithdraw","inputs":[{"name":"owner","type":"address","internalType":"address"}],"outputs":[{"name":"","type":"uint256","internalType":"uint256"}],"stateMutability":"view"},{"type":"function","name":"minDeploymentInterval","inputs":[],"outputs":[{"name":"","type":"uint256","internalType":"uint256"}],"stateMutability":"view"},{"type":"function","name":"mint","inputs":[{"name":"shares","type":"uint256","internalType":"uint256"},{"name":"receiver","type":"address","internalType":"address"}],"outputs":[{"name":"","type":"uint256","internalType":"uint256"}],"stateMutability":"nonpayable"},{"type":"function","name":"name","inputs":[],"outputs":[{"name":"","type":"string","internalType":"string"}],"stateMutability":"view"},{"type":"function","name":"owner","inputs":[],"outputs":[{"name":"","type":"address","internalType":"address"}],"stateMutability":"view"},{"type":"function","name":"paused","inputs":[],"outputs":[{"name":"","type":"bool","internalType":"bool"}],"stateMutability":"view"},{"type":"function","name":"pendingManager","inputs":[],"outputs":[{"name":"","type":"address","internalType":"address"}],"stateMutability":"view"},{"type":"function","name":"previewDeposit","inputs":[{"name":"assets","type":"uint256","internalType":"uint256"}],"outputs":[{"name":"","type":"uint256","internalType":"uint256"}],"stateMutability":"view"},{"type":"function","name":"previewDepositDual","inputs":[{"name":"wlfiAmount","type":"uint256","internalType":"uint256"},{"name":"usd1Amount","type":"uint256","internalType":"uint256"}],"outputs":[{"name":"shares","type":"uint256","internalType":"uint256"},{"name":"usdValue","type":"uint256","internalType":"uint256"}],"stateMutability":"view"},{"type":"function","name":"previewMint","inputs":[{"name":"shares","type":"uint256","internalType":"uint256"}],"outputs":[{"name":"","type":"uint256","internalType":"uint256"}],"stateMutability":"view"},{"type":"function","name":"previewRedeem","inputs":[{"name":"shares","type":"uint256","internalType":"uint256"}],"outputs":[{"name":"","type":"uint256","internalType":"uint256"}],"stateMutability":"view"},{"type":"function","name":"previewWithdraw","inputs":[{"name":"assets","type":"uint256","internalType":"uint256"}],"outputs":[{"name":"","type":"uint256","internalType":"uint256"}],"stateMutability":"view"},{"type":"function","name":"redeem","inputs":[{"name":"shares","type":"uint256","internalType":"uint256"},{"name":"receiver","type":"address","internalType":"address"},{"name":"owner","type":"address","internalType":"address"}],"outputs":[{"name":"","type":"uint256","internalType":"uint256"}],"stateMutability":"nonpayable"},{"type":"function","name":"removeStrategy","inputs":[{"name":"strategy","type":"address","internalType":"address"}],"outputs":[],"stateMutability":"nonpayable"},{"type":"function","name":"renounceOwnership","inputs":[],"outputs":[],"stateMutability":"nonpayable"},{"type":"function","name":"rescueETH","inputs":[],"outputs":[],"stateMutability":"nonpayable"},{"type":"function","name":"rescueToken","inputs":[{"name":"token","type":"address","internalType":"address"},{"name":"amount","type":"uint256","internalType":"uint256"},{"name":"to","type":"address","internalType":"address"}],"outputs":[],"stateMutability":"nonpayable"},{"type":"function","name":"setDeploymentParams","inputs":[{"name":"_threshold","type":"uint256","internalType":"uint256"},{"name":"_interval","type":"uint256","internalType":"uint256"}],"outputs":[],"stateMutability":"nonpayable"},{"type":"function","name":"setManager","inputs":[{"name":"_newManager","type":"address","internalType":"address"}],"outputs":[],"stateMutability":"nonpayable"},{"type":"function","name":"setMaxPriceAge","inputs":[{"name":"_maxPriceAge","type":"uint256","internalType":"uint256"}],"outputs":[],"stateMutability":"nonpayable"},{"type":"function","name":"setMaxTotalSupply","inputs":[{"name":"_maxTotalSupply","type":"uint256","internalType":"uint256"}],"outputs":[],"stateMutability":"nonpayable"},{"type":"function","name":"setPaused","inputs":[{"name":"_paused","type":"bool","internalType":"bool"}],"outputs":[],"stateMutability":"nonpayable"},{"type":"function","name":"setTWAPInterval","inputs":[{"name":"_interval","type":"uint32","internalType":"uint32"}],"outputs":[],"stateMutability":"nonpayable"},{"type":"function","name":"strategyList","inputs":[{"name":"","type":"uint256","internalType":"uint256"}],"outputs":[{"name":"","type":"address","internalType":"address"}],"stateMutability":"view"},{"type":"function","name":"strategyWeights","inputs":[{"name":"","type":"address","internalType":"address"}],"outputs":[{"name":"","type":"uint256","internalType":"uint256"}],"stateMutability":"view"},{"type":"function","name":"symbol","inputs":[],"outputs":[{"name":"","type":"string","internalType":"string"}],"stateMutability":"view"},{"type":"function","name":"totalAssets","inputs":[],"outputs":[{"name":"","type":"uint256","internalType":"uint256"}],"stateMutability":"view"},{"type":"function","name":"totalStrategyWeight","inputs":[],"outputs":[{"name":"","type":"uint256","internalType":"uint256"}],"stateMutability":"view"},{"type":"function","name":"totalSupply","inputs":[],"outputs":[{"name":"","type":"uint256","internalType":"uint256"}],"stateMutability":"view"},{"type":"function","name":"transfer","inputs":[{"name":"to","type":"address","internalType":"address"},{"name":"value","type":"uint256","internalType":"uint256"}],"outputs":[{"name":"","type":"bool","internalType":"bool"}],"stateMutability":"nonpayable"},{"type":"function","name":"transferFrom","inputs":[{"name":"from","type":"address","internalType":"address"},{"name":"to","type":"address","internalType":"address"},{"name":"value","type":"uint256","internalType":"uint256"}],"outputs":[{"name":"","type":"bool","internalType":"bool"}],"stateMutability":"nonpayable"},{"type":"function","name":"transferOwnership","inputs":[{"name":"newOwner","type":"address","internalType":"address"}],"outputs":[],"stateMutability":"nonpayable"},{"type":"function","name":"twapInterval","inputs":[],"outputs":[{"name":"","type":"uint32","internalType":"uint32"}],"stateMutability":"view"},{"type":"function","name":"usd1Balance","inputs":[],"outputs":[{"name":"","type":"uint256","internalType":"uint256"}],"stateMutability":"view"},{"type":"function","name":"withdraw","inputs":[{"name":"assets","type":"uint256","internalType":"uint256"},{"name":"receiver","type":"address","internalType":"address"},{"name":"owner","type":"address","internalType":"address"}],"outputs":[{"name":"","type":"uint256","internalType":"uint256"}],"stateMutability":"nonpayable"},{"type":"function","name":"withdrawDual","inputs":[{"name":"shares","type":"uint256","internalType":"uint256"},{"name":"receiver","type":"address","internalType":"address"}],"outputs":[{"name":"wlfiAmount","type":"uint256","internalType":"uint256"},{"name":"usd1Amount","type":"uint256","internalType":"uint256"}],"stateMutability":"nonpayable"},{"type":"function","name":"wlfiBalance","inputs":[],"outputs":[{"name":"","type":"uint256","internalType":"uint256"}],"stateMutability":"view"},{"type":"event","name":"Approval","inputs":[{"name":"owner","type":"address","indexed":true,"internalType":"address"},{"name":"spender","type":"address","indexed":true,"internalType":"address"},{"name":"value","type":"uint256","indexed":false,"internalType":"uint256"}],"anonymous":false},{"type":"event","name":"CapitalInjected","inputs":[{"name":"from","type":"address","indexed":true,"internalType":"address"},{"name":"wlfiAmount","type":"uint256","indexed":false,"internalType":"uint256"},{"name":"usd1Amount","type":"uint256","indexed":false,"internalType":"uint256"}],"anonymous":false},{"type":"event","name":"Deposit","inputs":[{"name":"sender","type":"address","indexed":true,"internalType":"address"},{"name":"owner","type":"address","indexed":true,"internalType":"address"},{"name":"assets","type":"uint256","indexed":false,"internalType":"uint256"},{"name":"shares","type":"uint256","indexed":false,"internalType":"uint256"}],"anonymous":false},{"type":"event","name":"DualDeposit","inputs":[{"name":"user","type":"address","indexed":true,"internalType":"address"},{"name":"wlfiAmount","type":"uint256","indexed":false,"internalType":"uint256"},{"name":"usd1Amount","type":"uint256","indexed":false,"internalType":"uint256"},{"name":"wlfiPriceUSD","type":"uint256","indexed":false,"internalType":"uint256"},{"name":"usd1PriceUSD","type":"uint256","indexed":false,"internalType":"uint256"},{"name":"totalUSDValue","type":"uint256","indexed":false,"internalType":"uint256"},{"name":"shares","type":"uint256","indexed":false,"internalType":"uint256"}],"anonymous":false},{"type":"event","name":"DualWithdraw","inputs":[{"name":"user","type":"address","indexed":true,"internalType":"address"},{"name":"shares","type":"uint256","indexed":false,"internalType":"uint256"},{"name":"wlfiAmount","type":"uint256","indexed":false,"internalType":"uint256"},{"name":"usd1Amount","type":"uint256","indexed":false,"internalType":"uint256"}],"anonymous":false},{"type":"event","name":"EmergencyPause","inputs":[{"name":"paused","type":"bool","indexed":false,"internalType":"bool"}],"anonymous":false},{"type":"event","name":"ManagerSet","inputs":[{"name":"oldManager","type":"address","indexed":true,"internalType":"address"},{"name":"newManager","type":"address","indexed":true,"internalType":"address"}],"anonymous":false},{"type":"event","name":"OwnershipTransferred","inputs":[{"name":"previousOwner","type":"address","indexed":true,"internalType":"address"},{"name":"newOwner","type":"address","indexed":true,"internalType":"address"}],"anonymous":false},{"type":"event","name":"Rebalanced","inputs":[{"name":"newWlfiBalance","type":"uint256","indexed":false,"internalType":"uint256"},{"name":"newUsd1Balance","type":"uint256","indexed":false,"internalType":"uint256"}],"anonymous":false},{"type":"event","name":"StrategyAdded","inputs":[{"name":"strategy","type":"address","indexed":true,"internalType":"address"},{"name":"weight","type":"uint256","indexed":false,"internalType":"uint256"}],"anonymous":false},{"type":"event","name":"StrategyDeployed","inputs":[{"name":"strategy","type":"address","indexed":true,"internalType":"address"},{"name":"wlfiDeployed","type":"uint256","indexed":false,"internalType":"uint256"},{"name":"usd1Deployed","type":"uint256","indexed":false,"internalType":"uint256"}],"anonymous":false},{"type":"event","name":"StrategyRemoved","inputs":[{"name":"strategy","type":"address","indexed":true,"internalType":"address"}],"anonymous":false},{"type":"event","name":"Transfer","inputs":[{"name":"from","type":"address","indexed":true,"internalType":"address"},{"name":"to","type":"address","indexed":true,"internalType":"address"},{"name":"value","type":"uint256","indexed":false,"internalType":"uint256"}],"anonymous":false},{"type":"event","name":"Withdraw","inputs":[{"name":"sender","type":"address","indexed":true,"internalType":"address"},{"name":"receiver","type":"address","indexed":true,"internalType":"address"},{"name":"owner","type":"address","indexed":true,"internalType":"address"},{"name":"assets","type":"uint256","indexed":false,"internalType":"uint256"},{"name":"shares","type":"uint256","indexed":false,"internalType":"uint256"}],"anonymous":false},{"type":"error","name":"ERC20InsufficientAllowance","inputs":[{"name":"spender","type":"address","internalType":"address"},{"name":"allowance","type":"uint256","internalType":"uint256"},{"name":"needed","type":"uint256","internalType":"uint256"}]},{"type":"error","name":"ERC20InsufficientBalance","inputs":[{"name":"sender","type":"address","internalType":"address"},{"name":"balance","type":"uint256","internalType":"uint256"},{"name":"needed","type":"uint256","internalType":"uint256"}]},{"type":"error","name":"ERC20InvalidApprover","inputs":[{"name":"approver","type":"address","internalType":"address"}]},{"type":"error","name":"ERC20InvalidReceiver","inputs":[{"name":"receiver","type":"address","internalType":"address"}]},{"type":"error","name":"ERC20InvalidSender","inputs":[{"name":"sender","type":"address","internalType":"address"}]},{"type":"error","name":"ERC20InvalidSpender","inputs":[{"name":"spender","type":"address","internalType":"address"}]},{"type":"error","name":"ERC4626ExceededMaxDeposit","inputs":[{"name":"receiver","type":"address","internalType":"address"},{"name":"assets","type":"uint256","internalType":"uint256"},{"name":"max","type":"uint256","internalType":"uint256"}]},{"type":"error","name":"ERC4626ExceededMaxMint","inputs":[{"name":"receiver","type":"address","internalType":"address"},{"name":"shares","type":"uint256","internalType":"uint256"},{"name":"max","type":"uint256","internalType":"uint256"}]},{"type":"error","name":"ERC4626ExceededMaxRedeem","inputs":[{"name":"owner","type":"address","internalType":"address"},{"name":"shares","type":"uint256","internalType":"uint256"},{"name":"max","type":"uint256","internalType":"uint256"}]},{"type":"error","name":"ERC4626ExceededMaxWithdraw","inputs":[{"name":"owner","type":"address","internalType":"address"},{"name":"assets","type":"uint256","internalType":"uint256"},{"name":"max","type":"uint256","internalType":"uint256"}]},{"type":"error","name":"InsufficientBalance","inputs":[]},{"type":"error","name":"InvalidAmount","inputs":[]},{"type":"error","name":"InvalidPrice","inputs":[]},{"type":"error","name":"InvalidWeight","inputs":[]},{"type":"error","name":"MaxStrategiesReached","inputs":[]},{"type":"error","name":"OwnableInvalidOwner","inputs":[{"name":"owner","type":"address","internalType":"address"}]},{"type":"error","name":"OwnableUnauthorizedAccount","inputs":[{"name":"account","type":"address","internalType":"address"}]},{"type":"error","name":"Paused","inputs":[]},{"type":"error","name":"ReentrancyGuardReentrantCall","inputs":[]},{"type":"error","name":"SafeERC20FailedOperation","inputs":[{"name":"token","type":"address","internalType":"address"}]},{"type":"error","name":"SlippageExceeded","inputs":[]},{"type":"error","name":"StalePrice","inputs":[]},{"type":"error","name":"StrategyAlreadyActive","inputs":[]},{"type":"error","name":"StrategyNotActive","inputs":[]},{"type":"error","name":"Unauthorized","inputs":[]},{"type":"error","name":"ZeroAddress","inputs":[]}],"bytecode":{"object":"0x6101606040526a295be96e64066972000000600d55600e805463ffffffff191661070817905562015180600f5568056bc75e2d6310000060105561012c6011553480156200004c57600080fd5b5060405162004e5f38038062004e5f8339810160408190526200006f9162000385565b8086604051806040016040528060128152602001714561676c65205661756c742053686172657360701b81525060405180604001604052806006815260200165764541474c4560d01b8152508160039081620000cc9190620004ad565b506004620000db8282620004ad565b505050600080620000f2836200023160201b60201c565b91509150816200010457601262000106565b805b60ff1660a05250506001600160a01b0390811660805281166200014357604051631e4fbdf760e01b81526000600482015260240160405180910390fd5b6200014e8162000316565b5060016006556001600160a01b03861615806200017257506001600160a01b038516155b806200018557506001600160a01b038416155b806200019857506001600160a01b038316155b80620001ab57506001600160a01b038216155b15620001ca5760405163d92e233d60e01b815260040160405180910390fd5b6001600160a01b0395861660e05293851660c05291841661010052831661012052821661014052601380546001600160a01b031916919092169081179091556000908152601560205260409020805460ff19166001179055426012819055601655620005c4565b60408051600481526024810182526020810180516001600160e01b031663313ce56760e01b17905290516000918291829182916001600160a01b038716916200027a9162000579565b600060405180830381855afa9150503d8060008114620002b7576040519150601f19603f3d011682016040523d82523d6000602084013e620002bc565b606091505b5091509150818015620002d157506020815110155b156200030957600081806020019051810190620002ef9190620005aa565b905060ff811162000307576001969095509350505050565b505b5060009485945092505050565b600580546001600160a01b038381166001600160a01b0319831681179093556040519116919082907f8be0079c531659141344cd1fd0a4f28419497f9722a3daafe3b4186f6b6457e090600090a35050565b80516001600160a01b03811681146200038057600080fd5b919050565b60008060008060008060c087890312156200039f57600080fd5b620003aa8762000368565b9550620003ba6020880162000368565b9450620003ca6040880162000368565b9350620003da6060880162000368565b9250620003ea6080880162000368565b9150620003fa60a0880162000368565b90509295509295509295565b634e487b7160e01b600052604160045260246000fd5b600181811c908216806200043157607f821691505b6020821081036200045257634e487b7160e01b600052602260045260246000fd5b50919050565b601f821115620004a8576000816000526020600020601f850160051c81016020861015620004835750805b601f850160051c820191505b81811015620004a4578281556001016200048f565b5050505b505050565b81516001600160401b03811115620004c957620004c962000406565b620004e181620004da84546200041c565b8462000458565b602080601f831160018114620005195760008415620005005750858301515b600019600386901b1c1916600185901b178555620004a4565b600085815260208120601f198616915b828110156200054a5788860151825594840194600190910190840162000529565b5085821015620005695787850151600019600388901b60f8161c191681555b5050505050600190811b01905550565b6000825160005b818110156200059c576020818601810151858301520162000580565b506000920191825250919050565b600060208284031215620005bd57600080fd5b5051919050565b60805160a05160c05160e0516101005161012051610140516147c9620006966000396000610ceb015260008181610aa40152818161206901526134b60152600081816108a801528181612208015261233b0152600081816109fd01528181610f73015281816115fa01528181611b8301528181611e64015281816126780152612e80015260008181610c570152818161100e0152818161164d01528181611bd6015281816126b20152612ebb0152600061154c01526000818161071a015281816135d4015261391501526147c96000f3fe6080604052600436106104555760003560e01c8063715018a61161023f578063b3d7f6b911610139578063d0ebdbe7116100b6578063ed84c5f31161007a578063ed84c5f314610d93578063ef8b30f714610c25578063f06772ee14610da8578063f2fde38b14610dd8578063f8a67a6214610df857600080fd5b8063d0ebdbe714610cb9578063d826492014610cd9578063d88c151714610d0d578063d905777e14610d2d578063dd62ed3e14610d4d57600080fd5b8063c63d75b6116100fd578063c63d75b6146107a4578063c6e6f59214610c25578063c6e831e814610c45578063c9411e2214610c79578063ce96cb7714610c9957600080fd5b8063b3d7f6b914610b72578063b460af9414610b92578063b49a60bb14610bb2578063b918161114610bd5578063ba08765214610c0557600080fd5b806394bf804d116101c7578063a00fff6f1161018b578063a00fff6f14610adc578063a0317bd614610afc578063a267526b14610b12578063a9059cbb14610b32578063b09943c314610b5257600080fd5b806394bf804d14610a3d57806395d89b4114610a5d5780639699b63f14610a7257806396c1c43314610a9257806398d3b20914610ac657600080fd5b806383189fa11161020e57806383189fa1146109ac578063852d0d6e146109c157806389b12716146109d65780638ba17976146109eb5780638da5cb5b14610a1f57600080fd5b8063715018a614610935578063767f06ae1461094a57806379f06d211461095f5780637cd368441461097f57600080fd5b80632c178bd01161035057806348ff15b3116102d85780635c975abb1161029c5780635c975abb14610875578063656a4b201461089657806368e5ce84146108ca5780636e553f65146108df57806370a08231146108ff57600080fd5b806348ff15b3146107fc5780634cdad506146104f957806356447ce81461081157806357fce5b7146108315780635c272ef61461085557600080fd5b80633c1d5df01161031f5780633c1d5df0146107525780633f3e4c1114610784578063402d267d146107a457806345650c07146107c6578063481c6a75146107dc57600080fd5b80632c178bd014610694578063313ce567146106c4578063386db353146106eb57806338d52e0f1461070b57600080fd5b8063119328d6116103de57806320800a00116103a257806320800a001461060a578063223706851461061f57806323b872dd1461064857806329ea1c0b146106685780632ab4d0521461067e57600080fd5b8063119328d61461057f5780631584410a1461059f57806316c38b3c146105b5578063175188e8146105d557806318160ddd146105f557600080fd5b806306fdde031161042557806306fdde03146104d757806307a2d13a146104f9578063095ea7b3146105195780630a28a47714610549578063106b9ca11461056957600080fd5b8062cfdb091461046157806301e1d1141461048a578063055a2b581461049f57806305a4b97a146104b557600080fd5b3661045c57005b600080fd5b34801561046d57600080fd5b5061047760115481565b6040519081526020015b60405180910390f35b34801561049657600080fd5b50610477610e18565b3480156104ab57600080fd5b5061047760085481565b3480156104c157600080fd5b506104d56104d0366004613d5c565b610f3f565b005b3480156104e357600080fd5b506104ec611082565b6040516104819190613d91565b34801561050557600080fd5b50610477610514366004613de0565b611114565b34801561052557600080fd5b50610539610534366004613df9565b611127565b6040519015158152602001610481565b34801561055557600080fd5b50610477610564366004613de0565b61113f565b34801561057557600080fd5b5061047760165481565b34801561058b57600080fd5b5061047761059a366004613e25565b61114c565b3480156105ab57600080fd5b50610477600f5481565b3480156105c157600080fd5b506104d56105d0366004613e55565b6111bc565b3480156105e157600080fd5b506104d56105f0366004613e72565b61121c565b34801561060157600080fd5b50600254610477565b34801561061657600080fd5b506104d56114d0565b34801561062b57600080fd5b506007546008545b60408051928352602083019190915201610481565b34801561065457600080fd5b50610539610663366004613e8f565b61151e565b34801561067457600080fd5b5061047760075481565b34801561068a57600080fd5b50610477600d5481565b3480156106a057600080fd5b506105396106af366004613e72565b60096020526000908152604090205460ff1681565b3480156106d057600080fd5b506106d9611544565b60405160ff9091168152602001610481565b3480156106f757600080fd5b506104d5610706366004613e25565b611575565b34801561071757600080fd5b507f00000000000000000000000000000000000000000000000000000000000000005b6040516001600160a01b039091168152602001610481565b34801561075e57600080fd5b50600e5461076f9063ffffffff1681565b60405163ffffffff9091168152602001610481565b34801561079057600080fd5b506104d561079f366004613de0565b6116cd565b3480156107b057600080fd5b506104776107bf366004613e72565b5060001990565b3480156107d257600080fd5b5061047760125481565b3480156107e857600080fd5b5060135461073a906001600160a01b031681565b34801561080857600080fd5b506104d561176f565b34801561081d57600080fd5b506104d561082c366004613de0565b611810565b34801561083d57600080fd5b5061084661186c565b60405161048193929190613f46565b34801561086157600080fd5b50610477610870366004613f89565b611ad2565b34801561088157600080fd5b5060145461053990600160a01b900460ff1681565b3480156108a257600080fd5b5061073a7f000000000000000000000000000000000000000000000000000000000000000081565b3480156108d657600080fd5b506104d5611d2f565b3480156108eb57600080fd5b506104776108fa366004613fc2565b611dda565b34801561090b57600080fd5b5061047761091a366004613e72565b6001600160a01b031660009081526020819052604090205490565b34801561094157600080fd5b506104d5611fa4565b34801561095657600080fd5b50610477600581565b34801561096b57600080fd5b506104d561097a366004613e25565b611fb6565b34801561098b57600080fd5b5061047761099a366004613e72565b600a6020526000908152604090205481565b3480156109b857600080fd5b50610477611fc9565b3480156109cd57600080fd5b506106336121e3565b3480156109e257600080fd5b506104776121fe565b3480156109f757600080fd5b5061073a7f000000000000000000000000000000000000000000000000000000000000000081565b348015610a2b57600080fd5b506005546001600160a01b031661073a565b348015610a4957600080fd5b50610477610a58366004613fc2565b612421565b348015610a6957600080fd5b506104ec612447565b348015610a7e57600080fd5b50610633610a8d366004613e25565b612456565b348015610a9e57600080fd5b5061073a7f000000000000000000000000000000000000000000000000000000000000000081565b348015610ad257600080fd5b50610477600c5481565b348015610ae857600080fd5b5060145461073a906001600160a01b031681565b348015610b0857600080fd5b5061047760105481565b348015610b1e57600080fd5b5061073a610b2d366004613de0565b6124ad565b348015610b3e57600080fd5b50610539610b4d366004613df9565b6124d7565b348015610b5e57600080fd5b50610633610b6d366004613fc2565b6124e5565b348015610b7e57600080fd5b50610477610b8d366004613de0565b612733565b348015610b9e57600080fd5b50610477610bad366004613ff2565b612740565b348015610bbe57600080fd5b50610bc7612798565b604051610481929190614029565b348015610be157600080fd5b50610539610bf0366004613e72565b60156020526000908152604090205460ff1681565b348015610c1157600080fd5b50610477610c20366004613ff2565b612901565b348015610c3157600080fd5b50610477610c40366004613de0565b612950565b348015610c5157600080fd5b5061073a7f000000000000000000000000000000000000000000000000000000000000000081565b348015610c8557600080fd5b506104d5610c94366004613df9565b61295d565b348015610ca557600080fd5b50610477610cb4366004613e72565b612bf2565b348015610cc557600080fd5b506104d5610cd4366004613e72565b612c16565b348015610ce557600080fd5b5061073a7f000000000000000000000000000000000000000000000000000000000000000081565b348015610d1957600080fd5b506104d5610d2836600461404e565b612c67565b348015610d3957600080fd5b50610477610d48366004613e72565b612cf8565b348015610d5957600080fd5b50610477610d68366004614074565b6001600160a01b03918216600090815260016020908152604080832093909416825291909152205490565b348015610d9f57600080fd5b50610477612d16565b348015610db457600080fd5b50610dbd612dd1565b60408051938452602084019290925290820152606001610481565b348015610de457600080fd5b506104d5610df3366004613e72565b612e3b565b348015610e0457600080fd5b506104d5610e133660046140a2565b612e76565b600080610e2960075460085461114c565b600b5490915060005b81811015610f375760096000600b8381548110610e5157610e516140d9565b60009182526020808320909101546001600160a01b0316835282019290925260400190205460ff1615610f2f57600080600b8381548110610e9457610e946140d9565b9060005260206000200160009054906101000a90046001600160a01b03166001600160a01b031663c4a7761e6040518163ffffffff1660e01b81526004016040805180830381865afa158015610eee573d6000803e3d6000fd5b505050506040513d601f19601f82011682018060405250810190610f1291906140ef565b91509150610f20828261114c565b610f2a9086614129565b945050505b600101610e32565b509092915050565b610f47612f81565b8115610fe25760405163095ea7b360e01b81526001600160a01b038481166004830152602482018490527f0000000000000000000000000000000000000000000000000000000000000000169063095ea7b3906044016020604051808303816000875af1158015610fbc573d6000803e3d6000fd5b505050506040513d601f19601f82011682018060405250810190610fe0919061413c565b505b801561107d5760405163095ea7b360e01b81526001600160a01b038481166004830152602482018390527f0000000000000000000000000000000000000000000000000000000000000000169063095ea7b3906044016020604051808303816000875af1158015611057573d6000803e3d6000fd5b505050506040513d601f19601f8201168201806040525081019061107b919061413c565b505b505050565b60606003805461109190614159565b80601f01602080910402602001604051908101604052809291908181526020018280546110bd90614159565b801561110a5780601f106110df5761010080835404028352916020019161110a565b820191906000526020600020905b8154815290600101906020018083116110ed57829003601f168201915b5050505050905090565b6000611121826000612fae565b92915050565b600033611135818585612fe8565b5060019392505050565b6000611121826001612ff5565b600080611157612d16565b905060006111636121fe565b90506000670de0b6b3a764000061117a8488614193565b61118491906141c0565b90506000670de0b6b3a764000061119b8488614193565b6111a591906141c0565b90506111b18183614129565b979650505050505050565b6111c4612f81565b60148054821515600160a01b0260ff60a01b199091161790556040517fb80d1ae5628c2af91424c54c87acfd15016be4bebeef0425b328238702f348319061121190831515815260200190565b60405180910390a150565b6013546001600160a01b0316331480159061124257506005546001600160a01b03163314155b1561125f576040516282b42960e81b815260040160405180910390fd5b6001600160a01b03811660009081526009602052604090205460ff1661129857604051631b92e95360e31b815260040160405180910390fd5b604051632e1a7d4d60e01b8152600019600482015260009081906001600160a01b03841690632e1a7d4d9060240160408051808303816000875af11580156112e4573d6000803e3d6000fd5b505050506040513d601f19601f8201168201806040525081019061130891906140ef565b91509150816007600082825461131e9190614129565b9250508190555080600860008282546113379190614129565b90915550506001600160a01b0383166000908152600960209081526040808320805460ff19169055600a909152812054600c80549192909161137a9084906141d4565b90915550506001600160a01b0383166000908152600a60205260408120819055600b54905b8181101561149557846001600160a01b0316600b82815481106113c4576113c46140d9565b6000918252602090912001546001600160a01b03160361148d57600b6113eb6001846141d4565b815481106113fb576113fb6140d9565b600091825260209091200154600b80546001600160a01b039092169183908110611427576114276140d9565b9060005260206000200160006101000a8154816001600160a01b0302191690836001600160a01b03160217905550600b805480611466576114666141e7565b600082815260209020810160001990810180546001600160a01b0319169055019055611495565b60010161139f565b506040516001600160a01b038516907f09a1db4b80c32706328728508c941a6b954f31eb5affd32f236c1fd405f8fea490600090a250505050565b6114d8612f81565b47801561151b576005546040516001600160a01b039091169082156108fc029083906000818181858888f19350505050158015611519573d6000803e3d6000fd5b505b50565b60003361152c858285613025565b61153785858561308b565b60019150505b9392505050565b6000611570817f00000000000000000000000000000000000000000000000000000000000000006141fd565b905090565b3360009081526015602052604090205460ff161580156115a057506005546001600160a01b03163314155b156115bd576040516282b42960e81b815260040160405180910390fd5b811580156115c9575080155b156115e75760405163162908e360e11b815260040160405180910390fd5b811561163a576116226001600160a01b037f0000000000000000000000000000000000000000000000000000000000000000163330856130ea565b81600760008282546116349190614129565b90915550505b801561168d576116756001600160a01b037f0000000000000000000000000000000000000000000000000000000000000000163330846130ea565b80600860008282546116879190614129565b90915550505b604080518381526020810183905233917fbe3fa47138efc08c52a1c62d79a4f0f1834fcb990b2bdcd62e673c3622bdd33f91015b60405180910390a25050565b6116d5612f81565b6002548110156117235760405162461bcd60e51b815260206004820152601460248201527342656c6f772063757272656e7420737570706c7960601b60448201526064015b60405180910390fd5b6b033b2e3c9fd0803ce800000081111561176a5760405162461bcd60e51b81526020600482015260086024820152670a8dede40d0d2ced60c31b604482015260640161171a565b600d55565b6014546001600160a01b03163314611799576040516282b42960e81b815260040160405180910390fd5b60138054601480546001600160a01b038082166001600160a01b031980861682178755909216909255600090815260156020526040808220805460ff1916600117905593549351928216939091169183917fc64707e618a83637fc41ad1e3aa4242bd5fdd353f3d60bc0faf40db0d7d8607891a350565b611818612f81565b610e10811015801561182d57506202a3008111155b6118675760405162461bcd60e51b815260206004820152600b60248201526a496e76616c69642061676560a81b604482015260640161171a565b600f55565b600b54606090819081908067ffffffffffffffff81111561188f5761188f614216565b6040519080825280602002602001820160405280156118b8578160200160208202803683370190505b5093508067ffffffffffffffff8111156118d4576118d4614216565b6040519080825280602002602001820160405280156118fd578160200160208202803683370190505b5092508067ffffffffffffffff81111561191957611919614216565b604051908082528060200260200182016040528015611942578160200160208202803683370190505b50915060005b81811015611acb57600b8181548110611963576119636140d9565b9060005260206000200160009054906101000a90046001600160a01b0316858281518110611993576119936140d9565b60200260200101906001600160a01b031690816001600160a01b03168152505060096000600b83815481106119ca576119ca6140d9565b60009182526020808320909101546001600160a01b0316835282019290925260400190205460ff1615611ac357600b8181548110611a0a57611a0a6140d9565b9060005260206000200160009054906101000a90046001600160a01b03166001600160a01b031663c4a7761e6040518163ffffffff1660e01b81526004016040805180830381865afa158015611a64573d6000803e3d6000fd5b505050506040513d601f19601f82011682018060405250810190611a8891906140ef565b858381518110611a9a57611a9a6140d9565b60200260200101858481518110611ab357611ab36140d9565b6020908102919091010191909152525b600101611948565b5050909192565b6000611adc613151565b601454600160a01b900460ff1615611b07576040516313d0ff5960e31b815260040160405180910390fd5b83158015611b13575082155b15611b315760405163162908e360e11b815260040160405180910390fd5b6001600160a01b038216611b585760405163d92e233d60e01b815260040160405180910390fd5b6000611b62612d16565b90506000611b6e6121fe565b90508515611bc357611bab6001600160a01b037f0000000000000000000000000000000000000000000000000000000000000000163330896130ea565b8560076000828254611bbd9190614129565b90915550505b8415611c1657611bfe6001600160a01b037f0000000000000000000000000000000000000000000000000000000000000000163330886130ea565b8460086000828254611c109190614129565b90915550505b6000611c22878761114c565b9050611c2d60025490565b600003611c4857611c418162013880614193565b9350611c6a565b611c50610e18565b600254611c5d9083614193565b611c6791906141c0565b93505b600d5484611c7760025490565b611c819190614129565b1115611ca05760405163162908e360e11b815260040160405180910390fd5b611caa858561317b565b611cb26131b1565b15611cca57611cc560075460085461320e565b426012555b6040805188815260208101889052908101849052606081018390526080810182905260a0810185905233907f527388e4dad6def65deffcf72e615ac5b8b230c9972b404d6f5f5d29a96954ea9060c00160405180910390a250505061153d6001600655565b6013546001600160a01b03163314801590611d5557506005546001600160a01b03163314155b15611d72576040516282b42960e81b815260040160405180910390fd5b611d7a613151565b600c54600003611dbc5760405162461bcd60e51b815260206004820152600d60248201526c4e6f207374726174656769657360981b604482015260640161171a565b611dca60075460085461320e565b42601255611dd86001600655565b565b6000611de4613151565b601454600160a01b900460ff1615611e0f576040516313d0ff5960e31b815260040160405180910390fd5b82600003611e305760405163162908e360e11b815260040160405180910390fd5b6001600160a01b038216611e575760405163d92e233d60e01b815260040160405180910390fd5b611e8c6001600160a01b037f0000000000000000000000000000000000000000000000000000000000000000163330866130ea565b8260076000828254611e9e9190614129565b9091555060009050611eb0848261114c565b9050611ebb60025490565b15611ee457611ec8610e18565b600254611ed59083614193565b611edf91906141c0565b611ef1565b611ef18162013880614193565b9150600d5482611f0060025490565b611f0a9190614129565b1115611f295760405163162908e360e11b815260040160405180910390fd5b611f33838361317b565b611f3b6131b1565b15611f5357611f4e60075460085461320e565b426012555b60408051858152602081018490526001600160a01b0385169133917fdcbc1c05240f31ff3ad067ef1ee35ce4997762752e3a095284754544f4c709d7910160405180910390a3506111216001600655565b611fac612f81565b611dd8600061345f565b611fbe612f81565b601091909155601155565b604080516002808252606082018352600092839291906020830190803683375050600e54825192935063ffffffff169183915060009061200b5761200b6140d9565b602002602001019063ffffffff16908163ffffffff168152505060008160018151811061203a5761203a6140d9565b63ffffffff9092166020928302919091019091015260405163883bdbfd60e01b81526000906001600160a01b037f0000000000000000000000000000000000000000000000000000000000000000169063883bdbfd9061209e90859060040161422c565b600060405180830381865afa1580156120bb573d6000803e3d6000fd5b505050506040513d6000823e601f3d908101601f191682016040526120e39190810190614343565b5090506000816000815181106120fb576120fb6140d9565b602002602001015182600181518110612116576121166140d9565b6020026020010151612128919061440f565b600e549091506000906121419063ffffffff168361443c565b90506103e7198160020b13801561215c57506103e88160020b125b156121cb57670de0b6b3a76400006000612180600284900b655af3107a400061447a565b9050600061218e82846144aa565b9050600081116121a657670de0b6b3a76400006121bf565b6121bf816ec097ce7bc90715b34b9f10000000006141c0565b97505050505050505090565b6121d36134b1565b94505050505090565b5050505090565b6000806121ee612d16565b6121f66121fe565b915091509091565b60008060008060007f00000000000000000000000000000000000000000000000000000000000000006001600160a01b031663feaf968c6040518163ffffffff1660e01b815260040160a060405180830381865afa158015612264573d6000803e3d6000fd5b505050506040513d601f19601f8201168201806040525081019061228891906144f1565b945094505093509350600083136122b15760405162bfc92160e01b815260040160405180910390fd5b816000036122d257604051630cd5fa0760e11b815260040160405180910390fd5b8369ffffffffffffffffffff168169ffffffffffffffffffff16101561230b57604051630cd5fa0760e11b815260040160405180910390fd5b600f5461231883426141d4565b111561233757604051630cd5fa0760e11b815260040160405180910390fd5b60007f00000000000000000000000000000000000000000000000000000000000000006001600160a01b031663313ce5676040518163ffffffff1660e01b8152600401602060405180830381865afa158015612397573d6000803e3d6000fd5b505050506040513d601f19601f820116820180604052508101906123bb9190614552565b90506123c881601261456d565b6123d390600a61466a565b6123dd9085614193565b9550670d2f13f7789f00008610806123fc5750670e92596fd629000086115b156124195760405162bfc92160e01b815260040160405180910390fd5b505050505090565b6000600019600061243185612733565b905061243f338583886135cf565b949350505050565b60606004805461109190614159565b600080612463848461114c565b905061246e60025490565b156124975761247b610e18565b6002546124889083614193565b61249291906141c0565b6124a4565b6124a48162013880614193565b91509250929050565b600b81815481106124bd57600080fd5b6000918252602090912001546001600160a01b0316905081565b60003361113581858561308b565b6000806124f0613151565b836000036125115760405163162908e360e11b815260040160405180910390fd5b6001600160a01b0383166125385760405163d92e233d60e01b815260040160405180910390fd5b3360009081526020819052604090205484111561256857604051631e9acf1760e31b815260040160405180910390fd5b6000612572610e18565b9050600061257f60025490565b905060008161258e8885614193565b61259891906141c0565b9050600082886007546125ab9190614193565b6125b591906141c0565b9050600083896008546125c89190614193565b6125d291906141c0565b905081965080955060006125e6838361114c565b90508381101561262b5760006125fc82866141d4565b905060008061260a83613661565b9092509050612619828c614129565b9a50612625818b614129565b99505050505b612635338b61387b565b826007600082825461264791906141d4565b92505081905550816008600082825461266091906141d4565b9091555050871561269f5761269f6001600160a01b037f0000000000000000000000000000000000000000000000000000000000000000168a8a6138b1565b86156126d9576126d96001600160a01b037f0000000000000000000000000000000000000000000000000000000000000000168a896138b1565b604080518b8152602081018a905290810188905233907fd9c54d301d6668689a527e28d9849021b9227514f8ce8c57b95ca5dee5e60a2d9060600160405180910390a250505050505061272c6001600655565b9250929050565b6000611121826001612fae565b60008061274c83612bf2565b90508085111561277557828582604051633fa733bb60e21b815260040161171a93929190614679565b60006127808661113f565b905061278f33868689856138e2565b95945050505050565b600b5460609081908067ffffffffffffffff8111156127b9576127b9614216565b6040519080825280602002602001820160405280156127e2578160200160208202803683370190505b5092508067ffffffffffffffff8111156127fe576127fe614216565b604051908082528060200260200182016040528015612827578160200160208202803683370190505b50915060005b818110156128fb57600b8181548110612848576128486140d9565b9060005260206000200160009054906101000a90046001600160a01b0316848281518110612878576128786140d9565b60200260200101906001600160a01b031690816001600160a01b031681525050600a6000600b83815481106128af576128af6140d9565b60009182526020808320909101546001600160a01b0316835282019290925260400190205483518490839081106128e8576128e86140d9565b602090810291909101015260010161282d565b50509091565b60008061290d83612cf8565b90508085111561293657828582604051632e52afbb60e21b815260040161171a93929190614679565b600061294186611114565b905061278f338686848a6138e2565b6000611121826000612ff5565b6013546001600160a01b0316331480159061298357506005546001600160a01b03163314155b156129a0576040516282b42960e81b815260040160405180910390fd5b6001600160a01b0382166129c75760405163d92e233d60e01b815260040160405180910390fd5b6001600160a01b03821660009081526009602052604090205460ff1615612a015760405163c976754d60e01b815260040160405180910390fd5b600b54600511612a2457604051631f62ca4f60e21b815260040160405180910390fd5b801580612a32575061271081115b15612a505760405163585b926360e01b815260040160405180910390fd5b61271081600c54612a619190614129565b1115612a805760405163585b926360e01b815260040160405180910390fd5b816001600160a01b031663392e53cd6040518163ffffffff1660e01b8152600401602060405180830381865afa158015612abe573d6000803e3d6000fd5b505050506040513d601f19601f82011682018060405250810190612ae2919061413c565b612b2e5760405162461bcd60e51b815260206004820152601860248201527f5374726174656779206e6f7420696e697469616c697a65640000000000000000604482015260640161171a565b6001600160a01b0382166000818152600960209081526040808320805460ff19166001908117909155600a9092528220849055600b8054918201815582527f0175b7a638427703f0dbe7bb9bbf987a2551717b34e79f33b5b1008d1fa01db90180546001600160a01b031916909217909155600c8054839290612bb2908490614129565b90915550506040518181526001600160a01b038316907f2f564a83158ad1831793ad3e69257b52f39ece5d49cb0d8746708ecb9ef964da906020016116c1565b6001600160a01b038116600090815260208190526040812054611121906000612fae565b612c1e612f81565b6001600160a01b038116612c455760405163d92e233d60e01b815260040160405180910390fd5b601480546001600160a01b0319166001600160a01b0392909216919091179055565b612c6f612f81565b63ffffffff81161580612c9d575061012c8163ffffffff1610158015612c9d5750611c208163ffffffff1611155b612cdc5760405162461bcd60e51b815260206004820152601060248201526f125b9d985b1a59081a5b9d195c9d985b60821b604482015260640161171a565b600e805463ffffffff191663ffffffff92909216919091179055565b6001600160a01b038116600090815260208190526040812054611121565b600080612d216121fe565b600e5490915060009063ffffffff1615612da257306001600160a01b03166383189fa16040518163ffffffff1660e01b8152600401602060405180830381865afa925050508015612d8f575060408051601f3d908101601f19168201909252612d8c9181019061469a565b60015b612d9b57612d9b6134b1565b9050612dad565b612daa6134b1565b90505b670de0b6b3a7640000612dc08383614193565b612dca91906141c0565b9250505090565b6000806000670de0b6b3a7640000612de7612d16565b600754612df49190614193565b612dfe91906141c0565b9250670de0b6b3a7640000612e116121fe565b600854612e1e9190614193565b612e2891906141c0565b9150612e348284614129565b9050909192565b612e43612f81565b6001600160a01b038116612e6d57604051631e4fbdf760e01b81526000600482015260240161171a565b61151b8161345f565b612e7e612f81565b7f00000000000000000000000000000000000000000000000000000000000000006001600160a01b0316836001600160a01b03161480612eef57507f00000000000000000000000000000000000000000000000000000000000000006001600160a01b0316836001600160a01b0316145b15612f465760405162461bcd60e51b815260206004820152602160248201527f5573652077697468647261774475616c20666f72207661756c7420746f6b656e6044820152607360f81b606482015260840161171a565b6001600160a01b038116612f6d5760405163d92e233d60e01b815260040160405180910390fd5b61107d6001600160a01b03841682846138b1565b6005546001600160a01b03163314611dd85760405163118cdaa760e01b815233600482015260240161171a565b600061153d612fbb610e18565b612fc6906001614129565b612fd26000600a61466a565b600254612fdf9190614129565b859190856139a2565b61107d83838360016139e6565b600061153d61300582600a61466a565b6002546130129190614129565b61301a610e18565b612fdf906001614129565b6001600160a01b0383811660009081526001602090815260408083209386168352929052205460001981101561107b578181101561307c57828183604051637dc7a0d960e11b815260040161171a93929190614679565b61107b848484840360006139e6565b6001600160a01b0383166130b557604051634b637e8f60e11b81526000600482015260240161171a565b6001600160a01b0382166130df5760405163ec442f0560e01b81526000600482015260240161171a565b61107d838383613aad565b6040516001600160a01b03848116602483015283811660448301526064820183905261107b9186918216906323b872dd906084015b604051602081830303815290604052915060e01b6020820180516001600160e01b038381831617835250505050613bc4565b60026006540361317457604051633ee5aeb560e01b815260040160405180910390fd5b6002600655565b6001600160a01b0382166131a55760405163ec442f0560e01b81526000600482015260240161171a565b61151960008383613aad565b6000600c546000036131c35750600090565b60006131d360075460085461114c565b90506010548110156131e757600091505090565b6011546012546131f79190614129565b42101561320657600091505090565b600191505090565b600c5460000361321c575050565b6000613228838361114c565b90508060000361323757505050565b600b5460005b81811015613458576000600b828154811061325a5761325a6140d9565b60009182526020808320909101546001600160a01b0316808352600990915260409091205490915060ff1680156132a857506001600160a01b0381166000908152600a602052604090205415155b1561344f57600c546001600160a01b0382166000908152600a60205260408120549091906132d69087614193565b6132e091906141c0565b905060008088116132f2576000613307565b856132fd8984614193565b61330791906141c0565b9050600080881161331957600061332e565b866133248985614193565b61332e91906141c0565b90506007548211156133405760075491505b60085481111561334f57506008545b600082118061335e5750600081115b1561344b57816007600082825461337591906141d4565b92505081905550806008600082825461338e91906141d4565b9091555050604051631c57762b60e31b815260048101839052602481018290526001600160a01b0385169063e2bbb158906044016020604051808303816000875af11580156133e1573d6000803e3d6000fd5b505050506040513d601f19601f82011682018060405250810190613405919061469a565b5060408051838152602081018390526001600160a01b038616917ffe21ae5405b014c3a0c011f9950992ccc080a66a6ea082b33d35fb760c11ebe7910160405180910390a25b5050505b5060010161323d565b5050505050565b600580546001600160a01b038381166001600160a01b0319831681179093556040519116919082907f8be0079c531659141344cd1fd0a4f28419497f9722a3daafe3b4186f6b6457e090600090a35050565b6000807f00000000000000000000000000000000000000000000000000000000000000006001600160a01b0316633850c7bd6040518163ffffffff1660e01b815260040160e060405180830381865afa158015613512573d6000803e3d6000fd5b505050506040513d601f19601f8201168201806040525081019061353691906146c5565b50505050505090506000816001600160a01b0316826001600160a01b031661355e9190614193565b9050600160c01b60008161357a84670de0b6b3a7640000614193565b61358491906141c0565b90506000811161359b5766038d7ea4c680006135b4565b6135b4816ec097ce7bc90715b34b9f10000000006141c0565b9450846000036121dc5766038d7ea4c6800094505050505090565b6135fb7f00000000000000000000000000000000000000000000000000000000000000008530856130ea565b613605838261317b565b826001600160a01b0316846001600160a01b03167fdcbc1c05240f31ff3ad067ef1ee35ce4997762752e3a095284754544f4c709d78484604051613653929190918252602082015260400190565b60405180910390a350505050565b600b546000908190815b81811015613874576000600b8281548110613688576136886140d9565b60009182526020808320909101546001600160a01b0316808352600990915260409091205490915060ff1680156136bf5750600086115b1561386b57600080826001600160a01b031663c4a7761e6040518163ffffffff1660e01b81526004016040805180830381865afa158015613704573d6000803e3d6000fd5b505050506040513d601f19601f8201168201806040525081019061372891906140ef565b915091506000613738838361114c565b9050801561386757600c546001600160a01b0385166000908152600a6020526040812054909190613769908c614193565b61377391906141c0565b9050801561386557604051632e1a7d4d60e01b81526004810182905260009081906001600160a01b03881690632e1a7d4d9060240160408051808303816000875af11580156137c6573d6000803e3d6000fd5b505050506040513d601f19601f820116820180604052508101906137ea91906140ef565b9150915081600760008282546138009190614129565b9250508190555080600860008282546138199190614129565b909155506138299050828c614129565b9a50613835818b614129565b99506000613843838361114c565b90508c81101561385c57613857818e6141d4565b61385f565b60005b9c505050505b505b5050505b5060010161366b565b5050915091565b6001600160a01b0382166138a557604051634b637e8f60e11b81526000600482015260240161171a565b61151982600083613aad565b6040516001600160a01b0383811660248301526044820183905261107d91859182169063a9059cbb9060640161311f565b826001600160a01b0316856001600160a01b03161461390657613906838683613025565b613910838261387b565b61393b7f000000000000000000000000000000000000000000000000000000000000000085846138b1565b826001600160a01b0316846001600160a01b0316866001600160a01b03167ffbde797d201c681b91056529119e0b02407c7bb96a4a2c75c01fc9667232c8db8585604051613993929190918252602082015260400190565b60405180910390a45050505050565b60006139d16139b083613c35565b80156139cc5750600084806139c7576139c76141aa565b868809115b151590565b6139dc868686613c62565b61278f9190614129565b6001600160a01b038416613a105760405163e602df0560e01b81526000600482015260240161171a565b6001600160a01b038316613a3a57604051634a1406b160e11b81526000600482015260240161171a565b6001600160a01b038085166000908152600160209081526040808320938716835292905220829055801561107b57826001600160a01b0316846001600160a01b03167f8c5be1e5ebec7d5bd14f71427d1e84f3dd0314c0f7b2291e5b200ac8c7c3b9258460405161365391815260200190565b6001600160a01b038316613ad8578060026000828254613acd9190614129565b90915550613b379050565b6001600160a01b03831660009081526020819052604090205481811015613b185783818360405163391434e360e21b815260040161171a93929190614679565b6001600160a01b03841660009081526020819052604090209082900390555b6001600160a01b038216613b5357600280548290039055613b72565b6001600160a01b03821660009081526020819052604090208054820190555b816001600160a01b0316836001600160a01b03167fddf252ad1be2c89b69c2b068fc378daa952ba7f163c4a11628f55a4df523b3ef83604051613bb791815260200190565b60405180910390a3505050565b600080602060008451602086016000885af180613be7576040513d6000823e3d81fd5b50506000513d91508115613bff578060011415613c0c565b6001600160a01b0384163b155b1561107b57604051635274afe760e01b81526001600160a01b038516600482015260240161171a565b60006002826003811115613c4b57613c4b61475b565b613c559190614771565b60ff166001149050919050565b6000806000613c718686613d17565b9150915081600003613c9657838181613c8c57613c8c6141aa565b049250505061153d565b818411613cad57613cad6003851502601118613d35565b6000848688096000868103871696879004966002600389028118808a02820302808a02820302808a02820302808a02820302808a02820302808a02909103029181900381900460010185841190960395909502919093039390930492909217029150509392505050565b60008060001983850993909202808410938190039390930393915050565b634e487b71600052806020526024601cfd5b6001600160a01b038116811461151b57600080fd5b600080600060608486031215613d7157600080fd5b8335613d7c81613d47565b95602085013595506040909401359392505050565b60006020808352835180602085015260005b81811015613dbf57858101830151858201604001528201613da3565b506000604082860101526040601f19601f8301168501019250505092915050565b600060208284031215613df257600080fd5b5035919050565b60008060408385031215613e0c57600080fd5b8235613e1781613d47565b946020939093013593505050565b60008060408385031215613e3857600080fd5b50508035926020909101359150565b801515811461151b57600080fd5b600060208284031215613e6757600080fd5b813561153d81613e47565b600060208284031215613e8457600080fd5b813561153d81613d47565b600080600060608486031215613ea457600080fd5b8335613eaf81613d47565b92506020840135613ebf81613d47565b929592945050506040919091013590565b60008151808452602080850194506020840160005b83811015613f0a5781516001600160a01b031687529582019590820190600101613ee5565b509495945050505050565b60008151808452602080850194506020840160005b83811015613f0a57815187529582019590820190600101613f2a565b606081526000613f596060830186613ed0565b8281036020840152613f6b8186613f15565b90508281036040840152613f7f8185613f15565b9695505050505050565b600080600060608486031215613f9e57600080fd5b83359250602084013591506040840135613fb781613d47565b809150509250925092565b60008060408385031215613fd557600080fd5b823591506020830135613fe781613d47565b809150509250929050565b60008060006060848603121561400757600080fd5b83359250602084013561401981613d47565b91506040840135613fb781613d47565b60408152600061403c6040830185613ed0565b828103602084015261278f8185613f15565b60006020828403121561406057600080fd5b813563ffffffff8116811461153d57600080fd5b6000806040838503121561408757600080fd5b823561409281613d47565b91506020830135613fe781613d47565b6000806000606084860312156140b757600080fd5b83356140c281613d47565b9250602084013591506040840135613fb781613d47565b634e487b7160e01b600052603260045260246000fd5b6000806040838503121561410257600080fd5b505080516020909101519092909150565b634e487b7160e01b600052601160045260246000fd5b8082018082111561112157611121614113565b60006020828403121561414e57600080fd5b815161153d81613e47565b600181811c9082168061416d57607f821691505b60208210810361418d57634e487b7160e01b600052602260045260246000fd5b50919050565b808202811582820484141761112157611121614113565b634e487b7160e01b600052601260045260246000fd5b6000826141cf576141cf6141aa565b500490565b8181038181111561112157611121614113565b634e487b7160e01b600052603160045260246000fd5b60ff818116838216019081111561112157611121614113565b634e487b7160e01b600052604160045260246000fd5b6020808252825182820181905260009190848201906040850190845b8181101561426a57835163ffffffff1683529284019291840191600101614248565b50909695505050505050565b604051601f8201601f1916810167ffffffffffffffff8111828210171561429f5761429f614216565b604052919050565b600067ffffffffffffffff8211156142c1576142c1614216565b5060051b60200190565b600082601f8301126142dc57600080fd5b815160206142f16142ec836142a7565b614276565b8083825260208201915060208460051b87010193508684111561431357600080fd5b602086015b8481101561433857805161432b81613d47565b8352918301918301614318565b509695505050505050565b6000806040838503121561435657600080fd5b825167ffffffffffffffff8082111561436e57600080fd5b818501915085601f83011261438257600080fd5b815160206143926142ec836142a7565b82815260059290921b840181019181810190898411156143b157600080fd5b948201945b838610156143df5785518060060b81146143d05760008081fd5b825294820194908201906143b6565b918801519196509093505050808211156143f857600080fd5b50614405858286016142cb565b9150509250929050565b600682810b9082900b03667fffffffffffff198112667fffffffffffff8213171561112157611121614113565b60008160060b8360060b80614453576144536141aa565b667fffffffffffff1982146000198214161561447157614471614113565b90059392505050565b80820260008212600160ff1b8414161561449657614496614113565b818105831482151761112157611121614113565b80820182811260008312801582168215821617156144ca576144ca614113565b505092915050565b805169ffffffffffffffffffff811681146144ec57600080fd5b919050565b600080600080600060a0868803121561450957600080fd5b614512866144d2565b9450602086015193506040860151925060608601519150614535608087016144d2565b90509295509295909350565b805160ff811681146144ec57600080fd5b60006020828403121561456457600080fd5b61153d82614541565b60ff828116828216039081111561112157611121614113565b600181815b808511156145c15781600019048211156145a7576145a7614113565b808516156145b457918102915b93841c939080029061458b565b509250929050565b6000826145d857506001611121565b816145e557506000611121565b81600181146145fb576002811461460557614621565b6001915050611121565b60ff84111561461657614616614113565b50506001821b611121565b5060208310610133831016604e8410600b8410161715614644575081810a611121565b61464e8383614586565b806000190482111561466257614662614113565b029392505050565b600061153d60ff8416836145c9565b6001600160a01b039390931683526020830191909152604082015260600190565b6000602082840312156146ac57600080fd5b5051919050565b805161ffff811681146144ec57600080fd5b600080600080600080600060e0888a0312156146e057600080fd5b87516146eb81613d47565b8097505060208801518060020b811461470357600080fd5b9550614711604089016146b3565b945061471f606089016146b3565b935061472d608089016146b3565b925061473b60a08901614541565b915060c088015161474b81613e47565b8091505092959891949750929550565b634e487b7160e01b600052602160045260246000fd5b600060ff831680614784576147846141aa565b8060ff8416069150509291505056fea2646970667358221220791906fb8440ce4696732946a823ac0779516a4711b62807e73baead7f471de164736f6c63430008160033","linkReferences":{}},"methodIdentifiers":{"MAX_STRATEGIES()":"767f06ae","UNISWAP_ROUTER()":"d8264920","USD1_PRICE_FEED()":"656a4b20","USD1_TOKEN()":"c6e831e8","WLFI_TOKEN()":"8ba17976","WLFI_USD1_POOL()":"96c1c433","_getTWAPPrice()":"83189fa1","acceptManager()":"48ff15b3","activeStrategies(address)":"2c178bd0","addStrategy(address,uint256)":"c9411e22","allowance(address,address)":"dd62ed3e","approve(address,uint256)":"095ea7b3","approveTokensToStrategy(address,uint256,uint256)":"05a4b97a","asset()":"38d52e0f","authorized(address)":"b9181611","balanceOf(address)":"70a08231","calculateUSDValue(uint256,uint256)":"119328d6","convertToAssets(uint256)":"07a2d13a","convertToShares(uint256)":"c6e6f592","decimals()":"313ce567","deploymentThreshold()":"a0317bd6","deposit(uint256,address)":"6e553f65","depositDual(uint256,uint256,address)":"5c272ef6","forceDeployToStrategies()":"68e5ce84","getCurrentPrices()":"852d0d6e","getStrategies()":"b49a60bb","getStrategyAssets()":"57fce5b7","getUSD1Price()":"89b12716","getVaultBalances()":"22370685","getVaultBalancesUSD()":"f06772ee","getWLFIPrice()":"ed84c5f3","injectCapital(uint256,uint256)":"386db353","lastDeployment()":"45650c07","lastRebalance()":"106b9ca1","manager()":"481c6a75","maxDeposit(address)":"402d267d","maxMint(address)":"c63d75b6","maxPriceAge()":"1584410a","maxRedeem(address)":"d905777e","maxTotalSupply()":"2ab4d052","maxWithdraw(address)":"ce96cb77","minDeploymentInterval()":"00cfdb09","mint(uint256,address)":"94bf804d","name()":"06fdde03","owner()":"8da5cb5b","paused()":"5c975abb","pendingManager()":"a00fff6f","previewDeposit(uint256)":"ef8b30f7","previewDepositDual(uint256,uint256)":"9699b63f","previewMint(uint256)":"b3d7f6b9","previewRedeem(uint256)":"4cdad506","previewWithdraw(uint256)":"0a28a477","redeem(uint256,address,address)":"ba087652","removeStrategy(address)":"175188e8","renounceOwnership()":"715018a6","rescueETH()":"20800a00","rescueToken(address,uint256,address)":"f8a67a62","setDeploymentParams(uint256,uint256)":"79f06d21","setManager(address)":"d0ebdbe7","setMaxPriceAge(uint256)":"56447ce8","setMaxTotalSupply(uint256)":"3f3e4c11","setPaused(bool)":"16c38b3c","setTWAPInterval(uint32)":"d88c1517","strategyList(uint256)":"a267526b","strategyWeights(address)":"7cd36844","symbol()":"95d89b41","totalAssets()":"01e1d114","totalStrategyWeight()":"98d3b209","totalSupply()":"18160ddd","transfer(address,uint256)":"a9059cbb","transferFrom(address,address,uint256)":"23b872dd","transferOwnership(address)":"f2fde38b","twapInterval()":"3c1d5df0","usd1Balance()":"055a2b58","withdraw(uint256,address,address)":"b460af94","withdrawDual(uint256,address)":"b09943c3","wlfiBalance()":"29ea1c0b"},"id":0}