{"abi":[{"type":"constructor","inputs":[{"name":"_token0","type":"address","internalType":"address"},{"name":"_token1","type":"address","internalType":"address"}],"stateMutability":"nonpayable"},{"type":"function","name":"fee","inputs":[],"outputs":[{"name":"","type":"uint24","internalType":"uint24"}],"stateMutability":"view"},{"type":"function","name":"increaseObservationCardinalityNext","inputs":[{"name":"observationCardinalityNext","type":"uint16","internalType":"uint16"}],"outputs":[],"stateMutability":"nonpayable"},{"type":"function","name":"observe","inputs":[{"name":"secondsAgos","type":"uint32[]","internalType":"uint32[]"}],"outputs":[{"name":"tickCumulatives","type":"int56[]","internalType":"int56[]"},{"name":"secondsPerLiquidityCumulativeX128s","type":"uint160[]","internalType":"uint160[]"}],"stateMutability":"view"},{"type":"function","name":"setSqrtPriceX96","inputs":[{"name":"newPrice","type":"uint160","internalType":"uint160"}],"outputs":[],"stateMutability":"nonpayable"},{"type":"function","name":"setTick","inputs":[{"name":"newTick","type":"int24","internalType":"int24"}],"outputs":[],"stateMutability":"nonpayable"},{"type":"function","name":"slot0","inputs":[],"outputs":[{"name":"sqrtPriceX96","type":"uint160","internalType":"uint160"},{"name":"tick","type":"int24","internalType":"int24"},{"name":"observationIndex","type":"uint16","internalType":"uint16"},{"name":"observationCardinality","type":"uint16","internalType":"uint16"},{"name":"observationCardinalityNext","type":"uint16","internalType":"uint16"},{"name":"feeProtocol","type":"uint8","internalType":"uint8"},{"name":"unlocked","type":"bool","internalType":"bool"}],"stateMutability":"view"},{"type":"function","name":"token0","inputs":[],"outputs":[{"name":"","type":"address","internalType":"address"}],"stateMutability":"view"},{"type":"function","name":"token1","inputs":[],"outputs":[{"name":"","type":"address","internalType":"address"}],"stateMutability":"view"}],"bytecode":{"object":"0x60806040526001805461027160a41b62ffffff60a01b19909116179055600280546001600160b81b0319166c0100000000000000000000000017905534801561004757600080fd5b50604051610642380380610642833981016040819052610066916100b3565b600080546001600160a01b039384166001600160a01b031991821617909155600180549290931691161790556100e6565b80516001600160a01b03811681146100ae57600080fd5b919050565b600080604083850312156100c657600080fd5b6100cf83610097565b91506100dd60208401610097565b90509250929050565b61054d806100f56000396000f3fe608060405234801561001057600080fd5b50600436106100885760003560e01c8063c80b42901161005b578063c80b429014610142578063c9c32f2a14610174578063d21220a7146101a4578063ddca3f43146101b757600080fd5b80630dfe16811461008d57806332148f67146100bd5780633850c7bd146100d0578063883bdbfd14610121575b600080fd5b6000546100a0906001600160a01b031681565b6040516001600160a01b0390911681526020015b60405180910390f35b6100ce6100cb36600461031d565b50565b005b60028054604080516001600160a01b0383168152600160a01b90920490920b60208201526000918101829052606460608201819052608082015260a0810191909152600160c082015260e0016100b4565b61013461012f366004610348565b6101e1565b6040516100b49291906103bd565b6100ce610150366004610444565b6002805462ffffff909216600160a01b0262ffffff60a01b19909216919091179055565b6100ce610182366004610467565b600280546001600160a01b0319166001600160a01b0392909216919091179055565b6001546100a0906001600160a01b031681565b6001546101cd90600160a01b900462ffffff1681565b60405162ffffff90911681526020016100b4565b6060808267ffffffffffffffff8111156101fd576101fd610490565b604051908082528060200260200182016040528015610226578160200160208202803683370190505b5091508267ffffffffffffffff81111561024257610242610490565b60405190808252806020026020018201604052801561026b578160200160208202803683370190505b50905060005b838110156103155784848281811061028b5761028b6104a6565b90506020020160208101906102a091906104bc565b600280546102bb9260030b91600160a01b909104900b6104e2565b8382815181106102cd576102cd6104a6565b602002602001019060060b908160060b8152505060008282815181106102f5576102f56104a6565b6001600160a01b0390921660209283029190910190910152600101610271565b509250929050565b60006020828403121561032f57600080fd5b813561ffff8116811461034157600080fd5b9392505050565b6000806020838503121561035b57600080fd5b823567ffffffffffffffff8082111561037357600080fd5b818501915085601f83011261038757600080fd5b81358181111561039657600080fd5b8660208260051b85010111156103ab57600080fd5b60209290920196919550909350505050565b604080825283519082018190526000906020906060840190828701845b828110156103f957815160060b845292840192908401906001016103da565b5050508381038285015284518082528583019183019060005b818110156104375783516001600160a01b031683529284019291840191600101610412565b5090979650505050505050565b60006020828403121561045657600080fd5b81358060020b811461034157600080fd5b60006020828403121561047957600080fd5b81356001600160a01b038116811461034157600080fd5b634e487b7160e01b600052604160045260246000fd5b634e487b7160e01b600052603260045260246000fd5b6000602082840312156104ce57600080fd5b813563ffffffff8116811461034157600080fd5b60008260060b8260060b028060060b915080821461051057634e487b7160e01b600052601160045260246000fd5b509291505056fea2646970667358221220060ac8b1843528480024aecda7bc1186f829a07fa4be9b4adb3eea697c3a767864736f6c63430008160033","linkReferences":{}},"methodIdentifiers":{"fee()":"ddca3f43","increaseObservationCardinalityNext(uint16)":"32148f67","observe(uint32[])":"883bdbfd","setSqrtPriceX96(uint160)":"c9c32f2a","setTick(int24)":"c80b4290","slot0()":"3850c7bd","token0()":"0dfe1681","token1()":"d21220a7"},"id":24}