{"abi":[{"type":"constructor","inputs":[{"name":"_vault","type":"address","internalType":"address"},{"name":"_assetOFT","type":"address","internalType":"address"},{"name":"_shareOFT","type":"address","internalType":"address"}],"stateMutability":"nonpayable"},{"type":"receive","stateMutability":"payable"},{"type":"function","name":"ASSET_ERC20","inputs":[],"outputs":[{"name":"","type":"address","internalType":"address"}],"stateMutability":"view"},{"type":"function","name":"ASSET_OFT","inputs":[],"outputs":[{"name":"","type":"address","internalType":"address"}],"stateMutability":"view"},{"type":"function","name":"ENDPOINT","inputs":[],"outputs":[{"name":"","type":"address","internalType":"address"}],"stateMutability":"view"},{"type":"function","name":"SHARE_ERC20","inputs":[],"outputs":[{"name":"","type":"address","internalType":"address"}],"stateMutability":"view"},{"type":"function","name":"SHARE_OFT","inputs":[],"outputs":[{"name":"","type":"address","internalType":"address"}],"stateMutability":"view"},{"type":"function","name":"VAULT","inputs":[],"outputs":[{"name":"","type":"address","internalType":"contract IERC4626"}],"stateMutability":"view"},{"type":"function","name":"VAULT_EID","inputs":[],"outputs":[{"name":"","type":"uint32","internalType":"uint32"}],"stateMutability":"view"},{"type":"function","name":"depositAndSend","inputs":[{"name":"_assetAmount","type":"uint256","internalType":"uint256"},{"name":"_sendParam","type":"tuple","internalType":"struct SendParam","components":[{"name":"dstEid","type":"uint32","internalType":"uint32"},{"name":"to","type":"bytes32","internalType":"bytes32"},{"name":"amountLD","type":"uint256","internalType":"uint256"},{"name":"minAmountLD","type":"uint256","internalType":"uint256"},{"name":"extraOptions","type":"bytes","internalType":"bytes"},{"name":"composeMsg","type":"bytes","internalType":"bytes"},{"name":"oftCmd","type":"bytes","internalType":"bytes"}]},{"name":"_refundAddress","type":"address","internalType":"address"}],"outputs":[],"stateMutability":"payable"},{"type":"function","name":"getAssetOFT","inputs":[],"outputs":[{"name":"","type":"address","internalType":"address"}],"stateMutability":"view"},{"type":"function","name":"getShareOFT","inputs":[],"outputs":[{"name":"","type":"address","internalType":"address"}],"stateMutability":"view"},{"type":"function","name":"getVault","inputs":[],"outputs":[{"name":"","type":"address","internalType":"address"}],"stateMutability":"view"},{"type":"function","name":"handleCompose","inputs":[{"name":"_oftIn","type":"address","internalType":"address"},{"name":"_composeFrom","type":"bytes32","internalType":"bytes32"},{"name":"_composeMsg","type":"bytes","internalType":"bytes"},{"name":"_amount","type":"uint256","internalType":"uint256"}],"outputs":[],"stateMutability":"payable"},{"type":"function","name":"lzCompose","inputs":[{"name":"_composeSender","type":"address","internalType":"address"},{"name":"_guid","type":"bytes32","internalType":"bytes32"},{"name":"_message","type":"bytes","internalType":"bytes"},{"name":"","type":"address","internalType":"address"},{"name":"","type":"bytes","internalType":"bytes"}],"outputs":[],"stateMutability":"payable"},{"type":"function","name":"quoteSend","inputs":[{"name":"_from","type":"address","internalType":"address"},{"name":"_targetOFT","type":"address","internalType":"address"},{"name":"_vaultInAmount","type":"uint256","internalType":"uint256"},{"name":"_sendParam","type":"tuple","internalType":"struct SendParam","components":[{"name":"dstEid","type":"uint32","internalType":"uint32"},{"name":"to","type":"bytes32","internalType":"bytes32"},{"name":"amountLD","type":"uint256","internalType":"uint256"},{"name":"minAmountLD","type":"uint256","internalType":"uint256"},{"name":"extraOptions","type":"bytes","internalType":"bytes"},{"name":"composeMsg","type":"bytes","internalType":"bytes"},{"name":"oftCmd","type":"bytes","internalType":"bytes"}]}],"outputs":[{"name":"","type":"tuple","internalType":"struct MessagingFee","components":[{"name":"nativeFee","type":"uint256","internalType":"uint256"},{"name":"lzTokenFee","type":"uint256","internalType":"uint256"}]}],"stateMutability":"view"},{"type":"function","name":"redeemAndSend","inputs":[{"name":"_shareAmount","type":"uint256","internalType":"uint256"},{"name":"_sendParam","type":"tuple","internalType":"struct SendParam","components":[{"name":"dstEid","type":"uint32","internalType":"uint32"},{"name":"to","type":"bytes32","internalType":"bytes32"},{"name":"amountLD","type":"uint256","internalType":"uint256"},{"name":"minAmountLD","type":"uint256","internalType":"uint256"},{"name":"extraOptions","type":"bytes","internalType":"bytes"},{"name":"composeMsg","type":"bytes","internalType":"bytes"},{"name":"oftCmd","type":"bytes","internalType":"bytes"}]},{"name":"_refundAddress","type":"address","internalType":"address"}],"outputs":[],"stateMutability":"payable"},{"type":"event","name":"Deposited","inputs":[{"name":"sender","type":"bytes32","indexed":false,"internalType":"bytes32"},{"name":"recipient","type":"bytes32","indexed":false,"internalType":"bytes32"},{"name":"dstEid","type":"uint32","indexed":false,"internalType":"uint32"},{"name":"assetAmt","type":"uint256","indexed":false,"internalType":"uint256"},{"name":"shareAmt","type":"uint256","indexed":false,"internalType":"uint256"}],"anonymous":false},{"type":"event","name":"Redeemed","inputs":[{"name":"sender","type":"bytes32","indexed":false,"internalType":"bytes32"},{"name":"recipient","type":"bytes32","indexed":false,"internalType":"bytes32"},{"name":"dstEid","type":"uint32","indexed":false,"internalType":"uint32"},{"name":"shareAmt","type":"uint256","indexed":false,"internalType":"uint256"},{"name":"assetAmt","type":"uint256","indexed":false,"internalType":"uint256"}],"anonymous":false},{"type":"event","name":"Refunded","inputs":[{"name":"guid","type":"bytes32","indexed":true,"internalType":"bytes32"}],"anonymous":false},{"type":"event","name":"Sent","inputs":[{"name":"guid","type":"bytes32","indexed":true,"internalType":"bytes32"}],"anonymous":false},{"type":"error","name":"AssetTokenNotVaultAsset","inputs":[{"name":"assetERC20","type":"address","internalType":"address"},{"name":"vaultAsset","type":"address","internalType":"address"}]},{"type":"error","name":"ERC4626ExceededMaxDeposit","inputs":[{"name":"receiver","type":"address","internalType":"address"},{"name":"assets","type":"uint256","internalType":"uint256"},{"name":"max","type":"uint256","internalType":"uint256"}]},{"type":"error","name":"ERC4626ExceededMaxRedeem","inputs":[{"name":"owner","type":"address","internalType":"address"},{"name":"shares","type":"uint256","internalType":"uint256"},{"name":"max","type":"uint256","internalType":"uint256"}]},{"type":"error","name":"InsufficientMsgValue","inputs":[{"name":"expectedMsgValue","type":"uint256","internalType":"uint256"},{"name":"actualMsgValue","type":"uint256","internalType":"uint256"}]},{"type":"error","name":"NoMsgValueExpected","inputs":[]},{"type":"error","name":"OnlyEndpoint","inputs":[{"name":"caller","type":"address","internalType":"address"}]},{"type":"error","name":"OnlySelf","inputs":[{"name":"caller","type":"address","internalType":"address"}]},{"type":"error","name":"OnlyValidComposeCaller","inputs":[{"name":"caller","type":"address","internalType":"address"}]},{"type":"error","name":"ReentrancyGuardReentrantCall","inputs":[]},{"type":"error","name":"SafeERC20FailedOperation","inputs":[{"name":"token","type":"address","internalType":"address"}]},{"type":"error","name":"ShareOFTNotAdapter","inputs":[{"name":"shareOFT","type":"address","internalType":"address"}]},{"type":"error","name":"ShareTokenNotVault","inputs":[{"name":"shareERC20","type":"address","internalType":"address"},{"name":"vault","type":"address","internalType":"address"}]},{"type":"error","name":"SlippageExceeded","inputs":[{"name":"amountLD","type":"uint256","internalType":"uint256"},{"name":"minAmountLD","type":"uint256","internalType":"uint256"}]}],"bytecode":{"object":"0x6101606040523480156200001257600080fd5b50604051620023c6380380620023c683398101604081905262000035916200079e565b60016000556001600160a01b03808416608052821660a081905260408051637e062a3560e11b8152905185928592859263fc0c546a916004808201926020929091908290030181865afa15801562000091573d6000803e3d6000fd5b505050506040513d601f19601f82011682018060405250810190620000b79190620007f2565b6001600160a01b0390811660c052811660e081905260408051637e062a3560e11b8152905163fc0c546a916004808201926020929091908290030181865afa15801562000108573d6000803e3d6000fd5b505050506040513d601f19601f820116820180604052508101906200012e9190620007f2565b6001600160a01b0316610100816001600160a01b03168152505060a0516001600160a01b0316635e280f116040518163ffffffff1660e01b8152600401602060405180830381865afa15801562000189573d6000803e3d6000fd5b505050506040513d601f19601f82011682018060405250810190620001af9190620007f2565b6001600160a01b03166101208190526040805163416ecebf60e01b8152905163416ecebf916004808201926020929091908290030181865afa158015620001fa573d6000803e3d6000fd5b505050506040513d601f19601f8201168201806040525081019062000220919062000819565b63ffffffff1661014052608051610100516001600160a01b039081169116146200027c576101005160805160405163070bc55b60e11b81526001600160a01b039283166004820152911660248201526044015b60405180910390fd5b6080516001600160a01b03166338d52e0f6040518163ffffffff1660e01b8152600401602060405180830381865afa158015620002bd573d6000803e3d6000fd5b505050506040513d601f19601f82011682018060405250810190620002e39190620007f2565b6001600160a01b031660c0516001600160a01b031614620003955760c0516080516001600160a01b03166338d52e0f6040518163ffffffff1660e01b8152600401602060405180830381865afa15801562000342573d6000803e3d6000fd5b505050506040513d601f19601f82011682018060405250810190620003689190620007f2565b60405163ba9d665f60e01b81526001600160a01b0392831660048201529116602482015260440162000273565b60e0516001600160a01b0316639f68b9646040518163ffffffff1660e01b8152600401602060405180830381865afa158015620003d6573d6000803e3d6000fd5b505050506040513d601f19601f82011682018060405250810190620003fc919062000841565b6200042a5760e051604051637e0a8a5760e11b81526001600160a01b03909116600482015260240162000273565b60c05160405163095ea7b360e01b81526001600160a01b03858116600483015260001960248301529091169063095ea7b3906044016020604051808303816000875af11580156200047f573d6000803e3d6000fd5b505050506040513d601f19601f82011682018060405250810190620004a5919062000841565b506101005160405163095ea7b360e01b81526001600160a01b03838116600483015260001960248301529091169063095ea7b3906044016020604051808303816000875af1158015620004fc573d6000803e3d6000fd5b505050506040513d601f19601f8201168201806040525081019062000522919062000841565b50816001600160a01b0316639f68b9646040518163ffffffff1660e01b8152600401602060405180830381865afa15801562000562573d6000803e3d6000fd5b505050506040513d601f19601f8201168201806040525081019062000588919062000841565b156200060b5760c05160405163095ea7b360e01b81526001600160a01b03848116600483015260001960248301529091169063095ea7b3906044016020604051808303816000875af1158015620005e3573d6000803e3d6000fd5b505050506040513d601f19601f8201168201806040525081019062000609919062000841565b505b5050506001600160a01b038316620006805760405162461bcd60e51b815260206004820152603160248201527f4561676c654f5661756c74436f6d706f7365723a207661756c742063616e6e6f60448201527074206265207a65726f206164647265737360781b606482015260840162000273565b6001600160a01b038216620006fe5760405162461bcd60e51b815260206004820152603460248201527f4561676c654f5661756c74436f6d706f7365723a2061737365744f465420636160448201527f6e6e6f74206265207a65726f2061646472657373000000000000000000000000606482015260840162000273565b6001600160a01b0381166200077c5760405162461bcd60e51b815260206004820152603460248201527f4561676c654f5661756c74436f6d706f7365723a2073686172654f465420636160448201527f6e6e6f74206265207a65726f2061646472657373000000000000000000000000606482015260840162000273565b50505062000865565b6001600160a01b03811681146200079b57600080fd5b50565b600080600060608486031215620007b457600080fd5b8351620007c18162000785565b6020850151909350620007d48162000785565b6040850151909250620007e78162000785565b809150509250925092565b6000602082840312156200080557600080fd5b8151620008128162000785565b9392505050565b6000602082840312156200082c57600080fd5b815163ffffffff811681146200081257600080fd5b6000602082840312156200085457600080fd5b815180151581146200081257600080fd5b60805160a05160c05160e051610100516101205161014051611a6c6200095a600039600081816102fa0152610f8b01526000818161021f015261089e0152600081816102c6015281816104170152610ff00152600081816101a4015281816103860152818161091d0152610b94015260008181610170015281816103bf015261101601526000818161010a015281816103400152818161046101528181610837015281816108e001528181610c4c0152610fb70152600081816101d80152818161027d015281816104ba0152818161057e0152818161061e015281816106dd01528181610edd015261112e0152611a6c6000f3fe6080604052600436106100ec5760003560e01c80637e6e1e101161008a578063aa72fe3f11610059578063aa72fe3f146102e8578063c6ff66d414610331578063d0a1026014610364578063da2edeec1461037757600080fd5b80637e6e1e10146102415780638d928af81461026e5780639a6b198c146102a1578063a99ecc54146102b457600080fd5b8063369caf83116100c6578063369caf8314610192578063411557d1146101c657806353174fa4146101fa5780636fad06f51461020d57600080fd5b80630bfec755146100f857806319197ec6146101495780631df34fa31461015e57600080fd5b366100f357005b600080fd5b34801561010457600080fd5b5061012c7f000000000000000000000000000000000000000000000000000000000000000081565b6040516001600160a01b0390911681526020015b60405180910390f35b61015c6101573660046113a6565b6103aa565b005b34801561016a57600080fd5b5061012c7f000000000000000000000000000000000000000000000000000000000000000081565b34801561019e57600080fd5b5061012c7f000000000000000000000000000000000000000000000000000000000000000081565b3480156101d257600080fd5b5061012c7f000000000000000000000000000000000000000000000000000000000000000081565b61015c6102083660046113a6565b610402565b34801561021957600080fd5b5061012c7f000000000000000000000000000000000000000000000000000000000000000081565b34801561024d57600080fd5b5061026161025c3660046113fd565b61044b565b6040516101409190611465565b34801561027a57600080fd5b507f000000000000000000000000000000000000000000000000000000000000000061012c565b61015c6102af36600461147c565b6107cf565b3480156102c057600080fd5b5061012c7f000000000000000000000000000000000000000000000000000000000000000081565b3480156102f457600080fd5b5061031c7f000000000000000000000000000000000000000000000000000000000000000081565b60405163ffffffff9091168152602001610140565b34801561033d57600080fd5b507f000000000000000000000000000000000000000000000000000000000000000061012c565b61015c610372366004611524565b610893565b34801561038357600080fd5b507f000000000000000000000000000000000000000000000000000000000000000061012c565b6103b2610ace565b6103e76001600160a01b037f000000000000000000000000000000000000000000000000000000000000000016333086610af8565b6103f333848484610b65565b6103fd6001600055565b505050565b61040a610ace565b61043f6001600160a01b037f000000000000000000000000000000000000000000000000000000000000000016333086610af8565b6103f333848484610c1d565b60408051808201909152600080825260208201527f00000000000000000000000000000000000000000000000000000000000000006001600160a01b0316846001600160a01b0316036105fc57604051636c82bbbf60e11b81526001600160a01b0386811660048301526000917f00000000000000000000000000000000000000000000000000000000000000009091169063d905777e90602401602060405180830381865afa158015610503573d6000803e3d6000fd5b505050506040513d601f19601f8201168201806040525081019061052791906115c2565b90508084111561056857604051632e52afbb60e21b81526001600160a01b038716600482015260248101859052604481018290526064015b60405180910390fd5b60405163266d6a8360e11b8152600481018590527f00000000000000000000000000000000000000000000000000000000000000006001600160a01b031690634cdad50690602401602060405180830381865afa1580156105cd573d6000803e3d6000fd5b505050506040513d601f19601f820116820180604052508101906105f191906115c2565b604084015250610757565b60405163402d267d60e01b81526001600160a01b0386811660048301526000917f00000000000000000000000000000000000000000000000000000000000000009091169063402d267d90602401602060405180830381865afa158015610667573d6000803e3d6000fd5b505050506040513d601f19601f8201168201806040525081019061068b91906115c2565b9050808411156106c757604051633c8097d960e11b81526001600160a01b0387166004820152602481018590526044810182905260640161055f565b60405163ef8b30f760e01b8152600481018590527f00000000000000000000000000000000000000000000000000000000000000006001600160a01b03169063ef8b30f790602401602060405180830381865afa15801561072c573d6000803e3d6000fd5b505050506040513d601f19601f8201168201806040525081019061075091906115c2565b6040840152505b604051633b6f743b60e01b81526001600160a01b03851690633b6f743b906107869085906000906004016116a1565b6040805180830381865afa1580156107a2573d6000803e3d6000fd5b505050506040513d601f19601f820116820180604052508101906107c69190611714565b95945050505050565b3330146107f05760405162a19dbf60e81b815233600482015260240161055f565b600080838060200190518101906108079190611788565b915091508034101561083557604051631f2dda7760e21b81526004810182905234602482015260440161055f565b7f00000000000000000000000000000000000000000000000000000000000000006001600160a01b0316866001600160a01b03160361087f5761087a85848432610b65565b61088b565b61088b85848432610c1d565b505050505050565b336001600160a01b037f000000000000000000000000000000000000000000000000000000000000000016146108de576040516391ac5e4f60e01b815233600482015260240161055f565b7f00000000000000000000000000000000000000000000000000000000000000006001600160a01b0316876001600160a01b03161415801561095257507f00000000000000000000000000000000000000000000000000000000000000006001600160a01b0316876001600160a01b031614155b1561097b576040516384fb3f0d60e01b81526001600160a01b038816600482015260240161055f565b60006109878686610cca565b905060006109958787610cec565b905060006109a38888610cfc565b60405163269ac66360e21b81529091503090639a6b198c9034906109d1908e90889087908990600401611876565b6000604051808303818588803b1580156109ea57600080fd5b505af1935050505080156109fc575060015b610a96573d808015610a2a576040519150601f19603f3d011682016040523d82523d6000602084013e610a2f565b606091505b50631f2dda7760e21b610a41826118ae565b6001600160e01b03191603610a5857805181602001fd5b610a658b8a8a8632610d47565b6040518a907ffe509803c09416b28ff3d8f690c8b0c61462a892c46d5430c8fb20abe472daf090600090a250610ac2565b60405189907f27b5aea9f5736c02241d8a0272e9ec988ea44cf85c4b4760329431aa1967839490600090a25b50505050505050505050565b600260005403610af157604051633ee5aeb560e01b815260040160405180910390fd5b6002600055565b6040516001600160a01b038481166024830152838116604483015260648201839052610b5f9186918216906323b872dd906084015b604051602081830303815290604052915060e01b6020820180516001600160e01b038381831617835250505050610e4d565b50505050565b6000610b718585610ebe565b9050610b81818460600151610f53565b6040830181905260006060840152610bba7f00000000000000000000000000000000000000000000000000000000000000008484610f82565b6020838101518451604080518981529384019290925263ffffffff169082015260608101859052608081018290527fa53b96f27930f89fac6e5802f6b77fcad303dde855a10e5ef076e730d1f43afa9060a0015b60405180910390a15050505050565b6000610c298585611108565b9050610c39818460600151610f53565b6040830181905260006060840152610c727f00000000000000000000000000000000000000000000000000000000000000008484610f82565b6020838101518451604080518981529384019290925263ffffffff169082015260608101859052608081018290527f57e232f18448926c8d7554dfd1851d4a4cd10d6b804aabcd714b1f1c067e50ee9060a001610c0e565b6000610cda604c602c84866118e5565b610ce39161190f565b90505b92915050565b6000610cda602c600c84866118e5565b6060610d0b82604c81866118e5565b8080601f016020809104026020016040519081016040528093929190818152602001838380828437600092019190915250929695505050505050565b610d906040518060e00160405280600063ffffffff1681526020016000801916815260200160008152602001600081526020016060815260200160608152602001606081525090565b610d9a8585611165565b63ffffffff168152610dac8585610cca565b60208083019190915260408083018590528051808201825234808252600093820193909352905163c7c7f5b360e01b81526001600160a01b0389169263c7c7f5b3929091610e00918691889060040161192d565b60c06040518083038185885af1158015610e1e573d6000803e3d6000fd5b50505050506040513d601f19601f82011682018060405250810190610e439190611972565b5050505050505050565b600080602060008451602086016000885af180610e70576040513d6000823e3d81fd5b50506000513d91508115610e88578060011415610e95565b6001600160a01b0384163b155b15610b5f57604051635274afe760e01b81526001600160a01b038516600482015260240161055f565b604051636e553f6560e01b8152600481018290523060248201526000907f00000000000000000000000000000000000000000000000000000000000000006001600160a01b031690636e553f65906044015b6020604051808303816000875af1158015610f2f573d6000803e3d6000fd5b505050506040513d601f19601f82011682018060405250810190610ce391906115c2565b80821015610f7e576040516371c4efed60e01b8152600481018390526024810182905260440161055f565b5050565b815163ffffffff7f0000000000000000000000000000000000000000000000000000000000000000811691160361107b5760007f00000000000000000000000000000000000000000000000000000000000000006001600160a01b0316846001600160a01b031614611014577f0000000000000000000000000000000000000000000000000000000000000000611036565b7f00000000000000000000000000000000000000000000000000000000000000005b9050341561105757604051637578d2bd60e01b815260040160405180910390fd5b610b5f611065846020015190565b60408501516001600160a01b0384169190611188565b6040805180820182523480825260006020830152915163c7c7f5b360e01b81526001600160a01b0386169263c7c7f5b39290916110be918791879060040161192d565b60c06040518083038185885af11580156110dc573d6000803e3d6000fd5b50505050506040513d601f19601f820116820180604052508101906111019190611972565b5050505050565b604051635d043b2960e11b815260048101829052306024820181905260448201526000907f00000000000000000000000000000000000000000000000000000000000000006001600160a01b03169063ba08765290606401610f10565b6000611175600c600884866118e5565b61117e91611a06565b60e01c9392505050565b6040516001600160a01b038381166024830152604482018390526103fd91859182169063a9059cbb90606401610b2d565b634e487b7160e01b600052604160045260246000fd5b60405160e0810167ffffffffffffffff811182821017156111f2576111f26111b9565b60405290565b604051601f8201601f1916810167ffffffffffffffff81118282101715611221576112216111b9565b604052919050565b63ffffffff8116811461123b57600080fd5b50565b803561124981611229565b919050565b600067ffffffffffffffff821115611268576112686111b9565b50601f01601f191660200190565b600082601f83011261128757600080fd5b813561129a6112958261124e565b6111f8565b8181528460208386010111156112af57600080fd5b816020850160208301376000918101602001919091529392505050565b600060e082840312156112de57600080fd5b6112e66111cf565b90506112f18261123e565b8152602082013560208201526040820135604082015260608201356060820152608082013567ffffffffffffffff8082111561132c57600080fd5b61133885838601611276565b608084015260a084013591508082111561135157600080fd5b61135d85838601611276565b60a084015260c084013591508082111561137657600080fd5b5061138384828501611276565b60c08301525092915050565b80356001600160a01b038116811461124957600080fd5b6000806000606084860312156113bb57600080fd5b83359250602084013567ffffffffffffffff8111156113d957600080fd5b6113e5868287016112cc565b9250506113f46040850161138f565b90509250925092565b6000806000806080858703121561141357600080fd5b61141c8561138f565b935061142a6020860161138f565b925060408501359150606085013567ffffffffffffffff81111561144d57600080fd5b611459878288016112cc565b91505092959194509250565b815181526020808301519082015260408101610ce6565b6000806000806080858703121561149257600080fd5b61149b8561138f565b935060208501359250604085013567ffffffffffffffff8111156114be57600080fd5b6114ca87828801611276565b949793965093946060013593505050565b60008083601f8401126114ed57600080fd5b50813567ffffffffffffffff81111561150557600080fd5b60208301915083602082850101111561151d57600080fd5b9250929050565b600080600080600080600060a0888a03121561153f57600080fd5b6115488861138f565b965060208801359550604088013567ffffffffffffffff8082111561156c57600080fd5b6115788b838c016114db565b909750955085915061158c60608b0161138f565b945060808a01359150808211156115a257600080fd5b506115af8a828b016114db565b989b979a50959850939692959293505050565b6000602082840312156115d457600080fd5b5051919050565b60005b838110156115f65781810151838201526020016115de565b50506000910152565b600081518084526116178160208601602086016115db565b601f01601f19169290920160200192915050565b63ffffffff81511682526020810151602083015260408101516040830152606081015160608301526000608082015160e0608085015261166e60e08501826115ff565b905060a083015184820360a086015261168782826115ff565b91505060c083015184820360c08601526107c682826115ff565b6040815260006116b4604083018561162b565b905082151560208301529392505050565b6000604082840312156116d757600080fd5b6040516040810181811067ffffffffffffffff821117156116fa576116fa6111b9565b604052825181526020928301519281019290925250919050565b60006040828403121561172657600080fd5b610ce383836116c5565b805161124981611229565b600082601f83011261174c57600080fd5b815161175a6112958261124e565b81815284602083860101111561176f57600080fd5b6117808260208301602087016115db565b949350505050565b6000806040838503121561179b57600080fd5b825167ffffffffffffffff808211156117b357600080fd5b9084019060e082870312156117c757600080fd5b6117cf6111cf565b6117d883611730565b815260208301516020820152604083015160408201526060830151606082015260808301518281111561180a57600080fd5b6118168882860161173b565b60808301525060a08301518281111561182e57600080fd5b61183a8882860161173b565b60a08301525060c08301518281111561185257600080fd5b61185e8882860161173b565b60c08301525060209590950151949694955050505050565b60018060a01b038516815283602082015260806040820152600061189d60808301856115ff565b905082606083015295945050505050565b805160208201516001600160e01b031980821692919060048310156118dd5780818460040360031b1b83161693505b505050919050565b600080858511156118f557600080fd5b8386111561190257600080fd5b5050820193919092039150565b80356020831015610ce657600019602084900360031b1b1692915050565b608081526000611940608083018661162b565b9050611959602083018580518252602090810151910152565b6001600160a01b03929092166060919091015292915050565b60008082840360c081121561198657600080fd5b608081121561199457600080fd5b506040516060810167ffffffffffffffff82821081831117156119b9576119b96111b9565b81604052855183526020860151915080821682146119d657600080fd5b5060208201526119e985604086016116c5565b604082015291506119fd84608085016116c5565b90509250929050565b6001600160e01b03198135818116916004851015611a2e5780818660040360031b1b83161692505b50509291505056fea264697066735822122017373b7ae4812b21d8e036ec4fbc80bf96781027f338424f12841520a86c3e9764736f6c63430008160033","linkReferences":{}},"methodIdentifiers":{"ASSET_ERC20()":"1df34fa3","ASSET_OFT()":"0bfec755","ENDPOINT()":"6fad06f5","SHARE_ERC20()":"a99ecc54","SHARE_OFT()":"369caf83","VAULT()":"411557d1","VAULT_EID()":"aa72fe3f","depositAndSend(uint256,(uint32,bytes32,uint256,uint256,bytes,bytes,bytes),address)":"19197ec6","getAssetOFT()":"c6ff66d4","getShareOFT()":"da2edeec","getVault()":"8d928af8","handleCompose(address,bytes32,bytes,uint256)":"9a6b198c","lzCompose(address,bytes32,bytes,address,bytes)":"d0a10260","quoteSend(address,address,uint256,(uint32,bytes32,uint256,uint256,bytes,bytes,bytes))":"7e6e1e10","redeemAndSend(uint256,(uint32,bytes32,uint256,uint256,bytes,bytes,bytes),address)":"53174fa4"},"id":8}