{"abi":[{"type":"constructor","inputs":[{"name":"_vault","type":"address","internalType":"address"},{"name":"_assetOFT","type":"address","internalType":"address"},{"name":"_shareOFT","type":"address","internalType":"address"},{"name":"_wrapper","type":"address","internalType":"address"},{"name":"_endpoint","type":"address","internalType":"address"},{"name":"_delegate","type":"address","internalType":"address"}],"stateMutability":"nonpayable"},{"type":"function","name":"ASSET_OFT","inputs":[],"outputs":[{"name":"","type":"address","internalType":"address"}],"stateMutability":"view"},{"type":"function","name":"SHARE_OFT","inputs":[],"outputs":[{"name":"","type":"address","internalType":"address"}],"stateMutability":"view"},{"type":"function","name":"VAULT","inputs":[],"outputs":[{"name":"","type":"address","internalType":"contract IERC4626"}],"stateMutability":"view"},{"type":"function","name":"WRAPPER","inputs":[],"outputs":[{"name":"","type":"address","internalType":"address"}],"stateMutability":"view"},{"type":"function","name":"allowInitializePath","inputs":[{"name":"","type":"tuple","internalType":"struct Origin","components":[{"name":"srcEid","type":"uint32","internalType":"uint32"},{"name":"sender","type":"bytes32","internalType":"bytes32"},{"name":"nonce","type":"uint64","internalType":"uint64"}]}],"outputs":[{"name":"","type":"bool","internalType":"bool"}],"stateMutability":"view"},{"type":"function","name":"endpoint","inputs":[],"outputs":[{"name":"","type":"address","internalType":"contract ILayerZeroEndpointV2"}],"stateMutability":"view"},{"type":"function","name":"getAssetOFT","inputs":[],"outputs":[{"name":"","type":"address","internalType":"address"}],"stateMutability":"view"},{"type":"function","name":"getShareOFT","inputs":[],"outputs":[{"name":"","type":"address","internalType":"address"}],"stateMutability":"view"},{"type":"function","name":"getVault","inputs":[],"outputs":[{"name":"","type":"address","internalType":"address"}],"stateMutability":"view"},{"type":"function","name":"getWrapper","inputs":[],"outputs":[{"name":"","type":"address","internalType":"address"}],"stateMutability":"view"},{"type":"function","name":"lzReceive","inputs":[{"name":"","type":"tuple","internalType":"struct Origin","components":[{"name":"srcEid","type":"uint32","internalType":"uint32"},{"name":"sender","type":"bytes32","internalType":"bytes32"},{"name":"nonce","type":"uint64","internalType":"uint64"}]},{"name":"","type":"bytes32","internalType":"bytes32"},{"name":"","type":"bytes","internalType":"bytes"},{"name":"","type":"address","internalType":"address"},{"name":"","type":"bytes","internalType":"bytes"}],"outputs":[],"stateMutability":"payable"},{"type":"function","name":"nextNonce","inputs":[{"name":"","type":"uint32","internalType":"uint32"},{"name":"","type":"bytes32","internalType":"bytes32"}],"outputs":[{"name":"","type":"uint64","internalType":"uint64"}],"stateMutability":"view"},{"type":"function","name":"oAppVersion","inputs":[],"outputs":[{"name":"senderVersion","type":"uint64","internalType":"uint64"},{"name":"receiverVersion","type":"uint64","internalType":"uint64"}],"stateMutability":"pure"},{"type":"function","name":"owner","inputs":[],"outputs":[{"name":"","type":"address","internalType":"address"}],"stateMutability":"view"},{"type":"function","name":"peers","inputs":[{"name":"eid","type":"uint32","internalType":"uint32"}],"outputs":[{"name":"peer","type":"bytes32","internalType":"bytes32"}],"stateMutability":"view"},{"type":"function","name":"renounceOwnership","inputs":[],"outputs":[],"stateMutability":"nonpayable"},{"type":"function","name":"setDelegate","inputs":[{"name":"_delegate","type":"address","internalType":"address"}],"outputs":[],"stateMutability":"nonpayable"},{"type":"function","name":"setPeer","inputs":[{"name":"_eid","type":"uint32","internalType":"uint32"},{"name":"_peer","type":"bytes32","internalType":"bytes32"}],"outputs":[],"stateMutability":"nonpayable"},{"type":"function","name":"transferOwnership","inputs":[{"name":"newOwner","type":"address","internalType":"address"}],"outputs":[],"stateMutability":"nonpayable"},{"type":"event","name":"ComposerInitialized","inputs":[{"name":"vault","type":"address","indexed":false,"internalType":"address"},{"name":"assetOFT","type":"address","indexed":false,"internalType":"address"},{"name":"shareOFT","type":"address","indexed":false,"internalType":"address"},{"name":"wrapper","type":"address","indexed":false,"internalType":"address"}],"anonymous":false},{"type":"event","name":"OwnershipTransferred","inputs":[{"name":"previousOwner","type":"address","indexed":true,"internalType":"address"},{"name":"newOwner","type":"address","indexed":true,"internalType":"address"}],"anonymous":false},{"type":"event","name":"PeerSet","inputs":[{"name":"eid","type":"uint32","indexed":false,"internalType":"uint32"},{"name":"peer","type":"bytes32","indexed":false,"internalType":"bytes32"}],"anonymous":false},{"type":"error","name":"InvalidDelegate","inputs":[]},{"type":"error","name":"InvalidEndpointCall","inputs":[]},{"type":"error","name":"NoPeer","inputs":[{"name":"eid","type":"uint32","internalType":"uint32"}]},{"type":"error","name":"OnlyPeer","inputs":[{"name":"eid","type":"uint32","internalType":"uint32"},{"name":"sender","type":"bytes32","internalType":"bytes32"}]},{"type":"error","name":"OwnableInvalidOwner","inputs":[{"name":"owner","type":"address","internalType":"address"}]},{"type":"error","name":"OwnableUnauthorizedAccount","inputs":[{"name":"account","type":"address","internalType":"address"}]}],"bytecode":{"object":"0x6101206040523480156200001257600080fd5b5060405162000d3638038062000d368339810160408190526200003591620003e0565b8181806001600160a01b0381166200006857604051631e4fbdf760e01b8152600060048201526024015b60405180910390fd5b620000738162000373565b506001600160a01b038083166080528116620000a257604051632d618d8160e21b815260040160405180910390fd5b60805160405163ca5eb5e160e01b81526001600160a01b0383811660048301529091169063ca5eb5e190602401600060405180830381600087803b158015620000ea57600080fd5b505af1158015620000ff573d6000803e3d6000fd5b5050506001600160a01b0389169250620001799150505760405162461bcd60e51b815260206004820152603160248201527f4561676c654f5661756c74436f6d706f7365723a207661756c742063616e6e6f60448201527074206265207a65726f206164647265737360781b60648201526084016200005f565b6001600160a01b038516620001f75760405162461bcd60e51b815260206004820152603460248201527f4561676c654f5661756c74436f6d706f7365723a2061737365744f465420636160448201527f6e6e6f74206265207a65726f206164647265737300000000000000000000000060648201526084016200005f565b6001600160a01b038416620002755760405162461bcd60e51b815260206004820152603460248201527f4561676c654f5661756c74436f6d706f7365723a2073686172654f465420636160448201527f6e6e6f74206265207a65726f206164647265737300000000000000000000000060648201526084016200005f565b6001600160a01b038316620002f35760405162461bcd60e51b815260206004820152603360248201527f4561676c654f5661756c74436f6d706f7365723a20777261707065722063616e60448201527f6e6f74206265207a65726f20616464726573730000000000000000000000000060648201526084016200005f565b6001600160a01b0386811660a081905286821660c081905286831660e08190529286166101008190526040805193845260208401929092529082019290925260608101919091527f24f290454cfb26dad333560e257ac7f30bef5fccf1428d2533bc1c3074fc741f9060800160405180910390a150505050505062000461565b600080546001600160a01b038381166001600160a01b0319831681178455604051919092169283917f8be0079c531659141344cd1fd0a4f28419497f9722a3daafe3b4186f6b6457e09190a35050565b80516001600160a01b0381168114620003db57600080fd5b919050565b60008060008060008060c08789031215620003fa57600080fd5b6200040587620003c3565b95506200041560208801620003c3565b94506200042560408801620003c3565b93506200043560608801620003c3565b92506200044560808801620003c3565b91506200045560a08801620003c3565b90509295509295509295565b60805160a05160c05160e0516101005161086d620004c96000396000818161030d01526104040152600081816101d201526103ce01526000818161012b015261037b01526000818161020601526102bc01526000818161023a0152610515015261086d6000f3fe6080604052600436106101145760003560e01c80638d928af8116100a0578063ca5eb5e111610064578063ca5eb5e11461039f578063da2edeec146103bf578063e1eb13c1146103f2578063f2fde38b14610426578063ff7bd03d1461044657600080fd5b80638d928af8146102ad5780638da5cb5b146102e05780638f6b7070146102fe578063bb0b6a5314610331578063c6ff66d41461036c57600080fd5b8063369caf83116100e7578063369caf83146101c0578063411557d1146101f45780635e280f1114610228578063715018a61461025c5780637d25a05e1461027157600080fd5b80630bfec7551461011957806313137d651461016a57806317442b701461017f5780633400288b146101a0575b600080fd5b34801561012557600080fd5b5061014d7f000000000000000000000000000000000000000000000000000000000000000081565b6040516001600160a01b0390911681526020015b60405180910390f35b61017d610178366004610701565b610477565b005b34801561018b57600080fd5b50604080516001808252602082015201610161565b3480156101ac57600080fd5b5061017d6101bb3660046107b4565b6104c4565b3480156101cc57600080fd5b5061014d7f000000000000000000000000000000000000000000000000000000000000000081565b34801561020057600080fd5b5061014d7f000000000000000000000000000000000000000000000000000000000000000081565b34801561023457600080fd5b5061014d7f000000000000000000000000000000000000000000000000000000000000000081565b34801561026857600080fd5b5061017d6104da565b34801561027d57600080fd5b5061029461028c3660046107b4565b600092915050565b60405167ffffffffffffffff9091168152602001610161565b3480156102b957600080fd5b507f000000000000000000000000000000000000000000000000000000000000000061014d565b3480156102ec57600080fd5b506000546001600160a01b031661014d565b34801561030a57600080fd5b507f000000000000000000000000000000000000000000000000000000000000000061014d565b34801561033d57600080fd5b5061035e61034c3660046107de565b60016020526000908152604090205481565b604051908152602001610161565b34801561037857600080fd5b507f000000000000000000000000000000000000000000000000000000000000000061014d565b3480156103ab57600080fd5b5061017d6103ba366004610800565b6104ee565b3480156103cb57600080fd5b507f000000000000000000000000000000000000000000000000000000000000000061014d565b3480156103fe57600080fd5b5061014d7f000000000000000000000000000000000000000000000000000000000000000081565b34801561043257600080fd5b5061017d610441366004610800565b610574565b34801561045257600080fd5b5061046761046136600461081b565b50600190565b6040519015158152602001610161565b60405162461bcd60e51b815260206004820152601b60248201527f436f6d706f7365206e6f742079657420696d706c656d656e746564000000000060448201526064015b60405180910390fd5b6104cc6105b2565b6104d682826105df565b5050565b6104e26105b2565b6104ec6000610634565b565b6104f66105b2565b60405163ca5eb5e160e01b81526001600160a01b0382811660048301527f0000000000000000000000000000000000000000000000000000000000000000169063ca5eb5e190602401600060405180830381600087803b15801561055957600080fd5b505af115801561056d573d6000803e3d6000fd5b5050505050565b61057c6105b2565b6001600160a01b0381166105a657604051631e4fbdf760e01b8152600060048201526024016104bb565b6105af81610634565b50565b6000546001600160a01b031633146104ec5760405163118cdaa760e01b81523360048201526024016104bb565b63ffffffff8216600081815260016020908152604091829020849055815192835282018390527f238399d427b947898edb290f5ff0f9109849b1c3ba196a42e35f00c50a54b98b910160405180910390a15050565b600080546001600160a01b038381166001600160a01b0319831681178455604051919092169283917f8be0079c531659141344cd1fd0a4f28419497f9722a3daafe3b4186f6b6457e09190a35050565b60006060828403121561069657600080fd5b50919050565b60008083601f8401126106ae57600080fd5b50813567ffffffffffffffff8111156106c657600080fd5b6020830191508360208285010111156106de57600080fd5b9250929050565b80356001600160a01b03811681146106fc57600080fd5b919050565b600080600080600080600060e0888a03121561071c57600080fd5b6107268989610684565b965060608801359550608088013567ffffffffffffffff8082111561074a57600080fd5b6107568b838c0161069c565b909750955085915061076a60a08b016106e5565b945060c08a013591508082111561078057600080fd5b5061078d8a828b0161069c565b989b979a50959850939692959293505050565b803563ffffffff811681146106fc57600080fd5b600080604083850312156107c757600080fd5b6107d0836107a0565b946020939093013593505050565b6000602082840312156107f057600080fd5b6107f9826107a0565b9392505050565b60006020828403121561081257600080fd5b6107f9826106e5565b60006060828403121561082d57600080fd5b6107f9838361068456fea26469706673582212204c443e8c4f2201b979ab449a4fe9e877966ece7bb3bd11b5190d0b07dc31587364736f6c63430008160033","linkReferences":{}},"methodIdentifiers":{"ASSET_OFT()":"0bfec755","SHARE_OFT()":"369caf83","VAULT()":"411557d1","WRAPPER()":"e1eb13c1","allowInitializePath((uint32,bytes32,uint64))":"ff7bd03d","endpoint()":"5e280f11","getAssetOFT()":"c6ff66d4","getShareOFT()":"da2edeec","getVault()":"8d928af8","getWrapper()":"8f6b7070","lzReceive((uint32,bytes32,uint64),bytes32,bytes,address,bytes)":"13137d65","nextNonce(uint32,bytes32)":"7d25a05e","oAppVersion()":"17442b70","owner()":"8da5cb5b","peers(uint32)":"bb0b6a53","renounceOwnership()":"715018a6","setDelegate(address)":"ca5eb5e1","setPeer(uint32,bytes32)":"3400288b","transferOwnership(address)":"f2fde38b"},"id":5}