{"abi":[{"type":"constructor","inputs":[{"name":"_vaultAddress","type":"address","internalType":"address"},{"name":"_charmVault","type":"address","internalType":"address"},{"name":"_wlfi","type":"address","internalType":"address"},{"name":"_usd1","type":"address","internalType":"address"},{"name":"_uniswapRouter","type":"address","internalType":"address"},{"name":"_owner","type":"address","internalType":"address"}],"stateMutability":"nonpayable"},{"type":"function","name":"CHARM_VAULT_ADDRESS","inputs":[],"outputs":[{"name":"","type":"address","internalType":"address"}],"stateMutability":"view"},{"type":"function","name":"EAGLE_VAULT","inputs":[],"outputs":[{"name":"","type":"address","internalType":"address"}],"stateMutability":"view"},{"type":"function","name":"POOL_DESCRIPTION","inputs":[],"outputs":[{"name":"","type":"string","internalType":"string"}],"stateMutability":"view"},{"type":"function","name":"POOL_FEE","inputs":[],"outputs":[{"name":"","type":"uint24","internalType":"uint24"}],"stateMutability":"view"},{"type":"function","name":"UNISWAP_ROUTER","inputs":[],"outputs":[{"name":"","type":"address","internalType":"contract ISwapRouter"}],"stateMutability":"view"},{"type":"function","name":"USD1","inputs":[],"outputs":[{"name":"","type":"address","internalType":"contract IERC20"}],"stateMutability":"view"},{"type":"function","name":"WLFI","inputs":[],"outputs":[{"name":"","type":"address","internalType":"contract IERC20"}],"stateMutability":"view"},{"type":"function","name":"active","inputs":[],"outputs":[{"name":"","type":"bool","internalType":"bool"}],"stateMutability":"view"},{"type":"function","name":"charmVault","inputs":[],"outputs":[{"name":"","type":"address","internalType":"contract ICharmVault"}],"stateMutability":"view"},{"type":"function","name":"deposit","inputs":[{"name":"wlfiAmount","type":"uint256","internalType":"uint256"},{"name":"usd1Amount","type":"uint256","internalType":"uint256"}],"outputs":[{"name":"shares","type":"uint256","internalType":"uint256"}],"stateMutability":"nonpayable"},{"type":"function","name":"getShareBalance","inputs":[],"outputs":[{"name":"","type":"uint256","internalType":"uint256"}],"stateMutability":"view"},{"type":"function","name":"getTotalAmounts","inputs":[],"outputs":[{"name":"usd1Amount","type":"uint256","internalType":"uint256"},{"name":"wlfiAmount","type":"uint256","internalType":"uint256"}],"stateMutability":"view"},{"type":"function","name":"initializeApprovals","inputs":[],"outputs":[],"stateMutability":"nonpayable"},{"type":"function","name":"isInitialized","inputs":[],"outputs":[{"name":"","type":"bool","internalType":"bool"}],"stateMutability":"view"},{"type":"function","name":"lastRebalance","inputs":[],"outputs":[{"name":"","type":"uint256","internalType":"uint256"}],"stateMutability":"view"},{"type":"function","name":"maxSlippage","inputs":[],"outputs":[{"name":"","type":"uint256","internalType":"uint256"}],"stateMutability":"view"},{"type":"function","name":"owner","inputs":[],"outputs":[{"name":"","type":"address","internalType":"address"}],"stateMutability":"view"},{"type":"function","name":"pause","inputs":[],"outputs":[],"stateMutability":"nonpayable"},{"type":"function","name":"rebalance","inputs":[],"outputs":[],"stateMutability":"nonpayable"},{"type":"function","name":"renounceOwnership","inputs":[],"outputs":[],"stateMutability":"nonpayable"},{"type":"function","name":"rescueIdleTokens","inputs":[],"outputs":[],"stateMutability":"nonpayable"},{"type":"function","name":"rescueToken","inputs":[{"name":"token","type":"address","internalType":"address"},{"name":"amount","type":"uint256","internalType":"uint256"},{"name":"to","type":"address","internalType":"address"}],"outputs":[],"stateMutability":"nonpayable"},{"type":"function","name":"resume","inputs":[],"outputs":[],"stateMutability":"nonpayable"},{"type":"function","name":"setCharmVault","inputs":[{"name":"_charmVault","type":"address","internalType":"address"}],"outputs":[],"stateMutability":"nonpayable"},{"type":"function","name":"setTokenApproval","inputs":[{"name":"token","type":"address","internalType":"address"},{"name":"spender","type":"address","internalType":"address"},{"name":"amount","type":"uint256","internalType":"uint256"}],"outputs":[],"stateMutability":"nonpayable"},{"type":"function","name":"transferOwnership","inputs":[{"name":"newOwner","type":"address","internalType":"address"}],"outputs":[],"stateMutability":"nonpayable"},{"type":"function","name":"updateParameters","inputs":[{"name":"_maxSlippage","type":"uint256","internalType":"uint256"}],"outputs":[],"stateMutability":"nonpayable"},{"type":"function","name":"withdraw","inputs":[{"name":"value","type":"uint256","internalType":"uint256"}],"outputs":[{"name":"usd1Amount","type":"uint256","internalType":"uint256"},{"name":"wlfiAmount","type":"uint256","internalType":"uint256"}],"stateMutability":"nonpayable"},{"type":"event","name":"CharmVaultSet","inputs":[{"name":"charmVault","type":"address","indexed":true,"internalType":"address"}],"anonymous":false},{"type":"event","name":"OwnershipTransferred","inputs":[{"name":"previousOwner","type":"address","indexed":true,"internalType":"address"},{"name":"newOwner","type":"address","indexed":true,"internalType":"address"}],"anonymous":false},{"type":"event","name":"StrategyDeposit","inputs":[{"name":"wlfiAmount","type":"uint256","indexed":false,"internalType":"uint256"},{"name":"usd1Amount","type":"uint256","indexed":false,"internalType":"uint256"},{"name":"shares","type":"uint256","indexed":false,"internalType":"uint256"}],"anonymous":false},{"type":"event","name":"StrategyRebalanced","inputs":[{"name":"newTotal0","type":"uint256","indexed":false,"internalType":"uint256"},{"name":"newTotal1","type":"uint256","indexed":false,"internalType":"uint256"}],"anonymous":false},{"type":"event","name":"StrategyWithdraw","inputs":[{"name":"shares","type":"uint256","indexed":false,"internalType":"uint256"},{"name":"wlfiAmount","type":"uint256","indexed":false,"internalType":"uint256"},{"name":"usd1Amount","type":"uint256","indexed":false,"internalType":"uint256"}],"anonymous":false},{"type":"event","name":"TokensSwapped","inputs":[{"name":"tokenIn","type":"address","indexed":true,"internalType":"address"},{"name":"tokenOut","type":"address","indexed":true,"internalType":"address"},{"name":"amountIn","type":"uint256","indexed":false,"internalType":"uint256"},{"name":"amountOut","type":"uint256","indexed":false,"internalType":"uint256"}],"anonymous":false},{"type":"event","name":"UnusedTokensReturned","inputs":[{"name":"usd1Amount","type":"uint256","indexed":false,"internalType":"uint256"},{"name":"wlfiAmount","type":"uint256","indexed":false,"internalType":"uint256"}],"anonymous":false},{"type":"error","name":"InsufficientBalance","inputs":[]},{"type":"error","name":"NotInitialized","inputs":[]},{"type":"error","name":"OnlyVault","inputs":[]},{"type":"error","name":"OwnableInvalidOwner","inputs":[{"name":"owner","type":"address","internalType":"address"}]},{"type":"error","name":"OwnableUnauthorizedAccount","inputs":[{"name":"account","type":"address","internalType":"address"}]},{"type":"error","name":"ReentrancyGuardReentrantCall","inputs":[]},{"type":"error","name":"SafeERC20FailedOperation","inputs":[{"name":"token","type":"address","internalType":"address"}]},{"type":"error","name":"SlippageExceeded","inputs":[]},{"type":"error","name":"StrategyPaused","inputs":[]},{"type":"error","name":"ZeroAddress","inputs":[]}],"bytecode":{"object":"0x6101006040526101f46003553480156200001857600080fd5b506040516200252d3803806200252d8339810160408190526200003b91620001d5565b6001600055806001600160a01b0381166200007057604051631e4fbdf760e01b81526000600482015260240160405180910390fd5b6200007b8162000166565b506001600160a01b03861615806200009a57506001600160a01b038416155b80620000ad57506001600160a01b038316155b80620000c057506001600160a01b038216155b15620000df5760405163d92e233d60e01b815260040160405180910390fd5b6001600160a01b0380871660805284811660c05283811660a05282811660e0528516156200015557600280546001600160a81b0319166001600160a01b038716908117600160a01b179091556040517f5ed0587a2d4eba645c1cb06b4918a10e8bc79013f1cf3b66394ddf27eba2f5d390600090a25b505042600455506200025692505050565b600180546001600160a01b038381166001600160a01b0319831681179093556040519116919082907f8be0079c531659141344cd1fd0a4f28419497f9722a3daafe3b4186f6b6457e090600090a35050565b80516001600160a01b0381168114620001d057600080fd5b919050565b60008060008060008060c08789031215620001ef57600080fd5b620001fa87620001b8565b95506200020a60208801620001b8565b94506200021a60408801620001b8565b93506200022a60608801620001b8565b92506200023a60808801620001b8565b91506200024a60a08801620001b8565b90509295509295509295565b60805160a05160c05160e05161217e620003af600039600081816103ab01528181610566015281816105bc01528181611ae40152611ca40152600081816102bd015281816105440152818161060501528181610dcc01528181610e9301528181610fd50152818161141a015281816114f4015281816116850152818161179b01528181611a8601528181611b6001528181611c210152611d4a01526000818161027e0152818161059a0152818161064101528181610f510152818161106b015281816111e8015281816113840152818161149a0152818161171b015281816117f501528181611a6101528181611b8a01528181611c460152611d200152600081816103310152818161067c01528181610881015281816109e601528181610d1b01528181610e5e01528181610f1c015281816114bc015281816115160152818161162f015281816117bd0152611817015261217e6000f3fe608060405234801561001057600080fd5b50600436106101c45760003560e01c80638456cb59116100f9578063d826492011610097578063e6ff0a2f11610071578063e6ff0a2f146103fd578063f2fde38b14610410578063f88163a314610423578063f8a67a621461042b57600080fd5b8063d8264920146103a6578063dd1b9c4a146103cd578063e2bbb158146103ea57600080fd5b8063a0b660b5116100d3578063a0b660b51461032c578063bc6840f914610353578063bf214acd14610366578063c4a7761e1461039e57600080fd5b80638456cb591461030a5780638c04166f146103125780638da5cb5b1461031b57600080fd5b8063392e53cd116101665780635e787f19116101405780635e787f19146102b8578063715018a6146102df5780637d7c2a1c146102e75780638390a650146102ef57600080fd5b8063392e53cd1461025e5780633ec6620214610266578063443863211461027957600080fd5b8063175fadbe116101a2578063175fadbe146102135780631de288571461022657806327f8eaac1461022e5780632e1a7d4d1461023657600080fd5b806302fb0c5e146101c9578063046f7da2146101f2578063106b9ca1146101fc575b600080fd5b6002546101dd90600160a01b900460ff1681565b60405190151581526020015b60405180910390f35b6101fa61043e565b005b61020560045481565b6040519081526020016101e9565b6101fa610221366004611eb9565b610484565b6102056104a5565b6101fa61052f565b610249610244366004611ef5565b61066e565b604080519283526020830191909152016101e9565b6101dd610948565b6101fa610274366004611ef5565b610971565b6102a07f000000000000000000000000000000000000000000000000000000000000000081565b6040516001600160a01b0390911681526020016101e9565b6102a07f000000000000000000000000000000000000000000000000000000000000000081565b6101fa6109c9565b6101fa6109db565b6102a07322828dbf15f5fba2394ba7cf8fa9a96bdb444b7181565b6101fa610a88565b61020560035481565b6001546001600160a01b03166102a0565b6102a07f000000000000000000000000000000000000000000000000000000000000000081565b6101fa610361366004611f0e565b610a9f565b6103916040518060400160405280600c81526020016b555344312f574c464920312560a01b81525081565b6040516101e99190611f30565b610249610b1e565b6102a07f000000000000000000000000000000000000000000000000000000000000000081565b6103d661271081565b60405162ffffff90911681526020016101e9565b6102056103f8366004611f7f565b610d0e565b6002546102a0906001600160a01b031681565b6101fa61041e366004611f0e565b6115e6565b6101fa611624565b6101fa610439366004611fa1565b61188a565b6104466118cd565b6002546001600160a01b031661046f576040516321c4e35760e21b815260040160405180910390fd5b6002805460ff60a01b1916600160a01b179055565b61048c6118cd565b6104a06001600160a01b03841683836118fa565b505050565b6002546000906001600160a01b03166104be5750600090565b6002546040516370a0823160e01b81523060048201526001600160a01b03909116906370a0823190602401602060405180830381865afa158015610506573d6000803e3d6000fd5b505050506040513d601f19601f8201168201806040525081019061052a9190611fdd565b905090565b6105376118cd565b61058d6001600160a01b037f0000000000000000000000000000000000000000000000000000000000000000167f00000000000000000000000000000000000000000000000000000000000000006000196118fa565b6105e36001600160a01b037f0000000000000000000000000000000000000000000000000000000000000000167f00000000000000000000000000000000000000000000000000000000000000006000196118fa565b6002546001600160a01b03161561066c57600254610630906001600160a01b037f0000000000000000000000000000000000000000000000000000000000000000811691166000196118fa565b60025461066c906001600160a01b037f0000000000000000000000000000000000000000000000000000000000000000811691166000196118fa565b565b600080336001600160a01b037f000000000000000000000000000000000000000000000000000000000000000016146106ba57604051638d1af8bd60e01b815260040160405180910390fd5b6106c26119be565b826000036106d557506000905080610939565b6002546001600160a01b03166106f057506000905080610939565b6002546040516370a0823160e01b81523060048201526000916001600160a01b0316906370a0823190602401602060405180830381865afa158015610739573d6000803e3d6000fd5b505050506040513d601f19601f8201168201806040525081019061075d9190611fdd565b905080600003610774576000809250925050610939565b60008061077f610b1e565b90925090506000610790828461200c565b905060008188106107a25750836107ba565b816107ad898761201f565b6107b79190612036565b90505b6000856107c7838761201f565b6107d19190612036565b90506000866107e0848761201f565b6107ea9190612036565b6002546003549192506001600160a01b03169063d331bef7908590612710906108139082612058565b61081d908761201f565b6108279190612036565b61271060035461271061083a9190612058565b610844908761201f565b61084e9190612036565b6040516001600160e01b031960e086901b1681526004810193909352602483019190915260448201526001600160a01b037f000000000000000000000000000000000000000000000000000000000000000016606482015260840160408051808303816000875af11580156108c7573d6000803e3d6000fd5b505050506040513d601f19601f820116820180604052508101906108eb919061206b565b6040805186815260208101849052908101829052919a5098507f9b4015fbfa21a538378486da76932c7362cc536aa85cc6d6ddbe3a41fec4f6da9060600160405180910390a1505050505050505b6109436001600055565b915091565b600254600090600160a01b900460ff16801561052a5750506002546001600160a01b0316151590565b6109796118cd565b6103e88111156109c45760405162461bcd60e51b81526020600482015260116024820152700a6d8d2e0e0c2ceca40e8dede40d0d2ced607b1b60448201526064015b60405180910390fd5b600355565b6109d16118cd565b61066c60006119e8565b336001600160a01b037f00000000000000000000000000000000000000000000000000000000000000001614610a2457604051638d1af8bd60e01b815260040160405180910390fd5b6002546001600160a01b03161561066c57600080610a40610b1e565b4260045560408051838152602081018390529294509092507fea234a6aeb16b402d7b401a7a7acf39d7871be5134e4392193eccfda0be6201e91015b60405180910390a15050565b610a906118cd565b6002805460ff60a01b19169055565b610aa76118cd565b6001600160a01b038116610ace5760405163d92e233d60e01b815260040160405180910390fd5b600280546001600160a81b0319166001600160a01b038316908117600160a01b179091556040517f5ed0587a2d4eba645c1cb06b4918a10e8bc79013f1cf3b66394ddf27eba2f5d390600090a250565b6002546000908190600160a01b900460ff161580610b4557506002546001600160a01b0316155b15610b535750600091829150565b6002546040516370a0823160e01b81523060048201526000916001600160a01b0316906370a0823190602401602060405180830381865afa158015610b9c573d6000803e3d6000fd5b505050506040513d601f19601f82011682018060405250810190610bc09190611fdd565b905080600003610bd557506000928392509050565b60025460408051636253bb0f60e11b8152815160009384936001600160a01b039091169263c4a7761e92600480830193928290030181865afa158015610c1f573d6000803e3d6000fd5b505050506040513d601f19601f82011682018060405250810190610c43919061206b565b915091506000600260009054906101000a90046001600160a01b03166001600160a01b03166318160ddd6040518163ffffffff1660e01b8152600401602060405180830381865afa158015610c9c573d6000803e3d6000fd5b505050506040513d601f19601f82011682018060405250810190610cc09190611fdd565b905080600003610cd857506000958695509350505050565b80610ce3858561201f565b610ced9190612036565b955080610cfa858461201f565b610d049190612036565b9450505050509091565b6000336001600160a01b037f00000000000000000000000000000000000000000000000000000000000000001614610d5957604051638d1af8bd60e01b815260040160405180910390fd5b600254600160a01b900460ff16610d835760405163e628b94960e01b815260040160405180910390fd5b610d8b6119be565b6002546001600160a01b0316610db4576040516321c4e35760e21b815260040160405180910390fd5b6040516370a0823160e01b81523060048201526000907f00000000000000000000000000000000000000000000000000000000000000006001600160a01b0316906370a0823190602401602060405180830381865afa158015610e1b573d6000803e3d6000fd5b505050506040513d601f19601f82011682018060405250810190610e3f9190611fdd565b90508315610eff576040516323b872dd60e01b81526001600160a01b037f000000000000000000000000000000000000000000000000000000000000000081166004830152306024830152604482018690527f000000000000000000000000000000000000000000000000000000000000000016906323b872dd906064016020604051808303816000875af1925050508015610ef8575060408051601f3d908101601f19168201909252610ef59181019061208f565b60015b15610eff57505b8215610fbd576040516323b872dd60e01b81526001600160a01b037f000000000000000000000000000000000000000000000000000000000000000081166004830152306024830152604482018590527f000000000000000000000000000000000000000000000000000000000000000016906323b872dd906064016020604051808303816000875af1925050508015610fb6575060408051601f3d908101601f19168201909252610fb39181019061208f565b60015b15610fbd57505b6040516370a0823160e01b81523060048201526000907f00000000000000000000000000000000000000000000000000000000000000006001600160a01b0316906370a0823190602401602060405180830381865afa158015611024573d6000803e3d6000fd5b505050506040513d601f19601f820116820180604052508101906110489190611fdd565b6040516370a0823160e01b81523060048201529091506000906001600160a01b037f000000000000000000000000000000000000000000000000000000000000000016906370a0823190602401602060405180830381865afa1580156110b2573d6000803e3d6000fd5b505050506040513d601f19601f820116820180604052508101906110d69190611fdd565b9050811580156110e4575080155b156110f557600093505050506115d6565b60025460408051636253bb0f60e11b8152815160009384936001600160a01b039091169263c4a7761e92600480830193928290030181865afa15801561113f573d6000803e3d6000fd5b505050506040513d601f19601f82011682018060405250810190611163919061206b565b9150915060008060008411801561117a5750600083115b156112cf5760008361118c868961201f565b6111969190612036565b90508086106112655791508590508160006111b18288612058565b9050801561125f5760006111c482611a3a565b90506111d0818561200c565b6040516370a0823160e01b81523060048201529094507f00000000000000000000000000000000000000000000000000000000000000006001600160a01b0316906370a0823190602401602060405180830381865afa158015611237573d6000803e3d6000fd5b505050506040513d601f19601f8201168201806040525081019061125b9190611fdd565b9450505b506112c9565b60006112718783612058565b9050600086611280878461201f565b61128a9190612036565b9050888110156112bf57600061129f82611bfa565b90506112ab818a61200c565b95506112b7828b612058565b9450506112c6565b8794508893505b50505b506112d5565b50839050845b60025460405163365d0ed760e01b81526004810184905260248101839052600060448201819052606482018190523060848301529182916001600160a01b039091169063365d0ed79060a4016060604051808303816000875af1158015611340573d6000803e3d6000fd5b505050506040513d601f19601f8201168201806040525081019061136491906120b1565b6040516370a0823160e01b8152306004820152929c5090935091506000907f00000000000000000000000000000000000000000000000000000000000000006001600160a01b0316906370a0823190602401602060405180830381865afa1580156113d3573d6000803e3d6000fd5b505050506040513d601f19601f820116820180604052508101906113f79190611fdd565b6040516370a0823160e01b81523060048201529091506000906001600160a01b037f000000000000000000000000000000000000000000000000000000000000000016906370a0823190602401602060405180830381865afa158015611461573d6000803e3d6000fd5b505050506040513d601f19601f820116820180604052508101906114859190611fdd565b905081156114e1576114e16001600160a01b037f0000000000000000000000000000000000000000000000000000000000000000167f000000000000000000000000000000000000000000000000000000000000000084611dac565b801561153b5761153b6001600160a01b037f0000000000000000000000000000000000000000000000000000000000000000167f000000000000000000000000000000000000000000000000000000000000000083611dac565b600082118061154a5750600081115b156115895760408051838152602081018390527f4f3aef3cf11fd9405846420fd580666c49868d4f5c814b48ec46092b91a1b9cb910160405180910390a15b505060408051838152602081018390529081018b90527fe92d6d2dfb3946d2655ac9a4ed7e724c4bcf0d2d993c5ab9b70e9a4785bd20559060600160405180910390a15050505050505050505b6115e06001600055565b92915050565b6115ee6118cd565b6001600160a01b03811661161857604051631e4fbdf760e01b8152600060048201526024016109bb565b611621816119e8565b50565b336001600160a01b037f0000000000000000000000000000000000000000000000000000000000000000161461166d57604051638d1af8bd60e01b815260040160405180910390fd5b6040516370a0823160e01b81523060048201526000907f00000000000000000000000000000000000000000000000000000000000000006001600160a01b0316906370a0823190602401602060405180830381865afa1580156116d4573d6000803e3d6000fd5b505050506040513d601f19601f820116820180604052508101906116f89190611fdd565b6040516370a0823160e01b81523060048201529091506000906001600160a01b037f000000000000000000000000000000000000000000000000000000000000000016906370a0823190602401602060405180830381865afa158015611762573d6000803e3d6000fd5b505050506040513d601f19601f820116820180604052508101906117869190611fdd565b905081156117e2576117e26001600160a01b037f0000000000000000000000000000000000000000000000000000000000000000167f000000000000000000000000000000000000000000000000000000000000000084611dac565b801561183c5761183c6001600160a01b037f0000000000000000000000000000000000000000000000000000000000000000167f000000000000000000000000000000000000000000000000000000000000000083611dac565b600082118061184b5750600081115b156118865760408051828152602081018490527f4f3aef3cf11fd9405846420fd580666c49868d4f5c814b48ec46092b91a1b9cb9101610a7c565b5050565b6118926118cd565b6001600160a01b0381166118b95760405163d92e233d60e01b815260040160405180910390fd5b6104a06001600160a01b0384168284611dac565b6001546001600160a01b0316331461066c5760405163118cdaa760e01b81523360048201526024016109bb565b604080516001600160a01b038416602482015260448082018490528251808303909101815260649091019091526020810180516001600160e01b031663095ea7b360e01b17905261194b8482611ddd565b6119b8576040516001600160a01b038481166024830152600060448301526119ae91869182169063095ea7b3906064015b604051602081830303815290604052915060e01b6020820180516001600160e01b038381831617835250505050611e2c565b6119b88482611e2c565b50505050565b6002600054036119e157604051633ee5aeb560e01b815260040160405180910390fd5b6002600055565b600180546001600160a01b038381166001600160a01b0319831681179093556040519116919082907f8be0079c531659141344cd1fd0a4f28419497f9722a3daafe3b4186f6b6457e090600090a35050565b600081600003611a4c57506000919050565b60408051610100810182526001600160a01b037f0000000000000000000000000000000000000000000000000000000000000000811682527f0000000000000000000000000000000000000000000000000000000000000000811660208301526127108284015230606083015242608083015260a08201859052600060c0830181905260e0830152915163414bf38960e01b815290917f0000000000000000000000000000000000000000000000000000000000000000169063414bf38990611b199084906004016120df565b6020604051808303816000875af1158015611b38573d6000803e3d6000fd5b505050506040513d601f19601f82011682018060405250810190611b5c9190611fdd565b91507f00000000000000000000000000000000000000000000000000000000000000006001600160a01b03167f00000000000000000000000000000000000000000000000000000000000000006001600160a01b03167f25f1d03755df23c30e25db2dbd3891e31ce084bdfbfc46f9fe5e446ee5f9b2d48585604051611bec929190918252602082015260400190565b60405180910390a350919050565b600081600003611c0c57506000919050565b60408051610100810182526001600160a01b037f0000000000000000000000000000000000000000000000000000000000000000811682527f0000000000000000000000000000000000000000000000000000000000000000811660208301526127108284015230606083015242608083015260a08201859052600060c0830181905260e0830152915163414bf38960e01b815290917f0000000000000000000000000000000000000000000000000000000000000000169063414bf38990611cd99084906004016120df565b6020604051808303816000875af1158015611cf8573d6000803e3d6000fd5b505050506040513d601f19601f82011682018060405250810190611d1c9190611fdd565b91507f00000000000000000000000000000000000000000000000000000000000000006001600160a01b03167f00000000000000000000000000000000000000000000000000000000000000006001600160a01b03167f25f1d03755df23c30e25db2dbd3891e31ce084bdfbfc46f9fe5e446ee5f9b2d48585604051611bec929190918252602082015260400190565b6040516001600160a01b038381166024830152604482018390526104a091859182169063a9059cbb9060640161197c565b6000806000806020600086516020880160008a5af192503d91506000519050828015611e2257508115611e135780600114611e22565b6000866001600160a01b03163b115b9695505050505050565b600080602060008451602086016000885af180611e4f576040513d6000823e3d81fd5b50506000513d91508115611e67578060011415611e74565b6001600160a01b0384163b155b156119b857604051635274afe760e01b81526001600160a01b03851660048201526024016109bb565b80356001600160a01b0381168114611eb457600080fd5b919050565b600080600060608486031215611ece57600080fd5b611ed784611e9d565b9250611ee560208501611e9d565b9150604084013590509250925092565b600060208284031215611f0757600080fd5b5035919050565b600060208284031215611f2057600080fd5b611f2982611e9d565b9392505050565b60006020808352835180602085015260005b81811015611f5e57858101830151858201604001528201611f42565b506000604082860101526040601f19601f8301168501019250505092915050565b60008060408385031215611f9257600080fd5b50508035926020909101359150565b600080600060608486031215611fb657600080fd5b611fbf84611e9d565b925060208401359150611fd460408501611e9d565b90509250925092565b600060208284031215611fef57600080fd5b5051919050565b634e487b7160e01b600052601160045260246000fd5b808201808211156115e0576115e0611ff6565b80820281158282048414176115e0576115e0611ff6565b60008261205357634e487b7160e01b600052601260045260246000fd5b500490565b818103818111156115e0576115e0611ff6565b6000806040838503121561207e57600080fd5b505080516020909101519092909150565b6000602082840312156120a157600080fd5b81518015158114611f2957600080fd5b6000806000606084860312156120c657600080fd5b8351925060208401519150604084015190509250925092565b81516001600160a01b03908116825260208084015182169083015260408084015162ffffff16908301526060808401518216908301526080808401519083015260a0838101519083015260c0808401519083015260e0928301511691810191909152610100019056fea26469706673582212208a2796cb1b9109c14b4c19ddb98e498e1a2ecb758ee13c5600902027df6a52d264736f6c63430008160033","linkReferences":{}},"methodIdentifiers":{"CHARM_VAULT_ADDRESS()":"8390a650","EAGLE_VAULT()":"a0b660b5","POOL_DESCRIPTION()":"bf214acd","POOL_FEE()":"dd1b9c4a","UNISWAP_ROUTER()":"d8264920","USD1()":"44386321","WLFI()":"5e787f19","active()":"02fb0c5e","charmVault()":"e6ff0a2f","deposit(uint256,uint256)":"e2bbb158","getShareBalance()":"1de28857","getTotalAmounts()":"c4a7761e","initializeApprovals()":"27f8eaac","isInitialized()":"392e53cd","lastRebalance()":"106b9ca1","maxSlippage()":"8c04166f","owner()":"8da5cb5b","pause()":"8456cb59","rebalance()":"7d7c2a1c","renounceOwnership()":"715018a6","rescueIdleTokens()":"f88163a3","rescueToken(address,uint256,address)":"f8a67a62","resume()":"046f7da2","setCharmVault(address)":"bc6840f9","setTokenApproval(address,address,uint256)":"175fadbe","transferOwnership(address)":"f2fde38b","updateParameters(uint256)":"3ec66202","withdraw(uint256)":"2e1a7d4d"},"id":21}