{"abi":[{"type":"constructor","inputs":[{"name":"_vault","type":"address","internalType":"address"},{"name":"_charmVault","type":"address","internalType":"address"},{"name":"_wlfi","type":"address","internalType":"address"},{"name":"_usd1","type":"address","internalType":"address"},{"name":"_owner","type":"address","internalType":"address"}],"stateMutability":"nonpayable"},{"type":"function","name":"EAGLE_VAULT","inputs":[],"outputs":[{"name":"","type":"address","internalType":"address"}],"stateMutability":"view"},{"type":"function","name":"POOL_FEE","inputs":[],"outputs":[{"name":"","type":"uint24","internalType":"uint24"}],"stateMutability":"view"},{"type":"function","name":"UNISWAP_ROUTER","inputs":[],"outputs":[{"name":"","type":"address","internalType":"contract ISwapRouter"}],"stateMutability":"view"},{"type":"function","name":"USD1","inputs":[],"outputs":[{"name":"","type":"address","internalType":"contract IERC20"}],"stateMutability":"view"},{"type":"function","name":"WLFI","inputs":[],"outputs":[{"name":"","type":"address","internalType":"contract IERC20"}],"stateMutability":"view"},{"type":"function","name":"active","inputs":[],"outputs":[{"name":"","type":"bool","internalType":"bool"}],"stateMutability":"view"},{"type":"function","name":"charmVault","inputs":[],"outputs":[{"name":"","type":"address","internalType":"address"}],"stateMutability":"view"},{"type":"function","name":"deposit","inputs":[{"name":"wlfiAmount","type":"uint256","internalType":"uint256"},{"name":"usd1Amount","type":"uint256","internalType":"uint256"}],"outputs":[{"name":"shares","type":"uint256","internalType":"uint256"}],"stateMutability":"nonpayable"},{"type":"function","name":"getTotalAmounts","inputs":[],"outputs":[{"name":"usd1","type":"uint256","internalType":"uint256"},{"name":"wlfi","type":"uint256","internalType":"uint256"}],"stateMutability":"view"},{"type":"function","name":"initializeApprovals","inputs":[],"outputs":[],"stateMutability":"nonpayable"},{"type":"function","name":"isInitialized","inputs":[],"outputs":[{"name":"","type":"bool","internalType":"bool"}],"stateMutability":"view"},{"type":"function","name":"maxSlippage","inputs":[],"outputs":[{"name":"","type":"uint256","internalType":"uint256"}],"stateMutability":"view"},{"type":"function","name":"owner","inputs":[],"outputs":[{"name":"","type":"address","internalType":"address"}],"stateMutability":"view"},{"type":"function","name":"pause","inputs":[],"outputs":[],"stateMutability":"nonpayable"},{"type":"function","name":"renounceOwnership","inputs":[],"outputs":[],"stateMutability":"nonpayable"},{"type":"function","name":"resume","inputs":[],"outputs":[],"stateMutability":"nonpayable"},{"type":"function","name":"setCharmVault","inputs":[{"name":"_charmVault","type":"address","internalType":"address"}],"outputs":[],"stateMutability":"nonpayable"},{"type":"function","name":"transferOwnership","inputs":[{"name":"newOwner","type":"address","internalType":"address"}],"outputs":[],"stateMutability":"nonpayable"},{"type":"function","name":"withdraw","inputs":[{"name":"valueNeeded","type":"uint256","internalType":"uint256"}],"outputs":[{"name":"usd1Amount","type":"uint256","internalType":"uint256"},{"name":"wlfiAmount","type":"uint256","internalType":"uint256"}],"stateMutability":"nonpayable"},{"type":"event","name":"CharmVaultSet","inputs":[{"name":"charmVault","type":"address","indexed":true,"internalType":"address"}],"anonymous":false},{"type":"event","name":"OwnershipTransferred","inputs":[{"name":"previousOwner","type":"address","indexed":true,"internalType":"address"},{"name":"newOwner","type":"address","indexed":true,"internalType":"address"}],"anonymous":false},{"type":"event","name":"StrategyDeposit","inputs":[{"name":"usd1Amount","type":"uint256","indexed":false,"internalType":"uint256"},{"name":"wlfiAmount","type":"uint256","indexed":false,"internalType":"uint256"},{"name":"shares","type":"uint256","indexed":false,"internalType":"uint256"}],"anonymous":false},{"type":"event","name":"StrategyWithdraw","inputs":[{"name":"shares","type":"uint256","indexed":false,"internalType":"uint256"},{"name":"usd1Amount","type":"uint256","indexed":false,"internalType":"uint256"},{"name":"wlfiAmount","type":"uint256","indexed":false,"internalType":"uint256"}],"anonymous":false},{"type":"event","name":"TokensSwapped","inputs":[{"name":"tokenIn","type":"address","indexed":true,"internalType":"address"},{"name":"tokenOut","type":"address","indexed":true,"internalType":"address"},{"name":"amountIn","type":"uint256","indexed":false,"internalType":"uint256"},{"name":"amountOut","type":"uint256","indexed":false,"internalType":"uint256"}],"anonymous":false},{"type":"error","name":"InsufficientBalance","inputs":[]},{"type":"error","name":"NotActive","inputs":[]},{"type":"error","name":"NotInitialized","inputs":[]},{"type":"error","name":"OnlyVault","inputs":[]},{"type":"error","name":"OwnableInvalidOwner","inputs":[{"name":"owner","type":"address","internalType":"address"}]},{"type":"error","name":"OwnableUnauthorizedAccount","inputs":[{"name":"account","type":"address","internalType":"address"}]},{"type":"error","name":"ReentrancyGuardReentrantCall","inputs":[]},{"type":"error","name":"SafeERC20FailedOperation","inputs":[{"name":"token","type":"address","internalType":"address"}]},{"type":"error","name":"ZeroAddress","inputs":[]}],"bytecode":{"object":"0x60e06040526101f46003553480156200001757600080fd5b5060405162001ad638038062001ad68339810160408190526200003a91620003d8565b806001600160a01b0381166200006b57604051631e4fbdf760e01b8152600060048201526024015b60405180910390fd5b620000768162000123565b50600180556001600160a01b03851615806200009957506001600160a01b038316155b80620000ac57506001600160a01b038216155b15620000cb5760405163d92e233d60e01b815260040160405180910390fd5b6001600160a01b0380861660805283811660a05282811660c0528416156200011857600280546001600160a81b0319166001600160a01b03861617600160a01b1790556200011862000173565b505050505062000448565b600080546001600160a01b038381166001600160a01b0319831681178455604051919092169283917f8be0079c531659141344cd1fd0a4f28419497f9722a3daafe3b4186f6b6457e09190a35050565b6002546001600160a01b031615620002255760025460a051620001a6916001600160a01b03918216911660001962000227565b60025460c051620001c7916001600160a01b03918216911660001962000227565b60a051620001f6906001600160a01b031673e592427a0aece92de3edee1f18e0157c0586156460001962000227565b60c05162000225906001600160a01b031673e592427a0aece92de3edee1f18e0157c0586156460001962000227565b565b604080516001600160a01b038416602482015260448082018490528251808303909101815260649091019091526020810180516001600160e01b0390811663095ea7b360e01b17909152620002819085908390620002f316565b620002ed57604080516001600160a01b038516602482015260006044808301919091528251808303909101815260649091019091526020810180516001600160e01b0390811663095ea7b360e01b17909152620002e19186916200034516565b620002ed848262000345565b50505050565b6000806000806020600086516020880160008a5af192503d915060005190508280156200033b575081156200032c57806001146200033b565b6000866001600160a01b03163b115b9695505050505050565b600080602060008451602086016000885af18062000369576040513d6000823e3d81fd5b50506000513d915081156200038357806001141562000390565b6001600160a01b0384163b155b15620002ed57604051635274afe760e01b81526001600160a01b038516600482015260240162000062565b80516001600160a01b0381168114620003d357600080fd5b919050565b600080600080600060a08688031215620003f157600080fd5b620003fc86620003bb565b94506200040c60208701620003bb565b93506200041c60408701620003bb565b92506200042c60608701620003bb565b91506200043c60808701620003bb565b90509295509295909350565b60805160a05160c0516115cb6200050b600039600081816101960152818161091901528181610a0f01528181610d9d01528181610e1f01528181610f6a015281816110830152818161113f01526112090152600081816101d5015281816108be0152818161097901528181610d6101528181610dd501528181610f8f015281816110590152818161111a015261123301526000818161023401528181610348015281816104a4015281816107f9015281816108e0015261093b01526115cb6000f3fe608060405234801561001057600080fd5b50600436106101215760003560e01c80638c04166f116100ad578063d826492011610071578063d826492014610271578063dd1b9c4a1461028c578063e2bbb158146102a9578063e6ff0a2f146102bc578063f2fde38b146102cf57600080fd5b80638c04166f146102075780638da5cb5b1461021e578063a0b660b51461022f578063bc6840f914610256578063c4a7761e1461026957600080fd5b8063392e53cd116100f4578063392e53cd1461018957806344386321146101915780635e787f19146101d0578063715018a6146101f75780638456cb59146101ff57600080fd5b806302fb0c5e14610126578063046f7da21461014f57806327f8eaac146101595780632e1a7d4d14610161575b600080fd5b60025461013a90600160a01b900460ff1681565b60405190151581526020015b60405180910390f35b6101576102e2565b005b610157610328565b61017461016f3660046113e1565b61033a565b60408051928352602083019190915201610146565b61013a610573565b6101b87f000000000000000000000000000000000000000000000000000000000000000081565b6040516001600160a01b039091168152602001610146565b6101b87f000000000000000000000000000000000000000000000000000000000000000081565b61015761059e565b6101576105b0565b61021060035481565b604051908152602001610146565b6000546001600160a01b03166101b8565b6101b87f000000000000000000000000000000000000000000000000000000000000000081565b6101576102643660046113fa565b6105c7565b610174610656565b6101b873e592427a0aece92de3edee1f18e0157c0586156481565b61029561271081565b60405162ffffff9091168152602001610146565b6102106102b736600461142a565b6107ec565b6002546101b8906001600160a01b031681565b6101576102dd3660046113fa565b610ccf565b6102ea610d12565b6002546001600160a01b0316610313576040516321c4e35760e21b815260040160405180910390fd5b6002805460ff60a01b1916600160a01b179055565b610330610d12565b610338610d3f565b565b600080336001600160a01b037f0000000000000000000000000000000000000000000000000000000000000000161461038657604051638d1af8bd60e01b815260040160405180910390fd5b61038e610e5c565b6002546001600160a01b03166103a957506000905080610565565b6002546040516370a0823160e01b81523060048201526001600160a01b039091169060009082906370a0823190602401602060405180830381865afa1580156103f6573d6000803e3d6000fd5b505050506040513d601f19601f8201168201806040525081019061041a919061144c565b90508060000361043257600080935093505050610565565b60008061043d610656565b9092509050600061044e828461147b565b90506000818910610460575083610478565b8161046b8a8761148e565b61047591906114a5565b90505b60405163d331bef760e01b81526004810182905260006024820181905260448201526001600160a01b037f00000000000000000000000000000000000000000000000000000000000000008116606483015287169063d331bef79060840160408051808303816000875af11580156104f4573d6000803e3d6000fd5b505050506040513d601f19601f8201168201806040525081019061051891906114c7565b604080518481526020810184905290810182905291995097507f9b4015fbfa21a538378486da76932c7362cc536aa85cc6d6ddbe3a41fec4f6da9060600160405180910390a15050505050505b61056e60018055565b915091565b6002546000906001600160a01b0316158015906105995750600254600160a01b900460ff165b905090565b6105a6610d12565b6103386000610e86565b6105b8610d12565b6002805460ff60a01b19169055565b6105cf610d12565b6001600160a01b0381166105f65760405163d92e233d60e01b815260040160405180910390fd5b600280546001600160a81b0319166001600160a01b03831617600160a01b17905561061f610d3f565b6040516001600160a01b038216907f5ed0587a2d4eba645c1cb06b4918a10e8bc79013f1cf3b66394ddf27eba2f5d390600090a250565b60025460009081906001600160a01b0316158061067d5750600254600160a01b900460ff16155b1561068b5750600091829150565b6002546040516370a0823160e01b81523060048201526001600160a01b039091169060009082906370a0823190602401602060405180830381865afa1580156106d8573d6000803e3d6000fd5b505050506040513d601f19601f820116820180604052508101906106fc919061144c565b9050806000036107125750600093849350915050565b816001600160a01b031663c4a7761e6040518163ffffffff1660e01b81526004016040805180830381865afa15801561074f573d6000803e3d6000fd5b505050506040513d601f19601f8201168201806040525081019061077391906114c7565b6040516370a0823160e01b815230600482015291955093506000906001600160a01b038416906370a0823190602401602060405180830381865afa1580156107bf573d6000803e3d6000fd5b505050506040513d601f19601f820116820180604052508101906107e3919061144c565b90505050509091565b6000336001600160a01b037f0000000000000000000000000000000000000000000000000000000000000000161461083757604051638d1af8bd60e01b815260040160405180910390fd5b600254600160a01b900460ff1661086157604051634065aaf160e11b815260040160405180910390fd5b610869610e5c565b82158015610875575081155b1561088257506000610cc0565b6002546001600160a01b03166108ab576040516321c4e35760e21b815260040160405180910390fd5b8215610906576109066001600160a01b037f0000000000000000000000000000000000000000000000000000000000000000167f00000000000000000000000000000000000000000000000000000000000000003086610ed6565b8115610961576109616001600160a01b037f0000000000000000000000000000000000000000000000000000000000000000167f00000000000000000000000000000000000000000000000000000000000000003085610ed6565b6040516370a0823160e01b81523060048201526000907f00000000000000000000000000000000000000000000000000000000000000006001600160a01b0316906370a0823190602401602060405180830381865afa1580156109c8573d6000803e3d6000fd5b505050506040513d601f19601f820116820180604052508101906109ec919061144c565b6040516370a0823160e01b81523060048201529091506000906001600160a01b037f000000000000000000000000000000000000000000000000000000000000000016906370a0823190602401602060405180830381865afa158015610a56573d6000803e3d6000fd5b505050506040513d601f19601f82011682018060405250810190610a7a919061144c565b60025460408051636253bb0f60e11b815281519394506001600160a01b03909216926000928392859263c4a7761e9260048082019392918290030181865afa158015610aca573d6000803e3d6000fd5b505050506040513d601f19601f82011682018060405250810190610aee91906114c7565b91509150600080600084118015610b055750600083115b15610be657600083610b17868a61148e565b610b2191906114a5565b9050808710610b7c579150869050816000610b3c82896114eb565b90508015610b76576000610b4f82610f43565b9050610b5b818561147b565b935085610b68888661148e565b610b7291906114a5565b9450505b50610be0565b6000610b8888836114eb565b9050600086610b97878461148e565b610ba191906114a5565b905089811015610bd6576000610bb6826110f3565b9050610bc2818b61147b565b9550610bce828c6114eb565b945050610bdd565b8894508993505b50505b50610bec565b50849050855b60405163365d0ed760e01b8152600481018390526024810182905260006044820181905260648201523060848201526001600160a01b0386169063365d0ed79060a4016060604051808303816000875af1158015610c4e573d6000803e3d6000fd5b505050506040513d601f19601f82011682018060405250810190610c7291906114fe565b505060408051848152602081018490529081018290529098507fe92d6d2dfb3946d2655ac9a4ed7e724c4bcf0d2d993c5ab9b70e9a4785bd20559060600160405180910390a1505050505050505b610cc960018055565b92915050565b610cd7610d12565b6001600160a01b038116610d0657604051631e4fbdf760e01b8152600060048201526024015b60405180910390fd5b610d0f81610e86565b50565b6000546001600160a01b031633146103385760405163118cdaa760e01b8152336004820152602401610cfd565b6002546001600160a01b03161561033857600254610d8c906001600160a01b037f000000000000000000000000000000000000000000000000000000000000000081169116600019611295565b600254610dc8906001600160a01b037f000000000000000000000000000000000000000000000000000000000000000081169116600019611295565b610e126001600160a01b037f00000000000000000000000000000000000000000000000000000000000000001673e592427a0aece92de3edee1f18e0157c05861564600019611295565b6103386001600160a01b037f00000000000000000000000000000000000000000000000000000000000000001673e592427a0aece92de3edee1f18e0157c05861564600019611295565b600260015403610e7f57604051633ee5aeb560e01b815260040160405180910390fd5b6002600155565b600080546001600160a01b038381166001600160a01b0319831681178455604051919092169283917f8be0079c531659141344cd1fd0a4f28419497f9722a3daafe3b4186f6b6457e09190a35050565b6040516001600160a01b038481166024830152838116604483015260648201839052610f3d9186918216906323b872dd906084015b604051602081830303815290604052915060e01b6020820180516001600160e01b038381831617835250505050611321565b50505050565b600081600003610f5557506000919050565b60408051610100810182526001600160a01b037f0000000000000000000000000000000000000000000000000000000000000000811682527f00000000000000000000000000000000000000000000000000000000000000001660208201526127108183015230606082015242608082015260a08101849052600060c0820181905260e0820152905163414bf38960e01b815273e592427a0aece92de3edee1f18e0157c058615649063414bf3899061101290849060040161152c565b6020604051808303816000875af1158015611031573d6000803e3d6000fd5b505050506040513d601f19601f82011682018060405250810190611055919061144c565b91507f00000000000000000000000000000000000000000000000000000000000000006001600160a01b03167f00000000000000000000000000000000000000000000000000000000000000006001600160a01b03167f25f1d03755df23c30e25db2dbd3891e31ce084bdfbfc46f9fe5e446ee5f9b2d485856040516110e5929190918252602082015260400190565b60405180910390a350919050565b60008160000361110557506000919050565b60408051610100810182526001600160a01b037f0000000000000000000000000000000000000000000000000000000000000000811682527f00000000000000000000000000000000000000000000000000000000000000001660208201526127108183015230606082015242608082015260a08101849052600060c0820181905260e0820152905163414bf38960e01b815273e592427a0aece92de3edee1f18e0157c058615649063414bf389906111c290849060040161152c565b6020604051808303816000875af11580156111e1573d6000803e3d6000fd5b505050506040513d601f19601f82011682018060405250810190611205919061144c565b91507f00000000000000000000000000000000000000000000000000000000000000006001600160a01b03167f00000000000000000000000000000000000000000000000000000000000000006001600160a01b03167f25f1d03755df23c30e25db2dbd3891e31ce084bdfbfc46f9fe5e446ee5f9b2d485856040516110e5929190918252602082015260400190565b604080516001600160a01b038416602482015260448082018490528251808303909101815260649091019091526020810180516001600160e01b031663095ea7b360e01b1790526112e68482611392565b610f3d576040516001600160a01b0384811660248301526000604483015261131b91869182169063095ea7b390606401610f0b565b610f3d84825b600080602060008451602086016000885af180611344576040513d6000823e3d81fd5b50506000513d9150811561135c578060011415611369565b6001600160a01b0384163b155b15610f3d57604051635274afe760e01b81526001600160a01b0385166004820152602401610cfd565b6000806000806020600086516020880160008a5af192503d915060005190508280156113d7575081156113c857806001146113d7565b6000866001600160a01b03163b115b9695505050505050565b6000602082840312156113f357600080fd5b5035919050565b60006020828403121561140c57600080fd5b81356001600160a01b038116811461142357600080fd5b9392505050565b6000806040838503121561143d57600080fd5b50508035926020909101359150565b60006020828403121561145e57600080fd5b5051919050565b634e487b7160e01b600052601160045260246000fd5b80820180821115610cc957610cc9611465565b8082028115828204841417610cc957610cc9611465565b6000826114c257634e487b7160e01b600052601260045260246000fd5b500490565b600080604083850312156114da57600080fd5b505080516020909101519092909150565b81810381811115610cc957610cc9611465565b60008060006060848603121561151357600080fd5b8351925060208401519150604084015190509250925092565b81516001600160a01b03908116825260208084015182169083015260408084015162ffffff16908301526060808401518216908301526080808401519083015260a0838101519083015260c0808401519083015260e0928301511691810191909152610100019056fea264697066735822122032f0b5f1f0dc01913238a5237d2fe6e04a38bce252eca50ac84e4f4a3bf59fbd64736f6c63430008160033","linkReferences":{}},"methodIdentifiers":{"EAGLE_VAULT()":"a0b660b5","POOL_FEE()":"dd1b9c4a","UNISWAP_ROUTER()":"d8264920","USD1()":"44386321","WLFI()":"5e787f19","active()":"02fb0c5e","charmVault()":"e6ff0a2f","deposit(uint256,uint256)":"e2bbb158","getTotalAmounts()":"c4a7761e","initializeApprovals()":"27f8eaac","isInitialized()":"392e53cd","maxSlippage()":"8c04166f","owner()":"8da5cb5b","pause()":"8456cb59","renounceOwnership()":"715018a6","resume()":"046f7da2","setCharmVault(address)":"bc6840f9","transferOwnership(address)":"f2fde38b","withdraw(uint256)":"2e1a7d4d"},"id":0}