{"abi":[{"type":"constructor","inputs":[{"name":"_vaultEagle","type":"address","internalType":"address"},{"name":"_oftEagle","type":"address","internalType":"address"},{"name":"_feeRecipient","type":"address","internalType":"address"},{"name":"_owner","type":"address","internalType":"address"}],"stateMutability":"nonpayable"},{"type":"function","name":"BASIS_POINTS","inputs":[],"outputs":[{"name":"","type":"uint256","internalType":"uint256"}],"stateMutability":"view"},{"type":"function","name":"MAX_FEE","inputs":[],"outputs":[{"name":"","type":"uint256","internalType":"uint256"}],"stateMutability":"view"},{"type":"function","name":"OFT_EAGLE","inputs":[],"outputs":[{"name":"","type":"address","internalType":"contract IMintableBurnableOFT"}],"stateMutability":"view"},{"type":"function","name":"VAULT_EAGLE","inputs":[],"outputs":[{"name":"","type":"address","internalType":"contract IERC20"}],"stateMutability":"view"},{"type":"function","name":"batchWhitelist","inputs":[{"name":"users","type":"address[]","internalType":"address[]"}],"outputs":[],"stateMutability":"nonpayable"},{"type":"function","name":"checkWhitelist","inputs":[{"name":"user","type":"address","internalType":"address"}],"outputs":[{"name":"","type":"bool","internalType":"bool"}],"stateMutability":"view"},{"type":"function","name":"depositFee","inputs":[],"outputs":[{"name":"","type":"uint256","internalType":"uint256"}],"stateMutability":"view"},{"type":"function","name":"feeRecipient","inputs":[],"outputs":[{"name":"","type":"address","internalType":"address"}],"stateMutability":"view"},{"type":"function","name":"getFeeStats","inputs":[],"outputs":[{"name":"totalDeposit","type":"uint256","internalType":"uint256"},{"name":"totalWithdraw","type":"uint256","internalType":"uint256"}],"stateMutability":"view"},{"type":"function","name":"getFees","inputs":[],"outputs":[{"name":"deposit","type":"uint256","internalType":"uint256"},{"name":"withdraw","type":"uint256","internalType":"uint256"}],"stateMutability":"view"},{"type":"function","name":"getReserves","inputs":[],"outputs":[{"name":"locked","type":"uint256","internalType":"uint256"},{"name":"minted","type":"uint256","internalType":"uint256"}],"stateMutability":"view"},{"type":"function","name":"isBalanced","inputs":[],"outputs":[{"name":"","type":"bool","internalType":"bool"}],"stateMutability":"view"},{"type":"function","name":"isWhitelisted","inputs":[{"name":"","type":"address","internalType":"address"}],"outputs":[{"name":"","type":"bool","internalType":"bool"}],"stateMutability":"view"},{"type":"function","name":"oftToken","inputs":[],"outputs":[{"name":"","type":"address","internalType":"address"}],"stateMutability":"view"},{"type":"function","name":"owner","inputs":[],"outputs":[{"name":"","type":"address","internalType":"address"}],"stateMutability":"view"},{"type":"function","name":"renounceOwnership","inputs":[],"outputs":[],"stateMutability":"nonpayable"},{"type":"function","name":"setFeeRecipient","inputs":[{"name":"_feeRecipient","type":"address","internalType":"address"}],"outputs":[],"stateMutability":"nonpayable"},{"type":"function","name":"setFees","inputs":[{"name":"_depositFee","type":"uint256","internalType":"uint256"},{"name":"_withdrawFee","type":"uint256","internalType":"uint256"}],"outputs":[],"stateMutability":"nonpayable"},{"type":"function","name":"setWhitelist","inputs":[{"name":"user","type":"address","internalType":"address"},{"name":"whitelisted","type":"bool","internalType":"bool"}],"outputs":[],"stateMutability":"nonpayable"},{"type":"function","name":"totalDepositFees","inputs":[],"outputs":[{"name":"","type":"uint256","internalType":"uint256"}],"stateMutability":"view"},{"type":"function","name":"totalLocked","inputs":[],"outputs":[{"name":"","type":"uint256","internalType":"uint256"}],"stateMutability":"view"},{"type":"function","name":"totalMinted","inputs":[],"outputs":[{"name":"","type":"uint256","internalType":"uint256"}],"stateMutability":"view"},{"type":"function","name":"totalWithdrawFees","inputs":[],"outputs":[{"name":"","type":"uint256","internalType":"uint256"}],"stateMutability":"view"},{"type":"function","name":"transferOwnership","inputs":[{"name":"newOwner","type":"address","internalType":"address"}],"outputs":[],"stateMutability":"nonpayable"},{"type":"function","name":"unwrap","inputs":[{"name":"amount","type":"uint256","internalType":"uint256"}],"outputs":[],"stateMutability":"nonpayable"},{"type":"function","name":"vaultToken","inputs":[],"outputs":[{"name":"","type":"address","internalType":"address"}],"stateMutability":"view"},{"type":"function","name":"verify","inputs":[],"outputs":[{"name":"","type":"bool","internalType":"bool"}],"stateMutability":"view"},{"type":"function","name":"withdrawFee","inputs":[],"outputs":[{"name":"","type":"uint256","internalType":"uint256"}],"stateMutability":"view"},{"type":"function","name":"wrap","inputs":[{"name":"amount","type":"uint256","internalType":"uint256"}],"outputs":[],"stateMutability":"nonpayable"},{"type":"event","name":"FeeCollected","inputs":[{"name":"user","type":"address","indexed":true,"internalType":"address"},{"name":"amount","type":"uint256","indexed":false,"internalType":"uint256"},{"name":"feeType","type":"string","indexed":false,"internalType":"string"}],"anonymous":false},{"type":"event","name":"FeeRecipientUpdated","inputs":[{"name":"newRecipient","type":"address","indexed":true,"internalType":"address"}],"anonymous":false},{"type":"event","name":"FeesUpdated","inputs":[{"name":"depositFee","type":"uint256","indexed":false,"internalType":"uint256"},{"name":"withdrawFee","type":"uint256","indexed":false,"internalType":"uint256"}],"anonymous":false},{"type":"event","name":"OwnershipTransferred","inputs":[{"name":"previousOwner","type":"address","indexed":true,"internalType":"address"},{"name":"newOwner","type":"address","indexed":true,"internalType":"address"}],"anonymous":false},{"type":"event","name":"Unwrapped","inputs":[{"name":"user","type":"address","indexed":true,"internalType":"address"},{"name":"amount","type":"uint256","indexed":false,"internalType":"uint256"},{"name":"fee","type":"uint256","indexed":false,"internalType":"uint256"}],"anonymous":false},{"type":"event","name":"WhitelistUpdated","inputs":[{"name":"user","type":"address","indexed":true,"internalType":"address"},{"name":"isWhitelisted","type":"bool","indexed":false,"internalType":"bool"}],"anonymous":false},{"type":"event","name":"Wrapped","inputs":[{"name":"user","type":"address","indexed":true,"internalType":"address"},{"name":"amount","type":"uint256","indexed":false,"internalType":"uint256"},{"name":"fee","type":"uint256","indexed":false,"internalType":"uint256"}],"anonymous":false},{"type":"error","name":"BridgeImbalance","inputs":[]},{"type":"error","name":"FeeExceedsLimit","inputs":[]},{"type":"error","name":"InsufficientLockedShares","inputs":[]},{"type":"error","name":"OwnableInvalidOwner","inputs":[{"name":"owner","type":"address","internalType":"address"}]},{"type":"error","name":"OwnableUnauthorizedAccount","inputs":[{"name":"account","type":"address","internalType":"address"}]},{"type":"error","name":"ReentrancyGuardReentrantCall","inputs":[]},{"type":"error","name":"SafeERC20FailedOperation","inputs":[{"name":"token","type":"address","internalType":"address"}]},{"type":"error","name":"ZeroAmount","inputs":[]},{"type":"error","name":"ZeroFeeRecipient","inputs":[]}],"bytecode":{"object":"0x60c0604052606460045560c86005553480156200001b57600080fd5b50604051620012d0380380620012d08339810160408190526200003e91620001f5565b806001600160a01b0381166200006f57604051631e4fbdf760e01b8152600060048201526024015b60405180910390fd5b6200007a8162000188565b50600180556001600160a01b03841615801590620000a057506001600160a01b03831615155b620000dd5760405162461bcd60e51b815260206004820152600c60248201526b5a65726f206164647265737360a01b604482015260640162000066565b6001600160a01b0382166200012a5760405162461bcd60e51b815260206004820152601260248201527116995c9bc8199959481c9958da5c1a595b9d60721b604482015260640162000066565b6001600160a01b0393841660805291831660a052600680546001600160a01b03191691841691821790559116600090815260076020526040808220805460ff1990811660019081179092559383529120805490921617905562000252565b600080546001600160a01b038381166001600160a01b0319831681178455604051919092169283917f8be0079c531659141344cd1fd0a4f28419497f9722a3daafe3b4186f6b6457e09190a35050565b80516001600160a01b0381168114620001f057600080fd5b919050565b600080600080608085870312156200020c57600080fd5b6200021785620001d8565b93506200022760208601620001d8565b92506200023760408601620001d8565b91506200024760608601620001d8565b905092959194509250565b60805160a051611019620002b76000396000818161035d0152818161038f015281816107370152610abd0152600081816102ac01528181610303015281816107c00152818161081501528181610a0a01528181610a600152610bd201526110196000f3fe608060405234801561001057600080fd5b50600436106101cf5760003560e01c80639d4273e111610104578063de0e9a3e116100a2578063ea598cb011610071578063ea598cb014610400578063f28ab2be14610413578063f2fde38b1461041e578063fc735e991461043157600080fd5b8063de0e9a3e146103c8578063e1f1c4a7146103db578063e74b981b146103e4578063e941fa78146103f757600080fd5b8063bc063e1a116100de578063bc063e1a14610381578063c556537e1461038a578063cb03a464146103b1578063db8d55f1146103bd57600080fd5b80639d4273e114610349578063a2309ff814610352578063b2abb70f1461035b57600080fd5b806353d6fd5911610171578063703bafd51161014b578063703bafd514610301578063715018a6146103275780638da5cb5b1461032f578063985372501461034057600080fd5b806353d6fd59146102ce57806356891412146102e157806367a52793146102f857600080fd5b806339ee0661116101ad57806339ee0661146102465780633af32abf14610259578063469048401461027c57806353349557146102a757600080fd5b80630902f1ac146101d45780630b78f9c0146101f55780631950c2181461020a575b600080fd5b6002546003545b604080519283526020830191909152015b60405180910390f35b610208610203366004610e0f565b610439565b005b610236610218366004610e4d565b6001600160a01b031660009081526007602052604090205460ff1690565b60405190151581526020016101ec565b610208610254366004610e6f565b6104b7565b610236610267366004610e4d565b60076020526000908152604090205460ff1681565b60065461028f906001600160a01b031681565b6040516001600160a01b0390911681526020016101ec565b61028f7f000000000000000000000000000000000000000000000000000000000000000081565b6102086102dc366004610ee4565b610598565b6102ea60025481565b6040519081526020016101ec565b6102ea60045481565b7f000000000000000000000000000000000000000000000000000000000000000061028f565b6102086105ff565b6000546001600160a01b031661028f565b6102ea60095481565b6102ea60085481565b6102ea60035481565b7f000000000000000000000000000000000000000000000000000000000000000061028f565b6102ea6103e881565b61028f7f000000000000000000000000000000000000000000000000000000000000000081565b60035460025414610236565b6004546005546101db565b6102086103d6366004610f20565b610613565b6102ea61271081565b6102086103f2366004610e4d565b6108a0565b6102ea60055481565b61020861040e366004610f20565b610919565b6008546009546101db565b61020861042c366004610e4d565b610b70565b610236610bb0565b610441610c59565b6103e882118061045257506103e881115b15610470576040516312f7b37560e11b815260040160405180910390fd5b6004829055600581905560408051838152602081018390527f5c6323bf1c2d7aaea2c091a4751c1c87af7f2864650c336507a77d0557af37a1910160405180910390a15050565b6104bf610c59565b60005b81811015610593576001600760008585858181106104e2576104e2610f39565b90506020020160208101906104f79190610e4d565b6001600160a01b031681526020810191909152604001600020805460ff191691151591909117905582828281811061053157610531610f39565b90506020020160208101906105469190610e4d565b6001600160a01b03167ff93f9a76c1bf3444d22400a00cb9fe990e6abe9dbb333fda48859cfee864543d6001604051610583911515815260200190565b60405180910390a26001016104c2565b505050565b6105a0610c59565b6001600160a01b038216600081815260076020908152604091829020805460ff191685151590811790915591519182527ff93f9a76c1bf3444d22400a00cb9fe990e6abe9dbb333fda48859cfee864543d910160405180910390a25050565b610607610c59565b6106116000610c86565b565b61061b610cd6565b8060000361063c57604051631f2a200560e01b815260040160405180910390fd5b33600090815260076020526040812054829060ff166106f857612710600554846106669190610f65565b6106709190610f82565b915061067c8284610fa4565b905081156106f85781600960008282546106969190610fb7565b909155505060405133907fbde344b6f67c3bf7e0ecbbf22b04267d5d3ae0aa1909c0000b812f6b14ce45b9906106ef9085815260406020820181905260089082015267776974686472617760c01b606082015260800190565b60405180910390a25b80600254101561071b576040516389206fd560e01b815260040160405180910390fd5b604051632770a7eb60e21b8152336004820152602481018490527f00000000000000000000000000000000000000000000000000000000000000006001600160a01b031690639dc29fac90604401600060405180830381600087803b15801561078357600080fd5b505af1158015610797573d6000803e3d6000fd5b5050505082600360008282546107ad9190610fa4565b909155506107e790506001600160a01b037f0000000000000000000000000000000000000000000000000000000000000000163383610d00565b80600260008282546107f99190610fa4565b909155505081156108565760065461083e906001600160a01b037f00000000000000000000000000000000000000000000000000000000000000008116911684610d00565b81600260008282546108509190610fa4565b90915550505b604080518281526020810184905233917ff64ae1cc3e0e07da9c895b3225439175cab5838aca24c4e74852704858c96a7b91015b60405180910390a2505061089d60018055565b50565b6108a8610c59565b6001600160a01b0381166108cf576040516333fe7c6560e21b815260040160405180910390fd5b600680546001600160a01b0319166001600160a01b0383169081179091556040517f7a7b5a0a132f9e0581eb8527f66eae9ee89c2a3e79d4ac7e41a1f1f4d48a7fc290600090a250565b610921610cd6565b8060000361094257604051631f2a200560e01b815260040160405180910390fd5b33600090815260076020526040812054829060ff166109fd576127106004548461096c9190610f65565b6109769190610f82565b91506109828284610fa4565b905081156109fd57816008600082825461099c9190610fb7565b909155505060405133907fbde344b6f67c3bf7e0ecbbf22b04267d5d3ae0aa1909c0000b812f6b14ce45b9906109f4908581526040602082018190526007908201526619195c1bdcda5d60ca1b606082015260800190565b60405180910390a25b610a326001600160a01b037f000000000000000000000000000000000000000000000000000000000000000016333086610d5f565b8260026000828254610a449190610fb7565b90915550508115610aa157600654610a89906001600160a01b037f00000000000000000000000000000000000000000000000000000000000000008116911684610d00565b8160026000828254610a9b9190610fa4565b90915550505b6040516340c10f1960e01b8152336004820152602481018290527f00000000000000000000000000000000000000000000000000000000000000006001600160a01b0316906340c10f1990604401600060405180830381600087803b158015610b0957600080fd5b505af1158015610b1d573d6000803e3d6000fd5b505050508060036000828254610b339190610fb7565b9091555050604080518281526020810184905233917f727200b48f3c812bfb404b578574e1c03694edb122d80fa6dcb352a9e4f8a938910161088a565b610b78610c59565b6001600160a01b038116610ba757604051631e4fbdf760e01b8152600060048201526024015b60405180910390fd5b61089d81610c86565b6040516370a0823160e01b815230600482015260009081906001600160a01b037f000000000000000000000000000000000000000000000000000000000000000016906370a0823190602401602060405180830381865afa158015610c19573d6000803e3d6000fd5b505050506040513d601f19601f82011682018060405250810190610c3d9190610fca565b905060025481148015610c535750600354600254145b91505090565b6000546001600160a01b031633146106115760405163118cdaa760e01b8152336004820152602401610b9e565b600080546001600160a01b038381166001600160a01b0319831681178455604051919092169283917f8be0079c531659141344cd1fd0a4f28419497f9722a3daafe3b4186f6b6457e09190a35050565b600260015403610cf957604051633ee5aeb560e01b815260040160405180910390fd5b6002600155565b6040516001600160a01b0383811660248301526044820183905261059391859182169063a9059cbb906064015b604051602081830303815290604052915060e01b6020820180516001600160e01b038381831617835250505050610d9e565b6040516001600160a01b038481166024830152838116604483015260648201839052610d989186918216906323b872dd90608401610d2d565b50505050565b600080602060008451602086016000885af180610dc1576040513d6000823e3d81fd5b50506000513d91508115610dd9578060011415610de6565b6001600160a01b0384163b155b15610d9857604051635274afe760e01b81526001600160a01b0385166004820152602401610b9e565b60008060408385031215610e2257600080fd5b50508035926020909101359150565b80356001600160a01b0381168114610e4857600080fd5b919050565b600060208284031215610e5f57600080fd5b610e6882610e31565b9392505050565b60008060208385031215610e8257600080fd5b823567ffffffffffffffff80821115610e9a57600080fd5b818501915085601f830112610eae57600080fd5b813581811115610ebd57600080fd5b8660208260051b8501011115610ed257600080fd5b60209290920196919550909350505050565b60008060408385031215610ef757600080fd5b610f0083610e31565b915060208301358015158114610f1557600080fd5b809150509250929050565b600060208284031215610f3257600080fd5b5035919050565b634e487b7160e01b600052603260045260246000fd5b634e487b7160e01b600052601160045260246000fd5b8082028115828204841417610f7c57610f7c610f4f565b92915050565b600082610f9f57634e487b7160e01b600052601260045260246000fd5b500490565b81810381811115610f7c57610f7c610f4f565b80820180821115610f7c57610f7c610f4f565b600060208284031215610fdc57600080fd5b505191905056fea2646970667358221220073ef0f6352a0b62fe71b85433b60aeafc0f4b0c03c9a4f6ce9698fdaf3fbbc064736f6c63430008160033","linkReferences":{}},"methodIdentifiers":{"BASIS_POINTS()":"e1f1c4a7","MAX_FEE()":"bc063e1a","OFT_EAGLE()":"c556537e","VAULT_EAGLE()":"53349557","batchWhitelist(address[])":"39ee0661","checkWhitelist(address)":"1950c218","depositFee()":"67a52793","feeRecipient()":"46904840","getFeeStats()":"f28ab2be","getFees()":"db8d55f1","getReserves()":"0902f1ac","isBalanced()":"cb03a464","isWhitelisted(address)":"3af32abf","oftToken()":"b2abb70f","owner()":"8da5cb5b","renounceOwnership()":"715018a6","setFeeRecipient(address)":"e74b981b","setFees(uint256,uint256)":"0b78f9c0","setWhitelist(address,bool)":"53d6fd59","totalDepositFees()":"9d4273e1","totalLocked()":"56891412","totalMinted()":"a2309ff8","totalWithdrawFees()":"98537250","transferOwnership(address)":"f2fde38b","unwrap(uint256)":"de0e9a3e","vaultToken()":"703bafd5","verify()":"fc735e99","withdrawFee()":"e941fa78","wrap(uint256)":"ea598cb0"},"id":2}