{"abi":[{"type":"constructor","inputs":[{"name":"_usd1Token","type":"address","internalType":"address"},{"name":"_lzEndpoint","type":"address","internalType":"address"},{"name":"_delegate","type":"address","internalType":"address"}],"stateMutability":"nonpayable"},{"type":"function","name":"SEND","inputs":[],"outputs":[{"name":"","type":"uint16","internalType":"uint16"}],"stateMutability":"view"},{"type":"function","name":"SEND_AND_CALL","inputs":[],"outputs":[{"name":"","type":"uint16","internalType":"uint16"}],"stateMutability":"view"},{"type":"function","name":"allowInitializePath","inputs":[{"name":"origin","type":"tuple","internalType":"struct Origin","components":[{"name":"srcEid","type":"uint32","internalType":"uint32"},{"name":"sender","type":"bytes32","internalType":"bytes32"},{"name":"nonce","type":"uint64","internalType":"uint64"}]}],"outputs":[{"name":"","type":"bool","internalType":"bool"}],"stateMutability":"view"},{"type":"function","name":"approvalRequired","inputs":[],"outputs":[{"name":"","type":"bool","internalType":"bool"}],"stateMutability":"pure"},{"type":"function","name":"combineOptions","inputs":[{"name":"_eid","type":"uint32","internalType":"uint32"},{"name":"_msgType","type":"uint16","internalType":"uint16"},{"name":"_extraOptions","type":"bytes","internalType":"bytes"}],"outputs":[{"name":"","type":"bytes","internalType":"bytes"}],"stateMutability":"view"},{"type":"function","name":"decimalConversionRate","inputs":[],"outputs":[{"name":"","type":"uint256","internalType":"uint256"}],"stateMutability":"view"},{"type":"function","name":"endpoint","inputs":[],"outputs":[{"name":"","type":"address","internalType":"contract ILayerZeroEndpointV2"}],"stateMutability":"view"},{"type":"function","name":"enforcedOptions","inputs":[{"name":"eid","type":"uint32","internalType":"uint32"},{"name":"msgType","type":"uint16","internalType":"uint16"}],"outputs":[{"name":"enforcedOption","type":"bytes","internalType":"bytes"}],"stateMutability":"view"},{"type":"function","name":"isComposeMsgSender","inputs":[{"name":"","type":"tuple","internalType":"struct Origin","components":[{"name":"srcEid","type":"uint32","internalType":"uint32"},{"name":"sender","type":"bytes32","internalType":"bytes32"},{"name":"nonce","type":"uint64","internalType":"uint64"}]},{"name":"","type":"bytes","internalType":"bytes"},{"name":"_sender","type":"address","internalType":"address"}],"outputs":[{"name":"","type":"bool","internalType":"bool"}],"stateMutability":"view"},{"type":"function","name":"isPeer","inputs":[{"name":"_eid","type":"uint32","internalType":"uint32"},{"name":"_peer","type":"bytes32","internalType":"bytes32"}],"outputs":[{"name":"","type":"bool","internalType":"bool"}],"stateMutability":"view"},{"type":"function","name":"lzReceive","inputs":[{"name":"_origin","type":"tuple","internalType":"struct Origin","components":[{"name":"srcEid","type":"uint32","internalType":"uint32"},{"name":"sender","type":"bytes32","internalType":"bytes32"},{"name":"nonce","type":"uint64","internalType":"uint64"}]},{"name":"_guid","type":"bytes32","internalType":"bytes32"},{"name":"_message","type":"bytes","internalType":"bytes"},{"name":"_executor","type":"address","internalType":"address"},{"name":"_extraData","type":"bytes","internalType":"bytes"}],"outputs":[],"stateMutability":"payable"},{"type":"function","name":"lzReceiveAndRevert","inputs":[{"name":"_packets","type":"tuple[]","internalType":"struct InboundPacket[]","components":[{"name":"origin","type":"tuple","internalType":"struct Origin","components":[{"name":"srcEid","type":"uint32","internalType":"uint32"},{"name":"sender","type":"bytes32","internalType":"bytes32"},{"name":"nonce","type":"uint64","internalType":"uint64"}]},{"name":"dstEid","type":"uint32","internalType":"uint32"},{"name":"receiver","type":"address","internalType":"address"},{"name":"guid","type":"bytes32","internalType":"bytes32"},{"name":"value","type":"uint256","internalType":"uint256"},{"name":"executor","type":"address","internalType":"address"},{"name":"message","type":"bytes","internalType":"bytes"},{"name":"extraData","type":"bytes","internalType":"bytes"}]}],"outputs":[],"stateMutability":"payable"},{"type":"function","name":"lzReceiveSimulate","inputs":[{"name":"_origin","type":"tuple","internalType":"struct Origin","components":[{"name":"srcEid","type":"uint32","internalType":"uint32"},{"name":"sender","type":"bytes32","internalType":"bytes32"},{"name":"nonce","type":"uint64","internalType":"uint64"}]},{"name":"_guid","type":"bytes32","internalType":"bytes32"},{"name":"_message","type":"bytes","internalType":"bytes"},{"name":"_executor","type":"address","internalType":"address"},{"name":"_extraData","type":"bytes","internalType":"bytes"}],"outputs":[],"stateMutability":"payable"},{"type":"function","name":"msgInspector","inputs":[],"outputs":[{"name":"","type":"address","internalType":"address"}],"stateMutability":"view"},{"type":"function","name":"nextNonce","inputs":[{"name":"","type":"uint32","internalType":"uint32"},{"name":"","type":"bytes32","internalType":"bytes32"}],"outputs":[{"name":"nonce","type":"uint64","internalType":"uint64"}],"stateMutability":"view"},{"type":"function","name":"oApp","inputs":[],"outputs":[{"name":"","type":"address","internalType":"address"}],"stateMutability":"view"},{"type":"function","name":"oAppVersion","inputs":[],"outputs":[{"name":"senderVersion","type":"uint64","internalType":"uint64"},{"name":"receiverVersion","type":"uint64","internalType":"uint64"}],"stateMutability":"pure"},{"type":"function","name":"oftVersion","inputs":[],"outputs":[{"name":"interfaceId","type":"bytes4","internalType":"bytes4"},{"name":"version","type":"uint64","internalType":"uint64"}],"stateMutability":"pure"},{"type":"function","name":"owner","inputs":[],"outputs":[{"name":"","type":"address","internalType":"address"}],"stateMutability":"view"},{"type":"function","name":"peers","inputs":[{"name":"eid","type":"uint32","internalType":"uint32"}],"outputs":[{"name":"peer","type":"bytes32","internalType":"bytes32"}],"stateMutability":"view"},{"type":"function","name":"preCrime","inputs":[],"outputs":[{"name":"","type":"address","internalType":"address"}],"stateMutability":"view"},{"type":"function","name":"quoteOFT","inputs":[{"name":"_sendParam","type":"tuple","internalType":"struct SendParam","components":[{"name":"dstEid","type":"uint32","internalType":"uint32"},{"name":"to","type":"bytes32","internalType":"bytes32"},{"name":"amountLD","type":"uint256","internalType":"uint256"},{"name":"minAmountLD","type":"uint256","internalType":"uint256"},{"name":"extraOptions","type":"bytes","internalType":"bytes"},{"name":"composeMsg","type":"bytes","internalType":"bytes"},{"name":"oftCmd","type":"bytes","internalType":"bytes"}]}],"outputs":[{"name":"oftLimit","type":"tuple","internalType":"struct OFTLimit","components":[{"name":"minAmountLD","type":"uint256","internalType":"uint256"},{"name":"maxAmountLD","type":"uint256","internalType":"uint256"}]},{"name":"oftFeeDetails","type":"tuple[]","internalType":"struct OFTFeeDetail[]","components":[{"name":"feeAmountLD","type":"int256","internalType":"int256"},{"name":"description","type":"string","internalType":"string"}]},{"name":"oftReceipt","type":"tuple","internalType":"struct OFTReceipt","components":[{"name":"amountSentLD","type":"uint256","internalType":"uint256"},{"name":"amountReceivedLD","type":"uint256","internalType":"uint256"}]}],"stateMutability":"view"},{"type":"function","name":"quoteSend","inputs":[{"name":"_sendParam","type":"tuple","internalType":"struct SendParam","components":[{"name":"dstEid","type":"uint32","internalType":"uint32"},{"name":"to","type":"bytes32","internalType":"bytes32"},{"name":"amountLD","type":"uint256","internalType":"uint256"},{"name":"minAmountLD","type":"uint256","internalType":"uint256"},{"name":"extraOptions","type":"bytes","internalType":"bytes"},{"name":"composeMsg","type":"bytes","internalType":"bytes"},{"name":"oftCmd","type":"bytes","internalType":"bytes"}]},{"name":"_payInLzToken","type":"bool","internalType":"bool"}],"outputs":[{"name":"msgFee","type":"tuple","internalType":"struct MessagingFee","components":[{"name":"nativeFee","type":"uint256","internalType":"uint256"},{"name":"lzTokenFee","type":"uint256","internalType":"uint256"}]}],"stateMutability":"view"},{"type":"function","name":"renounceOwnership","inputs":[],"outputs":[],"stateMutability":"nonpayable"},{"type":"function","name":"send","inputs":[{"name":"_sendParam","type":"tuple","internalType":"struct SendParam","components":[{"name":"dstEid","type":"uint32","internalType":"uint32"},{"name":"to","type":"bytes32","internalType":"bytes32"},{"name":"amountLD","type":"uint256","internalType":"uint256"},{"name":"minAmountLD","type":"uint256","internalType":"uint256"},{"name":"extraOptions","type":"bytes","internalType":"bytes"},{"name":"composeMsg","type":"bytes","internalType":"bytes"},{"name":"oftCmd","type":"bytes","internalType":"bytes"}]},{"name":"_fee","type":"tuple","internalType":"struct MessagingFee","components":[{"name":"nativeFee","type":"uint256","internalType":"uint256"},{"name":"lzTokenFee","type":"uint256","internalType":"uint256"}]},{"name":"_refundAddress","type":"address","internalType":"address"}],"outputs":[{"name":"msgReceipt","type":"tuple","internalType":"struct MessagingReceipt","components":[{"name":"guid","type":"bytes32","internalType":"bytes32"},{"name":"nonce","type":"uint64","internalType":"uint64"},{"name":"fee","type":"tuple","internalType":"struct MessagingFee","components":[{"name":"nativeFee","type":"uint256","internalType":"uint256"},{"name":"lzTokenFee","type":"uint256","internalType":"uint256"}]}]},{"name":"oftReceipt","type":"tuple","internalType":"struct OFTReceipt","components":[{"name":"amountSentLD","type":"uint256","internalType":"uint256"},{"name":"amountReceivedLD","type":"uint256","internalType":"uint256"}]}],"stateMutability":"payable"},{"type":"function","name":"setDelegate","inputs":[{"name":"_delegate","type":"address","internalType":"address"}],"outputs":[],"stateMutability":"nonpayable"},{"type":"function","name":"setEnforcedOptions","inputs":[{"name":"_enforcedOptions","type":"tuple[]","internalType":"struct EnforcedOptionParam[]","components":[{"name":"eid","type":"uint32","internalType":"uint32"},{"name":"msgType","type":"uint16","internalType":"uint16"},{"name":"options","type":"bytes","internalType":"bytes"}]}],"outputs":[],"stateMutability":"nonpayable"},{"type":"function","name":"setMsgInspector","inputs":[{"name":"_msgInspector","type":"address","internalType":"address"}],"outputs":[],"stateMutability":"nonpayable"},{"type":"function","name":"setPeer","inputs":[{"name":"_eid","type":"uint32","internalType":"uint32"},{"name":"_peer","type":"bytes32","internalType":"bytes32"}],"outputs":[],"stateMutability":"nonpayable"},{"type":"function","name":"setPreCrime","inputs":[{"name":"_preCrime","type":"address","internalType":"address"}],"outputs":[],"stateMutability":"nonpayable"},{"type":"function","name":"sharedDecimals","inputs":[],"outputs":[{"name":"","type":"uint8","internalType":"uint8"}],"stateMutability":"view"},{"type":"function","name":"token","inputs":[],"outputs":[{"name":"","type":"address","internalType":"address"}],"stateMutability":"view"},{"type":"function","name":"tokenInfo","inputs":[],"outputs":[{"name":"name","type":"string","internalType":"string"},{"name":"symbol","type":"string","internalType":"string"},{"name":"decimals","type":"uint8","internalType":"uint8"}],"stateMutability":"view"},{"type":"function","name":"transferOwnership","inputs":[{"name":"newOwner","type":"address","internalType":"address"}],"outputs":[],"stateMutability":"nonpayable"},{"type":"function","name":"usd1Token","inputs":[],"outputs":[{"name":"","type":"address","internalType":"address"}],"stateMutability":"view"},{"type":"event","name":"EnforcedOptionSet","inputs":[{"name":"_enforcedOptions","type":"tuple[]","indexed":false,"internalType":"struct EnforcedOptionParam[]","components":[{"name":"eid","type":"uint32","internalType":"uint32"},{"name":"msgType","type":"uint16","internalType":"uint16"},{"name":"options","type":"bytes","internalType":"bytes"}]}],"anonymous":false},{"type":"event","name":"MsgInspectorSet","inputs":[{"name":"inspector","type":"address","indexed":false,"internalType":"address"}],"anonymous":false},{"type":"event","name":"OFTReceived","inputs":[{"name":"guid","type":"bytes32","indexed":true,"internalType":"bytes32"},{"name":"srcEid","type":"uint32","indexed":false,"internalType":"uint32"},{"name":"toAddress","type":"address","indexed":true,"internalType":"address"},{"name":"amountReceivedLD","type":"uint256","indexed":false,"internalType":"uint256"}],"anonymous":false},{"type":"event","name":"OFTSent","inputs":[{"name":"guid","type":"bytes32","indexed":true,"internalType":"bytes32"},{"name":"dstEid","type":"uint32","indexed":false,"internalType":"uint32"},{"name":"fromAddress","type":"address","indexed":true,"internalType":"address"},{"name":"amountSentLD","type":"uint256","indexed":false,"internalType":"uint256"},{"name":"amountReceivedLD","type":"uint256","indexed":false,"internalType":"uint256"}],"anonymous":false},{"type":"event","name":"OwnershipTransferred","inputs":[{"name":"previousOwner","type":"address","indexed":true,"internalType":"address"},{"name":"newOwner","type":"address","indexed":true,"internalType":"address"}],"anonymous":false},{"type":"event","name":"PeerSet","inputs":[{"name":"eid","type":"uint32","indexed":false,"internalType":"uint32"},{"name":"peer","type":"bytes32","indexed":false,"internalType":"bytes32"}],"anonymous":false},{"type":"event","name":"PreCrimeSet","inputs":[{"name":"preCrimeAddress","type":"address","indexed":false,"internalType":"address"}],"anonymous":false},{"type":"error","name":"InvalidDelegate","inputs":[]},{"type":"error","name":"InvalidEndpointCall","inputs":[]},{"type":"error","name":"InvalidLocalDecimals","inputs":[]},{"type":"error","name":"InvalidOptions","inputs":[{"name":"options","type":"bytes","internalType":"bytes"}]},{"type":"error","name":"LzTokenUnavailable","inputs":[]},{"type":"error","name":"NoPeer","inputs":[{"name":"eid","type":"uint32","internalType":"uint32"}]},{"type":"error","name":"NotEnoughNative","inputs":[{"name":"msgValue","type":"uint256","internalType":"uint256"}]},{"type":"error","name":"OnlyEndpoint","inputs":[{"name":"addr","type":"address","internalType":"address"}]},{"type":"error","name":"OnlyPeer","inputs":[{"name":"eid","type":"uint32","internalType":"uint32"},{"name":"sender","type":"bytes32","internalType":"bytes32"}]},{"type":"error","name":"OnlySelf","inputs":[]},{"type":"error","name":"OwnableInvalidOwner","inputs":[{"name":"owner","type":"address","internalType":"address"}]},{"type":"error","name":"OwnableUnauthorizedAccount","inputs":[{"name":"account","type":"address","internalType":"address"}]},{"type":"error","name":"SafeERC20FailedOperation","inputs":[{"name":"token","type":"address","internalType":"address"}]},{"type":"error","name":"SimulationResult","inputs":[{"name":"result","type":"bytes","internalType":"bytes"}]},{"type":"error","name":"SlippageExceeded","inputs":[{"name":"amountLD","type":"uint256","internalType":"uint256"},{"name":"minAmountLD","type":"uint256","internalType":"uint256"}]}],"bytecode":{"object":"0x60e06040523480156200001157600080fd5b5060405162003323380380620033238339810160408190526200003491620003f8565b828282826001600160a01b031663313ce5676040518163ffffffff1660e01b8152600401602060405180830381865afa15801562000076573d6000803e3d6000fd5b505050506040513d601f19601f820116820180604052508101906200009c919062000442565b8282818181818a6001600160a01b038116620000d357604051631e4fbdf760e01b8152600060048201526024015b60405180910390fd5b620000de8162000386565b506001600160a01b0380831660805281166200010d57604051632d618d8160e21b815260040160405180910390fd5b60805160405163ca5eb5e160e01b81526001600160a01b0383811660048301529091169063ca5eb5e190602401600060405180830381600087803b1580156200015557600080fd5b505af11580156200016a573d6000803e3d6000fd5b505050505050505062000182620003d660201b60201c565b60ff168360ff161015620001a9576040516301e9714b60e41b815260040160405180910390fd5b620001b660068462000484565b620001c390600a620005a3565b60a0525050506001600160a01b0392831660c05250508316620002405760405162461bcd60e51b815260206004820152602e60248201527f55534431416461707465723a205553443120746f6b656e2063616e6e6f74206260448201526d65207a65726f206164647265737360901b6064820152608401620000ca565b6001600160a01b038216620002ad5760405162461bcd60e51b815260206004820152602c60248201527f55534431416461707465723a20656e64706f696e742063616e6e6f742062652060448201526b7a65726f206164647265737360a01b6064820152608401620000ca565b6001600160a01b0381166200031a5760405162461bcd60e51b815260206004820152602c60248201527f55534431416461707465723a2064656c65676174652063616e6e6f742062652060448201526b7a65726f206164647265737360a01b6064820152608401620000ca565b823b6200037d5760405162461bcd60e51b815260206004820152602a60248201527f55534431416461707465723a205553443120746f6b656e206d75737420626520604482015269184818dbdb9d1c9858dd60b21b6064820152608401620000ca565b505050620005b4565b600080546001600160a01b038381166001600160a01b0319831681178455604051919092169283917f8be0079c531659141344cd1fd0a4f28419497f9722a3daafe3b4186f6b6457e09190a35050565b600690565b80516001600160a01b0381168114620003f357600080fd5b919050565b6000806000606084860312156200040e57600080fd5b6200041984620003db565b92506200042960208501620003db565b91506200043960408501620003db565b90509250925092565b6000602082840312156200045557600080fd5b815160ff811681146200046757600080fd5b9392505050565b634e487b7160e01b600052601160045260246000fd5b60ff8281168282160390811115620004a057620004a06200046e565b92915050565b600181815b80851115620004e7578160001904821115620004cb57620004cb6200046e565b80851615620004d957918102915b93841c9390800290620004ab565b509250929050565b6000826200050057506001620004a0565b816200050f57506000620004a0565b8160018114620005285760028114620005335762000553565b6001915050620004a0565b60ff8411156200054757620005476200046e565b50506001821b620004a0565b5060208310610133831016604e8410600b841016171562000578575081810a620004a0565b620005848383620004a6565b80600019048211156200059b576200059b6200046e565b029392505050565b60006200046760ff841683620004ef565b60805160a05160c051612cd66200064d6000396000818161042b015281816109a301528181610a4d01528181610af7015281816118a70152611a1901526000818161054f015281816117ee0152818161186a015261195a0152600081816103fa015281816107ba01528181610faf01528181611214015281816114a101528181611a7d01528181611c240152611cdd0152612cd66000f3fe6080604052600436106102045760003560e01c80637d25a05e11610118578063bc70b354116100a0578063d045a0dc1161006f578063d045a0dc14610674578063d424388514610687578063f2fde38b146106a7578063fc0c546a1461041c578063ff7bd03d146106c757600080fd5b8063bc70b35414610600578063bd815db014610620578063c7c7f5b314610633578063ca5eb5e11461065457600080fd5b8063963efcaa116100e7578063963efcaa1461053d5780639f68b9641461057f578063b731ea0a14610593578063b98bd070146105b3578063bb0b6a53146105d357600080fd5b80637d25a05e146104a857806382413eac146104e3578063857749b0146105035780638da5cb5b1461051f57600080fd5b80633b6f743b1161019b5780635e280f111161016a5780635e280f11146103e857806361412fbc1461041c5780636addb6631461044f5780636fc1b31e14610473578063715018a61461049357600080fd5b80633b6f743b1461033457806352ae2879146103615780635535d461146103745780635a0dfe4d146103a157600080fd5b8063156a0d0f116101d7578063156a0d0f146102b657806317442b70146102dd5780631f5e1334146102ff5780633400288b1461031457600080fd5b80630d35b41514610209578063111ecdad1461024157806313137d6514610279578063134d4f251461028e575b600080fd5b34801561021557600080fd5b50610229610224366004611dd2565b6106e7565b60405161023893929190611e56565b60405180910390f35b34801561024d57600080fd5b50600454610261906001600160a01b031681565b6040516001600160a01b039091168152602001610238565b61028c610287366004611f5e565b6107b8565b005b34801561029a57600080fd5b506102a3600281565b60405161ffff9091168152602001610238565b3480156102c257600080fd5b506040805162b9270b60e21b81526001602082015201610238565b3480156102e957600080fd5b5060408051600181526002602082015201610238565b34801561030b57600080fd5b506102a3600181565b34801561032057600080fd5b5061028c61032f366004612016565b610878565b34801561034057600080fd5b5061035461034f36600461204e565b61088e565b604051610238919061209f565b34801561036d57600080fd5b5030610261565b34801561038057600080fd5b5061039461038f3660046120c8565b6108f7565b60405161023891906120fb565b3480156103ad57600080fd5b506103d86103bc366004612016565b63ffffffff919091166000908152600160205260409020541490565b6040519015158152602001610238565b3480156103f457600080fd5b506102617f000000000000000000000000000000000000000000000000000000000000000081565b34801561042857600080fd5b507f0000000000000000000000000000000000000000000000000000000000000000610261565b34801561045b57600080fd5b5061046461099c565b6040516102389392919061210e565b34801561047f57600080fd5b5061028c61048e366004612147565b610b82565b34801561049f57600080fd5b5061028c610bdf565b3480156104b457600080fd5b506104cb6104c3366004612016565b600092915050565b6040516001600160401b039091168152602001610238565b3480156104ef57600080fd5b506103d86104fe366004612164565b610bf3565b34801561050f57600080fd5b5060405160068152602001610238565b34801561052b57600080fd5b506000546001600160a01b0316610261565b34801561054957600080fd5b506105717f000000000000000000000000000000000000000000000000000000000000000081565b604051908152602001610238565b34801561058b57600080fd5b5060016103d8565b34801561059f57600080fd5b50600254610261906001600160a01b031681565b3480156105bf57600080fd5b5061028c6105ce36600461220e565b610c08565b3480156105df57600080fd5b506105716105ee36600461224f565b60016020526000908152604090205481565b34801561060c57600080fd5b5061039461061b36600461226a565b610c22565b61028c61062e36600461220e565b610dca565b6106466106413660046122ca565b610f54565b604051610238929190612337565b34801561066057600080fd5b5061028c61066f366004612147565b610f88565b61028c610682366004611f5e565b61100e565b34801561069357600080fd5b5061028c6106a2366004612147565b61103d565b3480156106b357600080fd5b5061028c6106c2366004612147565b611093565b3480156106d357600080fd5b506103d86106e2366004612389565b6110d1565b6040805180820190915260008082526020820152606061071a604051806040016040528060008152602001600081525090565b60408051808201825260008082526001600160401b03602080840182905284518381529081019094529195509182610775565b60408051808201909152600081526060602082015281526020019060019003908161074d5790505b50935060008061079a604089013560608a013561079560208c018c61224f565b611107565b60408051808201909152918252602082015296989597505050505050565b7f00000000000000000000000000000000000000000000000000000000000000006001600160a01b03163314610808576040516391ac5e4f60e01b81523360048201526024015b60405180910390fd5b602087018035906108229061081d908a61224f565b611143565b1461086057610834602088018861224f565b60405163309afaf360e21b815263ffffffff9091166004820152602088013560248201526044016107ff565b61086f8787878787878761117f565b50505050505050565b6108806112e6565b61088a8282611313565b5050565b604080518082019091526000808252602082015260006108be60408501356060860135610795602088018861224f565b9150506000806108ce8684611368565b90925090506108eb6108e3602088018861224f565b83838861148b565b93505050505b92915050565b60036020908152600092835260408084209091529082529020805461091b906123bb565b80601f0160208091040260200160405190810160405280929190818152602001828054610947906123bb565b80156109945780601f1061096957610100808354040283529160200191610994565b820191906000526020600020905b81548152906001019060200180831161097757829003601f168201915b505050505081565b60608060007f00000000000000000000000000000000000000000000000000000000000000006001600160a01b03166306fdde036040518163ffffffff1660e01b8152600401600060405180830381865afa925050508015610a2057506040513d6000823e601f3d908101601f19168201604052610a1d91908101906124c5565b60015b610a4857604051806040016040528060048152602001635553443160e01b8152509250610a4b565b92505b7f00000000000000000000000000000000000000000000000000000000000000006001600160a01b03166395d89b416040518163ffffffff1660e01b8152600401600060405180830381865afa925050508015610aca57506040513d6000823e601f3d908101601f19168201604052610ac791908101906124c5565b60015b610af257604051806040016040528060048152602001635553443160e01b8152509150610af5565b91505b7f00000000000000000000000000000000000000000000000000000000000000006001600160a01b031663313ce5676040518163ffffffff1660e01b8152600401602060405180830381865afa925050508015610b6f575060408051601f3d908101601f19168201909252610b6c9181019061250d565b60015b610b7b57506012909192565b9050909192565b610b8a6112e6565b600480546001600160a01b0319166001600160a01b0383169081179091556040519081527ff0be4f1e87349231d80c36b33f9e8639658eeaf474014dee15a3e6a4d4414197906020015b60405180910390a150565b610be76112e6565b610bf1600061156c565b565b6001600160a01b03811630145b949350505050565b610c106112e6565b61088a610c1d8284612530565b6115bc565b63ffffffff8416600090815260036020908152604080832061ffff87168452909152812080546060929190610c56906123bb565b80601f0160208091040260200160405190810160405280929190818152602001828054610c82906123bb565b8015610ccf5780601f10610ca457610100808354040283529160200191610ccf565b820191906000526020600020905b815481529060010190602001808311610cb257829003601f168201915b505050505090508051600003610d1f5783838080601f016020809104026020016040519081016040528093929190818152602001838380828437600092019190915250929450610c009350505050565b6000839003610d2f579050610c00565b60028310610dad57610d7684848080601f0160208091040260200160405190810160405280939291908181526020018383808284376000920191909152506116c392505050565b80610d848460028188612640565b604051602001610d969392919061266a565b604051602081830303815290604052915050610c00565b8383604051639a6d49cd60e01b81526004016107ff9291906126bb565b60005b81811015610ed35736838383818110610de857610de86126cf565b9050602002810190610dfa91906126e5565b9050610e2d610e0c602083018361224f565b602083013563ffffffff919091166000908152600160205260409020541490565b610e375750610ecb565b3063d045a0dc60c08301358360a0810135610e56610100830183612706565b610e67610100890160e08a01612147565b610e756101208a018a612706565b6040518963ffffffff1660e01b8152600401610e979796959493929190612761565b6000604051808303818588803b158015610eb057600080fd5b505af1158015610ec4573d6000803e3d6000fd5b5050505050505b600101610dcd565b50336001600160a01b0316638e9e70996040518163ffffffff1660e01b8152600401600060405180830381865afa158015610f12573d6000803e3d6000fd5b505050506040513d6000823e601f3d908101601f19168201604052610f3a91908101906124c5565b604051638351eea760e01b81526004016107ff91906120fb565b610f5c611d73565b6040805180820190915260008082526020820152610f7b8585856116ef565b915091505b935093915050565b610f906112e6565b60405163ca5eb5e160e01b81526001600160a01b0382811660048301527f0000000000000000000000000000000000000000000000000000000000000000169063ca5eb5e190602401600060405180830381600087803b158015610ff357600080fd5b505af1158015611007573d6000803e3d6000fd5b5050505050565b33301461102e5760405163029a949d60e31b815260040160405180910390fd5b61086f87878787878787610860565b6110456112e6565b600280546001600160a01b0319166001600160a01b0383169081179091556040519081527fd48d879cef83a1c0bdda516f27b13ddb1b3f8bbac1c9e1511bb2a659c242776090602001610bd4565b61109b6112e6565b6001600160a01b0381166110c557604051631e4fbdf760e01b8152600060048201526024016107ff565b6110ce8161156c565b50565b60006020820180359060019083906110e9908661224f565b63ffffffff1681526020810191909152604001600020541492915050565b600080611113856117ea565b915081905083811015610f80576040516371c4efed60e01b815260048101829052602481018590526044016107ff565b63ffffffff8116600090815260016020526040812054806108f15760405163f6ff4fb760e01b815263ffffffff841660048201526024016107ff565b600061119161118e8787611821565b90565b905060006111bd826111ab6111a68a8a611840565b611863565b6111b860208d018d61224f565b611898565b905060288611156112845760006111fa6111dd60608c0160408d016127e7565b6111ea60208d018d61224f565b846111f58c8c6118d6565b611921565b604051633e5ac80960e11b81529091506001600160a01b037f00000000000000000000000000000000000000000000000000000000000000001690637cb59012906112509086908d906000908790600401612804565b600060405180830381600087803b15801561126a57600080fd5b505af115801561127e573d6000803e3d6000fd5b50505050505b6001600160a01b038216887fefed6d3500546b29533b128a29e3a94d70788727f0507505ac12eaf2e578fd9c6112bd60208d018d61224f565b6040805163ffffffff9092168252602082018690520160405180910390a3505050505050505050565b6000546001600160a01b03163314610bf15760405163118cdaa760e01b81523360048201526024016107ff565b63ffffffff8216600081815260016020908152604091829020849055815192835282018390527f238399d427b947898edb290f5ff0f9109849b1c3ba196a42e35f00c50a54b98b910160405180910390a15050565b60608060006113c5856020013561137e86611953565b61138b60a0890189612706565b8080601f01602080910402602001604051908101604052809392919081815260200183838082843760009201919091525061197f92505050565b90935090506000816113d85760016113db565b60025b90506113fb6113ed602088018861224f565b8261061b60808a018a612706565b6004549093506001600160a01b031680156114815760405163043a78eb60e01b81526001600160a01b0382169063043a78eb9061143e908890889060040161283f565b602060405180830381865afa15801561145b573d6000803e3d6000fd5b505050506040513d601f19601f8201168201806040525081019061147f9190612864565b505b5050509250929050565b60408051808201909152600080825260208201527f00000000000000000000000000000000000000000000000000000000000000006001600160a01b031663ddc28c586040518060a001604052808863ffffffff1681526020016114ee89611143565b8152602001878152602001868152602001851515815250306040518363ffffffff1660e01b8152600401611523929190612881565b6040805180830381865afa15801561153f573d6000803e3d6000fd5b505050506040513d601f19601f82011682018060405250810190611563919061292a565b95945050505050565b600080546001600160a01b038381166001600160a01b0319831681178455604051919092169283917f8be0079c531659141344cd1fd0a4f28419497f9722a3daafe3b4186f6b6457e09190a35050565b60005b8151811015611693576115ee8282815181106115dd576115dd6126cf565b6020026020010151604001516116c3565b818181518110611600576116006126cf565b60200260200101516040015160036000848481518110611622576116226126cf565b60200260200101516000015163ffffffff1663ffffffff168152602001908152602001600020600084848151811061165c5761165c6126cf565b60200260200101516020015161ffff1661ffff168152602001908152602001600020908161168a9190612996565b506001016115bf565b507fbe4864a8e820971c0247f5992e2da559595f7bf076a21cb5928d443d2a13b67481604051610bd49190612a55565b600281015161ffff811660031461088a5781604051639a6d49cd60e01b81526004016107ff91906120fb565b6116f7611d73565b604080518082019091526000808252602082015260008061172e33604089013560608a013561172960208c018c61224f565b6119f9565b9150915060008061173f8984611368565b909250905061176b61175460208b018b61224f565b8383611765368d90038d018d612ae0565b8b611a4a565b60408051808201909152858152602080820186905282519298509096503391907f85496b760a4b7f8d66384b9df21b381f5d1b1e79f229a47aaf4c232edc2fe59a906117b9908d018d61224f565b6040805163ffffffff909216825260208201899052810187905260600160405180910390a350505050935093915050565b60007f00000000000000000000000000000000000000000000000000000000000000006118178184612b12565b6108f19190612b34565b60006118306020828486612640565b61183991612b59565b9392505050565b6000611850602860208486612640565b61185991612b77565b60c01c9392505050565b60006108f17f00000000000000000000000000000000000000000000000000000000000000006001600160401b038416612b34565b60006118ce6001600160a01b037f0000000000000000000000000000000000000000000000000000000000000000168585611b55565b509092915050565b60606118e58260288186612640565b8080601f016020809104026020016040519081016040528093929190818152602001838380828437600092019190915250929695505050505050565b60608484848460405160200161193a9493929190612ba7565b6040516020818303038152906040529050949350505050565b60006108f17f000000000000000000000000000000000000000000000000000000000000000083612b12565b80516060901515806119c85784846040516020016119b492919091825260c01b6001600160c01b031916602082015260280190565b6040516020818303038152906040526119ef565b848433856040516020016119df9493929190612bf6565b6040516020818303038152906040525b9150935093915050565b600080611a07858585611107565b9092509050611a416001600160a01b037f000000000000000000000000000000000000000000000000000000000000000016873085611bb9565b94509492505050565b611a52611d73565b6000611a618460000151611bf8565b602085015190915015611a7b57611a7b8460200151611c20565b7f00000000000000000000000000000000000000000000000000000000000000006001600160a01b0316632637a450826040518060a001604052808b63ffffffff168152602001611acb8c611143565b81526020018a815260200189815260200160008960200151111515815250866040518463ffffffff1660e01b8152600401611b07929190612881565b60806040518083038185885af1158015611b25573d6000803e3d6000fd5b50505050506040513d601f19601f82011682018060405250810190611b4a9190612c39565b979650505050505050565b6040516001600160a01b03838116602483015260448201839052611bb491859182169063a9059cbb906064015b604051602081830303815290604052915060e01b6020820180516001600160e01b038381831617835250505050611d02565b505050565b6040516001600160a01b038481166024830152838116604483015260648201839052611bf29186918216906323b872dd90608401611b82565b50505050565b6000813414611c1c576040516304fb820960e51b81523460048201526024016107ff565b5090565b60007f00000000000000000000000000000000000000000000000000000000000000006001600160a01b031663e4fe1d946040518163ffffffff1660e01b8152600401602060405180830381865afa158015611c80573d6000803e3d6000fd5b505050506040513d601f19601f82011682018060405250810190611ca49190612c83565b90506001600160a01b038116611ccd576040516329b99a9560e11b815260040160405180910390fd5b61088a6001600160a01b038216337f000000000000000000000000000000000000000000000000000000000000000085611bb9565b600080602060008451602086016000885af180611d25576040513d6000823e3d81fd5b50506000513d91508115611d3d578060011415611d4a565b6001600160a01b0384163b155b15611bf257604051635274afe760e01b81526001600160a01b03851660048201526024016107ff565b60405180606001604052806000801916815260200160006001600160401b03168152602001611db5604051806040016040528060008152602001600081525090565b905290565b600060e08284031215611dcc57600080fd5b50919050565b600060208284031215611de457600080fd5b81356001600160401b03811115611dfa57600080fd5b610c0084828501611dba565b60005b83811015611e21578181015183820152602001611e09565b50506000910152565b60008151808452611e42816020860160208601611e06565b601f01601f19169290920160200192915050565b8351815260208085015190820152600060a08201604060a0604085015281865180845260c08601915060c08160051b8701019350602080890160005b83811015611ed15788870360bf19018552815180518852830151838801879052611ebe87890182611e2a565b9750509382019390820190600101611e92565b50508751606088015250505060208501516080850152509050610c00565b600060608284031215611dcc57600080fd5b60008083601f840112611f1357600080fd5b5081356001600160401b03811115611f2a57600080fd5b602083019150836020828501011115611f4257600080fd5b9250929050565b6001600160a01b03811681146110ce57600080fd5b600080600080600080600060e0888a031215611f7957600080fd5b611f838989611eef565b96506060880135955060808801356001600160401b0380821115611fa657600080fd5b611fb28b838c01611f01565b909750955060a08a01359150611fc782611f49565b90935060c08901359080821115611fdd57600080fd5b50611fea8a828b01611f01565b989b979a50959850939692959293505050565b803563ffffffff8116811461201157600080fd5b919050565b6000806040838503121561202957600080fd5b61203283611ffd565b946020939093013593505050565b80151581146110ce57600080fd5b6000806040838503121561206157600080fd5b82356001600160401b0381111561207757600080fd5b61208385828601611dba565b925050602083013561209481612040565b809150509250929050565b8151815260208083015190820152604081016108f1565b803561ffff8116811461201157600080fd5b600080604083850312156120db57600080fd5b6120e483611ffd565b91506120f2602084016120b6565b90509250929050565b6020815260006118396020830184611e2a565b6060815260006121216060830186611e2a565b82810360208401526121338186611e2a565b91505060ff83166040830152949350505050565b60006020828403121561215957600080fd5b813561183981611f49565b60008060008060a0858703121561217a57600080fd5b6121848686611eef565b935060608501356001600160401b0381111561219f57600080fd5b6121ab87828801611f01565b90945092505060808501356121bf81611f49565b939692955090935050565b60008083601f8401126121dc57600080fd5b5081356001600160401b038111156121f357600080fd5b6020830191508360208260051b8501011115611f4257600080fd5b6000806020838503121561222157600080fd5b82356001600160401b0381111561223757600080fd5b612243858286016121ca565b90969095509350505050565b60006020828403121561226157600080fd5b61183982611ffd565b6000806000806060858703121561228057600080fd5b61228985611ffd565b9350612297602086016120b6565b925060408501356001600160401b038111156122b257600080fd5b6122be87828801611f01565b95989497509550505050565b600080600083850360808112156122e057600080fd5b84356001600160401b038111156122f657600080fd5b61230287828801611dba565b9450506040601f198201121561231757600080fd5b50602084019150606084013561232c81611f49565b809150509250925092565b600060c082019050835182526001600160401b0360208501511660208301526040840151612372604084018280518252602090810151910152565b5082516080830152602083015160a0830152611839565b60006060828403121561239b57600080fd5b6118398383611eef565b634e487b7160e01b600052604160045260246000fd5b600181811c908216806123cf57607f821691505b602082108103611dcc57634e487b7160e01b600052602260045260246000fd5b604051606081016001600160401b0381118282101715612411576124116123a5565b60405290565b604080519081016001600160401b0381118282101715612411576124116123a5565b604051601f8201601f191681016001600160401b0381118282101715612461576124616123a5565b604052919050565b60006001600160401b03821115612482576124826123a5565b50601f01601f191660200190565b60006124a361249e84612469565b612439565b90508281528383830111156124b757600080fd5b611839836020830184611e06565b6000602082840312156124d757600080fd5b81516001600160401b038111156124ed57600080fd5b8201601f810184136124fe57600080fd5b610c0084825160208401612490565b60006020828403121561251f57600080fd5b815160ff8116811461183957600080fd5b60006001600160401b038084111561254a5761254a6123a5565b8360051b602061255b818301612439565b86815291850191818101903684111561257357600080fd5b865b848110156126345780358681111561258d5760008081fd5b880160603682900312156125a15760008081fd5b6125a96123ef565b6125b282611ffd565b81526125bf8683016120b6565b86820152604080830135898111156125d75760008081fd5b929092019136601f8401126125ec5760008081fd5b82356125fa61249e82612469565b818152368983870101111561260f5760008081fd5b818986018a830137600091810189019190915290820152845250918301918301612575565b50979650505050505050565b6000808585111561265057600080fd5b8386111561265d57600080fd5b5050820193919092039150565b6000845161267c818460208901611e06565b8201838582376000930192835250909392505050565b81835281816020850137506000828201602090810191909152601f909101601f19169091010190565b602081526000610c00602083018486612692565b634e487b7160e01b600052603260045260246000fd5b6000823561013e198336030181126126fc57600080fd5b9190910192915050565b6000808335601e1984360301811261271d57600080fd5b8301803591506001600160401b0382111561273757600080fd5b602001915036819003821315611f4257600080fd5b6001600160401b03811681146110ce57600080fd5b63ffffffff61276f89611ffd565b168152602088013560208201526000604089013561278c8161274c565b6001600160401b03811660408401525087606083015260e060808301526127b760e083018789612692565b6001600160a01b03861660a084015282810360c08401526127d9818587612692565b9a9950505050505050505050565b6000602082840312156127f957600080fd5b81356118398161274c565b60018060a01b038516815283602082015261ffff831660408201526080606082015260006128356080830184611e2a565b9695505050505050565b6040815260006128526040830185611e2a565b82810360208401526115638185611e2a565b60006020828403121561287657600080fd5b815161183981612040565b6040815263ffffffff8351166040820152602083015160608201526000604084015160a060808401526128b760e0840182611e2a565b90506060850151603f198483030160a08501526128d48282611e2a565b60809690960151151560c08501525050506001600160a01b039190911660209091015290565b60006040828403121561290c57600080fd5b612914612417565b9050815181526020820151602082015292915050565b60006040828403121561293c57600080fd5b61183983836128fa565b601f821115611bb4576000816000526020600020601f850160051c8101602086101561296f5750805b601f850160051c820191505b8181101561298e5782815560010161297b565b505050505050565b81516001600160401b038111156129af576129af6123a5565b6129c3816129bd84546123bb565b84612946565b602080601f8311600181146129f857600084156129e05750858301515b600019600386901b1c1916600185901b17855561298e565b600085815260208120601f198616915b82811015612a2757888601518255948401946001909101908401612a08565b5085821015612a455787850151600019600388901b60f8161c191681555b5050505050600190811b01905550565b600060208083018184528085518083526040925060408601915060408160051b87010184880160005b83811015612ad257888303603f190185528151805163ffffffff1684528781015161ffff16888501528601516060878501819052612abe81860183611e2a565b968901969450505090860190600101612a7e565b509098975050505050505050565b600060408284031215612af257600080fd5b612afa612417565b82358152602083013560208201528091505092915050565b600082612b2f57634e487b7160e01b600052601260045260246000fd5b500490565b80820281158282048414176108f157634e487b7160e01b600052601160045260246000fd5b803560208310156108f157600019602084900360031b1b1692915050565b6001600160c01b03198135818116916008851015612b9f5780818660080360031b1b83161692505b505092915050565b6001600160401b0360c01b8560c01b16815263ffffffff60e01b8460e01b16600882015282600c82015260008251612be681602c850160208701611e06565b91909101602c0195945050505050565b8481526001600160401b0360c01b8460c01b16602082015282602882015260008251612c29816048850160208701611e06565b9190910160480195945050505050565b600060808284031215612c4b57600080fd5b612c536123ef565b825181526020830151612c658161274c565b6020820152612c7784604085016128fa565b60408201529392505050565b600060208284031215612c9557600080fd5b815161183981611f4956fea2646970667358221220182d48765293e3928dc320832bde63e3114ee67e680cba3360121092cc3492ea64736f6c63430008160033","linkReferences":{}},"methodIdentifiers":{"SEND()":"1f5e1334","SEND_AND_CALL()":"134d4f25","allowInitializePath((uint32,bytes32,uint64))":"ff7bd03d","approvalRequired()":"9f68b964","combineOptions(uint32,uint16,bytes)":"bc70b354","decimalConversionRate()":"963efcaa","endpoint()":"5e280f11","enforcedOptions(uint32,uint16)":"5535d461","isComposeMsgSender((uint32,bytes32,uint64),bytes,address)":"82413eac","isPeer(uint32,bytes32)":"5a0dfe4d","lzReceive((uint32,bytes32,uint64),bytes32,bytes,address,bytes)":"13137d65","lzReceiveAndRevert(((uint32,bytes32,uint64),uint32,address,bytes32,uint256,address,bytes,bytes)[])":"bd815db0","lzReceiveSimulate((uint32,bytes32,uint64),bytes32,bytes,address,bytes)":"d045a0dc","msgInspector()":"111ecdad","nextNonce(uint32,bytes32)":"7d25a05e","oApp()":"52ae2879","oAppVersion()":"17442b70","oftVersion()":"156a0d0f","owner()":"8da5cb5b","peers(uint32)":"bb0b6a53","preCrime()":"b731ea0a","quoteOFT((uint32,bytes32,uint256,uint256,bytes,bytes,bytes))":"0d35b415","quoteSend((uint32,bytes32,uint256,uint256,bytes,bytes,bytes),bool)":"3b6f743b","renounceOwnership()":"715018a6","send((uint32,bytes32,uint256,uint256,bytes,bytes,bytes),(uint256,uint256),address)":"c7c7f5b3","setDelegate(address)":"ca5eb5e1","setEnforcedOptions((uint32,uint16,bytes)[])":"b98bd070","setMsgInspector(address)":"6fc1b31e","setPeer(uint32,bytes32)":"3400288b","setPreCrime(address)":"d4243885","sharedDecimals()":"857749b0","token()":"fc0c546a","tokenInfo()":"6addb663","transferOwnership(address)":"f2fde38b","usd1Token()":"61412fbc"},"id":14}