{"abi":[{"type":"constructor","inputs":[{"name":"_owner","type":"address","internalType":"address"}],"stateMutability":"nonpayable"},{"type":"function","name":"number","inputs":[],"outputs":[{"name":"","type":"uint256","internalType":"uint256"}],"stateMutability":"view"},{"type":"function","name":"owner","inputs":[],"outputs":[{"name":"","type":"address","internalType":"address"}],"stateMutability":"view"},{"type":"function","name":"setNumber","inputs":[{"name":"_num","type":"uint256","internalType":"uint256"}],"outputs":[],"stateMutability":"nonpayable"}],"bytecode":{"object":"0x608060405234801561001057600080fd5b5060405161017c38038061017c83398101604081905261002f91610059565b600080546001600160a01b0319166001600160a01b0392909216919091179055602a600155610089565b60006020828403121561006b57600080fd5b81516001600160a01b038116811461008257600080fd5b9392505050565b60e5806100976000396000f3fe6080604052348015600f57600080fd5b5060043610603c5760003560e01c80633fb5c1cb1460415780638381f58a1460535780638da5cb5b14606e575b600080fd5b6051604c3660046097565b600155565b005b605b60015481565b6040519081526020015b60405180910390f35b6000546080906001600160a01b031681565b6040516001600160a01b0390911681526020016065565b60006020828403121560a857600080fd5b503591905056fea26469706673582212204c7c2d62385d31d5caa5de85869de25f330bc08a51e6c655347d21725c93426664736f6c63430008160033","linkReferences":{}},"methodIdentifiers":{"number()":"8381f58a","owner()":"8da5cb5b","setNumber(uint256)":"3fb5c1cb"},"id":4}