{"abi":[{"type":"constructor","inputs":[{"name":"_initialOwner","type":"address","internalType":"address"}],"stateMutability":"nonpayable"},{"type":"function","name":"MAX_SUPPORTED_CHAINS","inputs":[],"outputs":[{"name":"","type":"uint256","internalType":"uint256"}],"stateMutability":"view"},{"type":"function","name":"chainIdToEid","inputs":[{"name":"","type":"uint256","internalType":"uint256"}],"outputs":[{"name":"","type":"uint32","internalType":"uint32"}],"stateMutability":"view"},{"type":"function","name":"eidToChainId","inputs":[{"name":"","type":"uint32","internalType":"uint32"}],"outputs":[{"name":"","type":"uint256","internalType":"uint256"}],"stateMutability":"view"},{"type":"function","name":"getChainConfig","inputs":[{"name":"_chainId","type":"uint16","internalType":"uint16"}],"outputs":[{"name":"","type":"tuple","internalType":"struct IChainRegistry.ChainConfig","components":[{"name":"chainId","type":"uint16","internalType":"uint16"},{"name":"chainName","type":"string","internalType":"string"},{"name":"wrappedNativeToken","type":"address","internalType":"address"},{"name":"wrappedNativeSymbol","type":"string","internalType":"string"},{"name":"isActive","type":"bool","internalType":"bool"}]}],"stateMutability":"view"},{"type":"function","name":"getCurrentChainId","inputs":[],"outputs":[{"name":"","type":"uint16","internalType":"uint16"}],"stateMutability":"view"},{"type":"function","name":"getEidForChainId","inputs":[{"name":"_chainId","type":"uint256","internalType":"uint256"}],"outputs":[{"name":"","type":"uint32","internalType":"uint32"}],"stateMutability":"view"},{"type":"function","name":"getLayerZeroEndpoint","inputs":[{"name":"_chainId","type":"uint16","internalType":"uint16"}],"outputs":[{"name":"","type":"address","internalType":"address"}],"stateMutability":"view"},{"type":"function","name":"getSupportedChainCount","inputs":[],"outputs":[{"name":"","type":"uint256","internalType":"uint256"}],"stateMutability":"view"},{"type":"function","name":"getSupportedChains","inputs":[],"outputs":[{"name":"","type":"uint16[]","internalType":"uint16[]"}],"stateMutability":"view"},{"type":"function","name":"isChainSupported","inputs":[{"name":"_chainId","type":"uint16","internalType":"uint16"}],"outputs":[{"name":"","type":"bool","internalType":"bool"}],"stateMutability":"view"},{"type":"function","name":"layerZeroEndpoints","inputs":[{"name":"","type":"uint16","internalType":"uint16"}],"outputs":[{"name":"","type":"address","internalType":"address"}],"stateMutability":"view"},{"type":"function","name":"owner","inputs":[],"outputs":[{"name":"","type":"address","internalType":"address"}],"stateMutability":"view"},{"type":"function","name":"registerChain","inputs":[{"name":"_chainId","type":"uint16","internalType":"uint16"},{"name":"_chainName","type":"string","internalType":"string"},{"name":"_wrappedNativeToken","type":"address","internalType":"address"},{"name":"_wrappedNativeSymbol","type":"string","internalType":"string"},{"name":"_isActive","type":"bool","internalType":"bool"}],"outputs":[],"stateMutability":"nonpayable"},{"type":"function","name":"renounceOwnership","inputs":[],"outputs":[],"stateMutability":"nonpayable"},{"type":"function","name":"setChainIdToEid","inputs":[{"name":"_chainId","type":"uint256","internalType":"uint256"},{"name":"_eid","type":"uint32","internalType":"uint32"}],"outputs":[],"stateMutability":"nonpayable"},{"type":"function","name":"setChainStatus","inputs":[{"name":"_chainId","type":"uint16","internalType":"uint16"},{"name":"_isActive","type":"bool","internalType":"bool"}],"outputs":[],"stateMutability":"nonpayable"},{"type":"function","name":"setLayerZeroEndpoint","inputs":[{"name":"_chainId","type":"uint16","internalType":"uint16"},{"name":"_endpoint","type":"address","internalType":"address"}],"outputs":[],"stateMutability":"nonpayable"},{"type":"function","name":"transferOwnership","inputs":[{"name":"newOwner","type":"address","internalType":"address"}],"outputs":[],"stateMutability":"nonpayable"},{"type":"event","name":"ChainIdToEidUpdated","inputs":[{"name":"chainId","type":"uint256","indexed":false,"internalType":"uint256"},{"name":"eid","type":"uint32","indexed":false,"internalType":"uint32"}],"anonymous":false},{"type":"event","name":"ChainRegistered","inputs":[{"name":"chainId","type":"uint16","indexed":true,"internalType":"uint16"},{"name":"chainName","type":"string","indexed":false,"internalType":"string"}],"anonymous":false},{"type":"event","name":"ChainStatusChanged","inputs":[{"name":"chainId","type":"uint16","indexed":true,"internalType":"uint16"},{"name":"isActive","type":"bool","indexed":false,"internalType":"bool"}],"anonymous":false},{"type":"event","name":"ChainUpdated","inputs":[{"name":"chainId","type":"uint16","indexed":true,"internalType":"uint16"}],"anonymous":false},{"type":"event","name":"CurrentChainSet","inputs":[{"name":"chainId","type":"uint16","indexed":true,"internalType":"uint16"}],"anonymous":false},{"type":"event","name":"LayerZeroEndpointUpdated","inputs":[{"name":"chainId","type":"uint16","indexed":true,"internalType":"uint16"},{"name":"endpoint","type":"address","indexed":false,"internalType":"address"}],"anonymous":false},{"type":"event","name":"OwnershipTransferred","inputs":[{"name":"previousOwner","type":"address","indexed":true,"internalType":"address"},{"name":"newOwner","type":"address","indexed":true,"internalType":"address"}],"anonymous":false},{"type":"error","name":"ChainAlreadyRegistered","inputs":[{"name":"chainId","type":"uint16","internalType":"uint16"}]},{"type":"error","name":"ChainNotRegistered","inputs":[{"name":"chainId","type":"uint16","internalType":"uint16"}]},{"type":"error","name":"OwnableInvalidOwner","inputs":[{"name":"owner","type":"address","internalType":"address"}]},{"type":"error","name":"OwnableUnauthorizedAccount","inputs":[{"name":"account","type":"address","internalType":"address"}]},{"type":"error","name":"TooManyChains","inputs":[]},{"type":"error","name":"ZeroAddress","inputs":[]}],"bytecode":{"object":"0x60806040523480156200001157600080fd5b50604051620011cd380380620011cd833981016040819052620000349162000205565b806001600160a01b0381166200006457604051631e4fbdf760e01b81526000600482015260240160405180910390fd5b6200006f81620001b5565b506001600160a01b038116620000985760405163d92e233d60e01b815260040160405180910390fd5b46600103620000b5576003805461ffff191660011790556200017b565b46603803620000d2576003805461ffff191660381790556200017b565b46608903620000ef576003805461ffff191660891790556200017b565b4661a4b1036200010e576003805461ffff191661a4b11790556200017b565b46612105036200012d576003805461ffff19166121051790556200017b565b4661a86a036200014c576003805461ffff191661a86a1790556200017b565b4660920362000169576003805461ffff191660921790556200017b565b6003805461ffff19164661ffff161790555b60035460405161ffff909116907ff6549dcfe73f8bc1cc6508ff53d144c3df78d7b2a4f3d670dd1cd6bb1752d3be90600090a25062000237565b600080546001600160a01b038381166001600160a01b0319831681178455604051919092169283917f8be0079c531659141344cd1fd0a4f28419497f9722a3daafe3b4186f6b6457e09190a35050565b6000602082840312156200021857600080fd5b81516001600160a01b03811681146200023057600080fd5b9392505050565b610f8680620002476000396000f3fe608060405234801561001057600080fd5b50600436106101165760003560e01c8063c17786a0116100a2578063eba8cf8d11610071578063eba8cf8d1461026c578063eced3dfb146102a7578063f0a594a9146102af578063f151e497146102d8578063f2fde38b146102fe57600080fd5b8063c17786a014610211578063c4bffe2b14610231578063cf23662714610246578063decb1d9a1461025957600080fd5b80637da670a0116100e95780637da670a0146101765780638b42babd1461018c5780638cb3aaa3146101ac5780638da5cb5b146101bf578063b87f29e1146101e457600080fd5b806328f41de31461011b5780633fb0a191146101435780635cf0e8a414610158578063715018a61461016e575b600080fd5b61012e610129366004610a89565b610311565b60405190151581526020015b60405180910390f35b610156610151366004610b75565b610353565b005b60035460405161ffff909116815260200161013a565b61015661053f565b61017e603281565b60405190815260200161013a565b61017e61019a366004610c1f565b60066020526000908152604090205481565b6101566101ba366004610c3a565b610553565b6000546001600160a01b03165b6040516001600160a01b03909116815260200161013a565b6101cc6101f2366004610a89565b61ffff166000908152600460205260409020546001600160a01b031690565b61022461021f366004610a89565b6105cb565b60405161013a9190610cac565b6102396107c8565b60405161013a9190610d22565b610156610254366004610d6a565b610848565b610156610267366004610d94565b6108eb565b61029261027a366004610dbe565b60009081526005602052604090205463ffffffff1690565b60405163ffffffff909116815260200161013a565b60025461017e565b6101cc6102bd366004610a89565b6004602052600090815260409020546001600160a01b031681565b6102926102e6366004610dbe565b60056020526000908152604090205463ffffffff1681565b61015661030c366004610dd7565b6109b7565b61ffff8082166000908152600160205260408120549091161580159061034d575061ffff821660009081526001602052604090206004015460ff165b92915050565b61035b6109f5565b6001600160a01b0383166103825760405163d92e233d60e01b815260040160405180910390fd5b61ffff80861660009081526001602052604090205416156103c157604051630b4ab72d60e21b815261ffff861660048201526024015b60405180910390fd5b6002546032116103e45760405163b73ef67b60e01b815260040160405180910390fd5b6040805160a08101825261ffff87811680835260208084018981526001600160a01b038916858701526060850188905286151560808601526000928352600191829052949091208351815461ffff19169316929092178255925191929091908201906104509082610e7d565b5060408201516002820180546001600160a01b0319166001600160a01b039092169190911790556060820151600382019061048b9082610e7d565b50608091909101516004909101805491151560ff19909216919091179055600280546001810182556000829052601081047f405787fa12a823e0f2b7631cc41b3ba8828b3321ca811111fa75cd3aa3bb5ace01805461ffff808a16600f9094169094026101000a83810294021916929092179091556040517f62bb0ad0b7a8956c331b58a2677c0309932bd3f9ff9275b0d913ee6f544a8a5690610530908790610f3d565b60405180910390a25050505050565b6105476109f5565b6105516000610a22565b565b61055b6109f5565b6000828152600560209081526040808320805463ffffffff191663ffffffff861690811790915580845260068352928190208590558051858152918201929092527f1121620854be62ee6386fe112976b58e1f8f41bec38d8bd2f2d8438ce15c8f70910160405180910390a15050565b61060c6040518060a00160405280600061ffff1681526020016060815260200160006001600160a01b03168152602001606081526020016000151581525090565b61ffff808316600090815260016020526040812054909116900361064957604051635112327760e01b815261ffff831660048201526024016103b8565b61ffff808316600090815260016020818152604092839020835160a081019094528054909416835290830180549293929184019161068690610df2565b80601f01602080910402602001604051908101604052809291908181526020018280546106b290610df2565b80156106ff5780601f106106d4576101008083540402835291602001916106ff565b820191906000526020600020905b8154815290600101906020018083116106e257829003601f168201915b505050918352505060028201546001600160a01b0316602082015260038201805460409092019161072f90610df2565b80601f016020809104026020016040519081016040528092919081815260200182805461075b90610df2565b80156107a85780601f1061077d576101008083540402835291602001916107a8565b820191906000526020600020905b81548152906001019060200180831161078b57829003601f168201915b50505091835250506004919091015460ff16151560209091015292915050565b6060600280548060200260200160405190810160405280929190818152602001828054801561083e57602002820191906000526020600020906000905b82829054906101000a900461ffff1661ffff16815260200190600201906020826001010492830192600103820291508084116108055790505b5050505050905090565b6108506109f5565b61ffff808316600090815260016020526040812054909116900361088d57604051635112327760e01b815261ffff831660048201526024016103b8565b61ffff8216600081815260016020908152604091829020600401805460ff191685151590811790915591519182527f8a2e7bc3935fd57632299c1b85c1f2a2ca6b83577ced6c12e0516eb9d809c9d291015b60405180910390a25050565b6108f36109f5565b6001600160a01b03811661091a5760405163d92e233d60e01b815260040160405180910390fd5b61ffff808316600090815260016020526040812054909116900361095757604051635112327760e01b815261ffff831660048201526024016103b8565b61ffff821660008181526004602090815260409182902080546001600160a01b0319166001600160a01b03861690811790915591519182527f8efcbf71ab784f8ebb6bf61d2ae0526705fc7fb1c1ce8b4320688b03c218501491016108df565b6109bf6109f5565b6001600160a01b0381166109e957604051631e4fbdf760e01b8152600060048201526024016103b8565b6109f281610a22565b50565b6000546001600160a01b031633146105515760405163118cdaa760e01b81523360048201526024016103b8565b600080546001600160a01b038381166001600160a01b0319831681178455604051919092169283917f8be0079c531659141344cd1fd0a4f28419497f9722a3daafe3b4186f6b6457e09190a35050565b803561ffff81168114610a8457600080fd5b919050565b600060208284031215610a9b57600080fd5b610aa482610a72565b9392505050565b634e487b7160e01b600052604160045260246000fd5b600082601f830112610ad257600080fd5b813567ffffffffffffffff80821115610aed57610aed610aab565b604051601f8301601f19908116603f01168101908282118183101715610b1557610b15610aab565b81604052838152866020858801011115610b2e57600080fd5b836020870160208301376000602085830101528094505050505092915050565b80356001600160a01b0381168114610a8457600080fd5b80358015158114610a8457600080fd5b600080600080600060a08688031215610b8d57600080fd5b610b9686610a72565b9450602086013567ffffffffffffffff80821115610bb357600080fd5b610bbf89838a01610ac1565b9550610bcd60408901610b4e565b94506060880135915080821115610be357600080fd5b50610bf088828901610ac1565b925050610bff60808701610b65565b90509295509295909350565b803563ffffffff81168114610a8457600080fd5b600060208284031215610c3157600080fd5b610aa482610c0b565b60008060408385031215610c4d57600080fd5b82359150610c5d60208401610c0b565b90509250929050565b6000815180845260005b81811015610c8c57602081850181015186830182015201610c70565b506000602082860101526020601f19601f83011685010191505092915050565b6020815261ffff82511660208201526000602083015160a06040840152610cd660c0840182610c66565b60408501516001600160a01b0316606085810191909152850151848203601f19016080860152909150610d098282610c66565b9150506080840151151560a08401528091505092915050565b6020808252825182820181905260009190848201906040850190845b81811015610d5e57835161ffff1683529284019291840191600101610d3e565b50909695505050505050565b60008060408385031215610d7d57600080fd5b610d8683610a72565b9150610c5d60208401610b65565b60008060408385031215610da757600080fd5b610db083610a72565b9150610c5d60208401610b4e565b600060208284031215610dd057600080fd5b5035919050565b600060208284031215610de957600080fd5b610aa482610b4e565b600181811c90821680610e0657607f821691505b602082108103610e2657634e487b7160e01b600052602260045260246000fd5b50919050565b601f821115610e78576000816000526020600020601f850160051c81016020861015610e555750805b601f850160051c820191505b81811015610e7457828155600101610e61565b5050505b505050565b815167ffffffffffffffff811115610e9757610e97610aab565b610eab81610ea58454610df2565b84610e2c565b602080601f831160018114610ee05760008415610ec85750858301515b600019600386901b1c1916600185901b178555610e74565b600085815260208120601f198616915b82811015610f0f57888601518255948401946001909101908401610ef0565b5085821015610f2d5787850151600019600388901b60f8161c191681555b5050505050600190811b01905550565b602081526000610aa46020830184610c6656fea26469706673582212202d657c79abdc04e37411879d85ebb9b2d56eba7cc7de5a1dab9d03dde15bb35064736f6c63430008160033","linkReferences":{}},"methodIdentifiers":{"MAX_SUPPORTED_CHAINS()":"7da670a0","chainIdToEid(uint256)":"f151e497","eidToChainId(uint32)":"8b42babd","getChainConfig(uint16)":"c17786a0","getCurrentChainId()":"5cf0e8a4","getEidForChainId(uint256)":"eba8cf8d","getLayerZeroEndpoint(uint16)":"b87f29e1","getSupportedChainCount()":"eced3dfb","getSupportedChains()":"c4bffe2b","isChainSupported(uint16)":"28f41de3","layerZeroEndpoints(uint16)":"f0a594a9","owner()":"8da5cb5b","registerChain(uint16,string,address,string,bool)":"3fb0a191","renounceOwnership()":"715018a6","setChainIdToEid(uint256,uint32)":"8cb3aaa3","setChainStatus(uint16,bool)":"cf236627","setLayerZeroEndpoint(uint16,address)":"decb1d9a","transferOwnership(address)":"f2fde38b"},"id":1}