{"abi":[{"type":"function","name":"testDirectApprove","inputs":[{"name":"token","type":"address","internalType":"address"},{"name":"spender","type":"address","internalType":"address"},{"name":"amount","type":"uint256","internalType":"uint256"}],"outputs":[{"name":"","type":"bool","internalType":"bool"}],"stateMutability":"nonpayable"},{"type":"function","name":"testForceApprove","inputs":[{"name":"token","type":"address","internalType":"address"},{"name":"spender","type":"address","internalType":"address"},{"name":"amount","type":"uint256","internalType":"uint256"}],"outputs":[{"name":"","type":"bool","internalType":"bool"}],"stateMutability":"nonpayable"},{"type":"function","name":"testSafeIncreaseAllowance","inputs":[{"name":"token","type":"address","internalType":"address"},{"name":"spender","type":"address","internalType":"address"},{"name":"amount","type":"uint256","internalType":"uint256"}],"outputs":[{"name":"","type":"bool","internalType":"bool"}],"stateMutability":"nonpayable"},{"type":"error","name":"SafeERC20FailedOperation","inputs":[{"name":"token","type":"address","internalType":"address"}]}],"bytecode":{"object":"0x608060405234801561001057600080fd5b50610443806100206000396000f3fe608060405234801561001057600080fd5b50600436106100415760003560e01c8063060a0bbb146100465780633330a4751461006d5780639ce0ba0114610080575b600080fd5b61005961005436600461036e565b610093565b604051901515815260200160405180910390f35b61005961007b36600461036e565b6100b3565b61005961008e36600461036e565b610132565b60006100a96001600160a01b0385168484610148565b5060019392505050565b60405163095ea7b360e01b81526001600160a01b038381166004830152602482018390526000919085169063095ea7b3906044016020604051808303816000875af1158015610106573d6000803e3d6000fd5b505050506040513d601f19601f8201168201806040525081019061012a91906103aa565b949350505050565b60006100a96001600160a01b0385168484610202565b604080516001600160a01b038416602482015260448082018490528251808303909101815260649091019091526020810180516001600160e01b031663095ea7b360e01b179052610199848261028c565b6101fc57604080516001600160a01b038516602482015260006044808301919091528251808303909101815260649091019091526020810180516001600160e01b031663095ea7b360e01b1790526101f29085906102dd565b6101fc84826102dd565b50505050565b604051636eb1769f60e11b81523060048201526001600160a01b0383811660248301526000919085169063dd62ed3e90604401602060405180830381865afa158015610252573d6000803e3d6000fd5b505050506040513d601f19601f8201168201806040525081019061027691906103d3565b90506101fc848461028785856103ec565b610148565b6000806000806020600086516020880160008a5af192503d915060005190508280156102d1575081156102c257806001146102d1565b6000866001600160a01b03163b115b93505050505b92915050565b600080602060008451602086016000885af180610300576040513d6000823e3d81fd5b50506000513d91508115610318578060011415610325565b6001600160a01b0384163b155b156101fc57604051635274afe760e01b81526001600160a01b038516600482015260240160405180910390fd5b80356001600160a01b038116811461036957600080fd5b919050565b60008060006060848603121561038357600080fd5b61038c84610352565b925061039a60208501610352565b9150604084013590509250925092565b6000602082840312156103bc57600080fd5b815180151581146103cc57600080fd5b9392505050565b6000602082840312156103e557600080fd5b5051919050565b808201808211156102d757634e487b7160e01b600052601160045260246000fdfea2646970667358221220f1bfe374adc1628b87accf21e91e6a49c68b5a2c8ebf7425b4b7771aad172b8f64736f6c63430008160033","linkReferences":{}},"methodIdentifiers":{"testDirectApprove(address,address,uint256)":"3330a475","testForceApprove(address,address,uint256)":"060a0bbb","testSafeIncreaseAllowance(address,address,uint256)":"9ce0ba01"},"id":3}