{"abi":[{"type":"function","name":"delegates","inputs":[{"name":"","type":"address","internalType":"address"}],"outputs":[{"name":"","type":"address","internalType":"address"}],"stateMutability":"pure"},{"type":"function","name":"eid","inputs":[],"outputs":[{"name":"","type":"uint32","internalType":"uint32"}],"stateMutability":"pure"},{"type":"function","name":"peers","inputs":[{"name":"","type":"address","internalType":"address"},{"name":"","type":"uint32","internalType":"uint32"}],"outputs":[{"name":"","type":"bytes32","internalType":"bytes32"}],"stateMutability":"view"},{"type":"function","name":"setDelegate","inputs":[{"name":"","type":"address","internalType":"address"}],"outputs":[],"stateMutability":"pure"}],"bytecode":{"object":"0x608060405234801561001057600080fd5b5061018f806100206000396000f3fe608060405234801561001057600080fd5b506004361061004c5760003560e01c8063416ecebf14610051578063587cde1e14610066578063b697fe2e14610092578063ca5eb5e1146100c8575b600080fd5b604051619ce181526020015b60405180910390f35b61007a6100743660046100f7565b50600090565b6040516001600160a01b03909116815260200161005d565b6100ba6100a0366004610119565b600060208181529281526040808220909352908152205481565b60405190815260200161005d565b6100d96100d63660046100f7565b50565b005b80356001600160a01b03811681146100f257600080fd5b919050565b60006020828403121561010957600080fd5b610112826100db565b9392505050565b6000806040838503121561012c57600080fd5b610135836100db565b9150602083013563ffffffff8116811461014e57600080fd5b80915050925092905056fea26469706673582212205da76c13fb814be37fa044063d7ef0beb507f11b727590bbddb31f04d0b0648c64736f6c63430008160033","linkReferences":{}},"methodIdentifiers":{"delegates(address)":"587cde1e","eid()":"416ecebf","peers(address,uint32)":"b697fe2e","setDelegate(address)":"ca5eb5e1"},"id":23}