{"abi":[{"type":"constructor","inputs":[{"name":"_vaultAddress","type":"address","internalType":"address"},{"name":"_charmFactory","type":"address","internalType":"address"},{"name":"_wlfi","type":"address","internalType":"address"},{"name":"_usd1","type":"address","internalType":"address"},{"name":"_weth","type":"address","internalType":"address"},{"name":"_uniswapRouter","type":"address","internalType":"address"},{"name":"_owner","type":"address","internalType":"address"}],"stateMutability":"nonpayable"},{"type":"function","name":"CHARM_FACTORY","inputs":[],"outputs":[{"name":"","type":"address","internalType":"contract ICharmFactory"}],"stateMutability":"view"},{"type":"function","name":"EAGLE_VAULT","inputs":[],"outputs":[{"name":"","type":"address","internalType":"address"}],"stateMutability":"view"},{"type":"function","name":"POOL_DESCRIPTION","inputs":[],"outputs":[{"name":"","type":"string","internalType":"string"}],"stateMutability":"view"},{"type":"function","name":"POOL_FEE","inputs":[],"outputs":[{"name":"","type":"uint24","internalType":"uint24"}],"stateMutability":"view"},{"type":"function","name":"UNISWAP_ROUTER","inputs":[],"outputs":[{"name":"","type":"address","internalType":"contract ISwapRouter"}],"stateMutability":"view"},{"type":"function","name":"UNISWAP_V3_POOL","inputs":[],"outputs":[{"name":"","type":"address","internalType":"address"}],"stateMutability":"view"},{"type":"function","name":"USD1","inputs":[],"outputs":[{"name":"","type":"address","internalType":"contract IERC20"}],"stateMutability":"view"},{"type":"function","name":"WETH","inputs":[],"outputs":[{"name":"","type":"address","internalType":"contract IERC20"}],"stateMutability":"view"},{"type":"function","name":"WLFI","inputs":[],"outputs":[{"name":"","type":"address","internalType":"contract IERC20"}],"stateMutability":"view"},{"type":"function","name":"active","inputs":[],"outputs":[{"name":"","type":"bool","internalType":"bool"}],"stateMutability":"view"},{"type":"function","name":"charmVault","inputs":[],"outputs":[{"name":"","type":"address","internalType":"contract ICharmVault"}],"stateMutability":"view"},{"type":"function","name":"deposit","inputs":[{"name":"wlfiAmount","type":"uint256","internalType":"uint256"},{"name":"usd1Amount","type":"uint256","internalType":"uint256"}],"outputs":[{"name":"shares","type":"uint256","internalType":"uint256"}],"stateMutability":"nonpayable"},{"type":"function","name":"getShareBalance","inputs":[],"outputs":[{"name":"","type":"uint256","internalType":"uint256"}],"stateMutability":"view"},{"type":"function","name":"getTotalAmounts","inputs":[],"outputs":[{"name":"wlfiAmount","type":"uint256","internalType":"uint256"},{"name":"usd1Amount","type":"uint256","internalType":"uint256"}],"stateMutability":"view"},{"type":"function","name":"initializeApprovals","inputs":[],"outputs":[],"stateMutability":"nonpayable"},{"type":"function","name":"initializeWithExistingVault","inputs":[{"name":"_charmVault","type":"address","internalType":"address"}],"outputs":[],"stateMutability":"nonpayable"},{"type":"function","name":"initializeWithNewVault","inputs":[{"name":"maxTotalSupply","type":"uint256","internalType":"uint256"}],"outputs":[],"stateMutability":"nonpayable"},{"type":"function","name":"isInitialized","inputs":[],"outputs":[{"name":"","type":"bool","internalType":"bool"}],"stateMutability":"view"},{"type":"function","name":"lastRebalance","inputs":[],"outputs":[{"name":"","type":"uint256","internalType":"uint256"}],"stateMutability":"view"},{"type":"function","name":"maxSlippage","inputs":[],"outputs":[{"name":"","type":"uint256","internalType":"uint256"}],"stateMutability":"view"},{"type":"function","name":"owner","inputs":[],"outputs":[{"name":"","type":"address","internalType":"address"}],"stateMutability":"view"},{"type":"function","name":"pause","inputs":[],"outputs":[],"stateMutability":"nonpayable"},{"type":"function","name":"rebalance","inputs":[],"outputs":[],"stateMutability":"nonpayable"},{"type":"function","name":"renounceOwnership","inputs":[],"outputs":[],"stateMutability":"nonpayable"},{"type":"function","name":"rescueIdleTokens","inputs":[],"outputs":[],"stateMutability":"nonpayable"},{"type":"function","name":"rescueToken","inputs":[{"name":"token","type":"address","internalType":"address"},{"name":"amount","type":"uint256","internalType":"uint256"},{"name":"to","type":"address","internalType":"address"}],"outputs":[],"stateMutability":"nonpayable"},{"type":"function","name":"resume","inputs":[],"outputs":[],"stateMutability":"nonpayable"},{"type":"function","name":"setTokenApproval","inputs":[{"name":"token","type":"address","internalType":"address"},{"name":"spender","type":"address","internalType":"address"},{"name":"amount","type":"uint256","internalType":"uint256"}],"outputs":[],"stateMutability":"nonpayable"},{"type":"function","name":"transferOwnership","inputs":[{"name":"newOwner","type":"address","internalType":"address"}],"outputs":[],"stateMutability":"nonpayable"},{"type":"function","name":"updateParameters","inputs":[{"name":"_maxSlippage","type":"uint256","internalType":"uint256"}],"outputs":[],"stateMutability":"nonpayable"},{"type":"function","name":"withdraw","inputs":[{"name":"value","type":"uint256","internalType":"uint256"}],"outputs":[{"name":"wlfiAmount","type":"uint256","internalType":"uint256"},{"name":"usd1Amount","type":"uint256","internalType":"uint256"}],"stateMutability":"nonpayable"},{"type":"event","name":"CharmVaultInitialized","inputs":[{"name":"charmVault","type":"address","indexed":true,"internalType":"address"},{"name":"isNewVault","type":"bool","indexed":false,"internalType":"bool"}],"anonymous":false},{"type":"event","name":"OwnershipTransferred","inputs":[{"name":"previousOwner","type":"address","indexed":true,"internalType":"address"},{"name":"newOwner","type":"address","indexed":true,"internalType":"address"}],"anonymous":false},{"type":"event","name":"StrategyDeposit","inputs":[{"name":"wlfiAmount","type":"uint256","indexed":false,"internalType":"uint256"},{"name":"usd1Amount","type":"uint256","indexed":false,"internalType":"uint256"},{"name":"shares","type":"uint256","indexed":false,"internalType":"uint256"}],"anonymous":false},{"type":"event","name":"StrategyRebalanced","inputs":[{"name":"newTotal0","type":"uint256","indexed":false,"internalType":"uint256"},{"name":"newTotal1","type":"uint256","indexed":false,"internalType":"uint256"}],"anonymous":false},{"type":"event","name":"StrategyWithdraw","inputs":[{"name":"shares","type":"uint256","indexed":false,"internalType":"uint256"},{"name":"wlfiAmount","type":"uint256","indexed":false,"internalType":"uint256"},{"name":"usd1Amount","type":"uint256","indexed":false,"internalType":"uint256"}],"anonymous":false},{"type":"event","name":"TokensSwapped","inputs":[{"name":"tokenIn","type":"address","indexed":true,"internalType":"address"},{"name":"tokenOut","type":"address","indexed":true,"internalType":"address"},{"name":"amountIn","type":"uint256","indexed":false,"internalType":"uint256"},{"name":"amountOut","type":"uint256","indexed":false,"internalType":"uint256"}],"anonymous":false},{"type":"event","name":"UnusedTokensReturned","inputs":[{"name":"wlfiAmount","type":"uint256","indexed":false,"internalType":"uint256"},{"name":"usd1Amount","type":"uint256","indexed":false,"internalType":"uint256"}],"anonymous":false},{"type":"error","name":"AlreadyInitialized","inputs":[]},{"type":"error","name":"InsufficientBalance","inputs":[]},{"type":"error","name":"NotInitialized","inputs":[]},{"type":"error","name":"OnlyVault","inputs":[]},{"type":"error","name":"OwnableInvalidOwner","inputs":[{"name":"owner","type":"address","internalType":"address"}]},{"type":"error","name":"OwnableUnauthorizedAccount","inputs":[{"name":"account","type":"address","internalType":"address"}]},{"type":"error","name":"ReentrancyGuardReentrantCall","inputs":[]},{"type":"error","name":"SafeERC20FailedOperation","inputs":[{"name":"token","type":"address","internalType":"address"}]},{"type":"error","name":"SlippageExceeded","inputs":[]},{"type":"error","name":"StrategyPaused","inputs":[]},{"type":"error","name":"ZeroAddress","inputs":[]}],"bytecode":{"object":"0x6101406040526101f46003553480156200001857600080fd5b5060405162003064380380620030648339810160408190526200003b9162000196565b6001600055806001600160a01b0381166200007057604051631e4fbdf760e01b81526000600482015260240160405180910390fd5b6200007b8162000127565b506001600160a01b03871615806200009a57506001600160a01b038516155b80620000ad57506001600160a01b038416155b80620000c057506001600160a01b038316155b80620000d357506001600160a01b038216155b15620000f25760405163d92e233d60e01b815260040160405180910390fd5b506001600160a01b039586166080529385166101205291841660a052831660c052821660e0521661010052426004556200022b565b600180546001600160a01b038381166001600160a01b0319831681179093556040519116919082907f8be0079c531659141344cd1fd0a4f28419497f9722a3daafe3b4186f6b6457e090600090a35050565b80516001600160a01b03811681146200019157600080fd5b919050565b600080600080600080600060e0888a031215620001b257600080fd5b620001bd8862000179565b9650620001cd6020890162000179565b9550620001dd6040890162000179565b9450620001ed6060890162000179565b9350620001fd6080890162000179565b92506200020d60a0890162000179565b91506200021d60c0890162000179565b905092959891949750929550565b60805160a05160c05160e0516101005161012051612be3620004816000396000818161040601528181610c5c01528181610d130152610e6101526000818161042d015281816105e80152818161063e0152818161069401528181611d8e01528181611e4b01528181611f900152818161208c015281816121cb01528181612288015281816123bf0152818161247c0152818161266e015261272b01526000818161038c015281816106720152818161071901528181610ce001528181610e27015281816115d70152818161171f015281816119d501528181611ded01528181611ec701528181611ff401528181612110015281816121a9015281816122050152818161232e0152818161264c015281816126a801526127d101526000818161029f0152818161061c0152818161125c015281816113520152818161194701528181611aaf01528181611d6c01528181611dc801528181611ef10152818161239d015281816123f901528181612522015281816126cd01526127a70152600081816102f9015281816105c6015281816106dd01528181610cb801528181610dff01528181611201015281816112bc01528181611597015281816116c5015281816118b101528181611a5501528181611f6e01528181611fc50152818161213a0152818161222a015281816123040152818161241e01526124f8015260008181610352015281816107540152818161095901528181610abe0152818161113c015281816112230152818161127e015281816116e7015281816117410152818161185b01528181611a770152611ad10152612be36000f3fe608060405234801561001057600080fd5b50600436106101e55760003560e01c80638c04166f1161010f578063c69b2f37116100a2578063e6ff0a2f11610071578063e6ff0a2f1461047f578063f2fde38b14610492578063f88163a3146104a5578063f8a67a62146104ad57600080fd5b8063c69b2f3714610401578063d826492014610428578063dd1b9c4a1461044f578063e2bbb1581461046c57600080fd5b8063ad5c4648116100de578063ad5c464814610387578063bc5d0bad146103ae578063bf214acd146103c1578063c4a7761e146103f957600080fd5b80638c04166f146103335780638da5cb5b1461033c578063a0b660b51461034d578063a51c237f1461037457600080fd5b8063392e53cd116101875780635e787f19116101565780635e787f19146102f4578063715018a61461031b5780637d7c2a1c146103235780638456cb591461032b57600080fd5b8063392e53cd1461027f5780633ec6620214610287578063443863211461029a57806344b6b11c146102d957600080fd5b8063175fadbe116101c3578063175fadbe146102345780631de288571461024757806327f8eaac1461024f5780632e1a7d4d1461025757600080fd5b806302fb0c5e146101ea578063046f7da214610213578063106b9ca11461021d575b600080fd5b6002546101fe90600160a01b900460ff1681565b60405190151581526020015b60405180910390f35b61021b6104c0565b005b61022660045481565b60405190815260200161020a565b61021b6102423660046128f6565b610506565b610226610527565b61021b6105b1565b61026a610265366004612937565b610746565b6040805192835260208301919091520161020a565b6101fe610a20565b61021b610295366004612937565b610a49565b6102c17f000000000000000000000000000000000000000000000000000000000000000081565b6040516001600160a01b03909116815260200161020a565b6102c173ca2e972f081764c30ae5f012a29d5277eef3383881565b6102c17f000000000000000000000000000000000000000000000000000000000000000081565b61021b610aa1565b61021b610ab3565b61021b610b5f565b61022660035481565b6001546001600160a01b03166102c1565b6102c17f000000000000000000000000000000000000000000000000000000000000000081565b61021b610382366004612950565b610b76565b6102c17f000000000000000000000000000000000000000000000000000000000000000081565b61021b6103bc366004612937565b610c29565b6103ec6040518060400160405280600c81526020016b574c46492f5745544820312560a01b81525081565b60405161020a9190612974565b61026a610f3f565b6102c17f000000000000000000000000000000000000000000000000000000000000000081565b6102c17f000000000000000000000000000000000000000000000000000000000000000081565b61045861271081565b60405162ffffff909116815260200161020a565b61022661047a3660046129c3565b61112f565b6002546102c1906001600160a01b031681565b61021b6104a0366004612950565b611812565b61021b611850565b61021b6104bb3660046129e5565b611b64565b6104c8611ba7565b6002546001600160a01b03166104f1576040516321c4e35760e21b815260040160405180910390fd5b6002805460ff60a01b1916600160a01b179055565b61050e611ba7565b6105226001600160a01b0384168383611bd4565b505050565b6002546000906001600160a01b03166105405750600090565b6002546040516370a0823160e01b81523060048201526001600160a01b03909116906370a0823190602401602060405180830381865afa158015610588573d6000803e3d6000fd5b505050506040513d601f19601f820116820180604052508101906105ac9190612a27565b905090565b6105b9611ba7565b61060f6001600160a01b037f0000000000000000000000000000000000000000000000000000000000000000167f0000000000000000000000000000000000000000000000000000000000000000600019611bd4565b6106656001600160a01b037f0000000000000000000000000000000000000000000000000000000000000000167f0000000000000000000000000000000000000000000000000000000000000000600019611bd4565b6106bb6001600160a01b037f0000000000000000000000000000000000000000000000000000000000000000167f0000000000000000000000000000000000000000000000000000000000000000600019611bd4565b6002546001600160a01b03161561074457600254610708906001600160a01b037f000000000000000000000000000000000000000000000000000000000000000081169116600019611bd4565b600254610744906001600160a01b037f000000000000000000000000000000000000000000000000000000000000000081169116600019611bd4565b565b600080336001600160a01b037f0000000000000000000000000000000000000000000000000000000000000000161461079257604051638d1af8bd60e01b815260040160405180910390fd5b61079a611c98565b826000036107ad57506000905080610a11565b6002546001600160a01b03166107c857506000905080610a11565b6002546040516370a0823160e01b81523060048201526000916001600160a01b0316906370a0823190602401602060405180830381865afa158015610811573d6000803e3d6000fd5b505050506040513d601f19601f820116820180604052508101906108359190612a27565b90508060000361084c576000809250925050610a11565b600080610857610f3f565b909250905060006108688284612a56565b9050600081881061087a575083610892565b816108858987612a69565b61088f9190612a80565b90505b60008561089f8387612a69565b6108a99190612a80565b90506000866108b88487612a69565b6108c29190612a80565b6002546003549192506001600160a01b03169063d331bef7908590612710906108eb9082612aa2565b6108f59087612a69565b6108ff9190612a80565b6127106003546127106109129190612aa2565b61091c9087612a69565b6109269190612a80565b6040516001600160e01b031960e086901b1681526004810193909352602483019190915260448201526001600160a01b037f000000000000000000000000000000000000000000000000000000000000000016606482015260840160408051808303816000875af115801561099f573d6000803e3d6000fd5b505050506040513d601f19601f820116820180604052508101906109c39190612ab5565b6040805186815260208101849052908101829052919a5098507f9b4015fbfa21a538378486da76932c7362cc536aa85cc6d6ddbe3a41fec4f6da9060600160405180910390a1505050505050505b610a1b6001600055565b915091565b600254600090600160a01b900460ff1680156105ac5750506002546001600160a01b0316151590565b610a51611ba7565b6103e8811115610a9c5760405162461bcd60e51b81526020600482015260116024820152700a6d8d2e0e0c2ceca40e8dede40d0d2ced607b1b60448201526064015b60405180910390fd5b600355565b610aa9611ba7565b6107446000611cc2565b336001600160a01b037f00000000000000000000000000000000000000000000000000000000000000001614610afc57604051638d1af8bd60e01b815260040160405180910390fd5b6002546001600160a01b03161561074457600080610b18610f3f565b4260045560408051838152602081018390529294509092507fea234a6aeb16b402d7b401a7a7acf39d7871be5134e4392193eccfda0be6201e910160405180910390a15050565b610b67611ba7565b6002805460ff60a01b19169055565b610b7e611ba7565b6002546001600160a01b031615610ba75760405162dc149f60e41b815260040160405180910390fd5b6001600160a01b038116610bce5760405163d92e233d60e01b815260040160405180910390fd5b600280546001600160a81b0319166001600160a01b038316908117600160a01b17909155604051600081527ffd3467e49b152f14daae78252691e529e693ad052990f05e749c6338e78933389060200160405180910390a250565b610c31611ba7565b6002546001600160a01b031615610c5a5760405162dc149f60e41b815260040160405180910390fd5b7f00000000000000000000000000000000000000000000000000000000000000006001600160a01b0316610ca15760405163d92e233d60e01b815260040160405180910390fd5b6040516372326ea560e11b81526001600160a01b037f0000000000000000000000000000000000000000000000000000000000000000811660048301527f00000000000000000000000000000000000000000000000000000000000000008116602483015261271060448301526000917f00000000000000000000000000000000000000000000000000000000000000009091169063e464dd4a90606401602060405180830381865afa158015610d5c573d6000803e3d6000fd5b505050506040513d601f19601f82011682018060405250810190610d809190612ad9565b90506001600160a01b03811615610de857600280546001600160a01b0319166001600160a01b038316908117909155604051600081527ffd3467e49b152f14daae78252691e529e693ad052990f05e749c6338e78933389060200160405180910390a2610f28565b60405163141b1bc160e21b81526001600160a01b037f0000000000000000000000000000000000000000000000000000000000000000811660048301527f0000000000000000000000000000000000000000000000000000000000000000811660248301526127106044830152606482018490526000917f00000000000000000000000000000000000000000000000000000000000000009091169063506c6f04906084016020604051808303816000875af1158015610eac573d6000803e3d6000fd5b505050506040513d601f19601f82011682018060405250810190610ed09190612ad9565b600280546001600160a01b0319166001600160a01b03831690811790915560405160018152919250907ffd3467e49b152f14daae78252691e529e693ad052990f05e749c6338e78933389060200160405180910390a2505b50506002805460ff60a01b1916600160a01b179055565b6002546000908190600160a01b900460ff161580610f6657506002546001600160a01b0316155b15610f745750600091829150565b6002546040516370a0823160e01b81523060048201526000916001600160a01b0316906370a0823190602401602060405180830381865afa158015610fbd573d6000803e3d6000fd5b505050506040513d601f19601f82011682018060405250810190610fe19190612a27565b905080600003610ff657506000928392509050565b60025460408051636253bb0f60e11b8152815160009384936001600160a01b039091169263c4a7761e92600480830193928290030181865afa158015611040573d6000803e3d6000fd5b505050506040513d601f19601f820116820180604052508101906110649190612ab5565b915091506000600260009054906101000a90046001600160a01b03166001600160a01b03166318160ddd6040518163ffffffff1660e01b8152600401602060405180830381865afa1580156110bd573d6000803e3d6000fd5b505050506040513d601f19601f820116820180604052508101906110e19190612a27565b9050806000036110f957506000958695509350505050565b806111048585612a69565b61110e9190612a80565b95508061111b8584612a69565b6111259190612a80565b9450505050509091565b6000336001600160a01b037f0000000000000000000000000000000000000000000000000000000000000000161461117a57604051638d1af8bd60e01b815260040160405180910390fd5b600254600160a01b900460ff166111a45760405163e628b94960e01b815260040160405180910390fd5b6111ac611c98565b821580156111b8575081155b156111c557506000611802565b6002546001600160a01b03166111ee576040516321c4e35760e21b815260040160405180910390fd5b8215611249576112496001600160a01b037f0000000000000000000000000000000000000000000000000000000000000000167f00000000000000000000000000000000000000000000000000000000000000003086611d14565b81156112a4576112a46001600160a01b037f0000000000000000000000000000000000000000000000000000000000000000167f00000000000000000000000000000000000000000000000000000000000000003085611d14565b6040516370a0823160e01b81523060048201526000907f00000000000000000000000000000000000000000000000000000000000000006001600160a01b0316906370a0823190602401602060405180830381865afa15801561130b573d6000803e3d6000fd5b505050506040513d601f19601f8201168201806040525081019061132f9190612a27565b6040516370a0823160e01b81523060048201529091506000906001600160a01b037f000000000000000000000000000000000000000000000000000000000000000016906370a0823190602401602060405180830381865afa158015611399573d6000803e3d6000fd5b505050506040513d601f19601f820116820180604052508101906113bd9190612a27565b60025460408051636253bb0f60e11b8152815193945060009384936001600160a01b03169263c4a7761e92600480820193918290030181865afa158015611408573d6000803e3d6000fd5b505050506040513d601f19601f8201168201806040525081019061142c9190612ab5565b915091506000806000841180156114435750600083115b1561152e576000846114558589612a69565b61145f9190612a80565b905085156115205761147086611d4d565b9150808210156114df5760006114868383612aa2565b90506000856114958884612a69565b61149f9190612a80565b9050888110156114d45760006114b482611f4f565b90506114c08186612a56565b94506114cc828b612aa2565b9550506114d8565b8894505b5050611528565b808211156115185760006114f38284612aa2565b905060006115008261218a565b905061150c818a612a56565b94508293505050611528565b869250611528565b869250600091505b5061157e565b8415611577576000611541600287612a80565b9050600061154e8261237e565b905061155a8189612a56565b935061156e6115698389612aa2565b611d4d565b9250505061157e565b5084905060005b818181156115c0576002546115c0906001600160a01b037f00000000000000000000000000000000000000000000000000000000000000008116911684612572565b801561160057600254611600906001600160a01b037f00000000000000000000000000000000000000000000000000000000000000008116911683612572565b60025460405163365d0ed760e01b81526004810184905260248101839052600060448201819052606482018190523060848301529182916001600160a01b039091169063365d0ed79060a4016060604051808303816000875af115801561166b573d6000803e3d6000fd5b505050506040513d601f19601f8201168201806040525081019061168f9190612af6565b919c509250905060006116a28386612aa2565b905060006116b08386612aa2565b9050811561170c5761170c6001600160a01b037f0000000000000000000000000000000000000000000000000000000000000000167f0000000000000000000000000000000000000000000000000000000000000000846125fc565b8015611766576117666001600160a01b037f0000000000000000000000000000000000000000000000000000000000000000167f0000000000000000000000000000000000000000000000000000000000000000836125fc565b60008211806117755750600081115b156117b45760408051838152602081018390527f4f3aef3cf11fd9405846420fd580666c49868d4f5c814b48ec46092b91a1b9cb910160405180910390a15b60408051858152602081018590529081018e90527fe92d6d2dfb3946d2655ac9a4ed7e724c4bcf0d2d993c5ab9b70e9a4785bd20559060600160405180910390a15050505050505050505050505b61180c6001600055565b92915050565b61181a611ba7565b6001600160a01b03811661184457604051631e4fbdf760e01b815260006004820152602401610a93565b61184d81611cc2565b50565b336001600160a01b037f0000000000000000000000000000000000000000000000000000000000000000161461189957604051638d1af8bd60e01b815260040160405180910390fd5b6040516370a0823160e01b81523060048201526000907f00000000000000000000000000000000000000000000000000000000000000006001600160a01b0316906370a0823190602401602060405180830381865afa158015611900573d6000803e3d6000fd5b505050506040513d601f19601f820116820180604052508101906119249190612a27565b6040516370a0823160e01b81523060048201529091506000906001600160a01b037f000000000000000000000000000000000000000000000000000000000000000016906370a0823190602401602060405180830381865afa15801561198e573d6000803e3d6000fd5b505050506040513d601f19601f820116820180604052508101906119b29190612a27565b6040516370a0823160e01b81523060048201529091506000906001600160a01b037f000000000000000000000000000000000000000000000000000000000000000016906370a0823190602401602060405180830381865afa158015611a1c573d6000803e3d6000fd5b505050506040513d601f19601f82011682018060405250810190611a409190612a27565b90508215611a9c57611a9c6001600160a01b037f0000000000000000000000000000000000000000000000000000000000000000167f0000000000000000000000000000000000000000000000000000000000000000856125fc565b8115611af657611af66001600160a01b037f0000000000000000000000000000000000000000000000000000000000000000167f0000000000000000000000000000000000000000000000000000000000000000846125fc565b8015611b0757611b058161262d565b505b6000831180611b165750600082115b80611b215750600081115b156105225760408051848152602081018490527f4f3aef3cf11fd9405846420fd580666c49868d4f5c814b48ec46092b91a1b9cb910160405180910390a1505050565b611b6c611ba7565b6001600160a01b038116611b935760405163d92e233d60e01b815260040160405180910390fd5b6105226001600160a01b03841682846125fc565b6001546001600160a01b031633146107445760405163118cdaa760e01b8152336004820152602401610a93565b604080516001600160a01b038416602482015260448082018490528251808303909101815260649091019091526020810180516001600160e01b031663095ea7b360e01b179052611c258482612821565b611c92576040516001600160a01b03848116602483015260006044830152611c8891869182169063095ea7b3906064015b604051602081830303815290604052915060e01b6020820180516001600160e01b038381831617835250505050612870565b611c928482612870565b50505050565b600260005403611cbb57604051633ee5aeb560e01b815260040160405180910390fd5b6002600055565b600180546001600160a01b038381166001600160a01b0319831681179093556040519116919082907f8be0079c531659141344cd1fd0a4f28419497f9722a3daafe3b4186f6b6457e090600090a35050565b6040516001600160a01b038481166024830152838116604483015260648201839052611c929186918216906323b872dd90608401611c56565b600081600003611d5f57506000919050565b611db36001600160a01b037f0000000000000000000000000000000000000000000000000000000000000000167f000000000000000000000000000000000000000000000000000000000000000084612572565b60408051610100810182526001600160a01b037f0000000000000000000000000000000000000000000000000000000000000000811682527f000000000000000000000000000000000000000000000000000000000000000081166020830152610bb88284015230606083015242608083015260a08201859052600060c0830181905260e0830152915163414bf38960e01b815290917f0000000000000000000000000000000000000000000000000000000000000000169063414bf38990611e80908490600401612b24565b6020604051808303816000875af1158015611e9f573d6000803e3d6000fd5b505050506040513d601f19601f82011682018060405250810190611ec39190612a27565b91507f00000000000000000000000000000000000000000000000000000000000000006001600160a01b03167f00000000000000000000000000000000000000000000000000000000000000006001600160a01b0316600080516020612b8e8339815191528585604051611f41929190918252602082015260400190565b60405180910390a350919050565b600081600003611f6157506000919050565b611fb56001600160a01b037f0000000000000000000000000000000000000000000000000000000000000000167f000000000000000000000000000000000000000000000000000000000000000084612572565b60006040518061010001604052807f00000000000000000000000000000000000000000000000000000000000000006001600160a01b031681526020017f00000000000000000000000000000000000000000000000000000000000000006001600160a01b0316815260200161271062ffffff168152602001306001600160a01b0316815260200142815260200184815260200161271060035461271061205c9190612aa2565b6120669087612a69565b6120709190612a80565b8152600060209091015260405163414bf38960e01b81529091507f00000000000000000000000000000000000000000000000000000000000000006001600160a01b03169063414bf389906120c9908490600401612b24565b6020604051808303816000875af11580156120e8573d6000803e3d6000fd5b505050506040513d601f19601f8201168201806040525081019061210c9190612a27565b91507f00000000000000000000000000000000000000000000000000000000000000006001600160a01b03167f00000000000000000000000000000000000000000000000000000000000000006001600160a01b0316600080516020612b8e8339815191528585604051611f41929190918252602082015260400190565b60008160000361219c57506000919050565b6121f06001600160a01b037f0000000000000000000000000000000000000000000000000000000000000000167f000000000000000000000000000000000000000000000000000000000000000084612572565b60408051610100810182526001600160a01b037f0000000000000000000000000000000000000000000000000000000000000000811682527f0000000000000000000000000000000000000000000000000000000000000000811660208301526127108284015230606083015242608083015260a08201859052600060c0830181905260e0830152915163414bf38960e01b815290917f0000000000000000000000000000000000000000000000000000000000000000169063414bf389906122bd908490600401612b24565b6020604051808303816000875af11580156122dc573d6000803e3d6000fd5b505050506040513d601f19601f820116820180604052508101906123009190612a27565b91507f00000000000000000000000000000000000000000000000000000000000000006001600160a01b03167f00000000000000000000000000000000000000000000000000000000000000006001600160a01b0316600080516020612b8e8339815191528585604051611f41929190918252602082015260400190565b60008160000361239057506000919050565b6123e46001600160a01b037f0000000000000000000000000000000000000000000000000000000000000000167f000000000000000000000000000000000000000000000000000000000000000084612572565b60408051610100810182526001600160a01b037f0000000000000000000000000000000000000000000000000000000000000000811682527f0000000000000000000000000000000000000000000000000000000000000000811660208301526127108284015230606083015242608083015260a08201859052600060c0830181905260e0830152915163414bf38960e01b815290917f0000000000000000000000000000000000000000000000000000000000000000169063414bf389906124b1908490600401612b24565b6020604051808303816000875af11580156124d0573d6000803e3d6000fd5b505050506040513d601f19601f820116820180604052508101906124f49190612a27565b91507f00000000000000000000000000000000000000000000000000000000000000006001600160a01b03167f00000000000000000000000000000000000000000000000000000000000000006001600160a01b0316600080516020612b8e8339815191528585604051611f41929190918252602082015260400190565b604051636eb1769f60e11b81523060048201526001600160a01b0383811660248301526000919085169063dd62ed3e90604401602060405180830381865afa1580156125c2573d6000803e3d6000fd5b505050506040513d601f19601f820116820180604052508101906125e69190612a27565b9050611c9284846125f78585612a56565b611bd4565b6040516001600160a01b0383811660248301526044820183905261052291859182169063a9059cbb90606401611c56565b60008160000361263f57506000919050565b6126936001600160a01b037f0000000000000000000000000000000000000000000000000000000000000000167f000000000000000000000000000000000000000000000000000000000000000084612572565b60408051610100810182526001600160a01b037f0000000000000000000000000000000000000000000000000000000000000000811682527f0000000000000000000000000000000000000000000000000000000000000000811660208301526101f48284015230606083015242608083015260a08201859052600060c0830181905260e0830152915163414bf38960e01b815290917f0000000000000000000000000000000000000000000000000000000000000000169063414bf38990612760908490600401612b24565b6020604051808303816000875af115801561277f573d6000803e3d6000fd5b505050506040513d601f19601f820116820180604052508101906127a39190612a27565b91507f00000000000000000000000000000000000000000000000000000000000000006001600160a01b03167f00000000000000000000000000000000000000000000000000000000000000006001600160a01b0316600080516020612b8e8339815191528585604051611f41929190918252602082015260400190565b6000806000806020600086516020880160008a5af192503d91506000519050828015612866575081156128575780600114612866565b6000866001600160a01b03163b115b9695505050505050565b600080602060008451602086016000885af180612893576040513d6000823e3d81fd5b50506000513d915081156128ab5780600114156128b8565b6001600160a01b0384163b155b15611c9257604051635274afe760e01b81526001600160a01b0385166004820152602401610a93565b6001600160a01b038116811461184d57600080fd5b60008060006060848603121561290b57600080fd5b8335612916816128e1565b92506020840135612926816128e1565b929592945050506040919091013590565b60006020828403121561294957600080fd5b5035919050565b60006020828403121561296257600080fd5b813561296d816128e1565b9392505050565b60006020808352835180602085015260005b818110156129a257858101830151858201604001528201612986565b506000604082860101526040601f19601f8301168501019250505092915050565b600080604083850312156129d657600080fd5b50508035926020909101359150565b6000806000606084860312156129fa57600080fd5b8335612a05816128e1565b9250602084013591506040840135612a1c816128e1565b809150509250925092565b600060208284031215612a3957600080fd5b5051919050565b634e487b7160e01b600052601160045260246000fd5b8082018082111561180c5761180c612a40565b808202811582820484141761180c5761180c612a40565b600082612a9d57634e487b7160e01b600052601260045260246000fd5b500490565b8181038181111561180c5761180c612a40565b60008060408385031215612ac857600080fd5b505080516020909101519092909150565b600060208284031215612aeb57600080fd5b815161296d816128e1565b600080600060608486031215612b0b57600080fd5b8351925060208401519150604084015190509250925092565b81516001600160a01b03908116825260208084015182169083015260408084015162ffffff16908301526060808401518216908301526080808401519083015260a0838101519083015260c0808401519083015260e0928301511691810191909152610100019056fe25f1d03755df23c30e25db2dbd3891e31ce084bdfbfc46f9fe5e446ee5f9b2d4a26469706673582212201589620789825402700ddc1b03c1b2fe68006828b6e22f550db1f6a4ccb1bd7064736f6c63430008160033","linkReferences":{}},"methodIdentifiers":{"CHARM_FACTORY()":"c69b2f37","EAGLE_VAULT()":"a0b660b5","POOL_DESCRIPTION()":"bf214acd","POOL_FEE()":"dd1b9c4a","UNISWAP_ROUTER()":"d8264920","UNISWAP_V3_POOL()":"44b6b11c","USD1()":"44386321","WETH()":"ad5c4648","WLFI()":"5e787f19","active()":"02fb0c5e","charmVault()":"e6ff0a2f","deposit(uint256,uint256)":"e2bbb158","getShareBalance()":"1de28857","getTotalAmounts()":"c4a7761e","initializeApprovals()":"27f8eaac","initializeWithExistingVault(address)":"a51c237f","initializeWithNewVault(uint256)":"bc5d0bad","isInitialized()":"392e53cd","lastRebalance()":"106b9ca1","maxSlippage()":"8c04166f","owner()":"8da5cb5b","pause()":"8456cb59","rebalance()":"7d7c2a1c","renounceOwnership()":"715018a6","rescueIdleTokens()":"f88163a3","rescueToken(address,uint256,address)":"f8a67a62","resume()":"046f7da2","setTokenApproval(address,address,uint256)":"175fadbe","transferOwnership(address)":"f2fde38b","updateParameters(uint256)":"3ec66202","withdraw(uint256)":"2e1a7d4d"},"id":20}