{"abi":[{"type":"constructor","inputs":[{"name":"_registry","type":"address","internalType":"address"}],"stateMutability":"nonpayable"},{"type":"function","name":"CREATE2_FACTORY","inputs":[],"outputs":[{"name":"","type":"address","internalType":"contract ICREATE2Factory"}],"stateMutability":"view"},{"type":"function","name":"deployEagle","inputs":[{"name":"salt","type":"bytes32","internalType":"bytes32"},{"name":"name","type":"string","internalType":"string"},{"name":"symbol","type":"string","internalType":"string"},{"name":"delegate","type":"address","internalType":"address"}],"outputs":[{"name":"eagle","type":"address","internalType":"address"}],"stateMutability":"nonpayable"},{"type":"function","name":"deployEagleWithEndpoint","inputs":[{"name":"salt","type":"bytes32","internalType":"bytes32"},{"name":"name","type":"string","internalType":"string"},{"name":"symbol","type":"string","internalType":"string"},{"name":"lzEndpoint","type":"address","internalType":"address"},{"name":"delegate","type":"address","internalType":"address"}],"outputs":[{"name":"eagle","type":"address","internalType":"address"}],"stateMutability":"nonpayable"},{"type":"function","name":"generateSalt","inputs":[{"name":"saltString","type":"string","internalType":"string"}],"outputs":[{"name":"","type":"bytes32","internalType":"bytes32"}],"stateMutability":"pure"},{"type":"function","name":"getCurrentChainId","inputs":[],"outputs":[{"name":"","type":"uint16","internalType":"uint16"}],"stateMutability":"view"},{"type":"function","name":"getCurrentLayerZeroEndpoint","inputs":[],"outputs":[{"name":"","type":"address","internalType":"address"}],"stateMutability":"view"},{"type":"function","name":"getLayerZeroEndpoint","inputs":[{"name":"chainId","type":"uint16","internalType":"uint16"}],"outputs":[{"name":"","type":"address","internalType":"address"}],"stateMutability":"view"},{"type":"function","name":"getStandardSalt","inputs":[],"outputs":[{"name":"","type":"bytes32","internalType":"bytes32"}],"stateMutability":"pure"},{"type":"function","name":"isChainSupported","inputs":[{"name":"chainId","type":"uint16","internalType":"uint16"}],"outputs":[{"name":"","type":"bool","internalType":"bool"}],"stateMutability":"view"},{"type":"function","name":"isEagleDeployed","inputs":[{"name":"salt","type":"bytes32","internalType":"bytes32"},{"name":"name","type":"string","internalType":"string"},{"name":"symbol","type":"string","internalType":"string"},{"name":"delegate","type":"address","internalType":"address"}],"outputs":[{"name":"","type":"bool","internalType":"bool"}],"stateMutability":"view"},{"type":"function","name":"isEagleDeployedWithEndpoint","inputs":[{"name":"salt","type":"bytes32","internalType":"bytes32"},{"name":"name","type":"string","internalType":"string"},{"name":"symbol","type":"string","internalType":"string"},{"name":"lzEndpoint","type":"address","internalType":"address"},{"name":"delegate","type":"address","internalType":"address"}],"outputs":[{"name":"","type":"bool","internalType":"bool"}],"stateMutability":"view"},{"type":"function","name":"predictEagleAddress","inputs":[{"name":"salt","type":"bytes32","internalType":"bytes32"},{"name":"name","type":"string","internalType":"string"},{"name":"symbol","type":"string","internalType":"string"},{"name":"delegate","type":"address","internalType":"address"}],"outputs":[{"name":"","type":"address","internalType":"address"}],"stateMutability":"view"},{"type":"function","name":"predictEagleAddressWithEndpoint","inputs":[{"name":"salt","type":"bytes32","internalType":"bytes32"},{"name":"name","type":"string","internalType":"string"},{"name":"symbol","type":"string","internalType":"string"},{"name":"lzEndpoint","type":"address","internalType":"address"},{"name":"delegate","type":"address","internalType":"address"}],"outputs":[{"name":"","type":"address","internalType":"address"}],"stateMutability":"pure"},{"type":"function","name":"predictMultiChainAddresses","inputs":[{"name":"salt","type":"bytes32","internalType":"bytes32"},{"name":"name","type":"string","internalType":"string"},{"name":"symbol","type":"string","internalType":"string"},{"name":"delegate","type":"address","internalType":"address"},{"name":"chainIds","type":"uint16[]","internalType":"uint16[]"}],"outputs":[{"name":"addresses","type":"address[]","internalType":"address[]"}],"stateMutability":"view"},{"type":"function","name":"registry","inputs":[],"outputs":[{"name":"","type":"address","internalType":"contract IChainRegistry"}],"stateMutability":"view"},{"type":"event","name":"DeploymentPredicted","inputs":[{"name":"predictedAddress","type":"address","indexed":true,"internalType":"address"},{"name":"salt","type":"bytes32","indexed":true,"internalType":"bytes32"},{"name":"chainId","type":"uint16","indexed":false,"internalType":"uint16"}],"anonymous":false},{"type":"event","name":"EagleDeployed","inputs":[{"name":"eagle","type":"address","indexed":true,"internalType":"address"},{"name":"salt","type":"bytes32","indexed":true,"internalType":"bytes32"},{"name":"name","type":"string","indexed":false,"internalType":"string"},{"name":"symbol","type":"string","indexed":false,"internalType":"string"},{"name":"lzEndpoint","type":"address","indexed":true,"internalType":"address"},{"name":"chainId","type":"uint16","indexed":false,"internalType":"uint16"}],"anonymous":false},{"type":"error","name":"ChainNotSupported","inputs":[{"name":"chainId","type":"uint16","internalType":"uint16"}]},{"type":"error","name":"DeploymentFailed","inputs":[]},{"type":"error","name":"InvalidDelegate","inputs":[]},{"type":"error","name":"InvalidEndpoint","inputs":[]},{"type":"error","name":"InvalidName","inputs":[]},{"type":"error","name":"InvalidRegistry","inputs":[]},{"type":"error","name":"InvalidSymbol","inputs":[]}],"bytecode":{"object":"0x60a060405234801561001057600080fd5b50604051620075783803806200757883398101604081905261003191610069565b6001600160a01b038116610058576040516311a1e69760e01b815260040160405180910390fd5b6001600160a01b0316608052610099565b60006020828403121561007b57600080fd5b81516001600160a01b038116811461009257600080fd5b9392505050565b60805161746f620001096000396000818161020901528181610311015281816103920152818161043c015281816104f3015281816105800152818161061f015281816106b7015281816107a101528181610840015281816108fa01528181610cc70152610e06015261746f6000f3fe60806040523480156200001157600080fd5b5060043610620001095760003560e01c80637b10399911620000a3578063c03eda4e116200006e578063c03eda4e1462000263578063f1505929146200027a578063f28df22e14620002a0578063f5d5637414620002b757600080fd5b80637b1039991462000203578063887120d5146200022b578063b87f29e11462000235578063bfbc7d14146200024c57600080fd5b80633d8d3e6911620000e45780633d8d3e69146200018157806351279b3e14620001b25780635cf0e8a414620001c957806364dac83d14620001e757600080fd5b8063182a1302146200010e57806328f41de3146200013a578063344d978d1462000151575b600080fd5b620001256200011f36600462001118565b620002ce565b60405190151581526020015b60405180910390f35b620001256200014b366004620011b2565b620002f5565b620001686200016236600462001118565b6200038d565b6040516001600160a01b03909116815260200162000131565b7fea32025ed70fa7f027e5152984339bedf54fea095913f92e44f2279615e41c2d5b60405190815260200162000131565b62000125620001c3366004620011d9565b620004c6565b620001d3620004ef565b60405161ffff909116815260200162000131565b62000168734e59b44847b379578588920ca78fbf26c0b4956c81565b620001687f000000000000000000000000000000000000000000000000000000000000000081565b620001686200057b565b6200016862000246366004620011b2565b6200069b565b620001686200025d36600462001118565b6200072d565b6200016862000274366004620011d9565b62000b11565b620002916200028b36600462001279565b62000da9565b604051620001319190620013aa565b620001a3620002b1366004620013f9565b62000f0d565b62000168620002c8366004620011d9565b62000f3f565b600080620002df868686866200038d565b6001600160a01b03163b15159695505050505050565b6040516328f41de360e01b815261ffff821660048201526000907f00000000000000000000000000000000000000000000000000000000000000006001600160a01b0316906328f41de390602401602060405180830381865afa15801562000361573d6000803e3d6000fd5b505050506040513d601f19601f820116820180604052508101906200038791906200143a565b92915050565b6000807f00000000000000000000000000000000000000000000000000000000000000006001600160a01b0316635cf0e8a46040518163ffffffff1660e01b8152600401602060405180830381865afa158015620003ef573d6000803e3d6000fd5b505050506040513d601f19601f820116820180604052508101906200041591906200145e565b60405163b87f29e160e01b815261ffff821660048201529091506000906001600160a01b037f0000000000000000000000000000000000000000000000000000000000000000169063b87f29e190602401602060405180830381865afa15801562000484573d6000803e3d6000fd5b505050506040513d601f19601f82011682018060405250810190620004aa91906200147e565b9050620004bb878787848862000f5a565b979650505050505050565b600080620004d8878787878762000f3f565b6001600160a01b03163b1515979650505050505050565b60007f00000000000000000000000000000000000000000000000000000000000000006001600160a01b0316635cf0e8a46040518163ffffffff1660e01b8152600401602060405180830381865afa15801562000550573d6000803e3d6000fd5b505050506040513d601f19601f820116820180604052508101906200057691906200145e565b905090565b6000807f00000000000000000000000000000000000000000000000000000000000000006001600160a01b0316635cf0e8a46040518163ffffffff1660e01b8152600401602060405180830381865afa158015620005dd573d6000803e3d6000fd5b505050506040513d601f19601f820116820180604052508101906200060391906200145e565b60405163b87f29e160e01b815261ffff821660048201529091507f00000000000000000000000000000000000000000000000000000000000000006001600160a01b03169063b87f29e190602401602060405180830381865afa1580156200066f573d6000803e3d6000fd5b505050506040513d601f19601f820116820180604052508101906200069591906200147e565b91505090565b60405163b87f29e160e01b815261ffff821660048201526000907f00000000000000000000000000000000000000000000000000000000000000006001600160a01b03169063b87f29e190602401602060405180830381865afa15801562000707573d6000803e3d6000fd5b505050506040513d601f19601f820116820180604052508101906200038791906200147e565b60006001600160a01b0382166200075757604051632d618d8160e21b815260040160405180910390fd5b83516000036200077a5760405163430f13b360e01b815260040160405180910390fd5b82516000036200079d5760405163010466f160e21b815260040160405180910390fd5b60007f00000000000000000000000000000000000000000000000000000000000000006001600160a01b0316635cf0e8a46040518163ffffffff1660e01b8152600401602060405180830381865afa158015620007fe573d6000803e3d6000fd5b505050506040513d601f19601f820116820180604052508101906200082491906200145e565b6040516328f41de360e01b815261ffff821660048201529091507f00000000000000000000000000000000000000000000000000000000000000006001600160a01b0316906328f41de390602401602060405180830381865afa15801562000890573d6000803e3d6000fd5b505050506040513d601f19601f82011682018060405250810190620008b691906200143a565b620008de5760405163ec2a2f0f60e01b815261ffff8216600482015260240160405180910390fd5b60405163b87f29e160e01b815261ffff821660048201526000907f00000000000000000000000000000000000000000000000000000000000000006001600160a01b03169063b87f29e190602401602060405180830381865afa1580156200094a573d6000803e3d6000fd5b505050506040513d601f19601f820116820180604052508101906200097091906200147e565b90506001600160a01b0381166200099a5760405163f1cbb56760e01b815260040160405180910390fd5b600060405180602001620009ae9062001030565b601f1982820381018352601f909101166040819052620009d9908990899086908a90602001620014f2565b60408051601f1981840301815290829052620009f9929160200162001540565b60408051601f198184030181529082905263257b1f8160e11b82529150734e59b44847b379578588920ca78fbf26c0b4956c90634af63f029062000a449084908c9060040162001573565b6020604051808303816000875af115801562000a64573d6000803e3d6000fd5b505050506040513d601f19601f8201168201806040525081019062000a8a91906200147e565b93506001600160a01b03841662000ab457604051633011642560e01b815260040160405180910390fd5b816001600160a01b031688856001600160a01b03167fa4ab65afb91cd16bfa6c7126c2a53e2055a5256b8da116651729d26fbad3e8da8a8a8860405162000afe9392919062001597565b60405180910390a4505050949350505050565b60006001600160a01b03831662000b3b5760405163f1cbb56760e01b815260040160405180910390fd5b6001600160a01b03821662000b6357604051632d618d8160e21b815260040160405180910390fd5b845160000362000b865760405163430f13b360e01b815260040160405180910390fd5b835160000362000ba95760405163010466f160e21b815260040160405180910390fd5b60006040518060200162000bbd9062001030565b601f1982820381018352601f90910116604081905262000be8908890889088908890602001620014f2565b60408051601f198184030181529082905262000c08929160200162001540565b60408051601f198184030181529082905263257b1f8160e11b82529150734e59b44847b379578588920ca78fbf26c0b4956c90634af63f029062000c539084908b9060040162001573565b6020604051808303816000875af115801562000c73573d6000803e3d6000fd5b505050506040513d601f19601f8201168201806040525081019062000c9991906200147e565b91506001600160a01b03821662000cc357604051633011642560e01b815260040160405180910390fd5b60007f00000000000000000000000000000000000000000000000000000000000000006001600160a01b0316635cf0e8a46040518163ffffffff1660e01b8152600401602060405180830381865afa15801562000d24573d6000803e3d6000fd5b505050506040513d601f19601f8201168201806040525081019062000d4a91906200145e565b9050846001600160a01b031688846001600160a01b03167fa4ab65afb91cd16bfa6c7126c2a53e2055a5256b8da116651729d26fbad3e8da8a8a8660405162000d969392919062001597565b60405180910390a4505095945050505050565b6060815167ffffffffffffffff81111562000dc85762000dc86200103e565b60405190808252806020026020018201604052801562000df2578160200160208202803683370190505b50905060005b825181101562000f035760007f00000000000000000000000000000000000000000000000000000000000000006001600160a01b031663b87f29e185848151811062000e485762000e48620015d5565b60200260200101516040518263ffffffff1660e01b815260040162000e77919061ffff91909116815260200190565b602060405180830381865afa15801562000e95573d6000803e3d6000fd5b505050506040513d601f19601f8201168201806040525081019062000ebb91906200147e565b905062000ecc888888848962000f5a565b83838151811062000ee15762000ee1620015d5565b6001600160a01b03909216602092830291909101909101525060010162000df8565b5095945050505050565b60008160405160200162000f229190620015eb565b604051602081830303815290604052805190602001209050919050565b600062000f50868686868662000f5a565b9695505050505050565b6000806040518060200162000f6f9062001030565b601f1982820381018352601f90910116604081905262000f9a908890889088908890602001620014f2565b60408051601f198184030181529082905262000fba929160200162001540565b60408051601f1981840301815282825280516020918201206001600160f81b0319828501527313966d1211ecde55e162248329e3efc9b02d255b60621b6021850152603584019a909a5260558084019a909a528151808403909a018a526075909201905287519701969096209695505050505050565b615e30806200160a83390190565b634e487b7160e01b600052604160045260246000fd5b604051601f8201601f1916810167ffffffffffffffff811182821017156200108057620010806200103e565b604052919050565b600082601f8301126200109a57600080fd5b813567ffffffffffffffff811115620010b757620010b76200103e565b620010cc601f8201601f191660200162001054565b818152846020838601011115620010e257600080fd5b816020850160208301376000918101602001919091529392505050565b6001600160a01b03811681146200111557600080fd5b50565b600080600080608085870312156200112f57600080fd5b84359350602085013567ffffffffffffffff808211156200114f57600080fd5b6200115d8883890162001088565b945060408701359150808211156200117457600080fd5b50620011838782880162001088565b92505060608501356200119681620010ff565b939692955090935050565b61ffff811681146200111557600080fd5b600060208284031215620011c557600080fd5b8135620011d281620011a1565b9392505050565b600080600080600060a08688031215620011f257600080fd5b85359450602086013567ffffffffffffffff808211156200121257600080fd5b6200122089838a0162001088565b955060408801359150808211156200123757600080fd5b50620012468882890162001088565b93505060608601356200125981620010ff565b915060808601356200126b81620010ff565b809150509295509295909350565b600080600080600060a086880312156200129257600080fd5b8535945060208087013567ffffffffffffffff80821115620012b357600080fd5b620012c18a838b0162001088565b96506040890135915080821115620012d857600080fd5b620012e68a838b0162001088565b955060608901359150620012fa82620010ff565b909350608088013590808211156200131157600080fd5b818901915089601f8301126200132657600080fd5b8135818111156200133b576200133b6200103e565b8060051b91506200134e84830162001054565b818152918301840191848101908c8411156200136957600080fd5b938501935b838510156200139757843592506200138683620011a1565b82825293850193908501906200136e565b8096505050505050509295509295909350565b6020808252825182820181905260009190848201906040850190845b81811015620013ed5783516001600160a01b031683529284019291840191600101620013c6565b50909695505050505050565b6000602082840312156200140c57600080fd5b813567ffffffffffffffff8111156200142457600080fd5b620014328482850162001088565b949350505050565b6000602082840312156200144d57600080fd5b81518015158114620011d257600080fd5b6000602082840312156200147157600080fd5b8151620011d281620011a1565b6000602082840312156200149157600080fd5b8151620011d281620010ff565b60005b83811015620014bb578181015183820152602001620014a1565b50506000910152565b60008151808452620014de8160208601602086016200149e565b601f01601f19169290920160200192915050565b608081526000620015076080830187620014c4565b82810360208401526200151b8187620014c4565b6001600160a01b03958616604085015293909416606090920191909152509392505050565b60008351620015548184602088016200149e565b8351908301906200156a8183602088016200149e565b01949350505050565b604081526000620015886040830185620014c4565b90508260208301529392505050565b606081526000620015ac6060830186620014c4565b8281036020840152620015c08186620014c4565b91505061ffff83166040830152949350505050565b634e487b7160e01b600052603260045260246000fd5b60008251620015ff8184602087016200149e565b919091019291505056fe6101006040523480156200001257600080fd5b5060405162005e3038038062005e30833981016040819052620000359162000829565b85856001600160a01b0385166200004d578562000058565b6200005885620003c9565b84838360128484818181818e6001600160a01b0381166200009357604051631e4fbdf760e01b81526000600482015260240160405180910390fd5b6200009e8162000529565b506001600160a01b038083166080528116620000cd57604051632d618d8160e21b815260040160405180910390fd5b60805160405163ca5eb5e160e01b81526001600160a01b0383811660048301529091169063ca5eb5e190602401600060405180830381600087803b1580156200011557600080fd5b505af11580156200012a573d6000803e3d6000fd5b5050505050505050620001426200057960201b60201c565b60ff168360ff16101562000169576040516301e9714b60e41b815260040160405180910390fd5b6200017660068462000994565b6200018390600a62000ab3565b60a0525060089150620001999050838262000b4f565b506009620001a8828262000b4f565b5050506001600160a01b0386169350620001d9925050505760405163d92e233d60e01b815260040160405180910390fd5b6001600160a01b0383161562000334576001600160a01b03831660c08190526040805163173c3a2960e21b8152905160009291635cf0e8a49160048083019260209291908290030181865afa15801562000237573d6000803e3d6000fd5b505050506040513d601f19601f820116820180604052508101906200025d919062000c1b565b60c05160405163eba8cf8d60e01b815261ffff831660048201529192506001600160a01b03169063eba8cf8d90602401602060405180830381865afa158015620002ab573d6000803e3d6000fd5b505050506040513d601f19601f82011682018060405250810190620002d1919062000c39565b63ffffffff1660e0819052608051604080516001600160a01b039283168152602081019390935246908301528516907f71f0f4b6c4ad65e239dc76c2862af3952df2f8cb354c84bbf9419eaf7a7d67989060600160405180910390a25062000366565b600060c081905260e0526001600160a01b038416620003665760405163d92e233d60e01b815260040160405180910390fd5b60808101516001600160a01b031615620003855762000385816200057e565b506001600160a01b03166000908152601160205260408082208054600160ff19918216811790925530845291909220805490911690911790555062000ca492505050565b60006001600160a01b038216620003f35760405163d92e233d60e01b815260040160405180910390fd5b816001600160a01b0316635cf0e8a46040518163ffffffff1660e01b8152600401602060405180830381865afa92505050801562000450575060408051601f3d908101601f191682019092526200044d9181019062000c1b565b60015b6200046e5760405163172f273360e21b815260040160405180910390fd5b60405163b87f29e160e01b815261ffff821660048201526001600160a01b0384169063b87f29e190602401602060405180830381865afa925050508015620004d5575060408051601f3d908101601f19168201909252620004d29181019062000c61565b60015b620004f35760405163172f273360e21b815260040160405180910390fd5b6001600160a01b0381166200051b57604051634cffccf360e01b815260040160405180910390fd5b9392505050565b505b919050565b600080546001600160a01b038381166001600160a01b0319831681178455604051919092169283917f8be0079c531659141344cd1fd0a4f28419497f9722a3daafe3b4186f6b6457e09190a35050565b600690565b6103e8816000015161ffff161180620005a057506103e8816020015161ffff16115b15620005bf576040516312f7b37560e11b815260040160405180910390fd5b61271081606001518260400151620005d8919062000c7f565b61ffff1614620005fb5760405163d138b13f60e01b815260040160405180910390fd5b60808101516001600160a01b03161580156200061857508060c001515b156200063757604051630ed1b8b360e31b815260040160405180910390fd5b8051600b805460208401516040850151606086015160808701516001600160a01b039081166801000000000000000002600160401b600160e01b031961ffff93841666010000000000000261ffff60301b19958516640100000000029590951663ffffffff60201b19968516620100000263ffffffff199098169490991693909317959095179390931695909517179390931617905560a0820151600c805460c0909401511515600160a01b026001600160a81b03199094169190921617919091179055565b634e487b7160e01b600052604160045260246000fd5b60405160e081016001600160401b0381118282101715620007385762000738620006fd565b60405290565b604051601f8201601f191681016001600160401b0381118282101715620007695762000769620006fd565b604052919050565b600082601f8301126200078357600080fd5b81516001600160401b038111156200079f576200079f620006fd565b6020620007b5601f8301601f191682016200073e565b8281528582848701011115620007ca57600080fd5b60005b83811015620007ea578581018301518282018401528201620007cd565b506000928101909101919091529392505050565b80516001600160a01b03811681146200052457600080fd5b805161ffff811681146200052457600080fd5b6000806000806000808688036101808112156200084557600080fd5b87516001600160401b03808211156200085d57600080fd5b6200086b8b838c0162000771565b985060208a01519150808211156200088257600080fd5b50620008918a828b0162000771565b965050620008a260408901620007fe565b9450620008b260608901620007fe565b9350620008c260808901620007fe565b925060e0609f1982011215620008d757600080fd5b50620008e262000713565b620008f060a0890162000816565b81526200090060c0890162000816565b60208201526200091360e0890162000816565b604082015262000927610100890162000816565b60608201526200093b6101208901620007fe565b60808201526200094f6101408901620007fe565b60a082015261016088015180151581146200096957600080fd5b8060c083015250809150509295509295509295565b634e487b7160e01b600052601160045260246000fd5b60ff8281168282160390811115620009b057620009b06200097e565b92915050565b600181815b80851115620009f7578160001904821115620009db57620009db6200097e565b80851615620009e957918102915b93841c9390800290620009bb565b509250929050565b60008262000a1057506001620009b0565b8162000a1f57506000620009b0565b816001811462000a38576002811462000a435762000a63565b6001915050620009b0565b60ff84111562000a575762000a576200097e565b50506001821b620009b0565b5060208310610133831016604e8410600b841016171562000a88575081810a620009b0565b62000a948383620009b6565b806000190482111562000aab5762000aab6200097e565b029392505050565b60006200051b60ff841683620009ff565b600181811c9082168062000ad957607f821691505b6020821081036200052257634e487b7160e01b600052602260045260246000fd5b601f82111562000b4a576000816000526020600020601f850160051c8101602086101562000b255750805b601f850160051c820191505b8181101562000b465782815560010162000b31565b5050505b505050565b81516001600160401b0381111562000b6b5762000b6b620006fd565b62000b838162000b7c845462000ac4565b8462000afa565b602080601f83116001811462000bbb576000841562000ba25750858301515b600019600386901b1c1916600185901b17855562000b46565b600085815260208120601f198616915b8281101562000bec5788860151825594840194600190910190840162000bcb565b508582101562000c0b5787850151600019600388901b60f8161c191681555b5050505050600190811b01905550565b60006020828403121562000c2e57600080fd5b6200051b8262000816565b60006020828403121562000c4c57600080fd5b815163ffffffff811681146200051b57600080fd5b60006020828403121562000c7457600080fd5b6200051b82620007fe565b61ffff81811683821601908082111562000c9d5762000c9d6200097e565b5092915050565b60805160a05160c05160e0516150c662000d6a6000396000818161099f0152610d3e01526000818161084f01528181610b1901528181610bb60152818161175a015281816117c00152818161185c0152818161202e0152818161206201526120fd015260008181610ae001528181612f2901528181612f9e015261313e0152600081816108de0152818161118b01528181611fd201528181612176015281816125b40152818161291f015281816132360152818161360801526136c101526150c66000f3fe60806040526004361061045d5760003560e01c80638b8dc8fa1161023f578063bf7f319711610139578063d6bf50dc116100b6578063f28ab2be1161007a578063f28ab2be14610f73578063f2fde38b14610fac578063fc0c546a14610780578063fe57fb0314610fcc578063ff7bd03d14610fec57600080fd5b8063d6bf50dc14610e16578063dd62ed3e14610ec7578063e1f1c4a714610f0d578063e5e31b1314610f23578063ef1aa14414610f5357600080fd5b8063cf535057116100fd578063cf53505714610d97578063d045a0dc14610db7578063d0a3981414610dca578063d424388514610de0578063d55be8c614610e0057600080fd5b8063bf7f319714610cee578063c7c7f5b314610d0e578063c7e4757514610d2f578063ca5eb5e114610d62578063cec45ba314610d8257600080fd5b8063a3002757116101c7578063b98bd0701161018b578063b98bd07014610c58578063b9e9370014610c78578063bb0b6a5314610c8e578063bc70b35414610cbb578063bd815db014610cdb57600080fd5b8063a300275714610ba4578063a6bd907014610bd8578063a901dd9214610bf8578063a9059cbb14610c18578063b731ea0a14610c3857600080fd5b8063963efcaa1161020e578063963efcaa14610ace5780639642adab14610b025780639dc29fac14610b405780639f68b96414610b60578063a1bc910f14610b7457600080fd5b80638b8dc8fa14610a655780638da5cb5b14610a7b5780638ebfc79614610a9957806395d89b4114610ab957600080fd5b806340c10f191161035b5780635e280f11116102d8578063744360351161029c578063744360351461098d5780637d25a05e146109d657806382413eac14610a11578063857749b014610a3157806386a22eff14610a4557600080fd5b80635e280f11146108cc578063606c0c94146109005780636fc1b31e1461092257806370a0823114610942578063715018a61461097857600080fd5b80635952d6d21161031f5780635952d6d2146107e95780635a0dfe4d146108095780635ab1bd53146108405780635b57bbd6146108735780635be2d557146108ac57600080fd5b806340c10f19146107235780634a8848931461074357806352ae28791461078057806354fd4d50146107935780635535d461146107c957600080fd5b80631f5e1334116103e9578063313ce567116103ad578063313ce5671461066e578063317f3d6d146106905780633400288b146106a6578063398daa85146106c65780633b6f743b146106f657600080fd5b80631f5e1334146105c95780632171dcc9146105de5780632278d740146105fe57806323b872dd1461061e5780632bb47bc41461063e57600080fd5b806313137d651161043057806313137d6514610524578063134d4f2514610539578063156a0d0f1461056157806317442b701461058857806318160ddd146105aa57600080fd5b806306fdde0314610462578063095ea7b31461048d5780630d35b415146104bd578063111ecdad146104ec575b600080fd5b34801561046e57600080fd5b5061047761100c565b6040516104849190613dcf565b60405180910390f35b34801561049957600080fd5b506104ad6104a8366004613df7565b61109e565b6040519015158152602001610484565b3480156104c957600080fd5b506104dd6104d8366004613e3b565b6110b8565b60405161048493929190613e6f565b3480156104f857600080fd5b5060045461050c906001600160a01b031681565b6040516001600160a01b039091168152602001610484565b610537610532366004613f62565b611189565b005b34801561054557600080fd5b5061054e600281565b60405161ffff9091168152602001610484565b34801561056d57600080fd5b506040805162b9270b60e21b81526001602082015201610484565b34801561059457600080fd5b5060408051600181526002602082015201610484565b3480156105b657600080fd5b506007545b604051908152602001610484565b3480156105d557600080fd5b5061054e600181565b3480156105ea57600080fd5b506105376105f936600461400f565b611249565b34801561060a57600080fd5b50610537610619366004614048565b6112d4565b34801561062a57600080fd5b506104ad61063936600461407a565b611382565b34801561064a57600080fd5b506104ad6106593660046140bb565b60106020526000908152604090205460ff1681565b34801561067a57600080fd5b5060125b60405160ff9091168152602001610484565b34801561069c57600080fd5b506105bb60145481565b3480156106b257600080fd5b506105376106c13660046140f1565b6113a8565b3480156106d257600080fd5b506104ad6106e13660046140bb565b60116020526000908152604090205460ff1681565b34801561070257600080fd5b5061071661071136600461410d565b6113ba565b6040516104849190614153565b34801561072f57600080fd5b5061053761073e366004613df7565b611421565b34801561074f57600080fd5b5061077361075e3660046140bb565b600e6020526000908152604090205460ff1681565b6040516104849190614180565b34801561078c57600080fd5b503061050c565b34801561079f57600080fd5b5060408051808201909152600d81526c0ccb8c0b8c0b5d5b9a599a5959609a1b6020820152610477565b3480156107d557600080fd5b506104776107e43660046141b8565b6114c2565b3480156107f557600080fd5b50610537610804366004614228565b611567565b34801561081557600080fd5b506104ad6108243660046140f1565b63ffffffff919091166000908152600160205260409020541490565b34801561084c57600080fd5b507f000000000000000000000000000000000000000000000000000000000000000061050c565b34801561087f57600080fd5b506104ad61088e3660046140bb565b6001600160a01b031660009081526010602052604090205460ff1690565b3480156108b857600080fd5b506105376108c73660046140bb565b6116ed565b3480156108d857600080fd5b5061050c7f000000000000000000000000000000000000000000000000000000000000000081565b34801561090c57600080fd5b50610915611717565b604051610484919061427e565b34801561092e57600080fd5b5061053761093d3660046140bb565b6118d9565b34801561094e57600080fd5b506105bb61095d3660046140bb565b6001600160a01b031660009081526005602052604090205490565b34801561098457600080fd5b50610537611936565b34801561099957600080fd5b506109c17f000000000000000000000000000000000000000000000000000000000000000081565b60405163ffffffff9091168152602001610484565b3480156109e257600080fd5b506109f96109f13660046140f1565b600092915050565b6040516001600160401b039091168152602001610484565b348015610a1d57600080fd5b506104ad610a2c3660046142f4565b61194a565b348015610a3d57600080fd5b50600661067e565b348015610a5157600080fd5b50610537610a6036600461400f565b61195f565b348015610a7157600080fd5b506105bb60155481565b348015610a8757600080fd5b506000546001600160a01b031661050c565b348015610aa557600080fd5b50610537610ab436600461400f565b6119e4565b348015610ac557600080fd5b50610477611a3e565b348015610ada57600080fd5b506105bb7f000000000000000000000000000000000000000000000000000000000000000081565b348015610b0e57600080fd5b506001600160a01b037f00000000000000000000000000000000000000000000000000000000000000001615156104ad565b348015610b4c57600080fd5b50610537610b5b366004613df7565b611a4d565b348015610b6c57600080fd5b5060006104ad565b348015610b8057600080fd5b506104ad610b8f3660046140bb565b600f6020526000908152604090205460ff1681565b348015610bb057600080fd5b5061050c7f000000000000000000000000000000000000000000000000000000000000000081565b348015610be457600080fd5b50610537610bf336600461435a565b611aee565b348015610c0457600080fd5b50610537610c133660046143f0565b611baa565b348015610c2457600080fd5b506104ad610c33366004613df7565b611c1d565b348015610c4457600080fd5b5060025461050c906001600160a01b031681565b348015610c6457600080fd5b50610537610c7336600461440d565b611c2b565b348015610c8457600080fd5b506105bb60125481565b348015610c9a57600080fd5b506105bb610ca936600461444e565b60016020526000908152604090205481565b348015610cc757600080fd5b50610477610cd6366004614469565b611c45565b610537610ce936600461440d565b611ded565b348015610cfa57600080fd5b50600a5461050c906001600160a01b031681565b610d21610d1c3660046144cb565b611f77565b60405161048492919061452d565b348015610d3b57600080fd5b507f00000000000000000000000000000000000000000000000000000000000000006109c1565b348015610d6e57600080fd5b50610537610d7d3660046140bb565b611fab565b348015610d8e57600080fd5b506104ad61202a565b348015610da357600080fd5b50610537610db23660046140bb565b6121b0565b610537610dc5366004613f62565b612285565b348015610dd657600080fd5b506105bb60135481565b348015610dec57600080fd5b50610537610dfb3660046140bb565b6122b4565b348015610e0c57600080fd5b506105bb6103e881565b348015610e2257600080fd5b50600b54600c54610e789161ffff8082169262010000830482169264010000000081048316926601000000000000820416916001600160a01b03600160401b90920482169181169060ff600160a01b9091041687565b6040805161ffff98891681529688166020880152948716948601949094529490911660608401526001600160a01b03908116608084015290921660a082015290151560c082015260e001610484565b348015610ed357600080fd5b506105bb610ee236600461457f565b6001600160a01b03918216600090815260066020908152604080832093909416825291909152205490565b348015610f1957600080fd5b506105bb61271081565b348015610f2f57600080fd5b506104ad610f3e3660046140bb565b600d6020526000908152604090205460ff1681565b348015610f5f57600080fd5b506105bb610f6e3660046145ad565b61230a565b348015610f7f57600080fd5b50601254601354601454601554604080519485526020850193909352918301526060820152608001610484565b348015610fb857600080fd5b50610537610fc73660046140bb565b612364565b348015610fd857600080fd5b50610537610fe736600461400f565b6123a2565b348015610ff857600080fd5b506104ad6110073660046145d2565b61245f565b60606008805461101b906145ee565b80601f0160208091040260200160405190810160405280929190818152602001828054611047906145ee565b80156110945780601f1061106957610100808354040283529160200191611094565b820191906000526020600020905b81548152906001019060200180831161107757829003601f168201915b5050505050905090565b6000336110ac818585612495565b60019150505b92915050565b604080518082019091526000808252602082015260606110eb604051806040016040528060008152602001600081525090565b60408051808201825260008082526001600160401b03602080840182905284518381529081019094529195509182611146565b60408051808201909152600081526060602082015281526020019060019003908161111e5790505b50935060008061116b604089013560608a013561116660208c018c61444e565b6124a7565b60408051808201909152918252602082015296989597505050505050565b7f00000000000000000000000000000000000000000000000000000000000000006001600160a01b031633146111d9576040516391ac5e4f60e01b81523360048201526024015b60405180910390fd5b602087018035906111f3906111ee908a61444e565b6124e3565b1461123157611205602088018861444e565b60405163309afaf360e21b815263ffffffff9091166004820152602088013560248201526044016111d0565b6112408787878787878761251f565b50505050505050565b611251612686565b6001600160a01b03821661127857604051630ed1b8b360e31b815260040160405180910390fd5b6001600160a01b0382166000908152600f60205260409020805460ff191682158015919091179091556112d0576001600160a01b0382166000908152600e6020526040902080546001919060ff191682805b02179055505b5050565b6112dc612686565b6001600160a01b03821661130357604051630ed1b8b360e31b815260040160405180910390fd5b6001600160a01b0382166000908152600e60205260409020805482919060ff191660018360038111156113385761133861416a565b0217905550816001600160a01b03167f822ab1384a2fcf0f12603c8a75c008924ce73ccf6c9eb59607fd7dfa6978af0d826040516113769190614180565b60405180910390a25050565b6000336113908582856126b3565b61139b858585612732565b60019150505b9392505050565b6113b0612686565b6112d08282612791565b604080518082019091526000808252602082015260006113ea60408501356060860135611166602088018861444e565b9150506000806113fa86846127e6565b909250905061141761140f602088018861444e565b838388612909565b9695505050505050565b600a546001600160a01b0316331461146f5760405162461bcd60e51b81526020600482015260116024820152704f6e6c79207661756c742062726964676560781b60448201526064016111d0565b600a546001600160a01b03166114b85760405162461bcd60e51b815260206004820152600e60248201526d109c9a5919d9481b9bdd081cd95d60921b60448201526064016111d0565b6112d082826129ea565b6003602090815260009283526040808420909152908252902080546114e6906145ee565b80601f0160208091040260200160405190810160405280929190818152602001828054611512906145ee565b801561155f5780601f106115345761010080835404028352916020019161155f565b820191906000526020600020905b81548152906001019060200180831161154257829003601f168201915b505050505081565b61156f612686565b8160005b818110156116e657600085858381811061158f5761158f614638565b90506020020160208101906115a491906140bb565b6001600160a01b0316146116de5782601060008787858181106115c9576115c9614638565b90506020020160208101906115de91906140bb565b6001600160a01b031681526020810191909152604001600020805460ff19169115159190911790558215611672576001600e600087878581811061162457611624614638565b905060200201602081019061163991906140bb565b6001600160a01b031681526020810191909152604001600020805460ff1916600183600381111561166c5761166c61416a565b02179055505b84848281811061168457611684614638565b905060200201602081019061169991906140bb565b6001600160a01b03167f8034537969aa28288496e2d96deb245a468a4e474b08b72107f3ce03d4b3b115846040516116d5911515815260200190565b60405180910390a25b600101611573565b5050505050565b6116f5612686565b600c80546001600160a01b0319166001600160a01b0392909216919091179055565b6117586040518060a00160405280600061ffff1681526020016060815260200160006001600160a01b03168152602001606081526020016000151581525090565b7f00000000000000000000000000000000000000000000000000000000000000006001600160a01b03166117bc5760405162461bcd60e51b815260206004820152600b60248201526a53696d706c65206d6f646560a81b60448201526064016111d0565b60007f00000000000000000000000000000000000000000000000000000000000000006001600160a01b0316635cf0e8a46040518163ffffffff1660e01b8152600401602060405180830381865afa15801561181c573d6000803e3d6000fd5b505050506040513d601f19601f82011682018060405250810190611840919061464e565b60405163060bbc3560e51b815261ffff821660048201529091507f00000000000000000000000000000000000000000000000000000000000000006001600160a01b03169063c17786a090602401600060405180830381865afa1580156118ab573d6000803e3d6000fd5b505050506040513d6000823e601f3d908101601f191682016040526118d3919081019061478e565b91505090565b6118e1612686565b600480546001600160a01b0319166001600160a01b0383169081179091556040519081527ff0be4f1e87349231d80c36b33f9e8639658eeaf474014dee15a3e6a4d4414197906020015b60405180910390a150565b61193e612686565b6119486000612a20565b565b6001600160a01b03811630145b949350505050565b611967612686565b6001600160a01b03821661198e57604051630ed1b8b360e31b815260040160405180910390fd5b6001600160a01b0382166000908152600d60205260409020805460ff191682158015919091179091556112d0576001600160a01b0382166000908152600e6020526040902080546001919060ff191682806112ca565b6119ec612686565b6001600160a01b038216611a1357604051630ed1b8b360e31b815260040160405180910390fd5b6001600160a01b03919091166000908152601160205260409020805460ff1916911515919091179055565b60606009805461101b906145ee565b600a546001600160a01b03163314611a9b5760405162461bcd60e51b81526020600482015260116024820152704f6e6c79207661756c742062726964676560781b60448201526064016111d0565b600a546001600160a01b0316611ae45760405162461bcd60e51b815260206004820152600e60248201526d109c9a5919d9481b9bdd081cd95d60921b60448201526064016111d0565b6112d08282612a70565b611af6612686565b60006040518060e001604052808961ffff1681526020018861ffff1681526020018761ffff1681526020018661ffff168152602001856001600160a01b03168152602001846001600160a01b031681526020018315158152509050611b5a81612aa6565b6040805161ffff8a81168252891660208201528315158183015290517f33d7cfb3ff590af0c7db629eb7c2aba0f08ad8c556c970d0388286d9c4261ccb9181900360600190a15050505050505050565b611bb2612686565b600c805460ff60a01b1916600160a01b83151590810291909117909155600b546040805161ffff80841682526201000090930490921660208301528101919091527f33d7cfb3ff590af0c7db629eb7c2aba0f08ad8c556c970d0388286d9c4261ccb9060600161192b565b6000336110ac818585612732565b611c33612686565b6112d0611c408284614855565b612c22565b63ffffffff8416600090815260036020908152604080832061ffff87168452909152812080546060929190611c79906145ee565b80601f0160208091040260200160405190810160405280929190818152602001828054611ca5906145ee565b8015611cf25780601f10611cc757610100808354040283529160200191611cf2565b820191906000526020600020905b815481529060010190602001808311611cd557829003601f168201915b505050505090508051600003611d425783838080601f0160208091040260200160405190810160405280939291908181526020018383808284376000920191909152509294506119579350505050565b6000839003611d52579050611957565b60028310611dd057611d9984848080601f016020809104026020016040519081016040528093929190818152602001838380828437600092019190915250612d2992505050565b80611da78460028188614967565b604051602001611db993929190614991565b604051602081830303815290604052915050611957565b8383604051639a6d49cd60e01b81526004016111d09291906149e2565b60005b81811015611ef65736838383818110611e0b57611e0b614638565b9050602002810190611e1d91906149f6565b9050611e50611e2f602083018361444e565b602083013563ffffffff919091166000908152600160205260409020541490565b611e5a5750611eee565b3063d045a0dc60c08301358360a0810135611e79610100830183614a17565b611e8a610100890160e08a016140bb565b611e986101208a018a614a17565b6040518963ffffffff1660e01b8152600401611eba9796959493929190614a72565b6000604051808303818588803b158015611ed357600080fd5b505af1158015611ee7573d6000803e3d6000fd5b5050505050505b600101611df0565b50336001600160a01b0316638e9e70996040518163ffffffff1660e01b8152600401600060405180830381865afa158015611f35573d6000803e3d6000fd5b505050506040513d6000823e601f3d908101601f19168201604052611f5d9190810190614af8565b604051638351eea760e01b81526004016111d09190613dcf565b611f7f613d38565b6040805180820190915260008082526020820152611f9e858585612d55565b915091505b935093915050565b611fb3612686565b60405163ca5eb5e160e01b81526001600160a01b0382811660048301527f0000000000000000000000000000000000000000000000000000000000000000169063ca5eb5e190602401600060405180830381600087803b15801561201657600080fd5b505af11580156116e6573d6000803e3d6000fd5b60007f00000000000000000000000000000000000000000000000000000000000000006001600160a01b03166120605750600190565b7f00000000000000000000000000000000000000000000000000000000000000006001600160a01b0316635cf0e8a46040518163ffffffff1660e01b8152600401602060405180830381865afa9250505080156120da575060408051601f3d908101601f191682019092526120d79181019061464e565b60015b6120e45750600090565b60405163b87f29e160e01b815261ffff821660048201527f00000000000000000000000000000000000000000000000000000000000000006001600160a01b03169063b87f29e190602401602060405180830381865afa925050508015612168575060408051601f3d908101601f1916820190925261216591810190614b40565b60015b61217457600091505090565b7f00000000000000000000000000000000000000000000000000000000000000006001600160a01b0316816001600160a01b0316149250505090565b6121b8612686565b600a546001600160a01b0316156122065760405162461bcd60e51b8152602060048201526012602482015271109c9a5919d948185b1c9958591e481cd95d60721b60448201526064016111d0565b6001600160a01b03811661224b5760405162461bcd60e51b815260206004820152600c60248201526b5a65726f206164647265737360a01b60448201526064016111d0565b600a80546001600160a01b039092166001600160a01b0319909216821790556000908152601160205260409020805460ff19166001179055565b3330146122a55760405163029a949d60e31b815260040160405180910390fd5b61124087878787878787611231565b6122bc612686565b600280546001600160a01b0319166001600160a01b0383169081179091556040519081527fd48d879cef83a1c0bdda516f27b13ddb1b3f8bbac1c9e1511bb2a659c24277609060200161192b565b600c54600090600160a01b900460ff16612326575060006110b2565b60008261233f57600b5462010000900461ffff16612347565b600b5461ffff165b61ffff16905061271061235a8286614b73565b6119579190614b8a565b61236c612686565b6001600160a01b03811661239657604051631e4fbdf760e01b8152600060048201526024016111d0565b61239f81612a20565b50565b6123aa612686565b6001600160a01b0382166123d157604051630ed1b8b360e31b815260040160405180910390fd5b6001600160a01b0382166000908152601060205260409020805460ff19168215801591909117909155612422576001600160a01b0382166000908152600e60205260409020805460ff191660011790555b816001600160a01b03167f8034537969aa28288496e2d96deb245a468a4e474b08b72107f3ce03d4b3b11582604051611376911515815260200190565b6000602082018035906001908390612477908661444e565b63ffffffff1681526020810191909152604001600020541492915050565b6124a28383836001612e50565b505050565b6000806124b385612f25565b915081905083811015611fa3576040516371c4efed60e01b815260048101829052602481018590526044016111d0565b63ffffffff8116600090815260016020526040812054806110b25760405163f6ff4fb760e01b815263ffffffff841660048201526024016111d0565b600061253161252e8787612f5c565b90565b9050600061255d8261254b6125468a8a612f74565b612f97565b61255860208d018d61444e565b612fcc565b9050602886111561262457600061259a61257d60608c0160408d01614bac565b61258a60208d018d61444e565b846125958c8c612ff4565b61303f565b604051633e5ac80960e11b81529091506001600160a01b037f00000000000000000000000000000000000000000000000000000000000000001690637cb59012906125f09086908d906000908790600401614bc9565b600060405180830381600087803b15801561260a57600080fd5b505af115801561261e573d6000803e3d6000fd5b50505050505b6001600160a01b038216887fefed6d3500546b29533b128a29e3a94d70788727f0507505ac12eaf2e578fd9c61265d60208d018d61444e565b6040805163ffffffff9092168252602082018690520160405180910390a3505050505050505050565b6000546001600160a01b031633146119485760405163118cdaa760e01b81523360048201526024016111d0565b6001600160a01b0383811660009081526006602090815260408083209386168352929052205460001981101561272c578181101561271d57604051637dc7a0d960e11b81526001600160a01b038416600482015260248101829052604481018390526064016111d0565b61272c84848484036000612e50565b50505050565b6001600160a01b03831661275c57604051634b637e8f60e11b8152600060048201526024016111d0565b6001600160a01b0382166127865760405163ec442f0560e01b8152600060048201526024016111d0565b6124a2838383613071565b63ffffffff8216600081815260016020908152604091829020849055815192835282018390527f238399d427b947898edb290f5ff0f9109849b1c3ba196a42e35f00c50a54b98b910160405180910390a15050565b606080600061284385602001356127fc86613137565b61280960a0890189614a17565b8080601f01602080910402602001604051908101604052809392919081815260200183838082843760009201919091525061316392505050565b9093509050600081612856576001612859565b60025b905061287961286b602088018861444e565b82610cd660808a018a614a17565b6004549093506001600160a01b031680156128ff5760405163043a78eb60e01b81526001600160a01b0382169063043a78eb906128bc9088908890600401614bfa565b602060405180830381865afa1580156128d9573d6000803e3d6000fd5b505050506040513d601f19601f820116820180604052508101906128fd9190614c1f565b505b5050509250929050565b60408051808201909152600080825260208201527f00000000000000000000000000000000000000000000000000000000000000006001600160a01b031663ddc28c586040518060a001604052808863ffffffff16815260200161296c896124e3565b8152602001878152602001868152602001851515815250306040518363ffffffff1660e01b81526004016129a1929190614c3c565b6040805180830381865afa1580156129bd573d6000803e3d6000fd5b505050506040513d601f19601f820116820180604052508101906129e19190614ce5565b95945050505050565b6001600160a01b038216612a145760405163ec442f0560e01b8152600060048201526024016111d0565b6112d060008383613071565b600080546001600160a01b038381166001600160a01b0319831681178455604051919092169283917f8be0079c531659141344cd1fd0a4f28419497f9722a3daafe3b4186f6b6457e09190a35050565b6001600160a01b038216612a9a57604051634b637e8f60e11b8152600060048201526024016111d0565b6112d082600083613071565b6103e8816000015161ffff161180612ac757506103e8816020015161ffff16115b15612ae5576040516312f7b37560e11b815260040160405180910390fd5b61271081606001518260400151612afc9190614d01565b61ffff1614612b1e5760405163d138b13f60e01b815260040160405180910390fd5b60808101516001600160a01b0316158015612b3a57508060c001515b15612b5857604051630ed1b8b360e31b815260040160405180910390fd5b8051600b805460208401516040850151606086015160808701516001600160a01b03908116600160401b0268010000000000000000600160e01b031961ffff93841666010000000000000267ffff00000000000019958516640100000000029590951667ffffffff0000000019968516620100000263ffffffff199098169490991693909317959095179390931695909517179390931617905560a0820151600c805460c0909401511515600160a01b026001600160a81b03199094169190921617919091179055565b60005b8151811015612cf957612c54828281518110612c4357612c43614638565b602002602001015160400151612d29565b818181518110612c6657612c66614638565b60200260200101516040015160036000848481518110612c8857612c88614638565b60200260200101516000015163ffffffff1663ffffffff1681526020019081526020016000206000848481518110612cc257612cc2614638565b60200260200101516020015161ffff1661ffff1681526020019081526020016000209081612cf09190614d73565b50600101612c25565b507fbe4864a8e820971c0247f5992e2da559595f7bf076a21cb5928d443d2a13b6748160405161192b9190614e32565b600281015161ffff81166003146112d05781604051639a6d49cd60e01b81526004016111d09190613dcf565b612d5d613d38565b6040805180820190915260008082526020820152600080612d9433604089013560608a0135612d8f60208c018c61444e565b6131dd565b91509150600080612da589846127e6565b9092509050612dd1612dba60208b018b61444e565b8383612dcb368d90038d018d614ebd565b8b613203565b60408051808201909152858152602080820186905282519298509096503391907f85496b760a4b7f8d66384b9df21b381f5d1b1e79f229a47aaf4c232edc2fe59a90612e1f908d018d61444e565b6040805163ffffffff909216825260208201899052810187905260600160405180910390a350505050935093915050565b6001600160a01b038416612e7a5760405163e602df0560e01b8152600060048201526024016111d0565b6001600160a01b038316612ea457604051634a1406b160e11b8152600060048201526024016111d0565b6001600160a01b038085166000908152600660209081526040808320938716835292905220829055801561272c57826001600160a01b0316846001600160a01b03167f8c5be1e5ebec7d5bd14f71427d1e84f3dd0314c0f7b2291e5b200ac8c7c3b92584604051612f1791815260200190565b60405180910390a350505050565b60007f0000000000000000000000000000000000000000000000000000000000000000612f528184614b8a565b6110b29190614b73565b6000612f6b6020828486614967565b6113a191614eef565b6000612f84602860208486614967565b612f8d91614f0d565b60c01c9392505050565b60006110b27f00000000000000000000000000000000000000000000000000000000000000006001600160401b038416614b73565b60006001600160a01b038416612fe25761dead93505b612fec84846129ea565b509092915050565b60606130038260288186614967565b8080601f016020809104026020016040519081016040528093929190818152602001838380828437600092019190915250929695505050505050565b6060848484846040516020016130589493929190614f3d565b6040516020818303038152906040529050949350505050565b6001600160a01b038316158061308e57506001600160a01b038216155b80613097575080155b156130a7576124a283838361330e565b600c54600160a01b900460ff166130c3576124a283838361330e565b6001600160a01b03831660009081526011602052604090205460ff168061310257506001600160a01b03821660009081526011602052604090205460ff165b15613112576124a283838361330e565b61311c8383613438565b1561312c576124a2838383613531565b6124a283838361330e565b60006110b27f000000000000000000000000000000000000000000000000000000000000000083614b8a565b80516060901515806131ac57848460405160200161319892919091825260c01b6001600160c01b031916602082015260280190565b6040516020818303038152906040526131d3565b848433856040516020016131c39493929190614f8c565b6040516020818303038152906040525b9150935093915050565b6000806131eb8585856124a7565b90925090506131fa8683612a70565b94509492505050565b61320b613d38565b600061321a84600001516135dc565b602085015190915015613234576132348460200151613604565b7f00000000000000000000000000000000000000000000000000000000000000006001600160a01b0316632637a450826040518060a001604052808b63ffffffff1681526020016132848c6124e3565b81526020018a815260200189815260200160008960200151111515815250866040518463ffffffff1660e01b81526004016132c0929190614c3c565b60806040518083038185885af11580156132de573d6000803e3d6000fd5b50505050506040513d601f19601f820116820180604052508101906133039190614fcf565b979650505050505050565b6001600160a01b03831661333957806007600082825461332e9190615019565b909155506133ab9050565b6001600160a01b0383166000908152600560205260409020548181101561338c5760405163391434e360e21b81526001600160a01b038516600482015260248101829052604481018390526064016111d0565b6001600160a01b03841660009081526005602052604090209082900390555b6001600160a01b0382166133c7576007805482900390556133e6565b6001600160a01b03821660009081526005602052604090208054820190555b816001600160a01b0316836001600160a01b03167fddf252ad1be2c89b69c2b068fc378daa952ba7f163c4a11628f55a4df523b3ef8360405161342b91815260200190565b60405180910390a3505050565b6001600160a01b038083166000908152600e6020526040808220549284168252812054909160ff908116911660028260038111156134785761347861416a565b1480613495575060028160038111156134935761349361416a565b145b156134a5576000925050506110b2565b60038260038111156134b9576134b961416a565b14806134d6575060038160038111156134d4576134d461416a565b145b156134e6576000925050506110b2565b60018260038111156134fa576134fa61416a565b1480613517575060018160038111156135155761351561416a565b145b15613527576001925050506110b2565b6129e185856136e6565b600061353d84846137d3565b905060008161355857600b5462010000900461ffff16613560565b600b5461ffff165b61ffff16905080156135b5578115801561359257506001600160a01b03841660009081526010602052604090205460ff165b156135a8576135a385858584613838565b6135c0565b6135a38585858486613921565b6135c085858561330e565b601580549060006135d08361502c565b91905055505050505050565b6000813414613600576040516304fb820960e51b81523460048201526024016111d0565b5090565b60007f00000000000000000000000000000000000000000000000000000000000000006001600160a01b031663e4fe1d946040518163ffffffff1660e01b8152600401602060405180830381865afa158015613664573d6000803e3d6000fd5b505050506040513d601f19601f820116820180604052508101906136889190614b40565b90506001600160a01b0381166136b1576040516329b99a9560e11b815260040160405180910390fd5b6112d06001600160a01b038216337f000000000000000000000000000000000000000000000000000000000000000085613a57565b6001600160a01b0382166000908152600d602052604081205460ff168061372557506001600160a01b0382166000908152600d602052604090205460ff165b15613732575060016110b2565b6001600160a01b03831660009081526010602052604090205460ff168061377157506001600160a01b03821660009081526010602052604090205460ff165b1561377e575060016110b2565b6001600160a01b0383166000908152600f602052604090205460ff16806137bd57506001600160a01b0382166000908152600f602052604090205460ff165b156137ca575060016110b2565b50600092915050565b6001600160a01b0382166000908152600d602052604081205460ff168061381257506001600160a01b0383166000908152600f602052604090205460ff165b806113a1575050506001600160a01b031660009081526010602052604090205460ff1690565b60006127106138478385614b73565b6138519190614b8a565b9050600061385f8285615045565b905061386c86868361330e565b61387786308461330e565b613882826000613ab1565b846001600160a01b0316866001600160a01b03167f5634e504c4e61a8180de1151c73ea6453696a0279247b2ced2e111d75d1a957386856040516138fa92919091825260208201526060604082018190526012908201527173656c6c5f76335f636f6d70617469626c6560701b608082015260a00190565b60405180910390a381601360008282546139149190615019565b9091555050505050505050565b60006127106139308486614b73565b61393a9190614b8a565b905060006139488286615045565b905061395587308461330e565b61396087878361330e565b61396a8284613ab1565b856001600160a01b0316876001600160a01b03167f5634e504c4e61a8180de1151c73ea6453696a0279247b2ced2e111d75d1a95738785876139d4576040518060400160405280601081526020016f1cd95b1b17dd1c98591a5d1a5bdb985b60821b8152506139fd565b6040518060400160405280600f81526020016e189d5e57dd1c98591a5d1a5bdb985b608a1b8152505b604051613a0c93929190615058565b60405180910390a38215613a37578160126000828254613a2c9190615019565b909155506112409050565b8160136000828254613a499190615019565b909155505050505050505050565b604080516001600160a01b0385811660248301528416604482015260648082018490528251808303909101815260849091019091526020810180516001600160e01b03166323b872dd60e01b17905261272c908590613cc7565b81600003613abd575050565b600b5460009061271090613add90640100000000900461ffff1685614b73565b613ae79190614b8a565b90506000613af58285615045565b600b54909150600160401b90046001600160a01b031615801590613b195750600082115b15613bdf57600b54613b3d903090600160401b90046001600160a01b03168461330e565b600b54600160401b90046001600160a01b03167fe39112dc9ca2018b6da1038f701804f9e2cb88c4448f88c4cfc7332a2d8cc50a8385613ba2576040518060400160405280600d81526020016c73656c6c5f747265617375727960981b815250613bc8565b6040518060400160405280600c81526020016b6275795f747265617375727960a01b8152505b604051613bd6929190615077565b60405180910390a25b600081118015613bf95750600c546001600160a01b031615155b1561272c57600c54613c169030906001600160a01b03168361330e565b600c546001600160a01b03167fe39112dc9ca2018b6da1038f701804f9e2cb88c4448f88c4cfc7332a2d8cc50a8285613c71576040518060400160405280600a8152602001691cd95b1b17dd985d5b1d60b21b815250613c94565b60405180604001604052806009815260200168189d5e57dd985d5b1d60ba1b8152505b604051613ca2929190615077565b60405180910390a28060146000828254613cbc9190615019565b909155505050505050565b600080602060008451602086016000885af180613cea576040513d6000823e3d81fd5b50506000513d91508115613d02578060011415613d0f565b6001600160a01b0384163b155b1561272c57604051635274afe760e01b81526001600160a01b03851660048201526024016111d0565b60405180606001604052806000801916815260200160006001600160401b03168152602001613d7a604051806040016040528060008152602001600081525090565b905290565b60005b83811015613d9a578181015183820152602001613d82565b50506000910152565b60008151808452613dbb816020860160208601613d7f565b601f01601f19169290920160200192915050565b6020815260006113a16020830184613da3565b6001600160a01b038116811461239f57600080fd5b60008060408385031215613e0a57600080fd5b8235613e1581613de2565b946020939093013593505050565b600060e08284031215613e3557600080fd5b50919050565b600060208284031215613e4d57600080fd5b81356001600160401b03811115613e6357600080fd5b61195784828501613e23565b8351815260208085015190820152600060a08201604060a0604085015281865180845260c08601915060c08160051b8701019350602080890160005b83811015613eea5788870360bf19018552815180518852830151838801879052613ed787890182613da3565b9750509382019390820190600101613eab565b50508751606088015250505060208501516080850152509050611957565b600060608284031215613e3557600080fd5b60008083601f840112613f2c57600080fd5b5081356001600160401b03811115613f4357600080fd5b602083019150836020828501011115613f5b57600080fd5b9250929050565b600080600080600080600060e0888a031215613f7d57600080fd5b613f878989613f08565b96506060880135955060808801356001600160401b0380821115613faa57600080fd5b613fb68b838c01613f1a565b909750955060a08a01359150613fcb82613de2565b90935060c08901359080821115613fe157600080fd5b50613fee8a828b01613f1a565b989b979a50959850939692959293505050565b801515811461239f57600080fd5b6000806040838503121561402257600080fd5b823561402d81613de2565b9150602083013561403d81614001565b809150509250929050565b6000806040838503121561405b57600080fd5b823561406681613de2565b915060208301356004811061403d57600080fd5b60008060006060848603121561408f57600080fd5b833561409a81613de2565b925060208401356140aa81613de2565b929592945050506040919091013590565b6000602082840312156140cd57600080fd5b81356113a181613de2565b803563ffffffff811681146140ec57600080fd5b919050565b6000806040838503121561410457600080fd5b613e15836140d8565b6000806040838503121561412057600080fd5b82356001600160401b0381111561413657600080fd5b61414285828601613e23565b925050602083013561403d81614001565b8151815260208083015190820152604081016110b2565b634e487b7160e01b600052602160045260246000fd5b60208101600483106141a257634e487b7160e01b600052602160045260246000fd5b91905290565b61ffff8116811461239f57600080fd5b600080604083850312156141cb57600080fd5b6141d4836140d8565b9150602083013561403d816141a8565b60008083601f8401126141f657600080fd5b5081356001600160401b0381111561420d57600080fd5b6020830191508360208260051b8501011115613f5b57600080fd5b60008060006040848603121561423d57600080fd5b83356001600160401b0381111561425357600080fd5b61425f868287016141e4565b909450925050602084013561427381614001565b809150509250925092565b6020815261ffff82511660208201526000602083015160a060408401526142a860c0840182613da3565b60408501516001600160a01b0316606085810191909152850151848203601f190160808601529091506142db8282613da3565b9150506080840151151560a08401528091505092915050565b60008060008060a0858703121561430a57600080fd5b6143148686613f08565b935060608501356001600160401b0381111561432f57600080fd5b61433b87828801613f1a565b909450925050608085013561434f81613de2565b939692955090935050565b600080600080600080600060e0888a03121561437557600080fd5b8735614380816141a8565b96506020880135614390816141a8565b955060408801356143a0816141a8565b945060608801356143b0816141a8565b935060808801356143c081613de2565b925060a08801356143d081613de2565b915060c08801356143e081614001565b8091505092959891949750929550565b60006020828403121561440257600080fd5b81356113a181614001565b6000806020838503121561442057600080fd5b82356001600160401b0381111561443657600080fd5b614442858286016141e4565b90969095509350505050565b60006020828403121561446057600080fd5b6113a1826140d8565b6000806000806060858703121561447f57600080fd5b614488856140d8565b93506020850135614498816141a8565b925060408501356001600160401b038111156144b357600080fd5b6144bf87828801613f1a565b95989497509550505050565b600080600083850360808112156144e157600080fd5b84356001600160401b038111156144f757600080fd5b61450387828801613e23565b9450506040601f198201121561451857600080fd5b50602084019150606084013561427381613de2565b600060c082019050835182526001600160401b0360208501511660208301526040840151614568604084018280518252602090810151910152565b5082516080830152602083015160a08301526113a1565b6000806040838503121561459257600080fd5b823561459d81613de2565b9150602083013561403d81613de2565b600080604083850312156145c057600080fd5b82359150602083013561403d81614001565b6000606082840312156145e457600080fd5b6113a18383613f08565b600181811c9082168061460257607f821691505b602082108103613e3557634e487b7160e01b600052602260045260246000fd5b634e487b7160e01b600052604160045260246000fd5b634e487b7160e01b600052603260045260246000fd5b60006020828403121561466057600080fd5b81516113a1816141a8565b60405160a081016001600160401b038111828210171561468d5761468d614622565b60405290565b604051606081016001600160401b038111828210171561468d5761468d614622565b604080519081016001600160401b038111828210171561468d5761468d614622565b604051601f8201601f191681016001600160401b03811182821017156146ff576146ff614622565b604052919050565b60006001600160401b0382111561472057614720614622565b50601f01601f191660200190565b600061474161473c84614707565b6146d7565b905082815283838301111561475557600080fd5b6113a1836020830184613d7f565b600082601f83011261477457600080fd5b6113a18383516020850161472e565b80516140ec81614001565b6000602082840312156147a057600080fd5b81516001600160401b03808211156147b757600080fd5b9083019060a082860312156147cb57600080fd5b6147d361466b565b82516147de816141a8565b81526020830151828111156147f257600080fd5b6147fe87828601614763565b602083015250604083015161481281613de2565b604082015260608301518281111561482957600080fd5b61483587828601614763565b60608301525061484760808401614783565b608082015295945050505050565b60006001600160401b038084111561486f5761486f614622565b8360051b60206148808183016146d7565b86815291850191818101903684111561489857600080fd5b865b8481101561495b578035868111156148b25760008081fd5b880160603682900312156148c65760008081fd5b6148ce614693565b6148d7826140d8565b8152858201356148e6816141a8565b81870152604082810135898111156148fe5760008081fd5b929092019136601f8401126149135760008081fd5b823561492161473c82614707565b81815236898387010111156149365760008081fd5b818986018a83013760009181018901919091529082015284525091830191830161489a565b50979650505050505050565b6000808585111561497757600080fd5b8386111561498457600080fd5b5050820193919092039150565b600084516149a3818460208901613d7f565b8201838582376000930192835250909392505050565b81835281816020850137506000828201602090810191909152601f909101601f19169091010190565b6020815260006119576020830184866149b9565b6000823561013e19833603018112614a0d57600080fd5b9190910192915050565b6000808335601e19843603018112614a2e57600080fd5b8301803591506001600160401b03821115614a4857600080fd5b602001915036819003821315613f5b57600080fd5b6001600160401b038116811461239f57600080fd5b63ffffffff614a80896140d8565b1681526020880135602082015260006040890135614a9d81614a5d565b6001600160401b03811660408401525087606083015260e06080830152614ac860e0830187896149b9565b6001600160a01b03861660a084015282810360c0840152614aea8185876149b9565b9a9950505050505050505050565b600060208284031215614b0a57600080fd5b81516001600160401b03811115614b2057600080fd5b8201601f81018413614b3157600080fd5b6119578482516020840161472e565b600060208284031215614b5257600080fd5b81516113a181613de2565b634e487b7160e01b600052601160045260246000fd5b80820281158282048414176110b2576110b2614b5d565b600082614ba757634e487b7160e01b600052601260045260246000fd5b500490565b600060208284031215614bbe57600080fd5b81356113a181614a5d565b60018060a01b038516815283602082015261ffff831660408201526080606082015260006114176080830184613da3565b604081526000614c0d6040830185613da3565b82810360208401526129e18185613da3565b600060208284031215614c3157600080fd5b81516113a181614001565b6040815263ffffffff8351166040820152602083015160608201526000604084015160a06080840152614c7260e0840182613da3565b90506060850151603f198483030160a0850152614c8f8282613da3565b60809690960151151560c08501525050506001600160a01b039190911660209091015290565b600060408284031215614cc757600080fd5b614ccf6146b5565b9050815181526020820151602082015292915050565b600060408284031215614cf757600080fd5b6113a18383614cb5565b61ffff818116838216019080821115614d1c57614d1c614b5d565b5092915050565b601f8211156124a2576000816000526020600020601f850160051c81016020861015614d4c5750805b601f850160051c820191505b81811015614d6b57828155600101614d58565b505050505050565b81516001600160401b03811115614d8c57614d8c614622565b614da081614d9a84546145ee565b84614d23565b602080601f831160018114614dd55760008415614dbd5750858301515b600019600386901b1c1916600185901b178555614d6b565b600085815260208120601f198616915b82811015614e0457888601518255948401946001909101908401614de5565b5085821015614e225787850151600019600388901b60f8161c191681555b5050505050600190811b01905550565b600060208083018184528085518083526040925060408601915060408160051b87010184880160005b83811015614eaf57888303603f190185528151805163ffffffff1684528781015161ffff16888501528601516060878501819052614e9b81860183613da3565b968901969450505090860190600101614e5b565b509098975050505050505050565b600060408284031215614ecf57600080fd5b614ed76146b5565b82358152602083013560208201528091505092915050565b803560208310156110b257600019602084900360031b1b1692915050565b6001600160c01b03198135818116916008851015614f355780818660080360031b1b83161692505b505092915050565b6001600160401b0360c01b8560c01b16815263ffffffff60e01b8460e01b16600882015282600c82015260008251614f7c81602c850160208701613d7f565b91909101602c0195945050505050565b8481526001600160401b0360c01b8460c01b16602082015282602882015260008251614fbf816048850160208701613d7f565b9190910160480195945050505050565b600060808284031215614fe157600080fd5b614fe9614693565b825181526020830151614ffb81614a5d565b602082015261500d8460408501614cb5565b60408201529392505050565b808201808211156110b2576110b2614b5d565b60006001820161503e5761503e614b5d565b5060010190565b818103818111156110b2576110b2614b5d565b8381528260208201526060604082015260006129e16060830184613da3565b8281526040602082015260006119576040830184613da356fea264697066735822122027c71f086a5396ecaf4654fbb6428d12c2ce9b7df0fe51a10248efed1e4e3bb264736f6c63430008160033a2646970667358221220f859176f4618f3cf336ba5230abafda6014f6392b1e446f28bd340b382f3786d64736f6c63430008160033","linkReferences":{}},"methodIdentifiers":{"CREATE2_FACTORY()":"64dac83d","deployEagle(bytes32,string,string,address)":"bfbc7d14","deployEagleWithEndpoint(bytes32,string,string,address,address)":"c03eda4e","generateSalt(string)":"f28df22e","getCurrentChainId()":"5cf0e8a4","getCurrentLayerZeroEndpoint()":"887120d5","getLayerZeroEndpoint(uint16)":"b87f29e1","getStandardSalt()":"3d8d3e69","isChainSupported(uint16)":"28f41de3","isEagleDeployed(bytes32,string,string,address)":"182a1302","isEagleDeployedWithEndpoint(bytes32,string,string,address,address)":"51279b3e","predictEagleAddress(bytes32,string,string,address)":"344d978d","predictEagleAddressWithEndpoint(bytes32,string,string,address,address)":"f5d56374","predictMultiChainAddresses(bytes32,string,string,address,uint16[])":"f1505929","registry()":"7b103999"},"id":5}