{"abi":[{"type":"constructor","inputs":[{"name":"_price","type":"int256","internalType":"int256"},{"name":"_decimals","type":"uint8","internalType":"uint8"}],"stateMutability":"nonpayable"},{"type":"function","name":"decimals","inputs":[],"outputs":[{"name":"","type":"uint8","internalType":"uint8"}],"stateMutability":"view"},{"type":"function","name":"latestRoundData","inputs":[],"outputs":[{"name":"roundId","type":"uint80","internalType":"uint80"},{"name":"answer","type":"int256","internalType":"int256"},{"name":"startedAt","type":"uint256","internalType":"uint256"},{"name":"updatedAt","type":"uint256","internalType":"uint256"},{"name":"answeredInRound","type":"uint80","internalType":"uint80"}],"stateMutability":"view"},{"type":"function","name":"price","inputs":[],"outputs":[{"name":"","type":"int256","internalType":"int256"}],"stateMutability":"view"},{"type":"function","name":"setPrice","inputs":[{"name":"_price","type":"int256","internalType":"int256"}],"outputs":[],"stateMutability":"nonpayable"}],"bytecode":{"object":"0x608060405234801561001057600080fd5b506040516101a73803806101a783398101604081905261002f9161004d565b6000919091556001805460ff191660ff909216919091179055610083565b6000806040838503121561006057600080fd5b82519150602083015160ff8116811461007857600080fd5b809150509250929050565b610115806100926000396000f3fe6080604052348015600f57600080fd5b506004361060465760003560e01c8063313ce56714604b578063a035b1fe14606e578063f7a30806146083578063feaf968c146095575b600080fd5b60015460579060ff1681565b60405160ff90911681526020015b60405180910390f35b607660005481565b6040519081526020016065565b6093608e36600460c7565b600055565b005b6000546040805160018082526020820193909352429181018290526060810191909152608081019190915260a0016065565b60006020828403121560d857600080fd5b503591905056fea26469706673582212203ac45279c3d03bf28e60d32056e145fb8e96541d0a197c9c954b5d4e07c1a8f764736f6c63430008160033","linkReferences":{}},"methodIdentifiers":{"decimals()":"313ce567","latestRoundData()":"feaf968c","price()":"a035b1fe","setPrice(int256)":"f7a30806"},"id":2}