{"abi":[{"type":"constructor","inputs":[{"name":"_name","type":"string","internalType":"string"},{"name":"_symbol","type":"string","internalType":"string"},{"name":"_lzEndpoint","type":"address","internalType":"address"},{"name":"_delegate","type":"address","internalType":"address"}],"stateMutability":"nonpayable"},{"type":"function","name":"BASIS_POINTS","inputs":[],"outputs":[{"name":"","type":"uint256","internalType":"uint256"}],"stateMutability":"view"},{"type":"function","name":"MAX_FEE_BPS","inputs":[],"outputs":[{"name":"","type":"uint256","internalType":"uint256"}],"stateMutability":"view"},{"type":"function","name":"SEND","inputs":[],"outputs":[{"name":"","type":"uint16","internalType":"uint16"}],"stateMutability":"view"},{"type":"function","name":"SEND_AND_CALL","inputs":[],"outputs":[{"name":"","type":"uint16","internalType":"uint16"}],"stateMutability":"view"},{"type":"function","name":"addressOperationType","inputs":[{"name":"","type":"address","internalType":"address"}],"outputs":[{"name":"","type":"uint8","internalType":"enum EagleShareOFT.OperationType"}],"stateMutability":"view"},{"type":"function","name":"allowInitializePath","inputs":[{"name":"origin","type":"tuple","internalType":"struct Origin","components":[{"name":"srcEid","type":"uint32","internalType":"uint32"},{"name":"sender","type":"bytes32","internalType":"bytes32"},{"name":"nonce","type":"uint64","internalType":"uint64"}]}],"outputs":[{"name":"","type":"bool","internalType":"bool"}],"stateMutability":"view"},{"type":"function","name":"allowance","inputs":[{"name":"owner","type":"address","internalType":"address"},{"name":"spender","type":"address","internalType":"address"}],"outputs":[{"name":"","type":"uint256","internalType":"uint256"}],"stateMutability":"view"},{"type":"function","name":"approvalRequired","inputs":[],"outputs":[{"name":"","type":"bool","internalType":"bool"}],"stateMutability":"pure"},{"type":"function","name":"approve","inputs":[{"name":"spender","type":"address","internalType":"address"},{"name":"value","type":"uint256","internalType":"uint256"}],"outputs":[{"name":"","type":"bool","internalType":"bool"}],"stateMutability":"nonpayable"},{"type":"function","name":"balanceOf","inputs":[{"name":"account","type":"address","internalType":"address"}],"outputs":[{"name":"","type":"uint256","internalType":"uint256"}],"stateMutability":"view"},{"type":"function","name":"burn","inputs":[{"name":"from","type":"address","internalType":"address"},{"name":"amount","type":"uint256","internalType":"uint256"}],"outputs":[],"stateMutability":"nonpayable"},{"type":"function","name":"calculateSwapFee","inputs":[{"name":"amount","type":"uint256","internalType":"uint256"},{"name":"isBuy","type":"bool","internalType":"bool"}],"outputs":[{"name":"feeAmount","type":"uint256","internalType":"uint256"}],"stateMutability":"view"},{"type":"function","name":"checkMinter","inputs":[{"name":"account","type":"address","internalType":"address"}],"outputs":[{"name":"","type":"bool","internalType":"bool"}],"stateMutability":"view"},{"type":"function","name":"combineOptions","inputs":[{"name":"_eid","type":"uint32","internalType":"uint32"},{"name":"_msgType","type":"uint16","internalType":"uint16"},{"name":"_extraOptions","type":"bytes","internalType":"bytes"}],"outputs":[{"name":"","type":"bytes","internalType":"bytes"}],"stateMutability":"view"},{"type":"function","name":"decimalConversionRate","inputs":[],"outputs":[{"name":"","type":"uint256","internalType":"uint256"}],"stateMutability":"view"},{"type":"function","name":"decimals","inputs":[],"outputs":[{"name":"","type":"uint8","internalType":"uint8"}],"stateMutability":"view"},{"type":"function","name":"endpoint","inputs":[],"outputs":[{"name":"","type":"address","internalType":"contract ILayerZeroEndpointV2"}],"stateMutability":"view"},{"type":"function","name":"enforcedOptions","inputs":[{"name":"eid","type":"uint32","internalType":"uint32"},{"name":"msgType","type":"uint16","internalType":"uint16"}],"outputs":[{"name":"enforcedOption","type":"bytes","internalType":"bytes"}],"stateMutability":"view"},{"type":"function","name":"feeExempt","inputs":[{"name":"","type":"address","internalType":"address"}],"outputs":[{"name":"","type":"bool","internalType":"bool"}],"stateMutability":"view"},{"type":"function","name":"getFeeStats","inputs":[],"outputs":[{"name":"totalBuyFeesCollected","type":"uint256","internalType":"uint256"},{"name":"totalSellFeesCollected","type":"uint256","internalType":"uint256"},{"name":"totalVaultFees","type":"uint256","internalType":"uint256"},{"name":"totalSwaps","type":"uint256","internalType":"uint256"}],"stateMutability":"view"},{"type":"function","name":"isComposeMsgSender","inputs":[{"name":"","type":"tuple","internalType":"struct Origin","components":[{"name":"srcEid","type":"uint32","internalType":"uint32"},{"name":"sender","type":"bytes32","internalType":"bytes32"},{"name":"nonce","type":"uint64","internalType":"uint64"}]},{"name":"","type":"bytes","internalType":"bytes"},{"name":"_sender","type":"address","internalType":"address"}],"outputs":[{"name":"","type":"bool","internalType":"bool"}],"stateMutability":"view"},{"type":"function","name":"isMinter","inputs":[{"name":"","type":"address","internalType":"address"}],"outputs":[{"name":"","type":"bool","internalType":"bool"}],"stateMutability":"view"},{"type":"function","name":"isPair","inputs":[{"name":"","type":"address","internalType":"address"}],"outputs":[{"name":"","type":"bool","internalType":"bool"}],"stateMutability":"view"},{"type":"function","name":"isPeer","inputs":[{"name":"_eid","type":"uint32","internalType":"uint32"},{"name":"_peer","type":"bytes32","internalType":"bytes32"}],"outputs":[{"name":"","type":"bool","internalType":"bool"}],"stateMutability":"view"},{"type":"function","name":"isSwapRouter","inputs":[{"name":"","type":"address","internalType":"address"}],"outputs":[{"name":"","type":"bool","internalType":"bool"}],"stateMutability":"view"},{"type":"function","name":"isV3Pool","inputs":[{"name":"","type":"address","internalType":"address"}],"outputs":[{"name":"","type":"bool","internalType":"bool"}],"stateMutability":"view"},{"type":"function","name":"isV3PoolConfigured","inputs":[{"name":"pool","type":"address","internalType":"address"}],"outputs":[{"name":"","type":"bool","internalType":"bool"}],"stateMutability":"view"},{"type":"function","name":"lzReceive","inputs":[{"name":"_origin","type":"tuple","internalType":"struct Origin","components":[{"name":"srcEid","type":"uint32","internalType":"uint32"},{"name":"sender","type":"bytes32","internalType":"bytes32"},{"name":"nonce","type":"uint64","internalType":"uint64"}]},{"name":"_guid","type":"bytes32","internalType":"bytes32"},{"name":"_message","type":"bytes","internalType":"bytes"},{"name":"_executor","type":"address","internalType":"address"},{"name":"_extraData","type":"bytes","internalType":"bytes"}],"outputs":[],"stateMutability":"payable"},{"type":"function","name":"lzReceiveAndRevert","inputs":[{"name":"_packets","type":"tuple[]","internalType":"struct InboundPacket[]","components":[{"name":"origin","type":"tuple","internalType":"struct Origin","components":[{"name":"srcEid","type":"uint32","internalType":"uint32"},{"name":"sender","type":"bytes32","internalType":"bytes32"},{"name":"nonce","type":"uint64","internalType":"uint64"}]},{"name":"dstEid","type":"uint32","internalType":"uint32"},{"name":"receiver","type":"address","internalType":"address"},{"name":"guid","type":"bytes32","internalType":"bytes32"},{"name":"value","type":"uint256","internalType":"uint256"},{"name":"executor","type":"address","internalType":"address"},{"name":"message","type":"bytes","internalType":"bytes"},{"name":"extraData","type":"bytes","internalType":"bytes"}]}],"outputs":[],"stateMutability":"payable"},{"type":"function","name":"lzReceiveSimulate","inputs":[{"name":"_origin","type":"tuple","internalType":"struct Origin","components":[{"name":"srcEid","type":"uint32","internalType":"uint32"},{"name":"sender","type":"bytes32","internalType":"bytes32"},{"name":"nonce","type":"uint64","internalType":"uint64"}]},{"name":"_guid","type":"bytes32","internalType":"bytes32"},{"name":"_message","type":"bytes","internalType":"bytes"},{"name":"_executor","type":"address","internalType":"address"},{"name":"_extraData","type":"bytes","internalType":"bytes"}],"outputs":[],"stateMutability":"payable"},{"type":"function","name":"mint","inputs":[{"name":"to","type":"address","internalType":"address"},{"name":"amount","type":"uint256","internalType":"uint256"}],"outputs":[],"stateMutability":"nonpayable"},{"type":"function","name":"msgInspector","inputs":[],"outputs":[{"name":"","type":"address","internalType":"address"}],"stateMutability":"view"},{"type":"function","name":"name","inputs":[],"outputs":[{"name":"","type":"string","internalType":"string"}],"stateMutability":"view"},{"type":"function","name":"nextNonce","inputs":[{"name":"","type":"uint32","internalType":"uint32"},{"name":"","type":"bytes32","internalType":"bytes32"}],"outputs":[{"name":"nonce","type":"uint64","internalType":"uint64"}],"stateMutability":"view"},{"type":"function","name":"oApp","inputs":[],"outputs":[{"name":"","type":"address","internalType":"address"}],"stateMutability":"view"},{"type":"function","name":"oAppVersion","inputs":[],"outputs":[{"name":"senderVersion","type":"uint64","internalType":"uint64"},{"name":"receiverVersion","type":"uint64","internalType":"uint64"}],"stateMutability":"pure"},{"type":"function","name":"oftVersion","inputs":[],"outputs":[{"name":"interfaceId","type":"bytes4","internalType":"bytes4"},{"name":"version","type":"uint64","internalType":"uint64"}],"stateMutability":"pure"},{"type":"function","name":"owner","inputs":[],"outputs":[{"name":"","type":"address","internalType":"address"}],"stateMutability":"view"},{"type":"function","name":"peers","inputs":[{"name":"eid","type":"uint32","internalType":"uint32"}],"outputs":[{"name":"peer","type":"bytes32","internalType":"bytes32"}],"stateMutability":"view"},{"type":"function","name":"preCrime","inputs":[],"outputs":[{"name":"","type":"address","internalType":"address"}],"stateMutability":"view"},{"type":"function","name":"quoteOFT","inputs":[{"name":"_sendParam","type":"tuple","internalType":"struct SendParam","components":[{"name":"dstEid","type":"uint32","internalType":"uint32"},{"name":"to","type":"bytes32","internalType":"bytes32"},{"name":"amountLD","type":"uint256","internalType":"uint256"},{"name":"minAmountLD","type":"uint256","internalType":"uint256"},{"name":"extraOptions","type":"bytes","internalType":"bytes"},{"name":"composeMsg","type":"bytes","internalType":"bytes"},{"name":"oftCmd","type":"bytes","internalType":"bytes"}]}],"outputs":[{"name":"oftLimit","type":"tuple","internalType":"struct OFTLimit","components":[{"name":"minAmountLD","type":"uint256","internalType":"uint256"},{"name":"maxAmountLD","type":"uint256","internalType":"uint256"}]},{"name":"oftFeeDetails","type":"tuple[]","internalType":"struct OFTFeeDetail[]","components":[{"name":"feeAmountLD","type":"int256","internalType":"int256"},{"name":"description","type":"string","internalType":"string"}]},{"name":"oftReceipt","type":"tuple","internalType":"struct OFTReceipt","components":[{"name":"amountSentLD","type":"uint256","internalType":"uint256"},{"name":"amountReceivedLD","type":"uint256","internalType":"uint256"}]}],"stateMutability":"view"},{"type":"function","name":"quoteSend","inputs":[{"name":"_sendParam","type":"tuple","internalType":"struct SendParam","components":[{"name":"dstEid","type":"uint32","internalType":"uint32"},{"name":"to","type":"bytes32","internalType":"bytes32"},{"name":"amountLD","type":"uint256","internalType":"uint256"},{"name":"minAmountLD","type":"uint256","internalType":"uint256"},{"name":"extraOptions","type":"bytes","internalType":"bytes"},{"name":"composeMsg","type":"bytes","internalType":"bytes"},{"name":"oftCmd","type":"bytes","internalType":"bytes"}]},{"name":"_payInLzToken","type":"bool","internalType":"bool"}],"outputs":[{"name":"msgFee","type":"tuple","internalType":"struct MessagingFee","components":[{"name":"nativeFee","type":"uint256","internalType":"uint256"},{"name":"lzTokenFee","type":"uint256","internalType":"uint256"}]}],"stateMutability":"view"},{"type":"function","name":"renounceOwnership","inputs":[],"outputs":[],"stateMutability":"nonpayable"},{"type":"function","name":"send","inputs":[{"name":"_sendParam","type":"tuple","internalType":"struct SendParam","components":[{"name":"dstEid","type":"uint32","internalType":"uint32"},{"name":"to","type":"bytes32","internalType":"bytes32"},{"name":"amountLD","type":"uint256","internalType":"uint256"},{"name":"minAmountLD","type":"uint256","internalType":"uint256"},{"name":"extraOptions","type":"bytes","internalType":"bytes"},{"name":"composeMsg","type":"bytes","internalType":"bytes"},{"name":"oftCmd","type":"bytes","internalType":"bytes"}]},{"name":"_fee","type":"tuple","internalType":"struct MessagingFee","components":[{"name":"nativeFee","type":"uint256","internalType":"uint256"},{"name":"lzTokenFee","type":"uint256","internalType":"uint256"}]},{"name":"_refundAddress","type":"address","internalType":"address"}],"outputs":[{"name":"msgReceipt","type":"tuple","internalType":"struct MessagingReceipt","components":[{"name":"guid","type":"bytes32","internalType":"bytes32"},{"name":"nonce","type":"uint64","internalType":"uint64"},{"name":"fee","type":"tuple","internalType":"struct MessagingFee","components":[{"name":"nativeFee","type":"uint256","internalType":"uint256"},{"name":"lzTokenFee","type":"uint256","internalType":"uint256"}]}]},{"name":"oftReceipt","type":"tuple","internalType":"struct OFTReceipt","components":[{"name":"amountSentLD","type":"uint256","internalType":"uint256"},{"name":"amountReceivedLD","type":"uint256","internalType":"uint256"}]}],"stateMutability":"payable"},{"type":"function","name":"setAddressOperationType","inputs":[{"name":"addr","type":"address","internalType":"address"},{"name":"opType","type":"uint8","internalType":"enum EagleShareOFT.OperationType"}],"outputs":[],"stateMutability":"nonpayable"},{"type":"function","name":"setDelegate","inputs":[{"name":"_delegate","type":"address","internalType":"address"}],"outputs":[],"stateMutability":"nonpayable"},{"type":"function","name":"setEnforcedOptions","inputs":[{"name":"_enforcedOptions","type":"tuple[]","internalType":"struct EnforcedOptionParam[]","components":[{"name":"eid","type":"uint32","internalType":"uint32"},{"name":"msgType","type":"uint16","internalType":"uint16"},{"name":"options","type":"bytes","internalType":"bytes"}]}],"outputs":[],"stateMutability":"nonpayable"},{"type":"function","name":"setFeeExempt","inputs":[{"name":"account","type":"address","internalType":"address"},{"name":"_isExempt","type":"bool","internalType":"bool"}],"outputs":[],"stateMutability":"nonpayable"},{"type":"function","name":"setFeesEnabled","inputs":[{"name":"_enabled","type":"bool","internalType":"bool"}],"outputs":[],"stateMutability":"nonpayable"},{"type":"function","name":"setMinter","inputs":[{"name":"minter","type":"address","internalType":"address"},{"name":"status","type":"bool","internalType":"bool"}],"outputs":[],"stateMutability":"nonpayable"},{"type":"function","name":"setMsgInspector","inputs":[{"name":"_msgInspector","type":"address","internalType":"address"}],"outputs":[],"stateMutability":"nonpayable"},{"type":"function","name":"setPair","inputs":[{"name":"pair","type":"address","internalType":"address"},{"name":"_isPair","type":"bool","internalType":"bool"}],"outputs":[],"stateMutability":"nonpayable"},{"type":"function","name":"setPeer","inputs":[{"name":"_eid","type":"uint32","internalType":"uint32"},{"name":"_peer","type":"bytes32","internalType":"bytes32"}],"outputs":[],"stateMutability":"nonpayable"},{"type":"function","name":"setPreCrime","inputs":[{"name":"_preCrime","type":"address","internalType":"address"}],"outputs":[],"stateMutability":"nonpayable"},{"type":"function","name":"setSwapFeeConfig","inputs":[{"name":"_buyFee","type":"uint16","internalType":"uint16"},{"name":"_sellFee","type":"uint16","internalType":"uint16"},{"name":"_treasuryShare","type":"uint16","internalType":"uint16"},{"name":"_vaultShare","type":"uint16","internalType":"uint16"},{"name":"_treasury","type":"address","internalType":"address"},{"name":"_vaultBeneficiary","type":"address","internalType":"address"},{"name":"_enabled","type":"bool","internalType":"bool"}],"outputs":[],"stateMutability":"nonpayable"},{"type":"function","name":"setSwapRouter","inputs":[{"name":"router","type":"address","internalType":"address"},{"name":"_isRouter","type":"bool","internalType":"bool"}],"outputs":[],"stateMutability":"nonpayable"},{"type":"function","name":"setV3Pool","inputs":[{"name":"pool","type":"address","internalType":"address"},{"name":"_isV3Pool","type":"bool","internalType":"bool"}],"outputs":[],"stateMutability":"nonpayable"},{"type":"function","name":"setV3PoolsBatch","inputs":[{"name":"pools","type":"address[]","internalType":"address[]"},{"name":"_isV3Pool","type":"bool","internalType":"bool"}],"outputs":[],"stateMutability":"nonpayable"},{"type":"function","name":"setVaultBeneficiary","inputs":[{"name":"_vaultBeneficiary","type":"address","internalType":"address"}],"outputs":[],"stateMutability":"nonpayable"},{"type":"function","name":"sharedDecimals","inputs":[],"outputs":[{"name":"","type":"uint8","internalType":"uint8"}],"stateMutability":"view"},{"type":"function","name":"swapFeeConfig","inputs":[],"outputs":[{"name":"buyFee","type":"uint16","internalType":"uint16"},{"name":"sellFee","type":"uint16","internalType":"uint16"},{"name":"treasuryShare","type":"uint16","internalType":"uint16"},{"name":"vaultShare","type":"uint16","internalType":"uint16"},{"name":"treasury","type":"address","internalType":"address"},{"name":"vaultBeneficiary","type":"address","internalType":"address"},{"name":"feesEnabled","type":"bool","internalType":"bool"}],"stateMutability":"view"},{"type":"function","name":"symbol","inputs":[],"outputs":[{"name":"","type":"string","internalType":"string"}],"stateMutability":"view"},{"type":"function","name":"token","inputs":[],"outputs":[{"name":"","type":"address","internalType":"address"}],"stateMutability":"view"},{"type":"function","name":"totalBuyFees","inputs":[],"outputs":[{"name":"","type":"uint256","internalType":"uint256"}],"stateMutability":"view"},{"type":"function","name":"totalSellFees","inputs":[],"outputs":[{"name":"","type":"uint256","internalType":"uint256"}],"stateMutability":"view"},{"type":"function","name":"totalSupply","inputs":[],"outputs":[{"name":"","type":"uint256","internalType":"uint256"}],"stateMutability":"view"},{"type":"function","name":"totalSwapsProcessed","inputs":[],"outputs":[{"name":"","type":"uint256","internalType":"uint256"}],"stateMutability":"view"},{"type":"function","name":"totalVaultInjected","inputs":[],"outputs":[{"name":"","type":"uint256","internalType":"uint256"}],"stateMutability":"view"},{"type":"function","name":"transfer","inputs":[{"name":"to","type":"address","internalType":"address"},{"name":"value","type":"uint256","internalType":"uint256"}],"outputs":[{"name":"","type":"bool","internalType":"bool"}],"stateMutability":"nonpayable"},{"type":"function","name":"transferFrom","inputs":[{"name":"from","type":"address","internalType":"address"},{"name":"to","type":"address","internalType":"address"},{"name":"value","type":"uint256","internalType":"uint256"}],"outputs":[{"name":"","type":"bool","internalType":"bool"}],"stateMutability":"nonpayable"},{"type":"function","name":"transferOwnership","inputs":[{"name":"newOwner","type":"address","internalType":"address"}],"outputs":[],"stateMutability":"nonpayable"},{"type":"function","name":"version","inputs":[],"outputs":[{"name":"","type":"string","internalType":"string"}],"stateMutability":"pure"},{"type":"event","name":"Approval","inputs":[{"name":"owner","type":"address","indexed":true,"internalType":"address"},{"name":"spender","type":"address","indexed":true,"internalType":"address"},{"name":"value","type":"uint256","indexed":false,"internalType":"uint256"}],"anonymous":false},{"type":"event","name":"EnforcedOptionSet","inputs":[{"name":"_enforcedOptions","type":"tuple[]","indexed":false,"internalType":"struct EnforcedOptionParam[]","components":[{"name":"eid","type":"uint32","internalType":"uint32"},{"name":"msgType","type":"uint16","internalType":"uint16"},{"name":"options","type":"bytes","internalType":"bytes"}]}],"anonymous":false},{"type":"event","name":"FeeConfigUpdated","inputs":[{"name":"buyFee","type":"uint16","indexed":false,"internalType":"uint16"},{"name":"sellFee","type":"uint16","indexed":false,"internalType":"uint16"},{"name":"enabled","type":"bool","indexed":false,"internalType":"bool"}],"anonymous":false},{"type":"event","name":"FeesDistributed","inputs":[{"name":"recipient","type":"address","indexed":true,"internalType":"address"},{"name":"amount","type":"uint256","indexed":false,"internalType":"uint256"},{"name":"category","type":"string","indexed":false,"internalType":"string"}],"anonymous":false},{"type":"event","name":"MinterUpdated","inputs":[{"name":"minter","type":"address","indexed":true,"internalType":"address"},{"name":"status","type":"bool","indexed":false,"internalType":"bool"}],"anonymous":false},{"type":"event","name":"MsgInspectorSet","inputs":[{"name":"inspector","type":"address","indexed":false,"internalType":"address"}],"anonymous":false},{"type":"event","name":"OFTReceived","inputs":[{"name":"guid","type":"bytes32","indexed":true,"internalType":"bytes32"},{"name":"srcEid","type":"uint32","indexed":false,"internalType":"uint32"},{"name":"toAddress","type":"address","indexed":true,"internalType":"address"},{"name":"amountReceivedLD","type":"uint256","indexed":false,"internalType":"uint256"}],"anonymous":false},{"type":"event","name":"OFTSent","inputs":[{"name":"guid","type":"bytes32","indexed":true,"internalType":"bytes32"},{"name":"dstEid","type":"uint32","indexed":false,"internalType":"uint32"},{"name":"fromAddress","type":"address","indexed":true,"internalType":"address"},{"name":"amountSentLD","type":"uint256","indexed":false,"internalType":"uint256"},{"name":"amountReceivedLD","type":"uint256","indexed":false,"internalType":"uint256"}],"anonymous":false},{"type":"event","name":"OperationTypeUpdated","inputs":[{"name":"addr","type":"address","indexed":true,"internalType":"address"},{"name":"opType","type":"uint8","indexed":false,"internalType":"enum EagleShareOFT.OperationType"}],"anonymous":false},{"type":"event","name":"OwnershipTransferred","inputs":[{"name":"previousOwner","type":"address","indexed":true,"internalType":"address"},{"name":"newOwner","type":"address","indexed":true,"internalType":"address"}],"anonymous":false},{"type":"event","name":"PeerSet","inputs":[{"name":"eid","type":"uint32","indexed":false,"internalType":"uint32"},{"name":"peer","type":"bytes32","indexed":false,"internalType":"bytes32"}],"anonymous":false},{"type":"event","name":"PreCrimeSet","inputs":[{"name":"preCrimeAddress","type":"address","indexed":false,"internalType":"address"}],"anonymous":false},{"type":"event","name":"SwapFeeApplied","inputs":[{"name":"from","type":"address","indexed":true,"internalType":"address"},{"name":"to","type":"address","indexed":true,"internalType":"address"},{"name":"amount","type":"uint256","indexed":false,"internalType":"uint256"},{"name":"feeAmount","type":"uint256","indexed":false,"internalType":"uint256"},{"name":"reason","type":"string","indexed":false,"internalType":"string"}],"anonymous":false},{"type":"event","name":"Transfer","inputs":[{"name":"from","type":"address","indexed":true,"internalType":"address"},{"name":"to","type":"address","indexed":true,"internalType":"address"},{"name":"value","type":"uint256","indexed":false,"internalType":"uint256"}],"anonymous":false},{"type":"event","name":"V3PoolConfigured","inputs":[{"name":"pool","type":"address","indexed":true,"internalType":"address"},{"name":"isV3","type":"bool","indexed":false,"internalType":"bool"}],"anonymous":false},{"type":"error","name":"ERC20InsufficientAllowance","inputs":[{"name":"spender","type":"address","internalType":"address"},{"name":"allowance","type":"uint256","internalType":"uint256"},{"name":"needed","type":"uint256","internalType":"uint256"}]},{"type":"error","name":"ERC20InsufficientBalance","inputs":[{"name":"sender","type":"address","internalType":"address"},{"name":"balance","type":"uint256","internalType":"uint256"},{"name":"needed","type":"uint256","internalType":"uint256"}]},{"type":"error","name":"ERC20InvalidApprover","inputs":[{"name":"approver","type":"address","internalType":"address"}]},{"type":"error","name":"ERC20InvalidReceiver","inputs":[{"name":"receiver","type":"address","internalType":"address"}]},{"type":"error","name":"ERC20InvalidSender","inputs":[{"name":"sender","type":"address","internalType":"address"}]},{"type":"error","name":"ERC20InvalidSpender","inputs":[{"name":"spender","type":"address","internalType":"address"}]},{"type":"error","name":"FeeExceedsLimit","inputs":[]},{"type":"error","name":"InvalidDelegate","inputs":[]},{"type":"error","name":"InvalidEndpointCall","inputs":[]},{"type":"error","name":"InvalidFeeDistribution","inputs":[]},{"type":"error","name":"InvalidFeeRecipient","inputs":[]},{"type":"error","name":"InvalidLocalDecimals","inputs":[]},{"type":"error","name":"InvalidOptions","inputs":[{"name":"options","type":"bytes","internalType":"bytes"}]},{"type":"error","name":"LzTokenUnavailable","inputs":[]},{"type":"error","name":"NoPeer","inputs":[{"name":"eid","type":"uint32","internalType":"uint32"}]},{"type":"error","name":"NotEnoughNative","inputs":[{"name":"msgValue","type":"uint256","internalType":"uint256"}]},{"type":"error","name":"NotMinter","inputs":[]},{"type":"error","name":"OnlyEndpoint","inputs":[{"name":"addr","type":"address","internalType":"address"}]},{"type":"error","name":"OnlyPeer","inputs":[{"name":"eid","type":"uint32","internalType":"uint32"},{"name":"sender","type":"bytes32","internalType":"bytes32"}]},{"type":"error","name":"OnlySelf","inputs":[]},{"type":"error","name":"OwnableInvalidOwner","inputs":[{"name":"owner","type":"address","internalType":"address"}]},{"type":"error","name":"OwnableUnauthorizedAccount","inputs":[{"name":"account","type":"address","internalType":"address"}]},{"type":"error","name":"SafeERC20FailedOperation","inputs":[{"name":"token","type":"address","internalType":"address"}]},{"type":"error","name":"SimulationResult","inputs":[{"name":"result","type":"bytes","internalType":"bytes"}]},{"type":"error","name":"SlippageExceeded","inputs":[{"name":"amountLD","type":"uint256","internalType":"uint256"},{"name":"minAmountLD","type":"uint256","internalType":"uint256"}]},{"type":"error","name":"ZeroAddress","inputs":[]}],"bytecode":{"object":"0x60c06040523480156200001157600080fd5b506040516200516f3803806200516f83398101604081905262000034916200035c565b83838383838360128484818181818d6001600160a01b0381166200007257604051631e4fbdf760e01b81526000600482015260240160405180910390fd5b6200007d8162000222565b506001600160a01b038083166080528116620000ac57604051632d618d8160e21b815260040160405180910390fd5b60805160405163ca5eb5e160e01b81526001600160a01b0383811660048301529091169063ca5eb5e190602401600060405180830381600087803b158015620000f457600080fd5b505af115801562000109573d6000803e3d6000fd5b5050505050505050620001216200027260201b60201c565b60ff168360ff16101562000148576040516301e9714b60e41b815260040160405180910390fd5b6200015560068462000401565b6200016290600a62000520565b60a05250600891506200017890508382620005c9565b506009620001878282620005c9565b5050506001600160a01b0385169350620001b8925050505760405163d92e233d60e01b815260040160405180910390fd5b6001600160a01b038216620001e05760405163d92e233d60e01b815260040160405180910390fd5b6001600160a01b03166000908152601160205260408082208054600160ff19918216811790925530845291909220805490911690911790555062000695915050565b600080546001600160a01b038381166001600160a01b0319831681178455604051919092169283917f8be0079c531659141344cd1fd0a4f28419497f9722a3daafe3b4186f6b6457e09190a35050565b600690565b634e487b7160e01b600052604160045260246000fd5b600082601f8301126200029f57600080fd5b81516001600160401b0380821115620002bc57620002bc62000277565b604051601f8301601f19908116603f01168101908282118183101715620002e757620002e762000277565b81604052838152602092508660208588010111156200030557600080fd5b600091505b838210156200032957858201830151818301840152908201906200030a565b6000602085830101528094505050505092915050565b80516001600160a01b03811681146200035757600080fd5b919050565b600080600080608085870312156200037357600080fd5b84516001600160401b03808211156200038b57600080fd5b62000399888389016200028d565b95506020870151915080821115620003b057600080fd5b50620003bf878288016200028d565b935050620003d0604086016200033f565b9150620003e0606086016200033f565b905092959194509250565b634e487b7160e01b600052601160045260246000fd5b60ff82811682821603908111156200041d576200041d620003eb565b92915050565b600181815b8085111562000464578160001904821115620004485762000448620003eb565b808516156200045657918102915b93841c939080029062000428565b509250929050565b6000826200047d575060016200041d565b816200048c575060006200041d565b8160018114620004a55760028114620004b057620004d0565b60019150506200041d565b60ff841115620004c457620004c4620003eb565b50506001821b6200041d565b5060208310610133831016604e8410600b8410161715620004f5575081810a6200041d565b62000501838362000423565b8060001904821115620005185762000518620003eb565b029392505050565b60006200053160ff8416836200046c565b9392505050565b600181811c908216806200054d57607f821691505b6020821081036200056e57634e487b7160e01b600052602260045260246000fd5b50919050565b601f821115620005c4576000816000526020600020601f850160051c810160208610156200059f5750805b601f850160051c820191505b81811015620005c057828155600101620005ab565b5050505b505050565b81516001600160401b03811115620005e557620005e562000277565b620005fd81620005f6845462000538565b8462000574565b602080601f8311600181146200063557600084156200061c5750858301515b600019600386901b1c1916600185901b178555620005c0565b600085815260208120601f198616915b82811015620006665788860151825594840194600190910190840162000645565b5085821015620006855787850151600019600388901b60f8161c191681555b5050505050600190811b01905550565b60805160a051614a6e6200070160003960008181610a0301528181612a8601528181612afb0152612c9b01526000818161086c01528181610ffe01528181611cf0015281816121290152818161247c01528181612d9301528181613165015261321e0152614a6e6000f3fe60806040526004361061041b5760003560e01c80638b8dc8fa1161021e578063bd815db011610123578063dd62ed3e116100ab578063f28ab2be1161007a578063f28ab2be14610de6578063f2fde38b14610e1f578063fc0c546a1461073e578063fe57fb0314610e3f578063ff7bd03d14610e5f57600080fd5b8063dd62ed3e14610d60578063e1f1c4a714610d80578063e5e31b1314610d96578063ef1aa14414610dc657600080fd5b8063d045a0dc116100f2578063d045a0dc14610c50578063d0a3981414610c63578063d424388514610c79578063d55be8c614610c99578063d6bf50dc14610caf57600080fd5b8063bd815db014610bdc578063c7c7f5b314610bef578063ca5eb5e114610c10578063cf456ae714610c3057600080fd5b8063a901dd92116101a6578063b789bb1a11610175578063b789bb1a14610b39578063b98bd07014610b59578063b9e9370014610b79578063bb0b6a5314610b8f578063bc70b35414610bbc57600080fd5b8063a901dd9214610aa9578063a9059cbb14610ac9578063aa271e1a14610ae9578063b731ea0a14610b1957600080fd5b8063963efcaa116101ed578063963efcaa146109f15780639dc29fac14610a255780639f68b96414610a45578063a1bc910f14610a59578063a6bd907014610a8957600080fd5b80638b8dc8fa146109885780638da5cb5b1461099e5780638ebfc796146109bc57806395d89b41146109dc57600080fd5b80633b6f743b116103245780635be2d557116102ac578063715018a61161027b578063715018a6146108e45780637d25a05e146108f957806382413eac14610934578063857749b01461095457806386a22eff1461096857600080fd5b80635be2d5571461083a5780635e280f111461085a5780636fc1b31e1461088e57806370a08231146108ae57600080fd5b806354fd4d50116102f357806354fd4d50146107515780635535d4611461078a5780635952d6d2146107aa5780635a0dfe4d146107ca5780635b57bbd61461080157600080fd5b80633b6f743b146106b457806340c10f19146106e15780634a8848931461070157806352ae28791461073e57600080fd5b80631f5e1334116103a75780632bb47bc4116103765780632bb47bc4146105fc578063313ce5671461062c578063317f3d6d1461064e5780633400288b14610664578063398daa851461068457600080fd5b80631f5e1334146105875780632171dcc91461059c5780632278d740146105bc57806323b872dd146105dc57600080fd5b806313137d65116103ee57806313137d65146104e2578063134d4f25146104f7578063156a0d0f1461051f57806317442b701461054657806318160ddd1461056857600080fd5b806306fdde0314610420578063095ea7b31461044b5780630d35b4151461047b578063111ecdad146104aa575b600080fd5b34801561042c57600080fd5b50610435610e7f565b604051610442919061392c565b60405180910390f35b34801561045757600080fd5b5061046b610466366004613954565b610f11565b6040519015158152602001610442565b34801561048757600080fd5b5061049b610496366004613998565b610f2b565b604051610442939291906139cc565b3480156104b657600080fd5b506004546104ca906001600160a01b031681565b6040516001600160a01b039091168152602001610442565b6104f56104f0366004613abf565b610ffc565b005b34801561050357600080fd5b5061050c600281565b60405161ffff9091168152602001610442565b34801561052b57600080fd5b506040805162b9270b60e21b81526001602082015201610442565b34801561055257600080fd5b5060408051600181526002602082015201610442565b34801561057457600080fd5b506007545b604051908152602001610442565b34801561059357600080fd5b5061050c600181565b3480156105a857600080fd5b506104f56105b7366004613b6c565b6110bc565b3480156105c857600080fd5b506104f56105d7366004613ba5565b611147565b3480156105e857600080fd5b5061046b6105f7366004613bd7565b6111f5565b34801561060857600080fd5b5061046b610617366004613c18565b60106020526000908152604090205460ff1681565b34801561063857600080fd5b5060125b60405160ff9091168152602001610442565b34801561065a57600080fd5b5061057960145481565b34801561067057600080fd5b506104f561067f366004613c4e565b61121b565b34801561069057600080fd5b5061046b61069f366004613c18565b60116020526000908152604090205460ff1681565b3480156106c057600080fd5b506106d46106cf366004613c6a565b61122d565b6040516104429190613cb0565b3480156106ed57600080fd5b506104f56106fc366004613954565b611294565b34801561070d57600080fd5b5061073161071c366004613c18565b600e6020526000908152604090205460ff1681565b6040516104429190613cdd565b34801561074a57600080fd5b50306104ca565b34801561075d57600080fd5b5060408051808201909152601081526f189718171816b83937b23ab1ba34b7b760811b6020820152610435565b34801561079657600080fd5b506104356107a5366004613d17565b61130e565b3480156107b657600080fd5b506104f56107c5366004613d8e565b6113b3565b3480156107d657600080fd5b5061046b6107e5366004613c4e565b63ffffffff919091166000908152600160205260409020541490565b34801561080d57600080fd5b5061046b61081c366004613c18565b6001600160a01b031660009081526010602052604090205460ff1690565b34801561084657600080fd5b506104f5610855366004613c18565b611539565b34801561086657600080fd5b506104ca7f000000000000000000000000000000000000000000000000000000000000000081565b34801561089a57600080fd5b506104f56108a9366004613c18565b611563565b3480156108ba57600080fd5b506105796108c9366004613c18565b6001600160a01b031660009081526005602052604090205490565b3480156108f057600080fd5b506104f56115c0565b34801561090557600080fd5b5061091c610914366004613c4e565b600092915050565b6040516001600160401b039091168152602001610442565b34801561094057600080fd5b5061046b61094f366004613de4565b6115d4565b34801561096057600080fd5b50600661063c565b34801561097457600080fd5b506104f5610983366004613b6c565b6115e9565b34801561099457600080fd5b5061057960155481565b3480156109aa57600080fd5b506000546001600160a01b03166104ca565b3480156109c857600080fd5b506104f56109d7366004613b6c565b61166e565b3480156109e857600080fd5b506104356116c8565b3480156109fd57600080fd5b506105797f000000000000000000000000000000000000000000000000000000000000000081565b348015610a3157600080fd5b506104f5610a40366004613954565b6116d7565b348015610a5157600080fd5b50600061046b565b348015610a6557600080fd5b5061046b610a74366004613c18565b600f6020526000908152604090205460ff1681565b348015610a9557600080fd5b506104f5610aa4366004613e4a565b6117d5565b348015610ab557600080fd5b506104f5610ac4366004613ed8565b611891565b348015610ad557600080fd5b5061046b610ae4366004613954565b611904565b348015610af557600080fd5b5061046b610b04366004613c18565b600a6020526000908152604090205460ff1681565b348015610b2557600080fd5b506002546104ca906001600160a01b031681565b348015610b4557600080fd5b5061046b610b54366004613c18565b611912565b348015610b6557600080fd5b506104f5610b74366004613ef5565b611949565b348015610b8557600080fd5b5061057960125481565b348015610b9b57600080fd5b50610579610baa366004613f36565b60016020526000908152604090205481565b348015610bc857600080fd5b50610435610bd7366004613f51565b611963565b6104f5610bea366004613ef5565b611b0b565b610c02610bfd366004613fb1565b611c95565b604051610442929190614013565b348015610c1c57600080fd5b506104f5610c2b366004613c18565b611cc9565b348015610c3c57600080fd5b506104f5610c4b366004613b6c565b611d48565b6104f5610c5e366004613abf565b611dcf565b348015610c6f57600080fd5b5061057960135481565b348015610c8557600080fd5b506104f5610c94366004613c18565b611dfe565b348015610ca557600080fd5b506105796103e881565b348015610cbb57600080fd5b50600b54600c54610d119161ffff8082169262010000830482169264010000000081048316926601000000000000820416916001600160a01b03600160401b90920482169181169060ff600160a01b9091041687565b6040805161ffff98891681529688166020880152948716948601949094529490911660608401526001600160a01b03908116608084015290921660a082015290151560c082015260e001610442565b348015610d6c57600080fd5b50610579610d7b366004614065565b611e54565b348015610d8c57600080fd5b5061057961271081565b348015610da257600080fd5b5061046b610db1366004613c18565b600d6020526000908152604090205460ff1681565b348015610dd257600080fd5b50610579610de1366004614093565b611e7f565b348015610df257600080fd5b50601254601354601454601554604080519485526020850193909352918301526060820152608001610442565b348015610e2b57600080fd5b506104f5610e3a366004613c18565b611ed9565b348015610e4b57600080fd5b506104f5610e5a366004613b6c565b611f17565b348015610e6b57600080fd5b5061046b610e7a3660046140b8565b611fd4565b606060088054610e8e906140d4565b80601f0160208091040260200160405190810160405280929190818152602001828054610eba906140d4565b8015610f075780601f10610edc57610100808354040283529160200191610f07565b820191906000526020600020905b815481529060010190602001808311610eea57829003601f168201915b5050505050905090565b600033610f1f81858561200a565b60019150505b92915050565b60408051808201909152600080825260208201526060610f5e604051806040016040528060008152602001600081525090565b60408051808201825260008082526001600160401b03602080840182905284518381529081019094529195509182610fb9565b604080518082019091526000815260606020820152815260200190600190039081610f915790505b509350600080610fde604089013560608a0135610fd960208c018c613f36565b61201c565b60408051808201909152918252602082015296989597505050505050565b7f00000000000000000000000000000000000000000000000000000000000000006001600160a01b0316331461104c576040516391ac5e4f60e01b81523360048201526024015b60405180910390fd5b6020870180359061106690611061908a613f36565b612058565b146110a4576110786020880188613f36565b60405163309afaf360e21b815263ffffffff909116600482015260208801356024820152604401611043565b6110b387878787878787612094565b50505050505050565b6110c46121fb565b6001600160a01b0382166110eb57604051630ed1b8b360e31b815260040160405180910390fd5b6001600160a01b0382166000908152600f60205260409020805460ff19168215801591909117909155611143576001600160a01b0382166000908152600e6020526040902080546001919060ff191682805b02179055505b5050565b61114f6121fb565b6001600160a01b03821661117657604051630ed1b8b360e31b815260040160405180910390fd5b6001600160a01b0382166000908152600e60205260409020805482919060ff191660018360038111156111ab576111ab613cc7565b0217905550816001600160a01b03167f822ab1384a2fcf0f12603c8a75c008924ce73ccf6c9eb59607fd7dfa6978af0d826040516111e99190613cdd565b60405180910390a25050565b600033611203858285612228565b61120e85858561228f565b60019150505b9392505050565b6112236121fb565b61114382826122ee565b6040805180820190915260008082526020820152600061125d60408501356060860135610fd96020880188613f36565b91505060008061126d8684612343565b909250905061128a6112826020880188613f36565b838388612466565b9695505050505050565b336000908152600a602052604090205460ff161580156112bf57506000546001600160a01b03163314155b156112dd57604051633e34a41b60e21b815260040160405180910390fd5b6001600160a01b0382166113045760405163d92e233d60e01b815260040160405180910390fd5b6111438282612547565b600360209081526000928352604080842090915290825290208054611332906140d4565b80601f016020809104026020016040519081016040528092919081815260200182805461135e906140d4565b80156113ab5780601f10611380576101008083540402835291602001916113ab565b820191906000526020600020905b81548152906001019060200180831161138e57829003601f168201915b505050505081565b6113bb6121fb565b8160005b818110156115325760008585838181106113db576113db61411e565b90506020020160208101906113f09190613c18565b6001600160a01b03161461152a5782601060008787858181106114155761141561411e565b905060200201602081019061142a9190613c18565b6001600160a01b031681526020810191909152604001600020805460ff191691151591909117905582156114be576001600e60008787858181106114705761147061411e565b90506020020160208101906114859190613c18565b6001600160a01b031681526020810191909152604001600020805460ff191660018360038111156114b8576114b8613cc7565b02179055505b8484828181106114d0576114d061411e565b90506020020160208101906114e59190613c18565b6001600160a01b03167f8034537969aa28288496e2d96deb245a468a4e474b08b72107f3ce03d4b3b11584604051611521911515815260200190565b60405180910390a25b6001016113bf565b5050505050565b6115416121fb565b600c80546001600160a01b0319166001600160a01b0392909216919091179055565b61156b6121fb565b600480546001600160a01b0319166001600160a01b0383169081179091556040519081527ff0be4f1e87349231d80c36b33f9e8639658eeaf474014dee15a3e6a4d4414197906020015b60405180910390a150565b6115c86121fb565b6115d2600061257d565b565b6001600160a01b03811630145b949350505050565b6115f16121fb565b6001600160a01b03821661161857604051630ed1b8b360e31b815260040160405180910390fd5b6001600160a01b0382166000908152600d60205260409020805460ff19168215801591909117909155611143576001600160a01b0382166000908152600e6020526040902080546001919060ff1916828061113d565b6116766121fb565b6001600160a01b03821661169d57604051630ed1b8b360e31b815260040160405180910390fd5b6001600160a01b03919091166000908152601160205260409020805460ff1916911515919091179055565b606060098054610e8e906140d4565b336000908152600a602052604090205460ff1615801561170257506000546001600160a01b03163314155b1561172057604051633e34a41b60e21b815260040160405180910390fd5b6001600160a01b0382166117475760405163d92e233d60e01b815260040160405180910390fd5b6001600160a01b03821633146117cb5760006117638333611e54565b9050818110156117b55760405162461bcd60e51b815260206004820152601d60248201527f45524332303a20696e73756666696369656e7420616c6c6f77616e63650000006044820152606401611043565b6117c983336117c4858561414a565b61200a565b505b61114382826125cd565b6117dd6121fb565b60006040518060e001604052808961ffff1681526020018861ffff1681526020018761ffff1681526020018661ffff168152602001856001600160a01b03168152602001846001600160a01b03168152602001831515815250905061184181612603565b6040805161ffff8a81168252891660208201528315158183015290517f33d7cfb3ff590af0c7db629eb7c2aba0f08ad8c556c970d0388286d9c4261ccb9181900360600190a15050505050505050565b6118996121fb565b600c805460ff60a01b1916600160a01b83151590810291909117909155600b546040805161ffff80841682526201000090930490921660208301528101919091527f33d7cfb3ff590af0c7db629eb7c2aba0f08ad8c556c970d0388286d9c4261ccb906060016115b5565b600033610f1f81858561228f565b6001600160a01b0381166000908152600a602052604081205460ff1680610f255750506000546001600160a01b0391821691161490565b6119516121fb565b61114361195e82846141fe565b61277f565b63ffffffff8416600090815260036020908152604080832061ffff87168452909152812080546060929190611997906140d4565b80601f01602080910402602001604051908101604052809291908181526020018280546119c3906140d4565b8015611a105780601f106119e557610100808354040283529160200191611a10565b820191906000526020600020905b8154815290600101906020018083116119f357829003601f168201915b505050505090508051600003611a605783838080601f0160208091040260200160405190810160405280939291908181526020018383808284376000920191909152509294506115e19350505050565b6000839003611a705790506115e1565b60028310611aee57611ab784848080601f01602080910402602001604051908101604052809392919081815260200183838082843760009201919091525061288692505050565b80611ac58460028188614313565b604051602001611ad79392919061433d565b6040516020818303038152906040529150506115e1565b8383604051639a6d49cd60e01b815260040161104392919061438e565b60005b81811015611c145736838383818110611b2957611b2961411e565b9050602002810190611b3b91906143a2565b9050611b6e611b4d6020830183613f36565b602083013563ffffffff919091166000908152600160205260409020541490565b611b785750611c0c565b3063d045a0dc60c08301358360a0810135611b976101008301836143c3565b611ba8610100890160e08a01613c18565b611bb66101208a018a6143c3565b6040518963ffffffff1660e01b8152600401611bd8979695949392919061441e565b6000604051808303818588803b158015611bf157600080fd5b505af1158015611c05573d6000803e3d6000fd5b5050505050505b600101611b0e565b50336001600160a01b0316638e9e70996040518163ffffffff1660e01b8152600401600060405180830381865afa158015611c53573d6000803e3d6000fd5b505050506040513d6000823e601f3d908101601f19168201604052611c7b91908101906144a4565b604051638351eea760e01b8152600401611043919061392c565b611c9d613895565b6040805180820190915260008082526020820152611cbc8585856128b2565b915091505b935093915050565b611cd16121fb565b60405163ca5eb5e160e01b81526001600160a01b0382811660048301527f0000000000000000000000000000000000000000000000000000000000000000169063ca5eb5e190602401600060405180830381600087803b158015611d3457600080fd5b505af1158015611532573d6000803e3d6000fd5b611d506121fb565b6001600160a01b038216611d775760405163d92e233d60e01b815260040160405180910390fd5b6001600160a01b0382166000818152600a6020908152604091829020805460ff191685151590811790915591519182527fb21afb9ce9be0a676f8f317ff0ca072fb89a4f8ce2d1b6fe80f8755c14f1cb1991016111e9565b333014611def5760405163029a949d60e31b815260040160405180910390fd5b6110b3878787878787876110a4565b611e066121fb565b600280546001600160a01b0319166001600160a01b0383169081179091556040519081527fd48d879cef83a1c0bdda516f27b13ddb1b3f8bbac1c9e1511bb2a659c2427760906020016115b5565b6001600160a01b03918216600090815260066020908152604080832093909416825291909152205490565b600c54600090600160a01b900460ff16611e9b57506000610f25565b600082611eb457600b5462010000900461ffff16611ebc565b600b5461ffff165b61ffff169050612710611ecf8286614511565b6115e19190614528565b611ee16121fb565b6001600160a01b038116611f0b57604051631e4fbdf760e01b815260006004820152602401611043565b611f148161257d565b50565b611f1f6121fb565b6001600160a01b038216611f4657604051630ed1b8b360e31b815260040160405180910390fd5b6001600160a01b0382166000908152601060205260409020805460ff19168215801591909117909155611f97576001600160a01b0382166000908152600e60205260409020805460ff191660011790555b816001600160a01b03167f8034537969aa28288496e2d96deb245a468a4e474b08b72107f3ce03d4b3b115826040516111e9911515815260200190565b6000602082018035906001908390611fec9086613f36565b63ffffffff1681526020810191909152604001600020541492915050565b61201783838360016129ad565b505050565b60008061202885612a82565b915081905083811015611cc1576040516371c4efed60e01b81526004810182905260248101859052604401611043565b63ffffffff811660009081526001602052604081205480610f255760405163f6ff4fb760e01b815263ffffffff84166004820152602401611043565b60006120a66120a38787612ab9565b90565b905060006120d2826120c06120bb8a8a612ad1565b612af4565b6120cd60208d018d613f36565b612b29565b9050602886111561219957600061210f6120f260608c0160408d0161454a565b6120ff60208d018d613f36565b8461210a8c8c612b51565b612b9c565b604051633e5ac80960e11b81529091506001600160a01b037f00000000000000000000000000000000000000000000000000000000000000001690637cb59012906121659086908d906000908790600401614567565b600060405180830381600087803b15801561217f57600080fd5b505af1158015612193573d6000803e3d6000fd5b50505050505b6001600160a01b038216887fefed6d3500546b29533b128a29e3a94d70788727f0507505ac12eaf2e578fd9c6121d260208d018d613f36565b6040805163ffffffff9092168252602082018690520160405180910390a3505050505050505050565b6000546001600160a01b031633146115d25760405163118cdaa760e01b8152336004820152602401611043565b60006122348484611e54565b9050600019811015612289578181101561227a57604051637dc7a0d960e11b81526001600160a01b03841660048201526024810182905260448101839052606401611043565b612289848484840360006129ad565b50505050565b6001600160a01b0383166122b957604051634b637e8f60e11b815260006004820152602401611043565b6001600160a01b0382166122e35760405163ec442f0560e01b815260006004820152602401611043565b612017838383612bce565b63ffffffff8216600081815260016020908152604091829020849055815192835282018390527f238399d427b947898edb290f5ff0f9109849b1c3ba196a42e35f00c50a54b98b910160405180910390a15050565b60608060006123a0856020013561235986612c94565b61236660a08901896143c3565b8080601f016020809104026020016040519081016040528093929190818152602001838380828437600092019190915250612cc092505050565b90935090506000816123b35760016123b6565b60025b90506123d66123c86020880188613f36565b82610bd760808a018a6143c3565b6004549093506001600160a01b0316801561245c5760405163043a78eb60e01b81526001600160a01b0382169063043a78eb906124199088908890600401614598565b602060405180830381865afa158015612436573d6000803e3d6000fd5b505050506040513d601f19601f8201168201806040525081019061245a91906145bd565b505b5050509250929050565b60408051808201909152600080825260208201527f00000000000000000000000000000000000000000000000000000000000000006001600160a01b031663ddc28c586040518060a001604052808863ffffffff1681526020016124c989612058565b8152602001878152602001868152602001851515815250306040518363ffffffff1660e01b81526004016124fe9291906145da565b6040805180830381865afa15801561251a573d6000803e3d6000fd5b505050506040513d601f19601f8201168201806040525081019061253e9190614683565b95945050505050565b6001600160a01b0382166125715760405163ec442f0560e01b815260006004820152602401611043565b61114360008383612bce565b600080546001600160a01b038381166001600160a01b0319831681178455604051919092169283917f8be0079c531659141344cd1fd0a4f28419497f9722a3daafe3b4186f6b6457e09190a35050565b6001600160a01b0382166125f757604051634b637e8f60e11b815260006004820152602401611043565b61114382600083612bce565b6103e8816000015161ffff16118061262457506103e8816020015161ffff16115b15612642576040516312f7b37560e11b815260040160405180910390fd5b61271081606001518260400151612659919061469f565b61ffff161461267b5760405163d138b13f60e01b815260040160405180910390fd5b60808101516001600160a01b031615801561269757508060c001515b156126b557604051630ed1b8b360e31b815260040160405180910390fd5b8051600b805460208401516040850151606086015160808701516001600160a01b03908116600160401b0268010000000000000000600160e01b031961ffff93841666010000000000000267ffff00000000000019958516640100000000029590951667ffffffff0000000019968516620100000263ffffffff199098169490991693909317959095179390931695909517179390931617905560a0820151600c805460c0909401511515600160a01b026001600160a81b03199094169190921617919091179055565b60005b8151811015612856576127b18282815181106127a0576127a061411e565b602002602001015160400151612886565b8181815181106127c3576127c361411e565b602002602001015160400151600360008484815181106127e5576127e561411e565b60200260200101516000015163ffffffff1663ffffffff168152602001908152602001600020600084848151811061281f5761281f61411e565b60200260200101516020015161ffff1661ffff168152602001908152602001600020908161284d9190614711565b50600101612782565b507fbe4864a8e820971c0247f5992e2da559595f7bf076a21cb5928d443d2a13b674816040516115b591906147d0565b600281015161ffff81166003146111435781604051639a6d49cd60e01b8152600401611043919061392c565b6128ba613895565b60408051808201909152600080825260208201526000806128f133604089013560608a01356128ec60208c018c613f36565b612d3a565b915091506000806129028984612343565b909250905061292e61291760208b018b613f36565b8383612928368d90038d018d61485b565b8b612d60565b60408051808201909152858152602080820186905282519298509096503391907f85496b760a4b7f8d66384b9df21b381f5d1b1e79f229a47aaf4c232edc2fe59a9061297c908d018d613f36565b6040805163ffffffff909216825260208201899052810187905260600160405180910390a350505050935093915050565b6001600160a01b0384166129d75760405163e602df0560e01b815260006004820152602401611043565b6001600160a01b038316612a0157604051634a1406b160e11b815260006004820152602401611043565b6001600160a01b038085166000908152600660209081526040808320938716835292905220829055801561228957826001600160a01b0316846001600160a01b03167f8c5be1e5ebec7d5bd14f71427d1e84f3dd0314c0f7b2291e5b200ac8c7c3b92584604051612a7491815260200190565b60405180910390a350505050565b60007f0000000000000000000000000000000000000000000000000000000000000000612aaf8184614528565b610f259190614511565b6000612ac86020828486614313565b6112149161488d565b6000612ae1602860208486614313565b612aea916148ab565b60c01c9392505050565b6000610f257f00000000000000000000000000000000000000000000000000000000000000006001600160401b038416614511565b60006001600160a01b038416612b3f5761dead93505b612b498484612547565b509092915050565b6060612b608260288186614313565b8080601f016020809104026020016040519081016040528093929190818152602001838380828437600092019190915250929695505050505050565b606084848484604051602001612bb594939291906148db565b6040516020818303038152906040529050949350505050565b6001600160a01b0383161580612beb57506001600160a01b038216155b80612bf4575080155b15612c0457612017838383612e6b565b600c54600160a01b900460ff16612c2057612017838383612e6b565b6001600160a01b03831660009081526011602052604090205460ff1680612c5f57506001600160a01b03821660009081526011602052604090205460ff165b15612c6f57612017838383612e6b565b612c798383612f95565b15612c895761201783838361308e565b612017838383612e6b565b6000610f257f000000000000000000000000000000000000000000000000000000000000000083614528565b8051606090151580612d09578484604051602001612cf592919091825260c01b6001600160c01b031916602082015260280190565b604051602081830303815290604052612d30565b84843385604051602001612d20949392919061492a565b6040516020818303038152906040525b9150935093915050565b600080612d4885858561201c565b9092509050612d5786836125cd565b94509492505050565b612d68613895565b6000612d778460000151613139565b602085015190915015612d9157612d918460200151613161565b7f00000000000000000000000000000000000000000000000000000000000000006001600160a01b0316632637a450826040518060a001604052808b63ffffffff168152602001612de18c612058565b81526020018a815260200189815260200160008960200151111515815250866040518463ffffffff1660e01b8152600401612e1d9291906145da565b60806040518083038185885af1158015612e3b573d6000803e3d6000fd5b50505050506040513d601f19601f82011682018060405250810190612e60919061496d565b979650505050505050565b6001600160a01b038316612e96578060076000828254612e8b91906149b7565b90915550612f089050565b6001600160a01b03831660009081526005602052604090205481811015612ee95760405163391434e360e21b81526001600160a01b03851660048201526024810182905260448101839052606401611043565b6001600160a01b03841660009081526005602052604090209082900390555b6001600160a01b038216612f2457600780548290039055612f43565b6001600160a01b03821660009081526005602052604090208054820190555b816001600160a01b0316836001600160a01b03167fddf252ad1be2c89b69c2b068fc378daa952ba7f163c4a11628f55a4df523b3ef83604051612f8891815260200190565b60405180910390a3505050565b6001600160a01b038083166000908152600e6020526040808220549284168252812054909160ff90811691166002826003811115612fd557612fd5613cc7565b1480612ff257506002816003811115612ff057612ff0613cc7565b145b1561300257600092505050610f25565b600382600381111561301657613016613cc7565b14806130335750600381600381111561303157613031613cc7565b145b1561304357600092505050610f25565b600182600381111561305757613057613cc7565b14806130745750600181600381111561307257613072613cc7565b145b1561308457600192505050610f25565b61253e8585613243565b600061309a8484613330565b90506000816130b557600b5462010000900461ffff166130bd565b600b5461ffff165b61ffff169050801561311257811580156130ef57506001600160a01b03841660009081526010602052604090205460ff165b156131055761310085858584613395565b61311d565b613100858585848661347e565b61311d858585612e6b565b6015805490600061312d836149ca565b91905055505050505050565b600081341461315d576040516304fb820960e51b8152346004820152602401611043565b5090565b60007f00000000000000000000000000000000000000000000000000000000000000006001600160a01b031663e4fe1d946040518163ffffffff1660e01b8152600401602060405180830381865afa1580156131c1573d6000803e3d6000fd5b505050506040513d601f19601f820116820180604052508101906131e591906149e3565b90506001600160a01b03811661320e576040516329b99a9560e11b815260040160405180910390fd5b6111436001600160a01b038216337f0000000000000000000000000000000000000000000000000000000000000000856135b4565b6001600160a01b0382166000908152600d602052604081205460ff168061328257506001600160a01b0382166000908152600d602052604090205460ff165b1561328f57506001610f25565b6001600160a01b03831660009081526010602052604090205460ff16806132ce57506001600160a01b03821660009081526010602052604090205460ff165b156132db57506001610f25565b6001600160a01b0383166000908152600f602052604090205460ff168061331a57506001600160a01b0382166000908152600f602052604090205460ff165b1561332757506001610f25565b50600092915050565b6001600160a01b0382166000908152600d602052604081205460ff168061336f57506001600160a01b0383166000908152600f602052604090205460ff165b80611214575050506001600160a01b031660009081526010602052604090205460ff1690565b60006127106133a48385614511565b6133ae9190614528565b905060006133bc828561414a565b90506133c9868683612e6b565b6133d4863084612e6b565b6133df82600061360e565b846001600160a01b0316866001600160a01b03167f5634e504c4e61a8180de1151c73ea6453696a0279247b2ced2e111d75d1a9573868560405161345792919091825260208201526060604082018190526012908201527173656c6c5f76335f636f6d70617469626c6560701b608082015260a00190565b60405180910390a3816013600082825461347191906149b7565b9091555050505050505050565b600061271061348d8486614511565b6134979190614528565b905060006134a5828661414a565b90506134b2873084612e6b565b6134bd878783612e6b565b6134c7828461360e565b856001600160a01b0316876001600160a01b03167f5634e504c4e61a8180de1151c73ea6453696a0279247b2ced2e111d75d1a9573878587613531576040518060400160405280601081526020016f1cd95b1b17dd1c98591a5d1a5bdb985b60821b81525061355a565b6040518060400160405280600f81526020016e189d5e57dd1c98591a5d1a5bdb985b608a1b8152505b60405161356993929190614a00565b60405180910390a3821561359457816012600082825461358991906149b7565b909155506110b39050565b81601360008282546135a691906149b7565b909155505050505050505050565b604080516001600160a01b0385811660248301528416604482015260648082018490528251808303909101815260849091019091526020810180516001600160e01b03166323b872dd60e01b179052612289908590613824565b8160000361361a575050565b600b546000906127109061363a90640100000000900461ffff1685614511565b6136449190614528565b90506000613652828561414a565b600b54909150600160401b90046001600160a01b0316158015906136765750600082115b1561373c57600b5461369a903090600160401b90046001600160a01b031684612e6b565b600b54600160401b90046001600160a01b03167fe39112dc9ca2018b6da1038f701804f9e2cb88c4448f88c4cfc7332a2d8cc50a83856136ff576040518060400160405280600d81526020016c73656c6c5f747265617375727960981b815250613725565b6040518060400160405280600c81526020016b6275795f747265617375727960a01b8152505b604051613733929190614a1f565b60405180910390a25b6000811180156137565750600c546001600160a01b031615155b1561228957600c546137739030906001600160a01b031683612e6b565b600c546001600160a01b03167fe39112dc9ca2018b6da1038f701804f9e2cb88c4448f88c4cfc7332a2d8cc50a82856137ce576040518060400160405280600a8152602001691cd95b1b17dd985d5b1d60b21b8152506137f1565b60405180604001604052806009815260200168189d5e57dd985d5b1d60ba1b8152505b6040516137ff929190614a1f565b60405180910390a2806014600082825461381991906149b7565b909155505050505050565b600080602060008451602086016000885af180613847576040513d6000823e3d81fd5b50506000513d9150811561385f57806001141561386c565b6001600160a01b0384163b155b1561228957604051635274afe760e01b81526001600160a01b0385166004820152602401611043565b60405180606001604052806000801916815260200160006001600160401b031681526020016138d7604051806040016040528060008152602001600081525090565b905290565b60005b838110156138f75781810151838201526020016138df565b50506000910152565b600081518084526139188160208601602086016138dc565b601f01601f19169290920160200192915050565b6020815260006112146020830184613900565b6001600160a01b0381168114611f1457600080fd5b6000806040838503121561396757600080fd5b82356139728161393f565b946020939093013593505050565b600060e0828403121561399257600080fd5b50919050565b6000602082840312156139aa57600080fd5b81356001600160401b038111156139c057600080fd5b6115e184828501613980565b8351815260208085015190820152600060a08201604060a0604085015281865180845260c08601915060c08160051b8701019350602080890160005b83811015613a475788870360bf19018552815180518852830151838801879052613a3487890182613900565b9750509382019390820190600101613a08565b505087516060880152505050602085015160808501525090506115e1565b60006060828403121561399257600080fd5b60008083601f840112613a8957600080fd5b5081356001600160401b03811115613aa057600080fd5b602083019150836020828501011115613ab857600080fd5b9250929050565b600080600080600080600060e0888a031215613ada57600080fd5b613ae48989613a65565b96506060880135955060808801356001600160401b0380821115613b0757600080fd5b613b138b838c01613a77565b909750955060a08a01359150613b288261393f565b90935060c08901359080821115613b3e57600080fd5b50613b4b8a828b01613a77565b989b979a50959850939692959293505050565b8015158114611f1457600080fd5b60008060408385031215613b7f57600080fd5b8235613b8a8161393f565b91506020830135613b9a81613b5e565b809150509250929050565b60008060408385031215613bb857600080fd5b8235613bc38161393f565b9150602083013560048110613b9a57600080fd5b600080600060608486031215613bec57600080fd5b8335613bf78161393f565b92506020840135613c078161393f565b929592945050506040919091013590565b600060208284031215613c2a57600080fd5b81356112148161393f565b803563ffffffff81168114613c4957600080fd5b919050565b60008060408385031215613c6157600080fd5b61397283613c35565b60008060408385031215613c7d57600080fd5b82356001600160401b03811115613c9357600080fd5b613c9f85828601613980565b9250506020830135613b9a81613b5e565b815181526020808301519082015260408101610f25565b634e487b7160e01b600052602160045260246000fd5b6020810160048310613cff57634e487b7160e01b600052602160045260246000fd5b91905290565b803561ffff81168114613c4957600080fd5b60008060408385031215613d2a57600080fd5b613d3383613c35565b9150613d4160208401613d05565b90509250929050565b60008083601f840112613d5c57600080fd5b5081356001600160401b03811115613d7357600080fd5b6020830191508360208260051b8501011115613ab857600080fd5b600080600060408486031215613da357600080fd5b83356001600160401b03811115613db957600080fd5b613dc586828701613d4a565b9094509250506020840135613dd981613b5e565b809150509250925092565b60008060008060a08587031215613dfa57600080fd5b613e048686613a65565b935060608501356001600160401b03811115613e1f57600080fd5b613e2b87828801613a77565b9094509250506080850135613e3f8161393f565b939692955090935050565b600080600080600080600060e0888a031215613e6557600080fd5b613e6e88613d05565b9650613e7c60208901613d05565b9550613e8a60408901613d05565b9450613e9860608901613d05565b93506080880135613ea88161393f565b925060a0880135613eb88161393f565b915060c0880135613ec881613b5e565b8091505092959891949750929550565b600060208284031215613eea57600080fd5b813561121481613b5e565b60008060208385031215613f0857600080fd5b82356001600160401b03811115613f1e57600080fd5b613f2a85828601613d4a565b90969095509350505050565b600060208284031215613f4857600080fd5b61121482613c35565b60008060008060608587031215613f6757600080fd5b613f7085613c35565b9350613f7e60208601613d05565b925060408501356001600160401b03811115613f9957600080fd5b613fa587828801613a77565b95989497509550505050565b60008060008385036080811215613fc757600080fd5b84356001600160401b03811115613fdd57600080fd5b613fe987828801613980565b9450506040601f1982011215613ffe57600080fd5b506020840191506060840135613dd98161393f565b600060c082019050835182526001600160401b036020850151166020830152604084015161404e604084018280518252602090810151910152565b5082516080830152602083015160a0830152611214565b6000806040838503121561407857600080fd5b82356140838161393f565b91506020830135613b9a8161393f565b600080604083850312156140a657600080fd5b823591506020830135613b9a81613b5e565b6000606082840312156140ca57600080fd5b6112148383613a65565b600181811c908216806140e857607f821691505b60208210810361399257634e487b7160e01b600052602260045260246000fd5b634e487b7160e01b600052604160045260246000fd5b634e487b7160e01b600052603260045260246000fd5b634e487b7160e01b600052601160045260246000fd5b81810381811115610f2557610f25614134565b604051606081016001600160401b038111828210171561417f5761417f614108565b60405290565b604080519081016001600160401b038111828210171561417f5761417f614108565b604051601f8201601f191681016001600160401b03811182821017156141cf576141cf614108565b604052919050565b60006001600160401b038211156141f0576141f0614108565b50601f01601f191660200190565b60006001600160401b038084111561421857614218614108565b8360051b60206142298183016141a7565b86815291850191818101903684111561424157600080fd5b865b848110156143075780358681111561425b5760008081fd5b8801606036829003121561426f5760008081fd5b61427761415d565b61428082613c35565b815261428d868301613d05565b86820152604080830135898111156142a55760008081fd5b929092019136601f8401126142ba5760008081fd5b82356142cd6142c8826141d7565b6141a7565b81815236898387010111156142e25760008081fd5b818986018a830137600091810189019190915290820152845250918301918301614243565b50979650505050505050565b6000808585111561432357600080fd5b8386111561433057600080fd5b5050820193919092039150565b6000845161434f8184602089016138dc565b8201838582376000930192835250909392505050565b81835281816020850137506000828201602090810191909152601f909101601f19169091010190565b6020815260006115e1602083018486614365565b6000823561013e198336030181126143b957600080fd5b9190910192915050565b6000808335601e198436030181126143da57600080fd5b8301803591506001600160401b038211156143f457600080fd5b602001915036819003821315613ab857600080fd5b6001600160401b0381168114611f1457600080fd5b63ffffffff61442c89613c35565b168152602088013560208201526000604089013561444981614409565b6001600160401b03811660408401525087606083015260e0608083015261447460e083018789614365565b6001600160a01b03861660a084015282810360c0840152614496818587614365565b9a9950505050505050505050565b6000602082840312156144b657600080fd5b81516001600160401b038111156144cc57600080fd5b8201601f810184136144dd57600080fd5b80516144eb6142c8826141d7565b81815285602083850101111561450057600080fd5b61253e8260208301602086016138dc565b8082028115828204841417610f2557610f25614134565b60008261454557634e487b7160e01b600052601260045260246000fd5b500490565b60006020828403121561455c57600080fd5b813561121481614409565b60018060a01b038516815283602082015261ffff8316604082015260806060820152600061128a6080830184613900565b6040815260006145ab6040830185613900565b828103602084015261253e8185613900565b6000602082840312156145cf57600080fd5b815161121481613b5e565b6040815263ffffffff8351166040820152602083015160608201526000604084015160a0608084015261461060e0840182613900565b90506060850151603f198483030160a085015261462d8282613900565b60809690960151151560c08501525050506001600160a01b039190911660209091015290565b60006040828403121561466557600080fd5b61466d614185565b9050815181526020820151602082015292915050565b60006040828403121561469557600080fd5b6112148383614653565b61ffff8181168382160190808211156146ba576146ba614134565b5092915050565b601f821115612017576000816000526020600020601f850160051c810160208610156146ea5750805b601f850160051c820191505b81811015614709578281556001016146f6565b505050505050565b81516001600160401b0381111561472a5761472a614108565b61473e8161473884546140d4565b846146c1565b602080601f831160018114614773576000841561475b5750858301515b600019600386901b1c1916600185901b178555614709565b600085815260208120601f198616915b828110156147a257888601518255948401946001909101908401614783565b50858210156147c05787850151600019600388901b60f8161c191681555b5050505050600190811b01905550565b600060208083018184528085518083526040925060408601915060408160051b87010184880160005b8381101561484d57888303603f190185528151805163ffffffff1684528781015161ffff1688850152860151606087850181905261483981860183613900565b9689019694505050908601906001016147f9565b509098975050505050505050565b60006040828403121561486d57600080fd5b614875614185565b82358152602083013560208201528091505092915050565b80356020831015610f2557600019602084900360031b1b1692915050565b6001600160c01b031981358181169160088510156148d35780818660080360031b1b83161692505b505092915050565b6001600160401b0360c01b8560c01b16815263ffffffff60e01b8460e01b16600882015282600c8201526000825161491a81602c8501602087016138dc565b91909101602c0195945050505050565b8481526001600160401b0360c01b8460c01b1660208201528260288201526000825161495d8160488501602087016138dc565b9190910160480195945050505050565b60006080828403121561497f57600080fd5b61498761415d565b82518152602083015161499981614409565b60208201526149ab8460408501614653565b60408201529392505050565b80820180821115610f2557610f25614134565b6000600182016149dc576149dc614134565b5060010190565b6000602082840312156149f557600080fd5b81516112148161393f565b83815282602082015260606040820152600061253e6060830184613900565b8281526040602082015260006115e1604083018461390056fea26469706673582212207719c94d47f0a1e2d9e81825f7e00cc80d55dc5e2ffef7c7ae6b4d60b5703dc464736f6c63430008160033","linkReferences":{}},"methodIdentifiers":{"BASIS_POINTS()":"e1f1c4a7","MAX_FEE_BPS()":"d55be8c6","SEND()":"1f5e1334","SEND_AND_CALL()":"134d4f25","addressOperationType(address)":"4a884893","allowInitializePath((uint32,bytes32,uint64))":"ff7bd03d","allowance(address,address)":"dd62ed3e","approvalRequired()":"9f68b964","approve(address,uint256)":"095ea7b3","balanceOf(address)":"70a08231","burn(address,uint256)":"9dc29fac","calculateSwapFee(uint256,bool)":"ef1aa144","checkMinter(address)":"b789bb1a","combineOptions(uint32,uint16,bytes)":"bc70b354","decimalConversionRate()":"963efcaa","decimals()":"313ce567","endpoint()":"5e280f11","enforcedOptions(uint32,uint16)":"5535d461","feeExempt(address)":"398daa85","getFeeStats()":"f28ab2be","isComposeMsgSender((uint32,bytes32,uint64),bytes,address)":"82413eac","isMinter(address)":"aa271e1a","isPair(address)":"e5e31b13","isPeer(uint32,bytes32)":"5a0dfe4d","isSwapRouter(address)":"a1bc910f","isV3Pool(address)":"2bb47bc4","isV3PoolConfigured(address)":"5b57bbd6","lzReceive((uint32,bytes32,uint64),bytes32,bytes,address,bytes)":"13137d65","lzReceiveAndRevert(((uint32,bytes32,uint64),uint32,address,bytes32,uint256,address,bytes,bytes)[])":"bd815db0","lzReceiveSimulate((uint32,bytes32,uint64),bytes32,bytes,address,bytes)":"d045a0dc","mint(address,uint256)":"40c10f19","msgInspector()":"111ecdad","name()":"06fdde03","nextNonce(uint32,bytes32)":"7d25a05e","oApp()":"52ae2879","oAppVersion()":"17442b70","oftVersion()":"156a0d0f","owner()":"8da5cb5b","peers(uint32)":"bb0b6a53","preCrime()":"b731ea0a","quoteOFT((uint32,bytes32,uint256,uint256,bytes,bytes,bytes))":"0d35b415","quoteSend((uint32,bytes32,uint256,uint256,bytes,bytes,bytes),bool)":"3b6f743b","renounceOwnership()":"715018a6","send((uint32,bytes32,uint256,uint256,bytes,bytes,bytes),(uint256,uint256),address)":"c7c7f5b3","setAddressOperationType(address,uint8)":"2278d740","setDelegate(address)":"ca5eb5e1","setEnforcedOptions((uint32,uint16,bytes)[])":"b98bd070","setFeeExempt(address,bool)":"8ebfc796","setFeesEnabled(bool)":"a901dd92","setMinter(address,bool)":"cf456ae7","setMsgInspector(address)":"6fc1b31e","setPair(address,bool)":"86a22eff","setPeer(uint32,bytes32)":"3400288b","setPreCrime(address)":"d4243885","setSwapFeeConfig(uint16,uint16,uint16,uint16,address,address,bool)":"a6bd9070","setSwapRouter(address,bool)":"2171dcc9","setV3Pool(address,bool)":"fe57fb03","setV3PoolsBatch(address[],bool)":"5952d6d2","setVaultBeneficiary(address)":"5be2d557","sharedDecimals()":"857749b0","swapFeeConfig()":"d6bf50dc","symbol()":"95d89b41","token()":"fc0c546a","totalBuyFees()":"b9e93700","totalSellFees()":"d0a39814","totalSupply()":"18160ddd","totalSwapsProcessed()":"8b8dc8fa","totalVaultInjected()":"317f3d6d","transfer(address,uint256)":"a9059cbb","transferFrom(address,address,uint256)":"23b872dd","transferOwnership(address)":"f2fde38b","version()":"54fd4d50"},"id":17}