{"abi":[{"type":"constructor","inputs":[{"name":"_name","type":"string","internalType":"string"},{"name":"_symbol","type":"string","internalType":"string"},{"name":"_lzEndpoint","type":"address","internalType":"address"},{"name":"_delegate","type":"address","internalType":"address"}],"stateMutability":"nonpayable"},{"type":"function","name":"SEND","inputs":[],"outputs":[{"name":"","type":"uint16","internalType":"uint16"}],"stateMutability":"view"},{"type":"function","name":"SEND_AND_CALL","inputs":[],"outputs":[{"name":"","type":"uint16","internalType":"uint16"}],"stateMutability":"view"},{"type":"function","name":"allowInitializePath","inputs":[{"name":"origin","type":"tuple","internalType":"struct Origin","components":[{"name":"srcEid","type":"uint32","internalType":"uint32"},{"name":"sender","type":"bytes32","internalType":"bytes32"},{"name":"nonce","type":"uint64","internalType":"uint64"}]}],"outputs":[{"name":"","type":"bool","internalType":"bool"}],"stateMutability":"view"},{"type":"function","name":"allowance","inputs":[{"name":"owner","type":"address","internalType":"address"},{"name":"spender","type":"address","internalType":"address"}],"outputs":[{"name":"","type":"uint256","internalType":"uint256"}],"stateMutability":"view"},{"type":"function","name":"approvalRequired","inputs":[],"outputs":[{"name":"","type":"bool","internalType":"bool"}],"stateMutability":"pure"},{"type":"function","name":"approve","inputs":[{"name":"spender","type":"address","internalType":"address"},{"name":"value","type":"uint256","internalType":"uint256"}],"outputs":[{"name":"","type":"bool","internalType":"bool"}],"stateMutability":"nonpayable"},{"type":"function","name":"balanceOf","inputs":[{"name":"account","type":"address","internalType":"address"}],"outputs":[{"name":"","type":"uint256","internalType":"uint256"}],"stateMutability":"view"},{"type":"function","name":"combineOptions","inputs":[{"name":"_eid","type":"uint32","internalType":"uint32"},{"name":"_msgType","type":"uint16","internalType":"uint16"},{"name":"_extraOptions","type":"bytes","internalType":"bytes"}],"outputs":[{"name":"","type":"bytes","internalType":"bytes"}],"stateMutability":"view"},{"type":"function","name":"decimalConversionRate","inputs":[],"outputs":[{"name":"","type":"uint256","internalType":"uint256"}],"stateMutability":"view"},{"type":"function","name":"decimals","inputs":[],"outputs":[{"name":"","type":"uint8","internalType":"uint8"}],"stateMutability":"view"},{"type":"function","name":"endpoint","inputs":[],"outputs":[{"name":"","type":"address","internalType":"contract ILayerZeroEndpointV2"}],"stateMutability":"view"},{"type":"function","name":"enforcedOptions","inputs":[{"name":"eid","type":"uint32","internalType":"uint32"},{"name":"msgType","type":"uint16","internalType":"uint16"}],"outputs":[{"name":"enforcedOption","type":"bytes","internalType":"bytes"}],"stateMutability":"view"},{"type":"function","name":"isComposeMsgSender","inputs":[{"name":"","type":"tuple","internalType":"struct Origin","components":[{"name":"srcEid","type":"uint32","internalType":"uint32"},{"name":"sender","type":"bytes32","internalType":"bytes32"},{"name":"nonce","type":"uint64","internalType":"uint64"}]},{"name":"","type":"bytes","internalType":"bytes"},{"name":"_sender","type":"address","internalType":"address"}],"outputs":[{"name":"","type":"bool","internalType":"bool"}],"stateMutability":"view"},{"type":"function","name":"isPeer","inputs":[{"name":"_eid","type":"uint32","internalType":"uint32"},{"name":"_peer","type":"bytes32","internalType":"bytes32"}],"outputs":[{"name":"","type":"bool","internalType":"bool"}],"stateMutability":"view"},{"type":"function","name":"lzReceive","inputs":[{"name":"_origin","type":"tuple","internalType":"struct Origin","components":[{"name":"srcEid","type":"uint32","internalType":"uint32"},{"name":"sender","type":"bytes32","internalType":"bytes32"},{"name":"nonce","type":"uint64","internalType":"uint64"}]},{"name":"_guid","type":"bytes32","internalType":"bytes32"},{"name":"_message","type":"bytes","internalType":"bytes"},{"name":"_executor","type":"address","internalType":"address"},{"name":"_extraData","type":"bytes","internalType":"bytes"}],"outputs":[],"stateMutability":"payable"},{"type":"function","name":"lzReceiveAndRevert","inputs":[{"name":"_packets","type":"tuple[]","internalType":"struct InboundPacket[]","components":[{"name":"origin","type":"tuple","internalType":"struct Origin","components":[{"name":"srcEid","type":"uint32","internalType":"uint32"},{"name":"sender","type":"bytes32","internalType":"bytes32"},{"name":"nonce","type":"uint64","internalType":"uint64"}]},{"name":"dstEid","type":"uint32","internalType":"uint32"},{"name":"receiver","type":"address","internalType":"address"},{"name":"guid","type":"bytes32","internalType":"bytes32"},{"name":"value","type":"uint256","internalType":"uint256"},{"name":"executor","type":"address","internalType":"address"},{"name":"message","type":"bytes","internalType":"bytes"},{"name":"extraData","type":"bytes","internalType":"bytes"}]}],"outputs":[],"stateMutability":"payable"},{"type":"function","name":"lzReceiveSimulate","inputs":[{"name":"_origin","type":"tuple","internalType":"struct Origin","components":[{"name":"srcEid","type":"uint32","internalType":"uint32"},{"name":"sender","type":"bytes32","internalType":"bytes32"},{"name":"nonce","type":"uint64","internalType":"uint64"}]},{"name":"_guid","type":"bytes32","internalType":"bytes32"},{"name":"_message","type":"bytes","internalType":"bytes"},{"name":"_executor","type":"address","internalType":"address"},{"name":"_extraData","type":"bytes","internalType":"bytes"}],"outputs":[],"stateMutability":"payable"},{"type":"function","name":"mint","inputs":[{"name":"to","type":"address","internalType":"address"},{"name":"amount","type":"uint256","internalType":"uint256"}],"outputs":[],"stateMutability":"nonpayable"},{"type":"function","name":"msgInspector","inputs":[],"outputs":[{"name":"","type":"address","internalType":"address"}],"stateMutability":"view"},{"type":"function","name":"name","inputs":[],"outputs":[{"name":"","type":"string","internalType":"string"}],"stateMutability":"view"},{"type":"function","name":"nextNonce","inputs":[{"name":"","type":"uint32","internalType":"uint32"},{"name":"","type":"bytes32","internalType":"bytes32"}],"outputs":[{"name":"nonce","type":"uint64","internalType":"uint64"}],"stateMutability":"view"},{"type":"function","name":"oApp","inputs":[],"outputs":[{"name":"","type":"address","internalType":"address"}],"stateMutability":"view"},{"type":"function","name":"oAppVersion","inputs":[],"outputs":[{"name":"senderVersion","type":"uint64","internalType":"uint64"},{"name":"receiverVersion","type":"uint64","internalType":"uint64"}],"stateMutability":"pure"},{"type":"function","name":"oftVersion","inputs":[],"outputs":[{"name":"interfaceId","type":"bytes4","internalType":"bytes4"},{"name":"version","type":"uint64","internalType":"uint64"}],"stateMutability":"pure"},{"type":"function","name":"owner","inputs":[],"outputs":[{"name":"","type":"address","internalType":"address"}],"stateMutability":"view"},{"type":"function","name":"peers","inputs":[{"name":"eid","type":"uint32","internalType":"uint32"}],"outputs":[{"name":"peer","type":"bytes32","internalType":"bytes32"}],"stateMutability":"view"},{"type":"function","name":"preCrime","inputs":[],"outputs":[{"name":"","type":"address","internalType":"address"}],"stateMutability":"view"},{"type":"function","name":"quoteOFT","inputs":[{"name":"_sendParam","type":"tuple","internalType":"struct SendParam","components":[{"name":"dstEid","type":"uint32","internalType":"uint32"},{"name":"to","type":"bytes32","internalType":"bytes32"},{"name":"amountLD","type":"uint256","internalType":"uint256"},{"name":"minAmountLD","type":"uint256","internalType":"uint256"},{"name":"extraOptions","type":"bytes","internalType":"bytes"},{"name":"composeMsg","type":"bytes","internalType":"bytes"},{"name":"oftCmd","type":"bytes","internalType":"bytes"}]}],"outputs":[{"name":"oftLimit","type":"tuple","internalType":"struct OFTLimit","components":[{"name":"minAmountLD","type":"uint256","internalType":"uint256"},{"name":"maxAmountLD","type":"uint256","internalType":"uint256"}]},{"name":"oftFeeDetails","type":"tuple[]","internalType":"struct OFTFeeDetail[]","components":[{"name":"feeAmountLD","type":"int256","internalType":"int256"},{"name":"description","type":"string","internalType":"string"}]},{"name":"oftReceipt","type":"tuple","internalType":"struct OFTReceipt","components":[{"name":"amountSentLD","type":"uint256","internalType":"uint256"},{"name":"amountReceivedLD","type":"uint256","internalType":"uint256"}]}],"stateMutability":"view"},{"type":"function","name":"quoteSend","inputs":[{"name":"_sendParam","type":"tuple","internalType":"struct SendParam","components":[{"name":"dstEid","type":"uint32","internalType":"uint32"},{"name":"to","type":"bytes32","internalType":"bytes32"},{"name":"amountLD","type":"uint256","internalType":"uint256"},{"name":"minAmountLD","type":"uint256","internalType":"uint256"},{"name":"extraOptions","type":"bytes","internalType":"bytes"},{"name":"composeMsg","type":"bytes","internalType":"bytes"},{"name":"oftCmd","type":"bytes","internalType":"bytes"}]},{"name":"_payInLzToken","type":"bool","internalType":"bool"}],"outputs":[{"name":"msgFee","type":"tuple","internalType":"struct MessagingFee","components":[{"name":"nativeFee","type":"uint256","internalType":"uint256"},{"name":"lzTokenFee","type":"uint256","internalType":"uint256"}]}],"stateMutability":"view"},{"type":"function","name":"renounceOwnership","inputs":[],"outputs":[],"stateMutability":"nonpayable"},{"type":"function","name":"send","inputs":[{"name":"_sendParam","type":"tuple","internalType":"struct SendParam","components":[{"name":"dstEid","type":"uint32","internalType":"uint32"},{"name":"to","type":"bytes32","internalType":"bytes32"},{"name":"amountLD","type":"uint256","internalType":"uint256"},{"name":"minAmountLD","type":"uint256","internalType":"uint256"},{"name":"extraOptions","type":"bytes","internalType":"bytes"},{"name":"composeMsg","type":"bytes","internalType":"bytes"},{"name":"oftCmd","type":"bytes","internalType":"bytes"}]},{"name":"_fee","type":"tuple","internalType":"struct MessagingFee","components":[{"name":"nativeFee","type":"uint256","internalType":"uint256"},{"name":"lzTokenFee","type":"uint256","internalType":"uint256"}]},{"name":"_refundAddress","type":"address","internalType":"address"}],"outputs":[{"name":"msgReceipt","type":"tuple","internalType":"struct MessagingReceipt","components":[{"name":"guid","type":"bytes32","internalType":"bytes32"},{"name":"nonce","type":"uint64","internalType":"uint64"},{"name":"fee","type":"tuple","internalType":"struct MessagingFee","components":[{"name":"nativeFee","type":"uint256","internalType":"uint256"},{"name":"lzTokenFee","type":"uint256","internalType":"uint256"}]}]},{"name":"oftReceipt","type":"tuple","internalType":"struct OFTReceipt","components":[{"name":"amountSentLD","type":"uint256","internalType":"uint256"},{"name":"amountReceivedLD","type":"uint256","internalType":"uint256"}]}],"stateMutability":"payable"},{"type":"function","name":"setDelegate","inputs":[{"name":"_delegate","type":"address","internalType":"address"}],"outputs":[],"stateMutability":"nonpayable"},{"type":"function","name":"setEnforcedOptions","inputs":[{"name":"_enforcedOptions","type":"tuple[]","internalType":"struct EnforcedOptionParam[]","components":[{"name":"eid","type":"uint32","internalType":"uint32"},{"name":"msgType","type":"uint16","internalType":"uint16"},{"name":"options","type":"bytes","internalType":"bytes"}]}],"outputs":[],"stateMutability":"nonpayable"},{"type":"function","name":"setMsgInspector","inputs":[{"name":"_msgInspector","type":"address","internalType":"address"}],"outputs":[],"stateMutability":"nonpayable"},{"type":"function","name":"setPeer","inputs":[{"name":"_eid","type":"uint32","internalType":"uint32"},{"name":"_peer","type":"bytes32","internalType":"bytes32"}],"outputs":[],"stateMutability":"nonpayable"},{"type":"function","name":"setPreCrime","inputs":[{"name":"_preCrime","type":"address","internalType":"address"}],"outputs":[],"stateMutability":"nonpayable"},{"type":"function","name":"sharedDecimals","inputs":[],"outputs":[{"name":"","type":"uint8","internalType":"uint8"}],"stateMutability":"view"},{"type":"function","name":"symbol","inputs":[],"outputs":[{"name":"","type":"string","internalType":"string"}],"stateMutability":"view"},{"type":"function","name":"token","inputs":[],"outputs":[{"name":"","type":"address","internalType":"address"}],"stateMutability":"view"},{"type":"function","name":"totalSupply","inputs":[],"outputs":[{"name":"","type":"uint256","internalType":"uint256"}],"stateMutability":"view"},{"type":"function","name":"transfer","inputs":[{"name":"to","type":"address","internalType":"address"},{"name":"value","type":"uint256","internalType":"uint256"}],"outputs":[{"name":"","type":"bool","internalType":"bool"}],"stateMutability":"nonpayable"},{"type":"function","name":"transferFrom","inputs":[{"name":"from","type":"address","internalType":"address"},{"name":"to","type":"address","internalType":"address"},{"name":"value","type":"uint256","internalType":"uint256"}],"outputs":[{"name":"","type":"bool","internalType":"bool"}],"stateMutability":"nonpayable"},{"type":"function","name":"transferOwnership","inputs":[{"name":"newOwner","type":"address","internalType":"address"}],"outputs":[],"stateMutability":"nonpayable"},{"type":"event","name":"Approval","inputs":[{"name":"owner","type":"address","indexed":true,"internalType":"address"},{"name":"spender","type":"address","indexed":true,"internalType":"address"},{"name":"value","type":"uint256","indexed":false,"internalType":"uint256"}],"anonymous":false},{"type":"event","name":"EnforcedOptionSet","inputs":[{"name":"_enforcedOptions","type":"tuple[]","indexed":false,"internalType":"struct EnforcedOptionParam[]","components":[{"name":"eid","type":"uint32","internalType":"uint32"},{"name":"msgType","type":"uint16","internalType":"uint16"},{"name":"options","type":"bytes","internalType":"bytes"}]}],"anonymous":false},{"type":"event","name":"MsgInspectorSet","inputs":[{"name":"inspector","type":"address","indexed":false,"internalType":"address"}],"anonymous":false},{"type":"event","name":"OFTReceived","inputs":[{"name":"guid","type":"bytes32","indexed":true,"internalType":"bytes32"},{"name":"srcEid","type":"uint32","indexed":false,"internalType":"uint32"},{"name":"toAddress","type":"address","indexed":true,"internalType":"address"},{"name":"amountReceivedLD","type":"uint256","indexed":false,"internalType":"uint256"}],"anonymous":false},{"type":"event","name":"OFTSent","inputs":[{"name":"guid","type":"bytes32","indexed":true,"internalType":"bytes32"},{"name":"dstEid","type":"uint32","indexed":false,"internalType":"uint32"},{"name":"fromAddress","type":"address","indexed":true,"internalType":"address"},{"name":"amountSentLD","type":"uint256","indexed":false,"internalType":"uint256"},{"name":"amountReceivedLD","type":"uint256","indexed":false,"internalType":"uint256"}],"anonymous":false},{"type":"event","name":"OwnershipTransferred","inputs":[{"name":"previousOwner","type":"address","indexed":true,"internalType":"address"},{"name":"newOwner","type":"address","indexed":true,"internalType":"address"}],"anonymous":false},{"type":"event","name":"PeerSet","inputs":[{"name":"eid","type":"uint32","indexed":false,"internalType":"uint32"},{"name":"peer","type":"bytes32","indexed":false,"internalType":"bytes32"}],"anonymous":false},{"type":"event","name":"PreCrimeSet","inputs":[{"name":"preCrimeAddress","type":"address","indexed":false,"internalType":"address"}],"anonymous":false},{"type":"event","name":"Transfer","inputs":[{"name":"from","type":"address","indexed":true,"internalType":"address"},{"name":"to","type":"address","indexed":true,"internalType":"address"},{"name":"value","type":"uint256","indexed":false,"internalType":"uint256"}],"anonymous":false},{"type":"error","name":"ERC20InsufficientAllowance","inputs":[{"name":"spender","type":"address","internalType":"address"},{"name":"allowance","type":"uint256","internalType":"uint256"},{"name":"needed","type":"uint256","internalType":"uint256"}]},{"type":"error","name":"ERC20InsufficientBalance","inputs":[{"name":"sender","type":"address","internalType":"address"},{"name":"balance","type":"uint256","internalType":"uint256"},{"name":"needed","type":"uint256","internalType":"uint256"}]},{"type":"error","name":"ERC20InvalidApprover","inputs":[{"name":"approver","type":"address","internalType":"address"}]},{"type":"error","name":"ERC20InvalidReceiver","inputs":[{"name":"receiver","type":"address","internalType":"address"}]},{"type":"error","name":"ERC20InvalidSender","inputs":[{"name":"sender","type":"address","internalType":"address"}]},{"type":"error","name":"ERC20InvalidSpender","inputs":[{"name":"spender","type":"address","internalType":"address"}]},{"type":"error","name":"InvalidDelegate","inputs":[]},{"type":"error","name":"InvalidEndpointCall","inputs":[]},{"type":"error","name":"InvalidLocalDecimals","inputs":[]},{"type":"error","name":"InvalidOptions","inputs":[{"name":"options","type":"bytes","internalType":"bytes"}]},{"type":"error","name":"LzTokenUnavailable","inputs":[]},{"type":"error","name":"NoPeer","inputs":[{"name":"eid","type":"uint32","internalType":"uint32"}]},{"type":"error","name":"NotEnoughNative","inputs":[{"name":"msgValue","type":"uint256","internalType":"uint256"}]},{"type":"error","name":"OnlyEndpoint","inputs":[{"name":"addr","type":"address","internalType":"address"}]},{"type":"error","name":"OnlyPeer","inputs":[{"name":"eid","type":"uint32","internalType":"uint32"},{"name":"sender","type":"bytes32","internalType":"bytes32"}]},{"type":"error","name":"OnlySelf","inputs":[]},{"type":"error","name":"OwnableInvalidOwner","inputs":[{"name":"owner","type":"address","internalType":"address"}]},{"type":"error","name":"OwnableUnauthorizedAccount","inputs":[{"name":"account","type":"address","internalType":"address"}]},{"type":"error","name":"SafeERC20FailedOperation","inputs":[{"name":"token","type":"address","internalType":"address"}]},{"type":"error","name":"SimulationResult","inputs":[{"name":"result","type":"bytes","internalType":"bytes"}]},{"type":"error","name":"SlippageExceeded","inputs":[{"name":"amountLD","type":"uint256","internalType":"uint256"},{"name":"minAmountLD","type":"uint256","internalType":"uint256"}]}],"bytecode":{"object":"0x60c06040523480156200001157600080fd5b50604051620036a8380380620036a88339810160408190526200003491620002d2565b83838383838360128484818181818d6001600160a01b0381166200007257604051631e4fbdf760e01b81526000600482015260240160405180910390fd5b6200007d8162000198565b506001600160a01b038083166080528116620000ac57604051632d618d8160e21b815260040160405180910390fd5b60805160405163ca5eb5e160e01b81526001600160a01b0383811660048301529091169063ca5eb5e190602401600060405180830381600087803b158015620000f457600080fd5b505af115801562000109573d6000803e3d6000fd5b505050505050505062000121620001e860201b60201c565b60ff168360ff16101562000148576040516301e9714b60e41b815260040160405180910390fd5b6200015560068462000377565b6200016290600a62000496565b60a052506008915062000178905083826200053f565b5060096200018782826200053f565b50505050505050505050506200060b565b600080546001600160a01b038381166001600160a01b0319831681178455604051919092169283917f8be0079c531659141344cd1fd0a4f28419497f9722a3daafe3b4186f6b6457e09190a35050565b600690565b634e487b7160e01b600052604160045260246000fd5b600082601f8301126200021557600080fd5b81516001600160401b0380821115620002325762000232620001ed565b604051601f8301601f19908116603f011681019082821181831017156200025d576200025d620001ed565b81604052838152602092508660208588010111156200027b57600080fd5b600091505b838210156200029f578582018301518183018401529082019062000280565b6000602085830101528094505050505092915050565b80516001600160a01b0381168114620002cd57600080fd5b919050565b60008060008060808587031215620002e957600080fd5b84516001600160401b03808211156200030157600080fd5b6200030f8883890162000203565b955060208701519150808211156200032657600080fd5b50620003358782880162000203565b9350506200034660408601620002b5565b91506200035660608601620002b5565b905092959194509250565b634e487b7160e01b600052601160045260246000fd5b60ff828116828216039081111562000393576200039362000361565b92915050565b600181815b80851115620003da578160001904821115620003be57620003be62000361565b80851615620003cc57918102915b93841c93908002906200039e565b509250929050565b600082620003f35750600162000393565b81620004025750600062000393565b81600181146200041b5760028114620004265762000446565b600191505062000393565b60ff8411156200043a576200043a62000361565b50506001821b62000393565b5060208310610133831016604e8410600b84101617156200046b575081810a62000393565b62000477838362000399565b80600019048211156200048e576200048e62000361565b029392505050565b6000620004a760ff841683620003e2565b9392505050565b600181811c90821680620004c357607f821691505b602082108103620004e457634e487b7160e01b600052602260045260246000fd5b50919050565b601f8211156200053a576000816000526020600020601f850160051c81016020861015620005155750805b601f850160051c820191505b81811015620005365782815560010162000521565b5050505b505050565b81516001600160401b038111156200055b576200055b620001ed565b62000573816200056c8454620004ae565b84620004ea565b602080601f831160018114620005ab5760008415620005925750858301515b600019600386901b1c1916600185901b17855562000536565b600085815260208120601f198616915b82811015620005dc57888601518255948401946001909101908401620005bb565b5085821015620005fb5787850151600019600388901b60f8161c191681555b5050505050600190811b01905550565b60805160a051613031620006776000396000818161064901528181611a5401528181611ac90152611ccd015260008181610508015281816109b80152818161101a01528181611291015281816115fc01528181611dc501528181611eff0152611fb601526130316000f3fe60806040526004361061025c5760003560e01c8063715018a611610144578063bb0b6a53116100b6578063d045a0dc1161007a578063d045a0dc14610780578063d424388514610793578063dd62ed3e146107b3578063f2fde38b146107f9578063fc0c546a1461048c578063ff7bd03d1461081957600080fd5b8063bb0b6a53146106df578063bc70b3541461070c578063bd815db01461072c578063c7c7f5b31461073f578063ca5eb5e11461076057600080fd5b806395d89b411161010857806395d89b4114610622578063963efcaa146106375780639f68b9641461066b578063a9059cbb1461067f578063b731ea0a1461069f578063b98bd070146106bf57600080fd5b8063715018a6146105805780637d25a05e1461059557806382413eac146105d0578063857749b0146105f05780638da5cb5b1461060457600080fd5b806323b872dd116101dd57806352ae2879116101a157806352ae28791461048c5780635535d4611461049f5780635a0dfe4d146104bf5780635e280f11146104f65780636fc1b31e1461052a57806370a082311461054a57600080fd5b806323b872dd146103dd578063313ce567146103fd5780633400288b1461041f5780633b6f743b1461043f57806340c10f191461046c57600080fd5b8063134d4f2511610224578063134d4f2514610338578063156a0d0f1461036057806317442b701461038757806318160ddd146103a95780631f5e1334146103c857600080fd5b806306fdde0314610261578063095ea7b31461028c5780630d35b415146102bc578063111ecdad146102eb57806313137d6514610323575b600080fd5b34801561026d57600080fd5b50610276610839565b604051610283919061212e565b60405180910390f35b34801561029857600080fd5b506102ac6102a7366004612156565b6108cb565b6040519015158152602001610283565b3480156102c857600080fd5b506102dc6102d736600461219a565b6108e5565b604051610283939291906121ce565b3480156102f757600080fd5b5060045461030b906001600160a01b031681565b6040516001600160a01b039091168152602001610283565b6103366103313660046122c1565b6109b6565b005b34801561034457600080fd5b5061034d600281565b60405161ffff9091168152602001610283565b34801561036c57600080fd5b506040805162b9270b60e21b81526001602082015201610283565b34801561039357600080fd5b5060408051600181526002602082015201610283565b3480156103b557600080fd5b506007545b604051908152602001610283565b3480156103d457600080fd5b5061034d600181565b3480156103e957600080fd5b506102ac6103f8366004612360565b610a76565b34801561040957600080fd5b5060125b60405160ff9091168152602001610283565b34801561042b57600080fd5b5061033661043a3660046123ba565b610a9c565b34801561044b57600080fd5b5061045f61045a3660046123e4565b610ab2565b6040516102839190612435565b34801561047857600080fd5b50610336610487366004612156565b610b19565b34801561049857600080fd5b503061030b565b3480156104ab57600080fd5b506102766104ba36600461245e565b610b2b565b3480156104cb57600080fd5b506102ac6104da3660046123ba565b63ffffffff919091166000908152600160205260409020541490565b34801561050257600080fd5b5061030b7f000000000000000000000000000000000000000000000000000000000000000081565b34801561053657600080fd5b50610336610545366004612491565b610bd0565b34801561055657600080fd5b506103ba610565366004612491565b6001600160a01b031660009081526005602052604090205490565b34801561058c57600080fd5b50610336610c2d565b3480156105a157600080fd5b506105b86105b03660046123ba565b600092915050565b6040516001600160401b039091168152602001610283565b3480156105dc57600080fd5b506102ac6105eb3660046124ae565b610c41565b3480156105fc57600080fd5b50600661040d565b34801561061057600080fd5b506000546001600160a01b031661030b565b34801561062e57600080fd5b50610276610c56565b34801561064357600080fd5b506103ba7f000000000000000000000000000000000000000000000000000000000000000081565b34801561067757600080fd5b5060006102ac565b34801561068b57600080fd5b506102ac61069a366004612156565b610c65565b3480156106ab57600080fd5b5060025461030b906001600160a01b031681565b3480156106cb57600080fd5b506103366106da366004612558565b610c73565b3480156106eb57600080fd5b506103ba6106fa366004612599565b60016020526000908152604090205481565b34801561071857600080fd5b506102766107273660046125b4565b610c8d565b61033661073a366004612558565b610e35565b61075261074d366004612614565b610fbf565b604051610283929190612681565b34801561076c57600080fd5b5061033661077b366004612491565b610ff3565b61033661078e3660046122c1565b611079565b34801561079f57600080fd5b506103366107ae366004612491565b6110a8565b3480156107bf57600080fd5b506103ba6107ce3660046126d3565b6001600160a01b03918216600090815260066020908152604080832093909416825291909152205490565b34801561080557600080fd5b50610336610814366004612491565b6110fe565b34801561082557600080fd5b506102ac610834366004612701565b61113c565b6060600880546108489061271d565b80601f01602080910402602001604051908101604052809291908181526020018280546108749061271d565b80156108c15780601f10610896576101008083540402835291602001916108c1565b820191906000526020600020905b8154815290600101906020018083116108a457829003601f168201915b5050505050905090565b6000336108d9818585611172565b60019150505b92915050565b60408051808201909152600080825260208201526060610918604051806040016040528060008152602001600081525090565b60408051808201825260008082526001600160401b03602080840182905284518381529081019094529195509182610973565b60408051808201909152600081526060602082015281526020019060019003908161094b5790505b509350600080610998604089013560608a013561099360208c018c612599565b611184565b60408051808201909152918252602082015296989597505050505050565b7f00000000000000000000000000000000000000000000000000000000000000006001600160a01b03163314610a06576040516391ac5e4f60e01b81523360048201526024015b60405180910390fd5b60208701803590610a2090610a1b908a612599565b6111c0565b14610a5e57610a326020880188612599565b60405163309afaf360e21b815263ffffffff9091166004820152602088013560248201526044016109fd565b610a6d878787878787876111fc565b50505050505050565b600033610a84858285611363565b610a8f8585856113e2565b60019150505b9392505050565b610aa4611441565b610aae828261146e565b5050565b60408051808201909152600080825260208201526000610ae2604085013560608601356109936020880188612599565b915050600080610af286846114c3565b9092509050610b0f610b076020880188612599565b8383886115e6565b9695505050505050565b610b21611441565b610aae82826116c7565b600360209081526000928352604080842090915290825290208054610b4f9061271d565b80601f0160208091040260200160405190810160405280929190818152602001828054610b7b9061271d565b8015610bc85780601f10610b9d57610100808354040283529160200191610bc8565b820191906000526020600020905b815481529060010190602001808311610bab57829003601f168201915b505050505081565b610bd8611441565b600480546001600160a01b0319166001600160a01b0383169081179091556040519081527ff0be4f1e87349231d80c36b33f9e8639658eeaf474014dee15a3e6a4d4414197906020015b60405180910390a150565b610c35611441565b610c3f60006116fd565b565b6001600160a01b03811630145b949350505050565b6060600980546108489061271d565b6000336108d98185856113e2565b610c7b611441565b610aae610c888284612808565b61174d565b63ffffffff8416600090815260036020908152604080832061ffff87168452909152812080546060929190610cc19061271d565b80601f0160208091040260200160405190810160405280929190818152602001828054610ced9061271d565b8015610d3a5780601f10610d0f57610100808354040283529160200191610d3a565b820191906000526020600020905b815481529060010190602001808311610d1d57829003601f168201915b505050505090508051600003610d8a5783838080601f016020809104026020016040519081016040528093929190818152602001838380828437600092019190915250929450610c4e9350505050565b6000839003610d9a579050610c4e565b60028310610e1857610de184848080601f01602080910402602001604051908101604052809392919081815260200183838082843760009201919091525061185492505050565b80610def846002818861291d565b604051602001610e0193929190612947565b604051602081830303815290604052915050610c4e565b8383604051639a6d49cd60e01b81526004016109fd929190612998565b60005b81811015610f3e5736838383818110610e5357610e536129ac565b9050602002810190610e6591906129c2565b9050610e98610e776020830183612599565b602083013563ffffffff919091166000908152600160205260409020541490565b610ea25750610f36565b3063d045a0dc60c08301358360a0810135610ec16101008301836129e3565b610ed2610100890160e08a01612491565b610ee06101208a018a6129e3565b6040518963ffffffff1660e01b8152600401610f029796959493929190612a3e565b6000604051808303818588803b158015610f1b57600080fd5b505af1158015610f2f573d6000803e3d6000fd5b5050505050505b600101610e38565b50336001600160a01b0316638e9e70996040518163ffffffff1660e01b8152600401600060405180830381865afa158015610f7d573d6000803e3d6000fd5b505050506040513d6000823e601f3d908101601f19168201604052610fa59190810190612ac4565b604051638351eea760e01b81526004016109fd919061212e565b610fc7612097565b6040805180820190915260008082526020820152610fe6858585611880565b915091505b935093915050565b610ffb611441565b60405163ca5eb5e160e01b81526001600160a01b0382811660048301527f0000000000000000000000000000000000000000000000000000000000000000169063ca5eb5e190602401600060405180830381600087803b15801561105e57600080fd5b505af1158015611072573d6000803e3d6000fd5b5050505050565b3330146110995760405163029a949d60e31b815260040160405180910390fd5b610a6d87878787878787610a5e565b6110b0611441565b600280546001600160a01b0319166001600160a01b0383169081179091556040519081527fd48d879cef83a1c0bdda516f27b13ddb1b3f8bbac1c9e1511bb2a659c242776090602001610c22565b611106611441565b6001600160a01b03811661113057604051631e4fbdf760e01b8152600060048201526024016109fd565b611139816116fd565b50565b60006020820180359060019083906111549086612599565b63ffffffff1681526020810191909152604001600020541492915050565b61117f838383600161197b565b505050565b60008061119085611a50565b915081905083811015610feb576040516371c4efed60e01b815260048101829052602481018590526044016109fd565b63ffffffff8116600090815260016020526040812054806108df5760405163f6ff4fb760e01b815263ffffffff841660048201526024016109fd565b600061120e61120b8787611a87565b90565b9050600061123a826112286112238a8a611a9f565b611ac2565b61123560208d018d612599565b611af7565b9050602886111561130157600061127761125a60608c0160408d01612b31565b61126760208d018d612599565b846112728c8c611b1f565b611b6a565b604051633e5ac80960e11b81529091506001600160a01b037f00000000000000000000000000000000000000000000000000000000000000001690637cb59012906112cd9086908d906000908790600401612b4e565b600060405180830381600087803b1580156112e757600080fd5b505af11580156112fb573d6000803e3d6000fd5b50505050505b6001600160a01b038216887fefed6d3500546b29533b128a29e3a94d70788727f0507505ac12eaf2e578fd9c61133a60208d018d612599565b6040805163ffffffff9092168252602082018690520160405180910390a3505050505050505050565b6001600160a01b038381166000908152600660209081526040808320938616835292905220546000198110156113dc57818110156113cd57604051637dc7a0d960e11b81526001600160a01b038416600482015260248101829052604481018390526064016109fd565b6113dc8484848403600061197b565b50505050565b6001600160a01b03831661140c57604051634b637e8f60e11b8152600060048201526024016109fd565b6001600160a01b0382166114365760405163ec442f0560e01b8152600060048201526024016109fd565b61117f838383611b9c565b6000546001600160a01b03163314610c3f5760405163118cdaa760e01b81523360048201526024016109fd565b63ffffffff8216600081815260016020908152604091829020849055815192835282018390527f238399d427b947898edb290f5ff0f9109849b1c3ba196a42e35f00c50a54b98b910160405180910390a15050565b606080600061152085602001356114d986611cc6565b6114e660a08901896129e3565b8080601f016020809104026020016040519081016040528093929190818152602001838380828437600092019190915250611cf292505050565b9093509050600081611533576001611536565b60025b90506115566115486020880188612599565b8261072760808a018a6129e3565b6004549093506001600160a01b031680156115dc5760405163043a78eb60e01b81526001600160a01b0382169063043a78eb906115999088908890600401612b7f565b602060405180830381865afa1580156115b6573d6000803e3d6000fd5b505050506040513d601f19601f820116820180604052508101906115da9190612ba4565b505b5050509250929050565b60408051808201909152600080825260208201527f00000000000000000000000000000000000000000000000000000000000000006001600160a01b031663ddc28c586040518060a001604052808863ffffffff168152602001611649896111c0565b8152602001878152602001868152602001851515815250306040518363ffffffff1660e01b815260040161167e929190612bc1565b6040805180830381865afa15801561169a573d6000803e3d6000fd5b505050506040513d601f19601f820116820180604052508101906116be9190612c6a565b95945050505050565b6001600160a01b0382166116f15760405163ec442f0560e01b8152600060048201526024016109fd565b610aae60008383611b9c565b600080546001600160a01b038381166001600160a01b0319831681178455604051919092169283917f8be0079c531659141344cd1fd0a4f28419497f9722a3daafe3b4186f6b6457e09190a35050565b60005b81518110156118245761177f82828151811061176e5761176e6129ac565b602002602001015160400151611854565b818181518110611791576117916129ac565b602002602001015160400151600360008484815181106117b3576117b36129ac565b60200260200101516000015163ffffffff1663ffffffff16815260200190815260200160002060008484815181106117ed576117ed6129ac565b60200260200101516020015161ffff1661ffff168152602001908152602001600020908161181b9190612cd6565b50600101611750565b507fbe4864a8e820971c0247f5992e2da559595f7bf076a21cb5928d443d2a13b67481604051610c229190612d95565b600281015161ffff8116600314610aae5781604051639a6d49cd60e01b81526004016109fd919061212e565b611888612097565b60408051808201909152600080825260208201526000806118bf33604089013560608a01356118ba60208c018c612599565b611d6c565b915091506000806118d089846114c3565b90925090506118fc6118e560208b018b612599565b83836118f6368d90038d018d612e20565b8b611d92565b60408051808201909152858152602080820186905282519298509096503391907f85496b760a4b7f8d66384b9df21b381f5d1b1e79f229a47aaf4c232edc2fe59a9061194a908d018d612599565b6040805163ffffffff909216825260208201899052810187905260600160405180910390a350505050935093915050565b6001600160a01b0384166119a55760405163e602df0560e01b8152600060048201526024016109fd565b6001600160a01b0383166119cf57604051634a1406b160e11b8152600060048201526024016109fd565b6001600160a01b03808516600090815260066020908152604080832093871683529290522082905580156113dc57826001600160a01b0316846001600160a01b03167f8c5be1e5ebec7d5bd14f71427d1e84f3dd0314c0f7b2291e5b200ac8c7c3b92584604051611a4291815260200190565b60405180910390a350505050565b60007f0000000000000000000000000000000000000000000000000000000000000000611a7d8184612e68565b6108df9190612e8a565b6000611a96602082848661291d565b610a9591612ea1565b6000611aaf60286020848661291d565b611ab891612ebf565b60c01c9392505050565b60006108df7f00000000000000000000000000000000000000000000000000000000000000006001600160401b038416612e8a565b60006001600160a01b038416611b0d5761dead93505b611b1784846116c7565b509092915050565b6060611b2e826028818661291d565b8080601f016020809104026020016040519081016040528093929190818152602001838380828437600092019190915250929695505050505050565b606084848484604051602001611b839493929190612eef565b6040516020818303038152906040529050949350505050565b6001600160a01b038316611bc7578060076000828254611bbc9190612f3e565b90915550611c399050565b6001600160a01b03831660009081526005602052604090205481811015611c1a5760405163391434e360e21b81526001600160a01b038516600482015260248101829052604481018390526064016109fd565b6001600160a01b03841660009081526005602052604090209082900390555b6001600160a01b038216611c5557600780548290039055611c74565b6001600160a01b03821660009081526005602052604090208054820190555b816001600160a01b0316836001600160a01b03167fddf252ad1be2c89b69c2b068fc378daa952ba7f163c4a11628f55a4df523b3ef83604051611cb991815260200190565b60405180910390a3505050565b60006108df7f000000000000000000000000000000000000000000000000000000000000000083612e68565b8051606090151580611d3b578484604051602001611d2792919091825260c01b6001600160c01b031916602082015260280190565b604051602081830303815290604052611d62565b84843385604051602001611d529493929190612f51565b6040516020818303038152906040525b9150935093915050565b600080611d7a858585611184565b9092509050611d898683611e9d565b94509492505050565b611d9a612097565b6000611da98460000151611ed3565b602085015190915015611dc357611dc38460200151611efb565b7f00000000000000000000000000000000000000000000000000000000000000006001600160a01b0316632637a450826040518060a001604052808b63ffffffff168152602001611e138c6111c0565b81526020018a815260200189815260200160008960200151111515815250866040518463ffffffff1660e01b8152600401611e4f929190612bc1565b60806040518083038185885af1158015611e6d573d6000803e3d6000fd5b50505050506040513d601f19601f82011682018060405250810190611e929190612f94565b979650505050505050565b6001600160a01b038216611ec757604051634b637e8f60e11b8152600060048201526024016109fd565b610aae82600083611b9c565b6000813414611ef7576040516304fb820960e51b81523460048201526024016109fd565b5090565b60007f00000000000000000000000000000000000000000000000000000000000000006001600160a01b031663e4fe1d946040518163ffffffff1660e01b8152600401602060405180830381865afa158015611f5b573d6000803e3d6000fd5b505050506040513d601f19601f82011682018060405250810190611f7f9190612fde565b90506001600160a01b038116611fa8576040516329b99a9560e11b815260040160405180910390fd5b6040805133602482018190527f00000000000000000000000000000000000000000000000000000000000000006001600160a01b0381811660448501526064808501889052855180860390910181526084909401909452602080840180516001600160e01b03166323b872dd60e01b1781528451610aae9688169589936113dc93889360009283929091839182885af180612049576040513d6000823e3d81fd5b50506000513d9150811561206157806001141561206e565b6001600160a01b0384163b155b156113dc57604051635274afe760e01b81526001600160a01b03851660048201526024016109fd565b60405180606001604052806000801916815260200160006001600160401b031681526020016120d9604051806040016040528060008152602001600081525090565b905290565b60005b838110156120f95781810151838201526020016120e1565b50506000910152565b6000815180845261211a8160208601602086016120de565b601f01601f19169290920160200192915050565b602081526000610a956020830184612102565b6001600160a01b038116811461113957600080fd5b6000806040838503121561216957600080fd5b823561217481612141565b946020939093013593505050565b600060e0828403121561219457600080fd5b50919050565b6000602082840312156121ac57600080fd5b81356001600160401b038111156121c257600080fd5b610c4e84828501612182565b8351815260208085015190820152600060a08201604060a0604085015281865180845260c08601915060c08160051b8701019350602080890160005b838110156122495788870360bf1901855281518051885283015183880187905261223687890182612102565b975050938201939082019060010161220a565b50508751606088015250505060208501516080850152509050610c4e565b60006060828403121561219457600080fd5b60008083601f84011261228b57600080fd5b5081356001600160401b038111156122a257600080fd5b6020830191508360208285010111156122ba57600080fd5b9250929050565b600080600080600080600060e0888a0312156122dc57600080fd5b6122e68989612267565b96506060880135955060808801356001600160401b038082111561230957600080fd5b6123158b838c01612279565b909750955060a08a0135915061232a82612141565b90935060c0890135908082111561234057600080fd5b5061234d8a828b01612279565b989b979a50959850939692959293505050565b60008060006060848603121561237557600080fd5b833561238081612141565b9250602084013561239081612141565b929592945050506040919091013590565b803563ffffffff811681146123b557600080fd5b919050565b600080604083850312156123cd57600080fd5b612174836123a1565b801515811461113957600080fd5b600080604083850312156123f757600080fd5b82356001600160401b0381111561240d57600080fd5b61241985828601612182565b925050602083013561242a816123d6565b809150509250929050565b8151815260208083015190820152604081016108df565b803561ffff811681146123b557600080fd5b6000806040838503121561247157600080fd5b61247a836123a1565b91506124886020840161244c565b90509250929050565b6000602082840312156124a357600080fd5b8135610a9581612141565b60008060008060a085870312156124c457600080fd5b6124ce8686612267565b935060608501356001600160401b038111156124e957600080fd5b6124f587828801612279565b909450925050608085013561250981612141565b939692955090935050565b60008083601f84011261252657600080fd5b5081356001600160401b0381111561253d57600080fd5b6020830191508360208260051b85010111156122ba57600080fd5b6000806020838503121561256b57600080fd5b82356001600160401b0381111561258157600080fd5b61258d85828601612514565b90969095509350505050565b6000602082840312156125ab57600080fd5b610a95826123a1565b600080600080606085870312156125ca57600080fd5b6125d3856123a1565b93506125e16020860161244c565b925060408501356001600160401b038111156125fc57600080fd5b61260887828801612279565b95989497509550505050565b6000806000838503608081121561262a57600080fd5b84356001600160401b0381111561264057600080fd5b61264c87828801612182565b9450506040601f198201121561266157600080fd5b50602084019150606084013561267681612141565b809150509250925092565b600060c082019050835182526001600160401b03602085015116602083015260408401516126bc604084018280518252602090810151910152565b5082516080830152602083015160a0830152610a95565b600080604083850312156126e657600080fd5b82356126f181612141565b9150602083013561242a81612141565b60006060828403121561271357600080fd5b610a958383612267565b600181811c9082168061273157607f821691505b60208210810361219457634e487b7160e01b600052602260045260246000fd5b634e487b7160e01b600052604160045260246000fd5b604051606081016001600160401b038111828210171561278957612789612751565b60405290565b604080519081016001600160401b038111828210171561278957612789612751565b604051601f8201601f191681016001600160401b03811182821017156127d9576127d9612751565b604052919050565b60006001600160401b038211156127fa576127fa612751565b50601f01601f191660200190565b60006001600160401b038084111561282257612822612751565b8360051b60206128338183016127b1565b86815291850191818101903684111561284b57600080fd5b865b84811015612911578035868111156128655760008081fd5b880160603682900312156128795760008081fd5b612881612767565b61288a826123a1565b815261289786830161244c565b86820152604080830135898111156128af5760008081fd5b929092019136601f8401126128c45760008081fd5b82356128d76128d2826127e1565b6127b1565b81815236898387010111156128ec5760008081fd5b818986018a83013760009181018901919091529082015284525091830191830161284d565b50979650505050505050565b6000808585111561292d57600080fd5b8386111561293a57600080fd5b5050820193919092039150565b600084516129598184602089016120de565b8201838582376000930192835250909392505050565b81835281816020850137506000828201602090810191909152601f909101601f19169091010190565b602081526000610c4e60208301848661296f565b634e487b7160e01b600052603260045260246000fd5b6000823561013e198336030181126129d957600080fd5b9190910192915050565b6000808335601e198436030181126129fa57600080fd5b8301803591506001600160401b03821115612a1457600080fd5b6020019150368190038213156122ba57600080fd5b6001600160401b038116811461113957600080fd5b63ffffffff612a4c896123a1565b1681526020880135602082015260006040890135612a6981612a29565b6001600160401b03811660408401525087606083015260e06080830152612a9460e08301878961296f565b6001600160a01b03861660a084015282810360c0840152612ab681858761296f565b9a9950505050505050505050565b600060208284031215612ad657600080fd5b81516001600160401b03811115612aec57600080fd5b8201601f81018413612afd57600080fd5b8051612b0b6128d2826127e1565b818152856020838501011115612b2057600080fd5b6116be8260208301602086016120de565b600060208284031215612b4357600080fd5b8135610a9581612a29565b60018060a01b038516815283602082015261ffff83166040820152608060608201526000610b0f6080830184612102565b604081526000612b926040830185612102565b82810360208401526116be8185612102565b600060208284031215612bb657600080fd5b8151610a95816123d6565b6040815263ffffffff8351166040820152602083015160608201526000604084015160a06080840152612bf760e0840182612102565b90506060850151603f198483030160a0850152612c148282612102565b60809690960151151560c08501525050506001600160a01b039190911660209091015290565b600060408284031215612c4c57600080fd5b612c5461278f565b9050815181526020820151602082015292915050565b600060408284031215612c7c57600080fd5b610a958383612c3a565b601f82111561117f576000816000526020600020601f850160051c81016020861015612caf5750805b601f850160051c820191505b81811015612cce57828155600101612cbb565b505050505050565b81516001600160401b03811115612cef57612cef612751565b612d0381612cfd845461271d565b84612c86565b602080601f831160018114612d385760008415612d205750858301515b600019600386901b1c1916600185901b178555612cce565b600085815260208120601f198616915b82811015612d6757888601518255948401946001909101908401612d48565b5085821015612d855787850151600019600388901b60f8161c191681555b5050505050600190811b01905550565b600060208083018184528085518083526040925060408601915060408160051b87010184880160005b83811015612e1257888303603f190185528151805163ffffffff1684528781015161ffff16888501528601516060878501819052612dfe81860183612102565b968901969450505090860190600101612dbe565b509098975050505050505050565b600060408284031215612e3257600080fd5b612e3a61278f565b82358152602083013560208201528091505092915050565b634e487b7160e01b600052601160045260246000fd5b600082612e8557634e487b7160e01b600052601260045260246000fd5b500490565b80820281158282048414176108df576108df612e52565b803560208310156108df57600019602084900360031b1b1692915050565b6001600160c01b03198135818116916008851015612ee75780818660080360031b1b83161692505b505092915050565b6001600160401b0360c01b8560c01b16815263ffffffff60e01b8460e01b16600882015282600c82015260008251612f2e81602c8501602087016120de565b91909101602c0195945050505050565b808201808211156108df576108df612e52565b8481526001600160401b0360c01b8460c01b16602082015282602882015260008251612f848160488501602087016120de565b9190910160480195945050505050565b600060808284031215612fa657600080fd5b612fae612767565b825181526020830151612fc081612a29565b6020820152612fd28460408501612c3a565b60408201529392505050565b600060208284031215612ff057600080fd5b8151610a958161214156fea264697066735822122032e79a8c74bc4dc3c4c4316ed2e8bc91c5fa647a5a42cad304aca443bcb7a74464736f6c63430008160033","linkReferences":{}},"methodIdentifiers":{"SEND()":"1f5e1334","SEND_AND_CALL()":"134d4f25","allowInitializePath((uint32,bytes32,uint64))":"ff7bd03d","allowance(address,address)":"dd62ed3e","approvalRequired()":"9f68b964","approve(address,uint256)":"095ea7b3","balanceOf(address)":"70a08231","combineOptions(uint32,uint16,bytes)":"bc70b354","decimalConversionRate()":"963efcaa","decimals()":"313ce567","endpoint()":"5e280f11","enforcedOptions(uint32,uint16)":"5535d461","isComposeMsgSender((uint32,bytes32,uint64),bytes,address)":"82413eac","isPeer(uint32,bytes32)":"5a0dfe4d","lzReceive((uint32,bytes32,uint64),bytes32,bytes,address,bytes)":"13137d65","lzReceiveAndRevert(((uint32,bytes32,uint64),uint32,address,bytes32,uint256,address,bytes,bytes)[])":"bd815db0","lzReceiveSimulate((uint32,bytes32,uint64),bytes32,bytes,address,bytes)":"d045a0dc","mint(address,uint256)":"40c10f19","msgInspector()":"111ecdad","name()":"06fdde03","nextNonce(uint32,bytes32)":"7d25a05e","oApp()":"52ae2879","oAppVersion()":"17442b70","oftVersion()":"156a0d0f","owner()":"8da5cb5b","peers(uint32)":"bb0b6a53","preCrime()":"b731ea0a","quoteOFT((uint32,bytes32,uint256,uint256,bytes,bytes,bytes))":"0d35b415","quoteSend((uint32,bytes32,uint256,uint256,bytes,bytes,bytes),bool)":"3b6f743b","renounceOwnership()":"715018a6","send((uint32,bytes32,uint256,uint256,bytes,bytes,bytes),(uint256,uint256),address)":"c7c7f5b3","setDelegate(address)":"ca5eb5e1","setEnforcedOptions((uint32,uint16,bytes)[])":"b98bd070","setMsgInspector(address)":"6fc1b31e","setPeer(uint32,bytes32)":"3400288b","setPreCrime(address)":"d4243885","sharedDecimals()":"857749b0","symbol()":"95d89b41","token()":"fc0c546a","totalSupply()":"18160ddd","transfer(address,uint256)":"a9059cbb","transferFrom(address,address,uint256)":"23b872dd","transferOwnership(address)":"f2fde38b"},"id":18}