{"abi":[{"type":"constructor","inputs":[{"name":"_decimals","type":"uint8","internalType":"uint8"},{"name":"initialPrice","type":"int256","internalType":"int256"}],"stateMutability":"nonpayable"},{"type":"function","name":"decimals","inputs":[],"outputs":[{"name":"","type":"uint8","internalType":"uint8"}],"stateMutability":"view"},{"type":"function","name":"latestRoundData","inputs":[],"outputs":[{"name":"roundId","type":"uint80","internalType":"uint80"},{"name":"answer","type":"int256","internalType":"int256"},{"name":"startedAt","type":"uint256","internalType":"uint256"},{"name":"updatedAt","type":"uint256","internalType":"uint256"},{"name":"answeredInRound","type":"uint80","internalType":"uint80"}],"stateMutability":"view"},{"type":"function","name":"setPrice","inputs":[{"name":"newPrice","type":"int256","internalType":"int256"}],"outputs":[],"stateMutability":"nonpayable"}],"bytecode":{"object":"0x608060405234801561001057600080fd5b5060405161018038038061018083398101604081905261002f9161004c565b6000805460ff191660ff9390931692909217909155600155610080565b6000806040838503121561005f57600080fd5b825160ff8116811461007057600080fd5b6020939093015192949293505050565b60f28061008e6000396000f3fe6080604052348015600f57600080fd5b5060043610603c5760003560e01c8063313ce567146041578063f7a30806146064578063feaf968c146076575b600080fd5b600054604d9060ff1681565b60405160ff90911681526020015b60405180910390f35b6074606f36600460a4565b600155565b005b60018054604080518381526020810192909252429082018190526060820152608081019190915260a001605b565b60006020828403121560b557600080fd5b503591905056fea26469706673582212209c258a6e8cd85295e82ff3a2f9fdf0f2dc0f01287624641a63cc88b043b18e6664736f6c63430008160033","linkReferences":{}},"methodIdentifiers":{"decimals()":"313ce567","latestRoundData()":"feaf968c","setPrice(int256)":"f7a30806"},"id":21}